:020000041000EA
:1000000000B5324B212058609868022188439860DF
:10001000D860186158612E4B002199600221596106
:100020000121F02299502B49196001219960352056
:1000300000F044F80222904214D00621196600F024
:1000400034F8196E01211966002018661A6600F04E
:100050002CF8196E196E196E052000F02FF8012189
:100060000842F9D1002199601B49196000215960AB
:100070001A491B48016001219960EB211966A021F2
:10008000196600F012F800219960164914480160C1
:100090000121996001BC002800D000471248134993
:1000A000086003C880F30888084703B5996A0420EC
:1000B0000142FBD001200142F8D103BD02B5186610
:1000C0001866FFF7F2FF186E186E02BD00000240BE
:1000D000000000180000070000035F00212200005C
:1000E000F4000018222000A00001001008ED00E03C
:1000F00000000000000000000000000074B24E7A12
:1001000000200420F7010010C3010010C5010010F9
:10011000C1010010C1010010C1010010C101001097
:10012000C1010010C1010010C1010010C701001081
:10013000C1010010C1010010C9010010CB01001065
:10014000CD010010CD010010CD010010CD01001037
:10015000CD010010CD010010CD010010CD01001027
:10016000CD010010CD010010CD010010CD01001017
:10017000CD010010CD010010CD010010CD01001007
:10018000CD010010CD010010CD010010CD010010F7
:10019000CD010010CD010010CD010010CD010010E7
:1001A000CD010010CD010010CD010010CD010010D7
:1001B000CD010010CD010010CD010010CD010010C7
:1001C00000BE00BE00BE00BE00BE00BEEFF3058054
:1001D000103800BEF2EB8871D4E90010F4E9001089
:1001E0003802001090A31AE71E481F49086006C88D
:1001F00081F3088810471D480068002801D019487D
:10020000F3E70DA40ECC002902D000F012F8F9E7B4
:100210001749184A002000E001C19142FCD116495B
:100220008847164988471649884700BEFDE701C937
:1002300001C29A42FBD37047F4E90010C0000020CD
:10024000281600205CFF001000000420000004209D
:100250005CFF0010001004200010042000000000CB
:10026000704700000000000008ED00E0000000D032
:1002700028160020305702205D750010410A00103A
:1002800055750010F8B5C04606480749091A8B1085
:10029000C90FC91810B5491003D0044B002B00D06A
:1002A000984710BD281600202816002000000000E6
:1002B000054B10B5002B03D00449054800E000BFF2
:1002C000FFF7E2FF10BDC046000000000C31002027
:1002D00024DC0010F0B583B00BF0A2FED024019016
:1002E000142101A80CF060F800272023240662687E
:1002F00020251C4E1340022F0DD180221206944659
:100300009B066344142101A89F0F0CF04DF863680D
:100310002B40022FF1D0002B11D1142101A80CF099
:1003200043F8636801222B4009D1022A0ED0142120
:1003300001A80CF039F8636802222B40F5D0142193
:1003400001A80CF031F863682B40E4E7002200219B
:1003500030680AF029FF142101A80CF025F8636821
:100360002B40CAE7E82C002030B585B00BF058FED2
:1003700001236A46134D144C01901372192101A8F0
:100380000CF012F8E0222368D20113400F4A1360E8
:1003900004220F4B1A60FC3223681342FCD06068C1
:1003A00080B205F007FB0B4905F0FDFA0A4905F09C
:1003B000E6FA002303900022286802A90AF0F4FE5E
:1003C000DCE7C046DC2C002000C0044000D0044024
:1003D00000E0044000007A4300F07F4530B585B06E
:1003E0000BF01EFE02236A46194D1A4C019013723F
:1003F000FA2101A849000BF0D7FF80232268DB0116
:100400005340E022D2011340134A13600422134BDD
:100410001A60FC3223681342FCD060680004000CB0
:1004200005F0CEFA0E4905F0BEFA0E4905F0A1FA24
:100430000D4905F0A4FA011C0C4805F09AFA0023B6
:1004400003900022286802A90AF0AEFED0E7C04659
:10045000DC2C002000C0044000D0044000E0044038
:100460003333533A6ABC343F2D93E13A0000D8410C
:1004700070B582B00BF0D4FD0190642101A80BF09F
:1004800093FF8023244A5B0111684B40E021C9019E
:100490000B4022490B600421214B1960FC31136889
:1004A0000B42FCD0506880B205F084FA1D4905F07B
:1004B00066FA1D4905F077FA041C00F0C1FDFA2127
:1004C000201C890505F06FFA05F09CFA051E1ADD5F
:1004D000461E042E00DD04260024200032230022C4
:1004E0000021013400F0A0FDB442F6DDA5420ADD92
:1004F00000230E2C0ADD00223221200000F094FDA2
:100500000134A542F4D100F0E1FDB6E7322200212A
:10051000200000F089FDF3E700C0044000D0044053
:1005200000E0044000F07F450000C842F8B5D02448
:1005300001260B4F0B4D24060121386849420BF070
:10054000E1F92B787340DBB22B702B78002B03D0B2
:1005500080231B016361EFE780231B01A361EBE7AD
:10056000E82C00202A570220F0B5C646144B8027FD
:10057000984600B5BF0343460121D026186849427A
:100580000BF0C0F90A25360600247761200000230D
:100590006422C821013400F047FD192CF6D100F087
:1005A00095FD64200BF05EFFB76100F049FD013D51
:1005B00000F08CFD64200BF055FF002DE4D1DAE74C
:1005C000E02C002001210E4B10B5186849420BF0B9
:1005D00099F90C4807F01CF972B6D0238022002448
:1005E0001B0692035A612000FF23FF22FF210134E2
:1005F00000F01AFD192CF6D100F068FD62B6FEE796
:10060000E42C002028DC0010F0B5DE4645465746B5
:100610004E464B4CE0B5220097B007AB994603CA53
:1006200003C3128816201A8004AB9C4600210722BF
:10063000604405F0EDFA0CAB9846230042461433B3
:1006400023CB23C21B882E20138004AB9C460021A1
:100650000322604405F0DCFA11AF23003A0028338E
:1006600013CB13C21B784120137004AB9C460422A9
:100670000021604405F0CCFA0BF0D2FC314B324E35
:100680000193324B324C0293324B04900393324B22
:1006900005AD9B46314B9A4621E080220021D200D5
:1006A000200005F0B5FA5B4600220021200000F092
:1006B0000DFB4B4610220021200000F007FB4346B3
:1006C00020220021200000F001FB002120003B003F
:1006D000302200F0FBFA5146200000F0ABFA642112
:1006E00004A80BF061FE0022290030680BF00EF820
:1006F0000128D2D12B78012B0DD0022B15D0002B45
:10070000F1D1686805F0B6F902000B00484601997E
:1007100006F0D6FEE7E7686805F0ACF902000B00CA
:100720004046029906F0CCFEDDE7686805F0A2F9C4
:1007300002000B003800039906F0C2FED3E7C04662
:10074000FCE0001060DC0010DC2C00206CDC0010F1
:100750003C2700207CDC00108CDC0010442B0020A7
:10076000002300B583B00193162803D006280ED0CD
:1007700003B000BD094B01A918680AF061FF019B95
:10078000002BF5D08022064B52051A60F0E7054B8E
:1007900001A918680AF054FFF1E7C046E42C0020D4
:1007A00004ED00E0E02C0020F0B5DE4657464E4652
:1007B0004546E0B585B00BF033FC00236A46137262
:1007C000334B344F9946344B4E469B46334B913610
:1007D0009A46334B01909846FF36642101A80BF0EE
:1007E000E3FD80233A689B015340E022D20113408D
:1007F0002C4A1360802252003B681342FCD0BB6835
:10080000134205D180225200FB68BB681342FBD023
:100810000821254B254819605B461A68A0239201E0
:10082000DB05D318186048465860C82098605046C9
:100830000068D8601E4B19601E4B80219C464904FD
:10084000624413680B42FCD108234D460024164A2B
:10085000136028880235404305F0B2F8011C201CC3
:1008600005F08AF8041CAE42F3D1134905F087F86D
:1008700005F000F904F050FC04F042FC43460390FC
:100880000022186802A900230AF08EFCA5E7C046E2
:100890004C2B002000C00440402B00203C2B0020AB
:1008A000DC2C002000D0044000F004400CC00440C8
:1008B00000E00440100000500000484310B506F06E
:1008C00059FFFA20C00003F0CFFC09F0E1FD1F2121
:1008D0001A2002F08BFC002200211A2002F0A0FC5A
:1008E00000211A2002F018FD1F211B2002F07EFCBF
:1008F000002200211B2002F093FC00211B2002F0AB
:100900000BFD0222404B1F211A601C2002F06EFCDE
:10091000002200211C2002F083FC00211C2002F098
:10092000FBFC3A4B01201A68394BD0245340394A1A
:1009300024061340384A1360C022384BD2011A6192
:1009400009F0C2FD364B374A1860374BC0021840D9
:10095000364B03430B20136002F0F2FC80231B0193
:100960006362152002F0ECFC80239B036362162077
:1009700002F0E6FC8023DB03A362002201211620A3
:1009800002F04EFC062002F0DBFC40230022A362B2
:100990000121062002F044FC052002F0D1FC2023B6
:1009A0000022A3620121052002F03AFC204C2149DB
:1009B000200009F0FBFB03210E2002F017FC0321AD
:1009C0000F2002F013FC002201210E2002F028FC6F
:1009D000002201210F2002F023FC80223C21200074
:1009E000402300F0FBF81448144B036000234360DD
:1009F00000F0E8F81921072000F09EFA00F020FB33
:100A000000F064FB10BDC04600E0044008C0044094
:100A1000090000010F00000F08D0044000C004408E
:100A2000402B00203C2B0020FD7F00FF2500120002
:100A3000A8100020801A0600442B0020007F000729
:100A400010B582B0FFF73AFF464806F0E1FE0120FC
:100A500001F048FE0322002101200AF007FB424B6F
:100A600003221860002101200AF000FB3F4B032203
:100A70001860002101200AF0F9FA3D4B00221860AD
:100A800008210A200AF0F2FA3A4B0024186080226A
:100A90000C233949019400935200002337480BF08E
:100AA00063FA0B23802236490194009352000023FD
:100AB00034480BF059FA0A238022334901940093F9
:100AC0005200002331480BF04FFA092380223049AD
:100AD00001940093920000232E480BF045FA08235E
:100AE00080222D4901940093520000232B480BF0E3
:100AF0003BFA062380222A490194009352000023E6
:100B000028480BF031FA05238022274901940093ED
:100B10005200002325480BF027FA042380222449A1
:100B2000019400935200002322480BF01DFA022387
:100B30008022214901940093920000231F480BF06A
:100B400013FA1F4C012223000421162002F07CFB23
:100B5000230001220421062002F076FB0BF016FA96
:100B6000FEE7C0469CDC0010E42C0020E02C0020B6
:100B7000E82C0020DC2C0020DCDC0010C505001077
:100B8000E8DC001069050010F0DC0010A907001077
:100B9000F8DC00100906001004DD001069030010E5
:100BA0000CDD0010D50200101CDD0010DD0300106C
:100BB00028DD00102D05001034DD00107104001038
:100BC00061070010037842788178D21AC378013225
:100BD0005B1A0133534343607047C046F0B5474644
:100BE000CE4680B58BB003AC2200104B802723CBC0
:100BF00023C223CB23C21B880026138026236B44E9
:100C000099460B4B02AD984623782F706B702A00E3
:100C100002233C2140460096013409F0EFFA4C458E
:100C2000F2D10BB0C0BCB946B046F0BD80E30010B5
:100C3000A8100020F0B557464E464546DE46212313
:100C4000E0B587B004AC23700B78834663704B78B3
:100C50008A46A3702223E3704B880027A3801623C3
:100C60006B44994680239846174E03AD424623783D
:100C70002A706B702A0002233C2130000097013457
:100C800009F0BCFA4C45F1D153465B685D1C280065
:100C9000984604F065FF402304004246594603701D
:100CA000013004F0BBFF2B0022003C2130000097F4
:100CB00009F0A4FA200004F093FF07B0F0BCBB4693
:100CC000B246A946A046F0BDA8100020F0B5DE4609
:100CD00057464E464546E0B585B0782949DC382A66
:100CE00047DC1D78002D44D00724D6173440A418C3
:100CF000E410E401A346564A0292564A0392013395
:100D0000782931DC0326029A2C00525D3240022AF7
:100D100001D1203CE5B2233DEDB2372D32D8039A04
:100D2000AD0052599746403C4B4AE400155D1219FC
:100D30005478AA46A14694785779A046D4789679F3
:100D4000A4461479D57901945A4654468A18845495
:100D50004C4682185470444694706446D470019C8A
:100D6000577114719671D5711D78083109B2002D33
:100D7000C5D105B0F0BCBB46B246A946A046F0BD01
:100D8000153CD1E700250026002700229446904616
:100D9000914692460192D7E7082201920C3294467E
:100DA00090460E32914600220025002608279246E2
:100DB000CAE7022201920232944604329046083277
:100DC000914610320025002600279246BCE71422E7
:100DD00001920C3A944690460022002522261427C0
:100DE00091469246B0E700229446019236329046F0
:100DF000914600220025002600279246A4E74022C3
:100E00000192002200250026002794469046914634
:100E1000924699E77F2201926B3A944690466B3254
:100E200091466B3A00250026142792468CE7002550
:100E3000002600270822A9E70822944601923632AC
:100E40009046363A002500260027914692467BE7D9
:100E5000D1E8001038E1001018E20010F0B5C646E5
:100E60001C0000B5304B0E00C118090D063186B0CC
:100E70000500C9B22000170002F0B8F901233100C3
:100E800022000093280009F05BFA80235B020293A2
:100E9000FB1CFA011B031343244AA40213400393CF
:100EA000F823DB011C4080239B0523430593204B43
:100EB0000520049303F0F4FB04F07CFD1D49041CA1
:100EC0000C9804F070FD011C201C04F058FDEC216E
:100ED000890504F051FD804604F0C6FD84B200236C
:100EE000002C0ED0200004F065FD011C404604F0EB
:100EF00040FD8721C90504F056FD04F0B5FDC3B2DD
:100F00001B0224043A001C43310002AB2800029467
:100F100009F070FA0123B3402A6813432B6006B02E
:100F200080BCB846F0BDC0460000E0AFFFFFFF9FA9
:100F300000000E5000002041F0B5CE46474680B577
:100F4000324F83B0050039600800032104F026FE0B
:100F50002F4E304B304918603000984609F074F934
:100F60002E4B04000021300099461E6009F050F914
:100F70002B4B010018604B4618682A4B2200009347
:100F80002B00FFF76BFF3C68002C2ED043461968FE
:100F9000631E042B2ED98B072CD1A2085000801879
:100FA0000B000022800040181A605A609A600C33CF
:100FB0008342F9D1032320009843234215D04300F4
:100FC0001B18CD186A702A70AA70451CA5420CD255
:100FD000DD1C4D1902306A702A70AA70844204D94F
:100FE0000633CB185A701A709A7003B0C0BCB94659
:100FF000B046F0BD0B0000226100091959185A7063
:101000001A709A7003338B42F9D1EEE7F430002066
:1010100000002050F83000209CE300100431002034
:10102000083100200050434930B5044D44002418D5
:101030002868001941700270837030BDF8300020BC
:10104000204B30B51C68002C2ED01F4B1968631E36
:10105000042B2AD98B0728D1A208500080180B0036
:101060000022800040181A605A609A600C33834254
:10107000F9D1032320009843234215D043001B18C5
:10108000CD186A702A70AA70451CA5420CD2DD1CCE
:101090004D1902306A702A70AA70844204D906334E
:1010A000CB185A701A709A7030BD0B000022610084
:1010B000091959185A701A709A7003338B42F9D172
:1010C000F2E7C046F4300020F8300020154B70B530
:1010D0001968002920D0144B4E001A68134B76185B
:1010E0001C6801232000103083401148A4000068D0
:1010F00014193618057851680B42FCD125614578E2
:1011000051680B42FCD12561857851680B42FCD1B6
:10111000033025618642EDD16420002103F030F8D0
:1011200070BDC046F430002004310020083100209A
:10113000F8300020054B064A186000230360802326
:101140001168DB030B430020136070473C31002023
:10115000F0190020074B082118600023064A03609D
:1011600043608360C3600361136800200B43136016
:101170007047C04650310020F0190020044A830017
:101180001068C01803680133036000207047C04630
:1011900050310020044B80001B68C2588A4200DA9C
:1011A000C15000207047C046503100201D4B10B583
:1011B0001B681B0733D51C4C23685A68002A1BDCAC
:1011C0001A681C2A21DC9A68002A0BDCDB68002BD9
:1011D00001DC002010BD0E2000F04EF90022236833
:1011E000DA60F6E70A2000F047F9002223689A60E7
:1011F000DB68002BEDDDEEE7082000F03DF9002272
:1012000023685A601A681C2ADDDD092000F034F9D1
:10121000002223681A609A68002AD7DDE2E70120DD
:10122000D8E7C046F019002050310020044B186068
:101230000023C3540133382BFBD183630020704754
:10124000683100200E4B0F4A1860382303601C3BA6
:101250004360193B94468360030000220C336044D2
:101260001A605A609A60DA601A7530338342F7D197
:101270001021054A002013680B4313607047C046D5
:10128000583100208C0A0000F0190020194B70B56D
:101290001B68DB062BD5EFF31084012383F3108842
:1012A000154B1A68936B002B1CD0013B9363D55CE4
:1012B00011781570FF25D5544A00521812011100FB
:1012C0000E4B0C311B6859189B180022D9601A610B
:1012D0005A619A61DA6120331A70016084F31088D0
:1012E000002070BD0120FFF749FF84F31088012022
:1012F000F7E7C046F019002068310020583100207F
:101300000B4B30B51D6800232A000C3203E001337B
:101310003032382B0AD014688442F8D100205A00A9
:10132000D3181B010C33ED180D6030BD0120FCE714
:101330005831002070B504000D00160000290FD0B0
:1013400011000020FFF726FF1C221B2E06D92000CB
:101350002900143004F062FC002070BD721CF6E716
:1013600000210020FFF716FF0122014DEFE7C046E4
:10137000F8DF0010034B1B689A6B38239B1A03603D
:101380000020704768310020044A43001B1812688F
:101390001B010C33D31800200B607047583100201C
:1013A00070B51C4D040029688B68002B0DD00E2CE5
:1013B00003D8194AA300D3589F462B682200174927
:1013C000986801F027F8012070BD1548083101F038
:1013D00063FA0128EBD1F6E712492B68986800F010
:1013E000DDFF0020F0E71049F7E71049F5E7104965
:1013F000F3E71049F1E71049EFE71049EDE710492D
:10140000EBE71049E9E71049E7E71049E5E710493C
:10141000E3E7C0465C310020ACE30010B0DE001012
:10142000A8DE0010ACDD00106CDD001080DD0010C7
:10143000D8DD0010F4DD001048DE001040DD0010A3
:1014400034DE001060DE001074DE001090DE00104C
:1014500014DE0010064B202118600023054A0360AB
:1014600043608360136800200B4313607047C046DD
:101470005C310020F01900200B4B70B51B689B06F7
:1014800010D50A4B441E1A68012311680D00E5406F
:101490002B4201D0002070BDA3400B431360FFF727
:1014A0007FFFF7E70120F6E7F01900205C3100200C
:1014B000114B10B51B689B061CD5104C23685A684D
:1014C000002A01D0002016E00121421E91401A6836
:1014D00058600A431A60FFF763FF012808D02368A9
:1014E0000749986800F05AFF01F06CF9002002E00B
:1014F00001F068F9012010BDF01900205C310020D6
:10150000CCDE0010054B402118600023044A036024
:10151000136800200B4313607047C046003400205E
:10152000F01900201B4B02001B680121180010B5A8
:1015300008400B422BD0184B1B685B68002B25D052
:10154000EFF3108481F31088144B15491B68096868
:10155000186801301860134B1B681B6A01339B012C
:10156000C9180A80104A114B12681B6848805069DC
:101570004B60834202D2D0680130D06053610120B9
:10158000082201F0BDFA84F31088002010BD01206C
:10159000FCE7C046F0190020083400200034002089
:1015A0000C34002004340020143400200C4005408A
:1015B0001D4B70B51B680500012218000C0010407F
:1015C00013422FD0194B1B685B68002B29D0EFF317
:1015D000108682F31088164B164A1B68116818682B
:1015E000154A01301860154B12681B681B6A0133DD
:1015F0009B01C91880235B012B430B80104B488053
:101600001B6850694B60834202D2D0680130D060C1
:10161000536101200C228C6001F072FA86F310886D
:10162000002070BD0120FCE7F019002008340020E4
:10163000003400200C340020143400200434002036
:101640000C4005401E4B70B51B6805000C001800CF
:10165000012108400B4230D01A4B1B685B68002BFD
:101660002AD0EFF3108681F31088174B17491B68B7
:101670000968186801301860154B1B681B6A013334
:101680009B01C918802348809B0112482B430068A6
:101690000B80114B45691B684B60AB4202D2C56899
:1016A0000135C5604361CA608C601022012001F0E1
:1016B00027FA86F31088002070BD0120FCE7C046A1
:1016C000F019002008340020003400200C340020E1
:1016D00004340020143400200C400540F8B51E4CA2
:1016E000060024680D002000012108400C4231D082
:1016F0001A4C24686468002C2BD0EFF3108481F31B
:10170000108817491748096800680F68006A013790
:101710000F6015490130096880010918C020800157
:101720003043124E0880366811484F800068776950
:101730004860B84202D2F7680137F7607061CA604A
:101740008D6014220B61012001F0DAF984F3108816
:101750000020F8BD0120FCE7F0190020083400202B
:1017600000340020043400200C3400201434002005
:101770000C400540F8B51F4C060024680D00200001
:10178000012108400C4233D01B4C24686468002CB3
:101790002DD0EFF3108481F3108818491848096898
:1017A00000680F68006A01370F6016490130096848
:1017B000800109188020C0013043134E088036682C
:1017C00012484F80006877694860B84202D2F768D3
:1017D0000137F76070610B61069BCA608D6018224B
:1017E0004B61012001F08CF984F310880020F8BDD2
:1017F0000120FCE7F019002008340020003400200C
:10180000043400200C340020143400200C40054027
:10181000032370B5CC1C9C43EFF31086023B83F38B
:1018200010880D4B01001A681368013313600B4BCD
:101830000B4A1B6815681B6A220001339B01ED18D7
:10184000280004F0EBF922002900012001F058F9EA
:1018500086F31088002070BD00340020043400207E
:101860000C340020F8B5032303329A4315000835E1
:101870000700402D32D89008000300B2EFF3108625
:10188000012383F31088174B38431B681C6801340D
:10189000A4461C60144B154C1B6824681B6A01335A
:1018A0009B01E41863466380114B20801868114B3C
:1018B00060601B685F69B84202D2DF680137DF6091
:1018C00058612000083004F0A9F92A002100012005
:1018D00001F016F986F310880020F8BD4025382263
:1018E0000548CBE700340020043400200C340020ED
:1018F0000C4005401434002000E0FFFFF8B50D0057
:101900001100DA1C03234746CE469A4380B51700E0
:101910000C370600402F01D940273422224B0124E6
:101920001B681800204023423CD0204B1B685B689A
:10193000002B33D0EFF3108884F310881C4B1B6806
:1019400018680130186084461A481B4B04688020D0
:10195000400181461B6819481B6A006801339B01DE
:10196000E41893024B443343238063466380144B53
:1019700046691B686360B34202D2C6680136C6601E
:1019800043612000A5600C3004F048F93A002100C2
:10199000012001F0B5F888F310880020C0BCB946DA
:1019A000B046F8BD0120F9E7F01900200834002006
:1019B000003400200C3400200434002014340020B3
:1019C0000C400540F0B5D6464F464646C0B59A464F
:1019D000089B1500DA1C03239A431700103784462E
:1019E0000E00402F01D940273022264C01232468C5
:1019F000200018401C4242D0234C24686468002C0C
:101A000038D0EFF3108883F310888021890189464C
:101A100061461E4B1E4C1B6824681868246A0130FE
:101A200018601C4B01341B68A4011C1993024B4421
:101A3000608019480B4300682380184B41691B687C
:101A400063608B4206D2C1688C4601218946CC4432
:101A50006146C160436120005146A660E5601030D8
:101A600004F0DCF83A002100012001F049F888F385
:101A700010880020E0BCBA46B146A846F0BD01205F
:101A8000F8E7C046F0190020083400200034002098
:101A9000043400200C340020143400200C40054095
:101AA000F0B5D6464F464646C0B5070003209A46D5
:101AB000099B1500DA1C824316001436402E01D90A
:101AC00040262C22294C01202468230003409C46F8
:101AD000044247D0264C24686468002C3CD0EFF3C5
:101AE000108880F31088234800680468631C036032
:101AF0009C46C0239B01994663461F4C1F4824689F
:101B00000068246A0134A40104199002484438434F
:101B10001B4F20803F681B48638000687B696060C2
:101B2000984206D2FB689C4601239946CC44634602
:101B3000FB60786153462000A16023610899E5604D
:101B4000143004F06BF832002100012000F0D8FFBF
:101B500088F3108800239C466046E0BCBA46B14634
:101B6000A846F0BD01239C46F6E7C046F0190020C8
:101B70000834002000340020043400200C340020FD
:101B8000143400200C400540F0B5D6464F4646467A
:101B9000C0B5070003209A460A9B1500DA1C824351
:101BA00016001836402E01D9402628222A4C012042
:101BB0002468230003409C46044249D0274C2468F3
:101BC0006468002C3ED0EFF3108880F3108824481E
:101BD00000680468631C03609C468023DB0199460F
:101BE0006346204C204824680068246A0134A4011C
:101BF00004199002484438431C4F20803F681C4819
:101C0000638000687B696060984206D2FB689C46EE
:101C100001239946CC446346FB605346786120001B
:101C20002361089BA16063610999E560183003F0A6
:101C3000F5FF32002100012000F062FF88F31088D8
:101C400000239C466046E0BCBA46B146A846F0BDBB
:101C500001239C46F6E7C046F01900200834002016
:101C600000340020043400200C3400201434002000
:101C70000C400540F0B5D6464F464646C0B5070075
:101C800003209A460B9B1500DA1C824316001C3673
:101C9000402E01D9402624222B4C01202468230009
:101CA00003409C4604424BD0284C24686468002CB6
:101CB00040D0EFF3108880F310882548006804684E
:101CC000631C03609C46A023DB0199466346214CBC
:101CD000214824680068246A0134A4010419900290
:101CE000484438431D4F20803F681D48638000688A
:101CF0007B696060984206D2FB689C460123994646
:101D0000CC446346FB605346786120002361089B06
:101D1000A1606361099B0A99A361E5601C3003F02F
:101D20007DFF32002100012000F0EAFE88F31088D8
:101D300000239C466046E0BCBA46B146A846F0BDCA
:101D400001239C46F6E7C046F01900200834002025
:101D500000340020043400200C340020143400200F
:101D60000C400540F0B5D6464F464646C0B5070084
:101D700003209A460C9B1500DA1C8243160020367D
:101D8000402E01D9402620222C4C0120246823001B
:101D900003409C4604424DD0294C24686468002CC2
:101DA00042D0EFF3108880F310882648006804685A
:101DB000631C03609C46C023DB0199466346224CAA
:101DC000224824680068246A0134A401041990029E
:101DD000484438431E4F20803F681E486380006897
:101DE0007B696060984206D2FB689C460123994655
:101DF000CC446346FB605346786120002361089B16
:101E0000A1606361099B0B99A3610A9BE560E36193
:101E1000203003F003FF32002100012000F070FEAB
:101E200088F3108800239C466046E0BCBA46B14661
:101E3000A846F0BD01239C46F6E7C046F0190020F5
:101E40000834002000340020043400200C3400202A
:101E5000143400200C400540054B064A1860FD2351
:101E60000360116803330B43002013607047C046C2
:101E700060310020F019002010B588B006930A9B4D
:101E800004AC029380231B06049105920193020087
:101E9000032300210094F22000F094F808B010BD54
:101EA00010B5002810D000290CD043688468D318DE
:101EB0009C4205D343603820FFF7C4FB002010BDCF
:101EC0008360F7E7E920F7E70120F8E710B500287D
:101ED0000BD0002907D043689B1A43603920FFF7D5
:101EE000B1FB002010BDEA20F9E70120FAE7C04667
:101EF0000B4B012218600023036043608360C360C2
:101F0000036143618361C361436280235242026281
:101F1000044A5B01116800200B4313607047C04600
:101F200004340020F019002010B500F05FFC0A20F6
:101F30000AF098FAF9E7C046002806D0044B18606A
:101F4000002303604360002070470120FCE7C04687
:101F50006C31002010B5144C82B023681A68002A36
:101F600019D05A68002A02D0002002B010BD0433F4
:101F70000193802201230D4900930D480023520054
:101F800009F0F2FF23685B68002BEDD10620FFF714
:101F90008FFA0120E9E70093802300219B02054886
:101FA000FFF76AFF2368DCE76C31002000DF0010D8
:101FB000291F0010F4DE0010014B1B6818687047E1
:101FC0006C310020F0B54F464646D646C0B584B0C9
:101FD0001F000C9B80460E0015009946EFF31084FD
:101FE000012383F3108803A8002935D0FFF74EF9A9
:101FF000002828D1039B1E60002F35D04A46126866
:102000005A60012F00D181E04A4652689A60022F3F
:1020100068D04A4692680D99DA601A690A431A61D3
:102020000E9A136084F31088002D42D02B78002B79
:1020300027D1022F60D0032F47D031004046FFF751
:10204000B7FA002002E084F31088012004B0E0BC5D
:10205000BA46B146A846F0BDFFF718F90128F2D0FC
:10206000039B1E68002FC9D11A690D990A431A6192
:102070000E9A136084F31088002DDED02B78002B8D
:10208000DBD0039B00249A46196801E0802C4BD0DA
:10209000230001342A5D002AF8D102332A000320EC
:1020A000FFF72CFC220029005046FFF743F9022FCE
:1020B00022D0032F09D0012FBFD14B46310040461B
:1020C0001A68FFF7BFFA0020C0E749464B464A4668
:1020D00089685B681268404600913100FFF74AFB4F
:1020E0000020B3E71A690D990A431A610E9A13602A
:1020F00084F31088002D99D14B464A463100404662
:102100005B681268FFF7EAFA00209FE71A690D99E9
:102110000A431A610E9A136084F31088002DCCD004
:102120002B78002BC9D0ACE78123B7E7F0B54F4639
:102130004646D646C0B581460E001500984682B088
:10214000EFF31084012383F3108801A800291ED027
:10215000FFF79CF8002816D1019B1E6042465A608A
:1021600084F31088002D02D02B78002B16D1424624
:1021700031004846FFF766FA002002B0E0BCBA46DC
:10218000B146A846F0BD84F310880120F5E7FFF7BB
:102190007DF80128F7D0019B1E68DFE7019B002432
:1021A0009A46196801E0802C0FD0230001342F5D7E
:1021B000002FF8D102332A000320FFF79FFB2200F3
:1021C00029005046FFF7B6F8D1E78123F3E7C04670
:1021D000F0B5C64600B506000D0082B0EFF31087DB
:1021E000012383F3108801A9FFF78AF8040001286E
:1021F00023D0019B98461E68002D28D02B78002BF9
:102200002BD0002401E0802C25D0230001342A5D4E
:10221000002AF8D102332A0031000320FFF76EFBB9
:10222000220029004046FFF785F8040087F3108854
:10223000200002B080BCB846F0BD01A8FFF726F828
:102240000028F3D1019B98461E60002DD6D10123B2
:102250000024034DDFE78123DDE701230024DAE7D3
:10226000F8DF0010F0B54746CE4680B587B00E00C7
:1022700017001C000E9D002806D0052C00D972E026
:102280003A4BA4001B599F46394B19689846086879
:102290000028F2D1374800F0FFFA012863D0434606
:1022A0001B681868E9E729684B680A689846102394
:1022B0009C468C4463468C682B6003970296C968E1
:1022C00043460191009401009520FFF7D3FC07B02D
:1022D000C0BCB946B046F0BD29684B680A6899464B
:1022E000CB688C689C4614239846884443462B60F0
:1022F0006346049703960969019302914B460100D6
:1023000000949620FFF72EFDE1E701003B0032002C
:102310009120FFF7F3FADAE72B6801001A1D2A6013
:1023200092201A6833000097FFF74CFBCFE72B6829
:10233000190008311A6829605B680100019700964E
:102340009320FFF7ADFBC2E729680C000C340A6844
:102350004B682C60029701968968009101009420D7
:10236000FFF712FCB3E70120B1E7C046E8E3001035
:102370007831002008DF0010064B074A1860002360
:1023800003604360802311681B020B43002013602D
:102390007047C04678310020F0190020194B70B505
:1023A0001B680D001B0417D5002924D00B78002BC7
:1023B00026D0002201E0802A20D013000132AC5C3C
:1023C000002CF8D19C1C002808D0010023002A0012
:1023D0009120FFF793FA70BD0120FCE70A4E3168A7
:1023E00008680028F1D1094800F056FA0128F3D016
:1023F00033681868E9E70124054DE4E78124E2E742
:102400000124E0E7F01900207831002008DF0010F7
:10241000F8DF00100EB470B51C4B85B01B680600C9
:10242000099901201B0404D405B070BC08BC03B09A
:1024300018470AAB0393002920D00D78002D21D036
:102440000023002405E0541C0D5D002D0DD07F2CD1
:102450000BD82200252DF6D101328D5C002D0BD03A
:10246000253D681E85415B19EDE7023203A8009007
:102470003000FFF7F7FED7E7A21CF7E701220023A1
:102480000349F3E701220023F0E7C046F0190020DA
:10249000F8DF0010044B054A186080231168DB0246
:1024A0000B430020136070470C340020F01900200B
:1024B00070B5274D86B02B685B68012B43D0254B48
:1024C0001B689A68002A40D0EFF31086012383F33B
:1024D0001088214B20211868FFF79AF9B0231B01BF
:1024E0009C4628681C216044FFF792F902A8FEF779
:1024F00041FF029B0C2103931C2303A80493193B67
:1025000005930024FFF784F9200001A9FEF73CFFA2
:1025100001980368002B02D03021FFF779F90134CC
:10252000382CF1D10D4B04221B6803A91B68012034
:102530000393FFF797F92B681A6801321A6001229A
:102540005A6086F3108806B070BD054A9A60BBE7F2
:10255000083400201434002064310020103400209E
:1025600040420F0070B54C4E3468002C00D08EE015
:102570004A484B4D04602860446084601430FEF784
:1025800055FE012800D184E02868464B02005432F1
:102590001A60454BC4654365444B44668365444BB0
:1025A000036681235B048366424BC366424B036729
:1025B0007430FEF747FE01286BD0B0231B019C4608
:1025C0002868604400F0CCF9012862D03B4B2868B1
:1025D0009C466044FEF7AEFD01285AD0384B28686F
:1025E0009C46604400F070FC012852D0354B2868AE
:1025F0009C466044FEF7AEFD01284AD0324B286865
:102600009C466044FFF728FC012842D02F4B2868E5
:102610009C466044FFF73EFF01283AD02C4B2868C7
:102620009C466044FEF76EFF012832D0294B286893
:102630009C466044FFF7A0FE01282AD0264B28685C
:102640009C466044FEF706FF012822D0234B2868F1
:102650009C466044FFF74CFC01281AD0204B2868A8
:102660009C46604400F042F9012812D087239B0168
:102670009C4628686044FFF75FFC012809D00122CE
:102680002B685242DA603368023213433360002011
:1026900000E0012070BDC046F0190020F434022093
:1026A0000834002064310020004653500E00A11A67
:1026B000010300004672656552544F53E821000043
:1026C0001C0B0000D0210000E42100003C1F000092
:1026D0007C210000842100008C2100009821000052
:1026E000C821000070B582B00822002105006846AC
:1026F00003F08EFAFFF736FF0400012810D02800FF
:1027000000F0ECFB01280BD0FFF724FC012807D0D8
:10271000022D09D0012D45D02C00631E9C4100E004
:102720000124200002B070BD244D254E03E0336823
:102730005B68002BF5D1EA6E2B6F9A42F7D0082226
:102740006946002000F026F90828F0D16B46DB79B5
:10275000FF2BECD16B4668461A785978807853186D
:102760001B186846C0781B18684600791B18684615
:1027700040791B186846DB438079DBB29842D6D19A
:10278000012AD4D1012914D033685B68002BD2D040
:10279000EFF3108382F3108800213268516083F3D5
:1027A0001088C4E702236A46FF331380FFF780FED8
:1027B000B7E7FFF77DFE33685B68BAE7F8190020DA
:1027C00008340020084B1A685268002A09D0EFF339
:1027D0001082012181F3108800211B68596082F367
:1027E000108800207047C0460834002030B583B000
:1027F0006D4608220021684603F00AFA234CE26E77
:10280000236F9A4208D008222900002000F0C2F865
:1028100008280ED00028F2DC01221D4B1B68134053
:1028200004D01C4B1B685B68002B28D1002003B030
:1028300030BDEB79FF2BE2D12A786978A87853185C
:102840001B18E8781B1828791B1868791B18DB43BC
:10285000A879DBB29842D2D1012AD0D1012911D076
:102860000C4B196849680029C9D0EFF3108182F335
:10287000108800221B685A6081F31088BFE7FEF7BA
:1028800095FCD3E7FFF714FEB9E7C046F81900201E
:10289000F019002008340020F0B583B0060001A82C
:1028A0000F00FEF7F3FC012818D03378002B19D065
:1028B000002401E01C2C13D023000134355D2200DC
:1028C000002DF7D19C1C31000198FEF733FD0199D2
:1028D0002300320003203960FFF710F803B0F0BD89
:1028E0001D24F0E701240022EDE7C046054B064A0F
:1028F000186002230360802311685B030B430020F0
:102900001360704710340020F01900200122114B91
:1029100070B51B68134207D00F4C23685D68002D0B
:1029200004D10E4B1B681860012070BD9A60EFF354
:10293000108582F31088094B0A001B68010018609B
:102940003720FEF77FFE022223689A6085F3108805
:10295000EBE7C046F01900200834002010340020B6
:10296000FA220A4B92001860002302610122836060
:1029700043608361C360436180230260044A9B0318
:10298000116800200B4313607047C04614340020C8
:10299000F0190020F0B54E464546DE465746E0B5F4
:1029A00083B0060015000091EFF3108A012181F336
:1029B00010884F4C2378532B31D0200078220021EF
:1029C000303003F025F903234A4A236163614A4BFF
:1029D000A261E3618023DB0023620023A3626362C0
:1029E000E3622266454A472162661022A2664332AC
:1029F0002367E366636722700E3A6270A170E1702C
:102A0000227127390D326271A171E2710232227294
:102A10006272A372E37223736373A373E37373002D
:102A200099469B19DB00E3181A6F9346DA6E9046BD
:102A3000934525D813005A462F009B1A9D420BD868
:102A4000002F0BD18AF31088380003B0F0BCBB46CE
:102A5000B246A946A046F0BD1F1EF3D04B469B19B7
:102A6000DB00E318596E3A005944009803F0D6F899
:102A7000BB4433004B44DB00E4185B462367E1E7CB
:102A80005A469B6E2F009B1A9D422CD84B469B1991
:102A9000DB00E318596E3A0059440098019303F0A3
:102AA000BDF8019BBB449B6EED1B9B451DD043466F
:102AB0005A469B1A9846454504D8002D05D1002F4B
:102AC000D7D1BFE74546002DF9D0009B2A00D81981
:102AD0004B469B19DB00E318596E7F19594403F0EC
:102AE0009DF8AB44EBE71F00D0E700239B46E2E7ED
:102AF000F819002010DF0010201C0020101C0020FE
:102B0000F0B545465746DE464E46E0B57D4D0400DD
:102B10002B788A46904683B0532B31D028007822F8
:102B20000021303003F074F80323774A2B616B6186
:102B3000764BAA61EB618023DB002B620023AB6242
:102B40006B62EB622A66724A47216A661022AA66A5
:102B500043322B67EB666B672A700E3A6A70A97076
:102B6000E9702A7127390D326A71A971EA7102324E
:102B70002A726A72AB72EB722B736B73AB73EB736B
:102B8000EFF3108B012181F3108863001F19FF0000
:102B9000EF190093FB6A9946012B00D16EE0022BDE
:102BA0003AD0002B00D08CE0BB6A7E6AB34200D8DA
:102BB0008FE0013B9B1B984524D8009B1B19DB0031
:102BC000EB181B6A01939B1B9946631C5F00FF185F
:102BD000FF00EF19786880194644C84500D28BE0A1
:102BE0004A46514603F01AF85146019B7868F61A96
:102BF0003200494403F012F8C146009B1B19DB0068
:102C0000EB185E628BF31088484603B0F0BCBB46FD
:102C1000B246A946A046F0BD0023013499466300A0
:102C20001B19DB0000932B00454698467E6ABB6A61
:102C30003C6AB34200D81B19013B9B1BA41BAC424E
:102C400000D92C009C4200D91C00009B51464344F3
:102C500058682200801902F0E1FF3B6A3619A1444E
:102C6000A2442D1B9E4203D07E62002DDFD1C9E716
:102C700000237B62002DC5D00026D8E73A6ABB6AE4
:102C80007E6A0192B3421FD9013B9B1BC146984506
:102C900000D99946019B9B1B9846631C5F00FF1857
:102CA000FF00EF1978688019C14517D24A4651468E
:102CB00002F0B4FF4E44009B1B19DB00EB185E6270
:102CC000A0E7002399469DE794466344013B9B1B84
:102CD000DCE73A6A9B18013B9B1B6CE74246514676
:102CE00002F09CFF5146019B7868F61A4E44320070
:102CF000414402F093FFDEE74246514602F08EFF68
:102D00007AE7C046F819002010DF0010201C0020D0
:102D1000101C0020F0B5C646314C1E00237805007B
:102D20008846170000B5532B31D0200078220021AF
:102D3000303002F06DFF03232A4A236163612A4B7E
:102D40000020A361E2618022D2002262A062606260
:102D5000E0622366254B472263661023A366433354
:102D60002067E066606723700E3B6370A270E270BC
:102D70002371273A0D336371A271E3710233237219
:102D80006372A072E07220736073A073E073022D0F
:102D900023D8EFF31083012181F310880020002D48
:102DA0000AD14019069AC0002418E26283F3108801
:102DB000002080BCB846F0BD6A1C50008018424616
:102DC0000021C00022502018476068004219D2003C
:102DD000A218166291625162E3E701204042E8E7DF
:102DE000F8190020201C002010DF0010101C00200B
:102DF000F8B54746CE46304C80B51F002378050015
:102E000089469046532B31D0200078220021303063
:102E100002F0FEFE0323294A23616361284B002050
:102E2000A361E2618022D2002262A0626062E0625D
:102E30002366244B472263661023A366433320672F
:102E4000E066606723700E3B6370A270E2702371CE
:102E5000273A0D336371A271E371023323726372F7
:102E6000A072E07220736073A073E073022D20D80B
:102E7000EFF31083012181F310880020002D0BD186
:102E80004019089AC0002418626783F31088002054
:102E9000C0BCB946B046F8BD4A4668004619F600BF
:102EA000A6193266424672660022B7663267F2663B
:102EB000E6E701204042EBE7F8190020201C002043
:102EC00010DF0010101C0020002803D0024B1860F7
:102ED000002070470120FCE7FC33002030B5A02320
:102EE00000240D4D83B02A685B0101200B4900943A
:102EF000FFF710FF03000120002B0BDBA0235B0179
:102F00009C462A6820230020054962440094FFF76C
:102F10006FFFC00F03B030BDFC3300201CDF00107A
:102F200000DF0010D0231B061B68AC4A9900F0B5E7
:102F3000DE468B4651585A4253412F2257464E4641
:102F400045465B4293439A46A54BE0B59C4683B009
:102F500000260191E244002938D0A24B99465246FE
:102F6000F30808339B009D58012334009846083627
:102F7000002D22D00F212000294001342D090029E5
:102F800019D04B465A469A580300C240203BDB17E3
:102F90001340424613420CD107220F000240920018
:102FA00097403A00C308904F3C339B00DA51019B95
:102FB0009847002D01D0B442DCD3202ECFD103B0EE
:102FC000F0BCBB46B246A946A046F0BD854E5F4662
:102FD00000210F23B346CC0822005046083292004D
:102FE0001258002A00D1D0E0180010408046100985
:102FF00013421AD05D46ED59A94620256D42AC46D4
:103000008C446546ED17AC464D46CD40A946654615
:103010004E4635400126354204D14646724D3C3479
:10302000A4006651002800D1AFE01C000440A44673
:10303000140A03421AD0481C80465846C0594646D6
:1030400081464D460800F5401F38C017284001252D
:10305000284208D165462D01AC46F0086646624D0F
:103060003C3080004651002C00D18EE018002040FA
:103070008446100B234211D08C1CA0465C46E459B8
:103080004646A1464D460C00F5401E3CE4172C4038
:1030900001252C4200D182E0002876D01C0004409B
:1030A000A446140C034210D0C81C80465846C05990
:1030B000464681464D460800F5401D38C017284059
:1030C0000125284275D0002C5FD018002040804692
:1030D000100D23420ED00C1DA4466546414CE45908
:1030E000EC40A1460C004D461C3CE40F2C426AD03B
:1030F00000284AD01C000440A446140E034218D0F5
:10310000481D804645463748C059E840814608007A
:103110004D461B38C00F284209D165462D05AC46E7
:1031200040466646C008304D3C3080004651002C79
:103130002BD0180020408446120F23422AD0294861
:103140008C1D8146C059E0408046080045461A382B
:10315000C00F284206D1E0086446234D3C302406C7
:1031600080004451002A10D04846C059CC1DE04090
:103170008446080065461938C00F284205D1E0088A
:103180003C30194C1207800002510831202900D030
:1031900021E714E7002AF8D012488146E4E76546A3
:1031A0002D02AC46F40866460F4D3C34A40066512F
:1031B00072E765462D03AC46F00866460A4D3C3082
:1031C000800046517FE745462D04A84664464646A2
:1031D000E408054D3C34A400665189E7C026002070
:1031E000304101401834002000400140094A83006A
:1031F0009A1810B514684022544080322240064C80
:10320000C000A44663441A60044B9C46604441607D
:1032100010BDC04604C0014004D001400040014040
:10322000074B8000C3181B68C90092000A435A402C
:103230000C231340034A9446604403607047C04621
:1032400004C0014004D00140F8B545469846D0235B
:103250001B06DE461C689B462B4B57469A46A3002E
:103260004E469946E0B5534616004A469B5807001D
:103270000D00002B34D04346002B3FD053464A4626
:1032800041469950D0231B061C6863425C412F22A3
:103290000720634293431D4A38409446FA081100C0
:1032A000800085403C311A486344890092000D50EB
:1032B0009B18002E0ED08022920194466344012177
:1032C0000D201D6000F03AF9F0BCBB46B246A9469D
:1032D000A046F8BDC0229201944663441D60F3E706
:1032E0004346002BD1D0534641460D209950002231
:1032F000084900F085F95B461C68C6E70D200549C2
:1033000000F078FABAE7C046C026002030410140FC
:1033100000400140252F00108000002905D0064BF9
:103320009C464023604403607047044B9C46402306
:1033300060440360F8E7C04604E0014004F0014047
:103340000123D0228340120693629361094A8300CD
:103350009A1811684022514080320A400649C00044
:103360008C4663441A60054B9C46052360444360C9
:103370007047C04604C0014004D0014000400140F5
:103380008023DB051868000F7047C0460FB400B5F6
:10339000084883B004F03CFA049B002B07D005A931
:1033A0001800019104F0A2F8034804F031FA01205A
:1033B00004F0B4F824DF001034DF001010B5014829
:1033C000FFF7E4FF64DE0010EFF3108072B6034AEB
:1033D0001368002BFCD0BFF35F8F70472C0100D027
:1033E000BFF35F8F0022024B1A6080F31088704792
:1033F0002C0100D070B5EFF3108C72B60D4D2B6818
:10340000002BFCD0BFF35F8F0724CB08C618C05C2D
:1034100001230C40A3401C000440034207D1184381
:103420003070BFF35F8F2C608CF3108870BD10007C
:10343000FFF7ACFF2C0100D0F8B54746CE468846D2
:1034400080B5EFF3108C72B61C4D2C68002CFCD0AC
:10345000BFF35F8F9A4222D807210126894602E0F6
:103460000132934218D34D4637001540AF40D4087F
:103470000119045D2742F3D110003C430C70BFF3E7
:103480005F8F00220D4B1A608CF3108800280EDB32
:10349000C0BCB946B046F8BD01204042EFE7BFF3DB
:1034A0005F8F00232B608CF310880120404243463D
:1034B000002BEDD00898FFF769FFC0462C0100D023
:1034C000044A1078431CDBB2172B00D91023137069
:1034D0007047C046E80F002010B5064B064C82B07E
:1034E0000100009318221F232000FFF7A5FF02B060
:1034F00010BDC04638DF0010D02600200021044B4C
:10350000044ABFF35F8F02C39342FAD17047C046AB
:10351000000100D0800100D0054B064A1360064A26
:10352000136053609360D36013615361936170477C
:103530008080808000E400E004E400E01F23184065
:103540001E3B8340002905D0C021044A4900535046
:1035500013607047802201498B50FAE700E100E0D8
:1035600001228240034B1B6813405A1E9341D8B27C
:103570007047C04600E100E001238340014A136028
:103580007047C04600E200E0064B10309B688000A8
:10359000C358054A00209B1A2F229A424041C0B2CC
:1035A0007047C04600ED00E0EC0F002070B50D0044
:1035B000EFF3108672B60F4A1368002BFCD0BFF3EE
:1035C0005F8F0D4B10309B6884001B590B4A934250
:1035D00003D09D4201D001F06BF9074B9B681D5150
:1035E000BFF35F8FBFF35F8F0022024B1A6086F339
:1035F000108870BD240100D000ED00E0CD01001066
:10360000F0B557464E46DE464546E0B585B0060065
:1036100000911700EFF3108B72B66A4A1368002B03
:10362000FCD0BFF35F8F0025674B5D579A46002D96
:1036300000DAA9E06B00654C01935B199B0098468A
:10364000A146C1444B4652469B7910361370604BDD
:10365000B6009B6899590B1B2F2B33D95D4B9942B0
:1036600000D0ACE0019B42469C465B4B6544AD00FC
:1036700063535A4B0232A218043B9B1A1B05584A4B
:103680005B0D651913436B80564B0121AB80FF2303
:10369000AB71009BEF71AB604B460B4319004C4B79
:1036A0009B689951BFF35F8FBFF35F8F0022454B3B
:1036B0001A608BF3108805B0F0BCBB46B246A94631
:1036C000A046F0BD01200A008243D3798C46BB425C
:1036D00031D84546130044491B1B5B415943090D32
:1036E0003D4B63533D4B02356519043B5B1B1B058A
:1036F0003B4D5B0D2B43AA464D466B800425AC46E3
:103700005546E044131F44441B1B1B055B0D1D4322
:103710004B46997100999D8099604946DF71334B02
:1037200001431360BBE75800C01880002018C1791E
:10373000B9422FD902000623D356002BF3DA0293A5
:103740002B4B61460393131D9A4604235B429C4610
:10375000E14450464B461B1A1B055B0D9C46204B13
:10376000957198466346404603439380019B5A19DE
:103770009200039BA418A380029B1C4AA371009B88
:103780002260E771A3608AE701F092F800255346B2
:103790005D574FE7908802934005131D9A46031525
:1037A00061469C464046D444634604302018181AAB
:1037B000E0230005400D1B0218430390C5E701F00C
:1037C00077F84FE7240100D02B570220EC0F0020A0
:1037D00000ED00E0CD01001000A1FFFF1C10002053
:1037E00000E0FFFF01BDFFFFAAAA000001488047DB
:1037F00001BD0000F0B5DE4657464E464546E0B5F1
:103800000C0083B0EFF3108872B6634A1368002B84
:10381000FCD0BFF35F8F614B61499A68030010339E
:103820009F00D55901938D4243D0A54254D05D4E9F
:10383000AA1B2F2A3DD85C4B9B461B689946012347
:103840001A009C4682404B4613401F22994663460D
:10385000024093409A4680225B4650469850BFF300
:103860005F8FEFF305839B46002B37D0019B5B45B1
:1038700001D001F01DF801232A009A439068844288
:1038800008D176E04B005B189B00F31898688442DF
:1038900036D01A00062151560029F3DA844254D05A
:1038A0004B46002B27D0C02251463F4B5200995027
:1038B00019603A4B9B68DD51BFF35F8FBFF35F8F99
:1038C0000022354B1A6088F3108803B0F0BCBB4669
:1038D000B246A946A046F0BD0D00EAE72A006346BD
:1038E0009A4390688442D5D10620105613000028D0
:1038F0000ADA0D0031E0802351462B4AD150D8E737
:1039000006201856002821DB42001118890074187F
:103910008B46A1689960E179D97106216156997148
:10392000002924DBA488F11A640524155C440919D4
:1039300009051E4C490D2143998013181C4A9B0010
:103940001178F31899711070AAE7130059460029ED
:1039500014D1FF3191711749918015490A789A71F4
:10396000154A9B1B5B415A43120D0A7098E7114997
:10397000E2E70620105613000028C5DA0F4A104966
:10398000D21A083A5002400D014399800D4952085D
:103990000A43DA8084E7C046240100D000ED00E04D
:1039A000CD010010EC0F002000E100E000E0FFFF7F
:1039B0002B57022001BDFFFFAAAA000026100020FD
:1039C00000F0FFFF00F8FFFF10B58308040003209C
:1039D0002040FF24054AC0009446844081409B005B
:1039E00063441A68A2430A431A6010BD00E400E071
:1039F00070B501240443EFF30581EFF3108C72B628
:103A0000214A1368002BFCD0BFF35F8F1F4B0500CA
:103A10001F4AED1A6D416A43120D1E4D8900AE68B2
:103A200052B27658A6421CD00621595691421CD05B
:103A300012215956914222D01E215956914220D02E
:103A40002A2159560324914210D0134B19781A7029
:103A50008171BFF35F8F00220B4B1A608CF31088CB
:103A600070BDAB680D4C5C50EFE700246100091994
:103A700089005B18FF21997109499980E5E70124C4
:103A8000F4E70224F2E7C046240100D0EC0F002046
:103A9000AAAA000000ED00E02B570220CD01001083
:103AA00001BDFFFF10B5084B084C82B00100009328
:103AB000002205232000FFF7BFFC002801DB1F23A5
:103AC000181A02B010BDC04654DF00102F57022054
:103AD000024B9C46614489000160704740000034FD
:103AE000F8B5124C124DAC4212D201260027764294
:103AF0002368002B0DD0FFF7E3FC01002000FFF747
:103B0000E7FF66602772BFF35F8F0C34AC42EFD3E0
:103B1000F8BDFFF7D5FC01002000FFF7D9FF666074
:103B2000BFF35F8F0834AC42E2D3F1E718160020F0
:103B30002816002010B50400FFF7C2FC0100200089
:103B4000FFF7C6FF01235B426360BFF35F8F10BDC9
:103B500010B504000120FFF7BFFC034BC3189B0006
:103B60002360BFF35F8F10BD40000034034B9C46C1
:103B7000614489000160BFF35F8F704740000034EB
:103B8000F0B5DE4657464E464546E0B587B0EFF302
:103B90000583032201251A40954091008846A946D5
:103BA000B34B03925C58B34B1D60B34B04934B462D
:103BB000B24843630823E55E002D37DAA3881BB2C1
:103BC000002B00DBADE0A379002B00D0EEE0082352
:103BD000E05E002820DB430062691B18DB00D3187D
:103BE0009E68DD68731C00D111E1A44801004144C6
:103BF000826A0B69B71A9B1A9F4215D30123026A86
:103C0000039883401A420FD09C4800F039FC8D4243
:103C100002DCCCD18642CAD940BF07B0F0BCBB465B
:103C2000B246A946A046F0BD0E61EDE762696B00A1
:103C300092465B19DB009A4453469E68DF6800F0A9
:103C40001FFC8F42BADC00D103E1002F00DAE8E06C
:103C50005246534652691B699346049A934200D1D7
:103C6000D9E052460821605E52880004594610434C
:103C70009847009001910099019A0B00100013439E
:103C800000D1CEE013000A00B61A9F41002806DBDF
:103C90007A4800F0F5FB009E019F36184F415346CD
:103CA0009E60DF6000229A5E002A00DA86E75300F9
:103CB00099186069C900411802938B68C9689B46CE
:103CC000B94200DD7AE702D1B34200D976E7082392
:103CD0009C46A444059565462281A446029B2C007F
:103CE00006E053009918C90041188D68C968AB46B1
:103CF0009B18DB00C318B94206DC00D1B3E01C00FE
:103D00000023E25E002AECDA230064469C46534618
:103D10001A806346059D1D80A3881BB2002B00DA24
:103D200051E72269EFF3108172B61368002BFCD0C3
:103D3000BFF35F8F0123A7885B42A3803FB2236953
:103D4000BFF35F8F00221A6081F31088002F00DA22
:103D500039E72300083322009A4666697B00DB19A5
:103D6000DB00F318996850468C460824115FDD6823
:103D7000002910DB029306E0AB4244D00023E15E51
:103D80002000002906DB4C006418E4003419E368C5
:103D9000AB42F1DD029B078000201F5E1980002FDF
:103DA000DCDA1400A379002B00D110E70023A37103
:103DB00026000823E15E08364B1C00D12CE70800E2
:103DC000A246656902E03E004B1C1AD04B005B180E
:103DD000DB00EF180A008C46E95E7B881BB2002BE3
:103DE000F1DA01235B42DC17BB60FC60824205D044
:103DF000534631801B893B8053461A8160464B1CD9
:103E0000E4D15446E5E6A3686345B7D9C2E76B1C25
:103E100000D0EAE6F8E65B4658461B69984700285A
:103E20001BD153461B8822692381EFF3108372B69E
:103E300011680029FCD0BFF35F8F514662880A8069
:103E400022696580BFF35F8F0021116083F31088C2
:103E5000B4E6864200D8F8E6B0E65B461A685B68CE
:103E60000092019307E7B34500D848E74CE7C04606
:103E70002C3100203C700540813B00100040054083
:103E8000074810B50268EFF3108172B61368002B73
:103E9000FCD0BFF35F8F06F0C5FD0020002110BDF0
:103EA0002C34002070B52E4C2569002D04D00A2139
:103EB0002C48FFF70DFE70BD2B4E0321300000F0A3
:103EC000D5FAE660FFF7FCFA284B03229C46D02384
:103ED00022701B061B6801216370254B6044A360A0
:103EE0000F23800020610220638063694942A18022
:103EF00019800231198647311D83585218315A52A0
:103F000075325C39995218320131995218320131A7
:103F10009952183201319952083518329D520231A6
:103F2000183299521832013199521832013199528E
:103F30001832013199521832013199521832013137
:103F400099520C4B0C49DC6001303562FFF72EFBB7
:103F500001210320FFF7F2FA084B1D60A7E7C046D6
:103F6000341000202C340020004005404000003474
:103F7000FFFF10002C310020813B0010386005400D
:103F80000048704734100020F8B51F0008AB1B78BC
:103F900004001600002B08D100F07AFA32003B0032
:103FA000121A8B41002B00DA52E02269EFF31080E5
:103FB00072B61368002BFCD0BFF35F8F0223E15E63
:103FC00063694A005218D2009B182269002936DB27
:103FD0001D886580BFF35F8F0025156080F3108812
:103FE000069A9E60DF601A61079A5A615A88013208
:103FF0005204520C101C002A1FD082B258800804B0
:1040000010432669EFF3108772B63268002AFCD09D
:10401000BFF35F8FA2881A80A1802369BFF35F8FEF
:1040200000221A6087F310880A4923788C460132EF
:104030009A40E36863441A60F8BD0120DDE7BFF3EE
:104040005F8F0023136080F3108801204042F3E764
:104050000020F1E73C20000070B501000469EFF397
:10406000108C72B620680028FCD0BFF35F8F02204E
:104070000D5E4C6968004019C00024180869002DC5
:1040800036DB26884E80BFF35F8F002606608CF3F8
:104090001088E36063880498013320615B0405980D
:1040A0005B0CA26060611A1C002B1FD093B2280425
:1040B000628018430A69EFF3108C72B61368002B04
:1040C000FCD0BFF35F8F8B8823808D800B69BFF39B
:1040D0005F8F00221A608CF310880B7801329A40AF
:1040E000CB6808498C4663441A6070BD0122DDE745
:1040F000BFF35F8F002303608CF3108801204042E0
:10410000F3E7C0463C20000010B543890A149342EF
:104110001ADD53009B184269DB00D3180469EFF3E2
:10412000108C72B62268002AFCD0BFF35F8F5A88C9
:10413000090494B2090C8A4208D00369BFF35F8F67
:1041400000221A608CF31088002010BD8022120219
:1041500014435C80012302698371BFF35F8F0021E8
:1041600011608CF31088044902788C469340C26831
:10417000012062441360E8E73C200000407870476B
:10418000F0B5CE46474680B583B004000D0000F080
:104190007FF924184D41002D02DA01242D4D64428F
:1041A00096267642F71736196F41AF4215D812D0CE
:1041B00000F06EF932003B00121A8B41002B18DC24
:1041C000002B43D02000290000F06CF903B0C0BCE4
:1041D000B946B046F0BDA642EAD900220023160037
:1041E0001F0000F055F932003B00121A8B41002BE2
:1041F000E6DD00F04DF932003B00121A8B41002B36
:104200000ADB00230193144B3200009313483B0058
:10421000FFF722FF0130D5D0114BB1469846114E21
:10422000736A9F4204D8B26A4A45CBD29F42C9D131
:1042300043461A68EFF3108172B61368002BFCD066
:10424000BFF35F8F404606F0B9FBE9E7002AB9D01B
:10425000CFE7C046FFFFFF7F813E001034100020F3
:104260002C34002000400540F0B5CE46474680B5CE
:1042700083B0040000F00CF9FA2206000F002000C1
:1042800000230021920001F057FB801979410400BE
:104290000D1E02DA01242D4D644296267642F71750
:1042A00036196F41AF4215D812D000F0F1F8320044
:1042B0003B00121A8B41002B18DC002B43D020004E
:1042C000290000F0EFF803B0C0BCB946B046F0BD1D
:1042D000A642EAD90022002316001F0000F0D8F8F9
:1042E00032003B00121A8B41002BE6DD00F0D0F8C3
:1042F00032003B00121A8B41002B0ADB0023019392
:10430000134B3200009313483B00FFF7A5FE01302A
:10431000D5D0114BB1469846104E736A9F4204D8CF
:10432000B26A4A45CBD29F42C9D143461A68EFF3DD
:10433000108172B61368002BFCD0BFF35F8F40462C
:1043400006F03CFBE9E7002AB9D0CFE7FFFFFF7F8B
:10435000813E0010341000202C3400200040054025
:10436000F0B557464E46DE464546E0B506000F001E
:1043700085B0EFF3058399468B46002B12D0384960
:1043800000204B6ABB4206D38A6ADB1B591E8B4155
:10439000B2424041184305B0F0BCBB46B246A94604
:1043A000A046F0BD2F4B9A46DB68984653461B78D3
:1043B0004046039300F064F84246039B0400043334
:1043C0009B009B580D001B1A39003000001BA941AF
:1043D000894510DC0DD020BF214A0020536A5B457F
:1043E000D9D3926ADB1B591E8B41B242404118431C
:1043F000D1E78342EFD900F04BF832003B00121AAC
:104400008B41002B1ADB00230193174B32000093E2
:1044100050463B00FFF720FE011E0FDD104B5A6A8D
:104420005A451BD39B6AB34216D35046FFF76CFE26
:104430000B4A0020536A5B45ADD3D2E7084A0020FF
:10444000536A5B45A7D30020926ADB1BB24240410E
:104450005A1E934118439EE75A45E6D120BFE4E730
:104460000040054034100020813E001010B5024A83
:104470000248FEF7BFFF10BD70DF0010D4260020F9
:104480000300416A0A00986A596A8A42FAD1704761
:10449000034B596A0A00986A596A9142FAD17047E7
:1044A00000400540064A536A9942FCD807D1044BA4
:1044B00002E05A6A914202D19A6A9042F9D8704752
:1044C00000400540F8B5DE464E4657464546E0B545
:1044D0008B4605000A991800160000F0EFFA0A9BB7
:1044E0006C001F02324B64199C46A400644463684C
:1044F00081469F4200D967602B1FDBB29846012B93
:1045000030D9C02380229B01E31812011A60294B85
:10451000AD0059599A4600291BD17301E026226843
:1045200053401E40802342465B01E3181E60012A6F
:1045300030D9802380229B01E31812011A60534670
:104540004A4667605A51F0BCBB46B246A946A046EF
:10455000F8BD586900F0B2FA013043001B18033B64
:10456000FDD2DAE75B46012BCBD1C02303229B01AE
:10457000E3181A60023AA3681A42FCD07301E026DD
:104580002268AD0053401E4080230A4A5B019246D8
:10459000E3181E605A462168514003220A401A60FF
:1045A00001225B469A40A3681A42FCD0C1E7C0468C
:1045B00000800040DC260020F0B546464F46D64637
:1045C000C0B51F00344B44009C462418A40064442A
:1045D000636888461600FF2B02D880235B00636067
:1045E000031FDBB29A46012B30D9C02380229B01E6
:1045F000E31812011A60294B850059599946002980
:104600001BD17301E026226853401E40802352468E
:104610005B01E3181E60012A30D9802380229B01B0
:10462000E31812011A6080235B0063604B465F5100
:10463000E0BCBA46B146A846F0BD586900F03EFA63
:10464000013043001B18033BFDD2DAE74346012B40
:10465000CBD1C02303229B01E3181A60023AA3685E
:104660001A42FCD07301E0262268850053401E40A8
:1046700080230A4A5B019146E3181E604246216886
:10468000514003220A401A60012342469340A26827
:104690001342FCD0C1E7C04600800040DC26002069
:1046A000014B8000C0587047DC260020F8B504009C
:1046B00021481E0017000D0000F000FA010038002C
:1046C00000F0FCF9069B36041B031E432368002BF5
:1046D00020DB1A4B1A49E3185A1E9341802292019B
:1046E00094465B421B0B174A1B0363441360164A34
:1046F00013601F000A689743FBD1144B2560E21832
:104700002123A06013602368002BFCDA0823E660F5
:104710001360F8BD3F2322681340AB42D9D1A36890
:104720001B051B0D8342D4D1EE22E368D202134055
:10473000B342CED1EDE7C046001BB7000040FDBF3D
:1047400008C0004000E0004000F0004004300000DD
:1047500010B580241C4BE4051C6000281AD00123EE
:104760001A4C18431A4BDC611A4C44401C625962C3
:1047700098628021144BC9051960174817490860D1
:10478000E021C9041960002A07D18022144B1206C7
:104790001A6010BD0E4BD861EBE753019B1A9B00CA
:1047A0009A18802312015B049A4209D213000D4922
:1047B0000B60074B5A608022094BD2051A60E8E76C
:1047C000094B1A00F3E7C04600B00540D3C007B05C
:1047D000008005402D3FF84FFCFF010008200140FC
:1047E00000A00540FC300020FFFFFF008023024AAC
:1047F0009B000B43D362704700800540002310B537
:104800000100988A1B8B984710BDC046162310B52F
:104810000100188802331B88984710BDF8B5474639
:10482000CE4680B50F1E18D01423994604330400D9
:104830000025012698464B461888434621681B8868
:10484000984701C4431E984101350640AF42F2D15A
:104850003000C0BCB946B046F8BD0126F8E7C046F6
:10486000002370B504000D00988A05491B8B9847FA
:1048700003000020002C01DB0130A04029009847F4
:1048800055420000AA23064A1B0113608D235B00DA
:10489000D3600449044B19605368002BFCDA70475D
:1048A0000040024000B0FA00006002407047C0467D
:1048B00010B50148FEF76AFD94DF001070B5074D92
:1048C000074EB54209D20024013E761BB60808CD3A
:1048D000984723000134B342F9D170BDD8DB0010F2
:1048E00014DC0010054B064A06491A60064A074BBD
:1048F0001A6010000B689843FBD1704700E000403D
:10490000BFCDFBFE08C00040FE7F3C0000F0004031
:10491000044BDB6C002B03D18022034BD2021A60C4
:104920007047C046000011504C201150044A054BFE
:104930001A60054A1368DB018033FBD17047C0461B
:10494000FFFFFF0100F0004008C000404022034B81
:104950009A675A671A67DA667047C04600F00140E6
:1049600010B5FEF7CBFD10BD70B5044D044CA96821
:10497000C022200001F052F9AC6070BD00ED00E0F3
:1049800000000020002310B5294C82B0A367FFF778
:1049900079FF0122274B1A60636C012BFCD10322A3
:1049A000254B1A60224A936B012BFCD101330093F3
:1049B0000121224A22480433FFF778FE0523012112
:1049C0000093204A2048FFF771FE002202210420B4
:1049D0001E4BFFF7F1FD0022012105201C4BFFF7C4
:1049E000EBFD0022002107201A4BFFF7E5FD002216
:1049F00000210820174BFFF7DFFD8023DB00009329
:104A0000002200210920134BFFF75CFD0022104B10
:104A100000210620FFF7D0FD0420FFF741FE0E49DC
:104A200000F04CF801000020FFF7E0FE02B010BDDE
:104A3000008000403CB0004030B00040002F68597A
:104A400000800240008C864700C00240001BB70077
:104A500040597307006CDC0240420F0001480421FA
:104A6000014B1847501000201D480010124A936F48
:104A70009B0815D29066D166002905D0FFE7FFE7B5
:104A8000FFE7516F106F704704B580210906C21708
:104A90005140002800D0C84309F066F8002104BD49
:104AA000F0B5146E556E576F166FFFF7E3FF14667F
:104AB000556657671667F0BD000000D0114A936F26
:104AC0009B0813D210665166002905D0FFE7FFE767
:104AD000FFE7516F106F704704B5002801D0002028
:104AE000C04309F041F8002104BDC046F0B5146E82
:104AF000556E576F166FFFF7E5FF146655665767DB
:104B00001667F0BD000000D094464A4A926F9208A2
:104B1000624601D228E0C046F0B5464E346E756E4E
:104B2000776F366F00F020F89446424A1466556657
:104B3000576716676246F0BD94463E4A926F9208E8
:104B4000624601D254E0C046F0B53A4E346E756EFE
:104B5000776F366F00F04CF89446364A1466556607
:104B6000576716676246F0BD002B24DB11D0002981
:104B70003EDA00B5C943404200D1013100F038F8B7
:104B8000C943404200D10131DB43524200D10133DD
:104B900000BD002AEBD1002801D1002905D000205A
:104BA000C90FC90701D1C043410800B508F0CCFFC7
:104BB0000022002300BD00B500290ADBDB4352427E
:104BC00000D1013300F014F8C943404200D1013153
:104BD00000BDC943404200D10131DB43524200D104
:104BE000013300F005F8DB43524200D1013300BD30
:104BF000002923D1002B18D1002A0CD0BC460D4F20
:104C000038667A6600210023FFE7FFE7FFE77A6F47
:104C1000386F67467047002801D00748010000B58B
:104C200008F092FF0022002300BD02000B000020CC
:104C300000217047000000D0FFFFFFFF002B00D0D5
:104C4000BFE0130C28D1002AE7D080B4114F396699
:104C50007A66FFE7FFE730B4040C7B6F396F1B0403
:104C600023433B667A66FFE7FFE7FFE7C04684B26F
:104C70007B6F3D6F1B0423433B667A66FFE7FFE7CC
:104C8000C04600232C042D0C7A6F386F001969413F
:104C9000B0BC7047000000D0F0B594460025140E5B
:104CA00001D112020835140F01D112010435940FFD
:104CB00001D192000235D40F01D152000135D40B3D
:104CC0000134254F7C66254C3C660E0C93B2FFE701
:104CD000FFE7FFE73C6F6643360C7703BE4673433E
:104CE000DF0B5B04C01AB941130C7343DB18C91AFC
:104CF000CE086643360CB64493B273431F0F1B01B4
:104D0000C01AB941130C73431F0B1B05C01AB941DC
:104D1000860D8F023E436643360C092D24DB520A72
:104D20007243801A7703460A6643360C16235B1BD0
:104D3000DE40DF40BF1964466643821B704604357F
:104D400006330100D940A840C01900D30131A24266
:104D500006D20023F0BD0000000000D0FFFFFFFFDF
:104D6000121B0130F3D3F1E709277F1BFE40644695
:104D7000A2B27243801A00D20139220C7243130C82
:104D80001204821A99410B00704604351337010052
:104D9000F940A840801900D30131002B02D1A24272
:104DA0000AD2F0BD013000D30131121BFAD2013B0F
:104DB000F8D1A24200D2F0BD013000D30131121B64
:104DC000F7E7F0B51C0C00D080E00CB400251C0AFD
:104DD00004D11B02160E3343120208351C0B04D1FA
:104DE0001B01160F3343120104359C0B04D19B00A9
:104DF000960F334392000235DC0B02D192185B41CF
:104E000001351C00971864410134464F7C66464CBE
:104E10003C660E0CFFE7FFE7FFE7C0463C6F6643CA
:104E2000360C7703BE4697B27743C01B00D20139D8
:104E3000C01B00D201399FB27743C91BC91B170C95
:104E400077437E04FF0B801BB941CE086643360CC6
:104E50000C2D33DBB644120B1F053A431B0B97B2E4
:104E60007743C01B00D201399FB27743C91B170C8F
:104E700077433E043F0C801BB941860D8F023E43B1
:104E8000664329277F1BFE400C3D7746AF40BF1984
:104E900030BCA2B2ABB272437343801A9941220C68
:104EA0007243130C1204801A994102000B0001375F
:104EB000001BA941F9D2781E0021F0BD0C277F1BF1
:104EC000FE4077467F0BAF40FF19E0E700245D1CF2
:104ED00007D0144F7D663966FFE7FFE7FFE7FFE77E
:104EE0003C6F95B29EB265436643401BB141150CC1
:104EF0001E0C6543664336042F0C3E432D04401BB5
:104F0000B141994204D202000B0020000021F0BD03
:104F100001D19042F7D3801A994101349942F2D3DA
:104F2000F6E70000000000D0FFFFFFFF48404140CF
:104F3000484018B41B4B5B68FC46019308BD04DF76
:104F40000752001018B4174B1B68FC46019308BDAC
:104F500000DF115200109446134A926F920809D252
:104F6000624618B40F4BDB68FC46019308BD0CDFAA
:104F7000C95400100C4AF0B5146E556E576F166F79
:104F80006246FFF7EEFF084A1466556657671667D4
:104F9000F0BD18B4034B9B68FC46019308BD08DFC5
:104FA0006D530010B0170020000000D0FFB5504036
:104FB0004240504059404B40594000E0FFB5154F2A
:104FC0004C00640D03D0BC4204D10C0314D8002063
:104FD000090D09055C00640D03D0BC4204D11C031B
:104FE0000AD800221B0D1B0501264B4009D44B405B
:104FF00003D58B4200D18242FFBD9942FCD1904241
:10500000FFBD0B43DB1803431343F5D0C9434918D5
:10501000FFBD0000FF07000000B5FFF7CFFF804194
:1050200000BDC04600B5FFF7C9FF01D9002000BD93
:10503000012000BD00B5FFF7B9FF01D9002000BD78
:10504000012000BD00B5FFF7B1FF804100BD012088
:1050500040054A00121804D85A00121801D800203E
:1050600070470120704700000021002805D17047DB
:10507000C1174840401AFAD0C90713B5064B1B6840
:1050800098470CBC441CA2401005120B0349091B95
:1050900009051943114310BD283400201F040000E6
:1050A00010B54C00620D8023D218DB00D21A5B05CC
:1050B0007E2A10DD9E3A13DACC17090349081943FA
:1050C0005242D140640001341532202A05DAD04022
:1050D0000843604310BD002010BD0846604310BD6A
:1050E000C80FC018013810BD18B4044B5B6AFC46E9
:1050F000019308BD24DF215800100000B0170020E4
:1051000018B4044BDB6FFC46019308BD7CDFA1584B
:1051100000100000B017002018B4044B9B69FC4637
:10512000019308BD18DF955600100000B01700204D
:10513000132370B51D78012D19D014DD1F48FFF71A
:1051400065FB06001E48FFF761FB1E4C8022310004
:10515000200000F063FD022D2DD01B48FFF74EFB11
:105160001A4B186070BD1A4B164CA364F5E7184B28
:10517000144C23606360A360E36023616361A361F7
:10518000E36123626362A362E36223636363A363F5
:10519000E36323646364A364E36423656365A365D5
:1051A000E36523666366A366E36623676367A367B5
:1051B000E367A364D1E7064BA364CEE75344000042
:1051C00053460000B01700204C3300002834002064
:1051D000D551001007B5604601880A0A0230DF2A5F
:1051E000FAD1C9B2820804D302884088000410436F
:1051F00000E00068014A5050039007BDB01700203E
:105200000FB403BC0CBCF0B50124E407634000E01C
:10521000F0B50C0DCF0F661E3605891B640503D350
:10522000C943404200D30131640D03D0661CF60A25
:1052300007D0E41B00207F00791C89078912803C7D
:1052400024031D0DDF0F6E1E36059B1B6D0503D35A
:10525000DB43524200D301336D0D03D06E1CF60ABE
:1052600007D0ED1B00227F007B1C9B079B12803D1B
:105270002D032F1B661B58D4A446202E46DA203758
:105280001400BC401D00BD40F24033412A43801849
:105290005941CB0F05D0C943C0430022644250415D
:1052A000514162464D0D28D10D0D07D100281FD068
:1052B000241940414941013A0D0DF9D0640006D34B
:1052C000013000D30131002C01D140084000013AE7
:1052D0000BD4941CE40A04D112051144DB071944D1
:1052E000F0BDD907204B194300E0D9070020F0BDDD
:1052F0000029DDD1002CDBD1F0BD0132C60740080A
:10530000CD0728434908002EE1D0D9E73C2E29DA01
:10531000203E40371400BC4000D00124F24014432A
:105320001A00BB401C43D317ACE7AC46202F08DA69
:1053300020360400B4400D00B540F8403941284300
:10534000A5E73C2F0CDA203F40360400B44000D0E3
:105350000124F84004430800B1400C43C117EAE7B8
:1053600010001900002494E70000F07FF0B50C0D48
:10537000661E3605891BE60A6405640D02D0651CAD
:10538000ED0A04D0002001210905803C2403A44635
:105390001C0D671E3F05DB1BE70A6405640D02D088
:1053A000651CED0A04D0002201231B05803C240368
:1053B0007740644497B484B296B27443070C7E433A
:1053C000150C6F4380B26843361802D301200004E5
:1053D0003F183004350C00197D41844688B29AB2DA
:1053E00050430C0C62431F0C7C438EB27E439219D7
:1053F00002D301263604A4191604170C3618674187
:1054000001BC81B29AB25143040C62431B0C5C4351
:1054100080B25843121802D301200004241810044B
:10542000130C401863412D185E410020474106BC13
:1054300088B293B258430C0C6343120C544389B2A4
:1054400051435B1802D301210904641819041A0C92
:10545000091862416D1856410020474118BCF902F5
:10546000720D1143F0026A0D1043ED020A0D03D1D3
:105470006D1940414941013B124E9B1B7600B342DE
:105480000ED26D0007D301300026714166463543C8
:1054900001D1400840001B05C918E4072144F0BDB4
:1054A0000BDA013306D1013004D101314F0D01D0A7
:1054B0004908F2E7E1070020F0BD01363105002080
:1054C000EBE70000FF030000F0B51C0D671E3F0571
:1054D000DB1BE70A6405640D02D0661CF60A04D0E3
:1054E000002201231B05803C2403D0252D06002625
:1054F000F6432E661E096E66CE0FF619B4464900B5
:105500004F0D02D07E1CF60A03D000200021403F40
:105510003F033E1BB600B444013F7F05C91B490849
:105520002E6F013676089C02950D25437543ED13C9
:105530007543AD1301356D10F603761B0CB4CC0228
:10554000450D2C43A2B2B3B25A43270C7B43350C12
:105550006F43A4B26C431B1902D3012424043F19E6
:105560001C041D0CA4187D4124196D41009A91B2B0
:10557000ACB26143170C7C432B0C5F4392B25A438D
:10558000A41802D301221204BF182204230C5218BB
:105590007B41019C6C431B19520ED9010A43440103
:1055A000A01A81B2B2B2514303145A43360C73436A
:1055B00087B27743D617D21900277E4136049B194C
:1055C0001704160C7F185E417316ED18F3010026C0
:1055D00080337541A90F06D16400690AE8055B0AAA
:1055E000184309D22FE00422944480337541A90A5C
:1055F000A8059B0A184326D3404149412404009A38
:10560000019B0D005543641B4343E41A95B286B2D7
:105610007543170C7E43030C5F4392B25A43B6188E
:1056200002D301221204BF183204330C52197B41F9
:1056300052429C41002C02D40022013051414008CA
:10564000CA071043490802B06246D7079210084BB8
:10565000D218084B9A4203D212058918C919F0BD15
:105660000020002A01DC3900F0BD01331905F5E7FF
:10567000FD030000FE07000007DA002107E0C90F64
:10568000C907520D03D0C91201E04C490905002099
:105690007047C0464A00F2D2520D013A484B9A4236
:1056A000EAD2F0B51405091B520801D3001849418C
:1056B0009B08D2181205944640A44A0CA25C0B0920
:1056C000534353431B1353435B131202D21A130069
:1056D0005B435B0B4C086343DB135343DB15013324
:1056E0005B10D21A130CD21A13005B438902840D8B
:1056F00021438DB29EB275430F0C7E431B0C5F435A
:105700008CB25C43361902D3012424043F193404BB
:10571000330C64197B419D01A40E2C432034A5B2A7
:105720005543241454432D0C6419A411D203121BA5
:1057300095B28EB27543170C7E430C0C674393B23F
:105740006343F61802D301231B04FF183304340CFF
:105750005B197C41DB186441DB18002363419EB276
:1057600076439DB21F0C7D437F436C04ED0BA4195F
:105770007D4106028F08361BAF417D07F6086E415A
:10578000B4B295B26C4337147D43120C5743B6B292
:105790005643EA17AD19002672411204BF182E04B1
:1057A0002A0C36197A410832521117D29D0A9C05EB
:1057B000D117101969416144F0BD0000FF070000D6
:1057C000FE070000F8EBDFD6CDC5BEB8B2ADA8A489
:1057D000A09C9995928F8D8A8885838152415D0A1C
:1057E000DC05D11714194D412B006343A6B2764353
:1057F000A2B2270C7A437F435104D20B89197A4114
:10580000D218D21880054942904102D400230134B5
:105810005D4160086908ED0728436144F0BDC0465A
:10582000002200B5203200F004F8080000BD00009E
:1058300000220B150AD410B5944600F05FF814143A
:10584000013400DA0021CB17144C2047002000213E
:1058500070476244343A0CD40C2A07DA04009140B1
:10586000904052422032D440214310BDD843D94306
:1058700010BD203207D40C469440524220321141D0
:10588000D040204310BD0800C917203203D4524233
:105890002032104110BD1800190010BD53580010DF
:1058A0004A00520D144BD21A13DDFF2A1EDAD2051C
:1058B000CB0FDB071A43C300400F0903490A084313
:1058C00010435B0001D301D0013070474308FBD285
:1058D000704702D0C80FC00770470A031213013285
:1058E000F8D1420F072AF5D1012200E0FF22C80FAC
:1058F00000028018C0057047800300000A0DCC0F1D
:10590000531E1B05C91A520503D3C943404200D395
:105910000131520D03D0531CDB0A07D0121B0020AB
:105920006400611C89078912803A1203014BD21A64
:1059300070470000FF03000051434343C9188C46E1
:10594000110C83B24B4310B4040C614392B280B289
:10595000504362431C041B0C001910BC5941130432
:10596000120CC0185141614470470000484041404A
:1059700048400E4B5B6818470C4B1B6818470C4A95
:10598000936F9B0802D2094BDB681847F0B5146E81
:10599000556E576F166FFFF7F6FF054A146655668A
:1059A00057671667F0BD014B9B681847B018002079
:1059B000000000D0491A002808D1084670470000AE
:1059C000C10FC90700D54042002817D0F44603B4E0
:1059D0000B4B1B68984706BC81409E384042803183
:1059E00007D20B0607D04900490AC00510430843F7
:1059F00060470130F8E7490A8902F5E7704700007F
:105A00002834002041000A0E80231B067E2A0BDD6D
:105A10009E3A0BDAC1174002400818435242D04068
:105A2000490001314843704700207047C00FC0183B
:105A300001387047C0420DD300B540004008002136
:105A400000F012F8002801D4404200BD802000067A
:105A500000BD0000034BDB69FC4618471CDF195BE7
:105A600000100000B0180020014B5B6A18470000CE
:105A7000B0180020034BDB6FFC4618477CDF315B1E
:105A800000100000B0180020132310B512481C7835
:105A9000FEF7BCFE0100012C0AD003DD80220F4876
:105AA00000F0BCF80E48FEF7A9FE0E4B186010BDC2
:105AB0000A4C5422200000F0B1F80B4B6365A3653B
:105AC000E36523666366A366E36623676367A3678C
:105AD000E3672362E361E5E753460000B018002066
