:020000041000EA
:1000000000B5324B212058609868022188439860DF
:10001000D860186158612E4B002199600221596106
:100020000121F02299502B49196001219960352056
:1000300000F044F80222904214D00621196600F024
:1000400034F8196E01211966002018661A6600F04E
:100050002CF8196E196E196E052000F02FF8012189
:100060000842F9D1002199601B49196000215960AB
:100070001A491B48016001219960EB211966A021F2
:10008000196600F012F800219960164914480160C1
:100090000121996001BC002800D000471248134993
:1000A000086003C880F30888084703B5996A0420EC
:1000B0000142FBD001200142F8D103BD02B5186610
:1000C0001866FFF7F2FF186E186E02BD00000240BE
:1000D000000000180000070000035F00212200005C
:1000E000F4000018222000A00001001008ED00E03C
:1000F00000000000000000000000000074B24E7A12
:1001000000200420F7010010C3010010C5010010F9
:10011000C1010010C1010010C1010010C101001097
:10012000C1010010C1010010C1010010C701001081
:10013000C1010010C1010010C9010010CB01001065
:10014000CD010010CD010010CD010010CD01001037
:10015000CD010010CD010010CD010010CD01001027
:10016000CD010010CD010010CD010010CD01001017
:10017000CD010010CD010010CD010010CD01001007
:10018000CD010010CD010010CD010010CD010010F7
:10019000CD010010CD010010CD010010CD010010E7
:1001A000CD010010CD010010CD010010CD010010D7
:1001B000CD010010CD010010CD010010CD010010C7
:1001C00000BE00BE00BE00BE00BE00BEEFF3058054
:1001D000103800BEF2EB8871B8650010E0650010C1
:1001E0003802001090A31AE71E481F49086006C88D
:1001F00081F3088810471D480068002801D019487D
:10020000F3E70DA40ECC002902D000F012F8F9E7B4
:100210001749184A002000E001C19142FCD116495B
:100220008847164988471649884700BEFDE701C937
:1002300001C29A42FBD37047E0650010C000002065
:1002400028080020486D0010000004200000042051
:10025000486D001000100420001004200000000071
:10026000704700000000000008ED00E0000000D032
:10027000280800209415022061270010F5050010C1
:1002800059270010F8B5C04606480749091A8B10CF
:10029000C90FC91810B5491003D0044B002B00D06A
:1002A000984710BD28080020280800200000000002
:1002B000054B10B5002B03D00449054800E000BFF2
:1002C000FFF7E2FF10BDC04600000000C41100208F
:1002D0002C60001070B5D02580242D06A403642066
:1002E0006C6104F0EBFBE120AC61800004F0E6FB04
:1002F000F5E7C0468023F0B5C646D0258027802686
:100300009B01984600B52D063F0176014346002427
:100310006B61AF61AE61200000230022282101340F
:1003200000F0F0FB192CF6D100F03EFCFA20800022
:1003300004F0C4FB43460024AB616F61AE61200052
:10034000002328220021013400F0DCFB192CF6D117
:1003500000F02AFCFA20800004F0B0FB43460024A1
:10036000AB61AF616E6120002823002200210134BF
:1003700000F0C8FB192CF6D100F016FCFA20800022
:1003800004F09CFB4346AB61AF61AE6100F0C6FB7D
:1003900000F00AFCFA20400004F090FBB6E7C046EB
:1003A000F0B58BB001AD2A00164B13CB13C21B78EE
:1003B0001549137015236B440D22180002F08AF9B9
:1003C000124C134F134E802200212000D20002F065
:1003D0007BF92B0020001022052100F0E5F9152300
:1003E000202220006B44052100F0DEF939002000B6
:1003F00000F08EF9012229003068524203F00CFE11
:10040000E1E7C0463060001040600010A40D0020FD
:10041000A411002008150220F0B557464E46454667
:10042000DE46E0B53C4B91B09B463C4B0027059324
:100430003B4BD02603933B4B002504933A4B07AC30
:1004400098463A4B36069A46394B01970293202339
:1004500099461CE004F054F92300029A83CA83C32E
:100460000722039906A8844615236344180002F066
:1004700031F94346002218682100002303F03AFCBA
:100480009620400004F01AFB322004F017FB4A4685
:1004900073681A4222D10123019A5A4001922ED048
:1004A0005B46186804F02CF92300059A03CA03C3BD
:1004B00012781A700722039906A88446152363440C
:1004C000180002F007F943460022186821000023B3
:1004D00003F010FC9620400004F0F0FA73685B060D
:1004E000D2D401235D4053461868B3D104F094F987
:1004F0002300029A83CA83C308220499B2E75B46A9
:10050000186804F089F92300059A03CA03C3127816
:100510001A7004990822CFE71C15022050600010C1
:100520005C6000106460001008150220DC140220DA
:100530006C60001010B50D2000F098FBD0248023D3
:1005400024069B0163620B2000F090FB80231B01BB
:1005500063620C2000F08AFB80235B01636215203C
:1005600000F084FB80239B036362052000F07EFB88
:1005700020230022A3620121052000F063FB062056
:1005800000F074FB40230022A3620121062000F04A
:1005900059FB0B490B4802F02FFC03210E2000F001
:1005A00037FB03210F2000F033FB002201210E2036
:1005B00000F048FB002201210F2000F043FB10BD9A
:1005C000801A0600A802002010B5402380223C219A
:1005D000054800F071F80548054B036000234360AF
:1005E00000F05EF810BDC046A8020020A411002053
:1005F000007F000710B582B002F0BEF9FFF79AFF46
:10060000FFF7E2FF1921072000F004FA002222215F
:10061000052003F01DFB01248022164B16491860AB
:10062000164B0094019392000023154804F056F8ED
:100630008022144B14490193009400235200134864
:1006400004F04CF800240223802211490093520048
:1006500000231048019404F041F80323C0220E49FE
:100660000093520000230D48019404F037F804F081
:100670001FF9FEE708150220506000101C1502202B
:10068000F5020010DC1402206C600010D50200108E
:10069000786000101904001084600010A10300109D
:1006A000037842788178D21AC37801325B1A013319
:1006B000534343607047C046F0B54746CE4680B5C9
:1006C0008BB003AC2200104B802723CB23C223CB5B
:1006D00023C21B880026138026236B4499460B4BAC
:1006E00002AD984623782F706B702A0002233C21BC
:1006F00040460096013402F0A7FB4C45F2D10BB006
:10070000C0BCB946B046F0BDE8630010A8020020A6
:10071000F0B557464E464546DE462123E0B587B044
:1007200004AC23700B78834663704B788A46A370C1
:100730002223E3704B880027A38016236B4499463D
:1007400080239846174E03AD424623782A706B707B
:100750002A0002233C2130000097013402F074FB90
:100760004C45F1D153465B685D1C2800984601F06A
:1007700053FF40230400424659460370013001F004
:10078000A9FF2B0022003C213000009702F05CFB07
:10079000200001F081FF07B0F0BCBB46B246A9467D
:1007A000A046F0BDA8020020F0B5DE4657464E46F2
:1007B0004546E0B585B0782949DC382A47DC1D7804
:1007C000002D44D00724D6173440A418E410E401C7
:1007D000A346564A0292564A03920133782931DCE5
:1007E0000326029A2C00525D3240022A01D1203C9D
:1007F000E5B2233DEDB2372D32D8039AAD00525900
:100800009746403C4B4AE400155D12195478AA46BD
:10081000A14694785779A046D4789679A44614795D
:10082000D57901945A4654468A1884544C46821805
:100830005470444694706446D470019C577114718E
:100840009671D5711D78083109B2002DC5D105B05A
:10085000F0BCBB46B246A946A046F0BD153CD1E768
:100860000025002600270022944690469146924695
:100870000192D7E7082201920C32944690460E323C
:10088000914600220025002608279246CAE7022248
:100890000192023294460432904608329146103258
:1008A0000025002600279246BCE7142201920C3A4C
:1008B000944690460022002522261427914692460F
:1008C000B0E70022944601923632904691460022CB
:1008D0000025002600279246A4E74022019200222C
:1008E000002500260027944690469146924699E7B7
:1008F0007F2201926B3A944690466B3291466B3A56
:1009000000250026142792468CE7002500260027A4
:100910000822A9E708229446019236329046363AD8
:10092000002500260027914692467BE7B56400101B
:100930009C61001080620010F0B5C6461C0000B536
:10094000304B0E00C118090D063186B00500C9B242
:100950002000170000F05CF9012331002200009311
:10096000280002F013FB80235B020293FB1CFA01B8
:100970001B031343244AA40213400393F823DB010F
:100980001C4080239B0523430593204B05200493A3
:1009900001F082F901F0CAFD1D49041C0C9801F018
:1009A000BEFD011C201C01F0A6FDEC21890501F013
:1009B0009FFD804601F0E2FD84B20023002C0ED0A2
:1009C000200001F0B3FD011C404601F08EFD87219F
:1009D000C90501F0A4FD01F0D1FDC3B21B0224043E
:1009E0003A001C43310002AB2800029402F028FBBD
:1009F0000123B3402A6813432B6006B080BCB8467D
:100A0000F0BDC0460000E0AFFFFFFF9F00000E50AA
:100A100000002041F0B5CE46474680B5324F83B046
:100A2000050039600800032101F014FE2F4E304B01
:100A3000304918603000984602F02CFA2E4B040022
:100A40000021300099461E6002F008FA2B4B01008D
:100A500018604B4618682A4B220000932B00FFF7C2
:100A60006BFF3C68002C2ED043461968631E042B94
:100A70002ED98B072CD1A208500080180B00002221
:100A8000800040181A605A609A600C338342F9D192
:100A9000032320009843234215D043001B18CD1890
:100AA0006A702A70AA70451CA5420CD2DD1C4D1933
:100AB00002306A702A70AA70844204D90633CB18B7
:100AC0005A701A709A7003B0C0BCB946B046F0BDF7
:100AD0000B0000226100091959185A701A709A7097
:100AE00003338B42F9D1EEE7B4110020000020500F
:100AF000B811002004640010BC110020C0110020B7
:100B00000050434930B5044D4400241828680019AA
:100B100041700270837030BDB8110020204B30B599
:100B20001C68002C2ED01F4B1968631E042B2AD979
:100B30008B0728D1A208500080180B0000228000EB
:100B400040181A605A609A600C338342F9D103232B
:100B500020009843234215D043001B18CD186A701B
:100B60002A70AA70451CA5420CD2DD1C4D1902301A
:100B70006A702A70AA70844204D90633CB185A705E
:100B80001A709A7030BD0B000022610009195918C3
:100B90005A701A709A7003338B42F9D1F2E7C0464B
:100BA000B4110020B8110020154B70B51968002948
:100BB00020D0144B4E001A68134B76181C68012382
:100BC0002000103083401148A40000681419361822
:100BD000057851680B42FCD12561457851680B427C
:100BE000FCD12561857851680B42FCD10330256129
:100BF0008642EDD16420002100F076FD70BDC04634
:100C0000B4110020BC110020C0110020B811002038
:100C1000094A83009A1810B5146840225440803263
:100C20002240064CC000A44663441A60044B9C4614
:100C30006044416010BDC04604C0014004D0014082
:100C400000400140074B8000C3181B68C900920098
:100C50000A435A400C231340034A944660440360FD
:100C60007047C04604C0014004D001400123D02297
:100C70008340120693629361094A83009A181168AF
:100C80004022514080320A400649C0008C466344ED
:100C90001A60054B9C460523604443607047C0467C
:100CA00004C0014004D00140004001400FB400B531
:100CB000084883B001F0B0FE049B002B07D005A9C3
:100CC0001800019101F014FD034801F0A5FE012078
:100CD00001F026FD94600010A460001010B50148DA
:100CE000FFF7E4FFA8600010EFF3108072B6034A2C
:100CF0001368002BFCD0BFF35F8F70472C0100D02E
:100D0000BFF35F8F0022024B1A6080F31088704798
:100D10002C0100D070B5EFF3108C72B60D4D2B681E
:100D2000002BFCD0BFF35F8F0724CB08C618C05C34
:100D300001230C40A3401C000440034207D1184388
:100D40003070BFF35F8F2C608CF3108870BD100083
:100D5000FFF7ACFF2C0100D0F8B54746CE468846D9
:100D600080B5EFF3108C72B61C4D2C68002CFCD0B3
:100D7000BFF35F8F9A4222D807210126894602E0FD
:100D80000132934218D34D4637001540AF40D40886
:100D90000119045D2742F3D110003C430C70BFF3EE
:100DA0005F8F00220D4B1A608CF3108800280EDB39
:100DB000C0BCB946B046F8BD01204042EFE7BFF3E2
:100DC0005F8F00232B608CF3108801204042434644
:100DD000002BEDD00898FFF769FFC0462C0100D02A
:100DE000044A1078431CDBB2172B00D91023137070
:100DF0007047C046000200200021044B044ABFF3A4
:100E00005F8F02C39342FAD17047C046000100D001
:100E1000800100D0054B064A1360064A13605360F8
:100E20009360D360136153619361704780808080C9
:100E300000E400E004E400E01F2318401E3B834070
:100E4000002905D0C021044A49005350136070475F
:100E5000802201498B50FAE700E100E070B50D00F7
:100E6000EFF3108672B60F4A1368002BFCD0BFF365
:100E70005F8F0D4B10309B6884001B590B4A9342C7
:100E800003D09D4201D000F0AFFF074B9B681D517E
:100E9000BFF35F8FBFF35F8F0022024B1A6086F3B0
:100EA000108870BD240100D000ED00E0CD010010DD
:100EB000F0B5DE4657464E464546E0B50C0083B0D9
:100EC000EFF3108872B6634A1368002BFCD0BFF3AF
:100ED0005F8F614B61499A68030010339F00D559B9
:100EE00001938D4243D0A54254D05D4EAA1B2F2AB8
:100EF0003DD85C4B9B461B68994601231A009C46D3
:100F000082404B4613401F2299466346024093405D
:100F10009A4680225B4650469850BFF35F8FEFF3AE
:100F200005839B46002B37D0019B5B4501D000F029
:100F30005BFF01232A009A439068844208D176E03F
:100F40004B005B189B00F3189868844236D01A0057
:100F5000062151560029F3DA844254D04B46002B27
:100F600027D0C02251463F4B5200995019603A4B4E
:100F70009B68DD51BFF35F8FBFF35F8F0022354B5E
:100F80001A6088F3108803B0F0BCBB46B246A9468D
:100F9000A046F0BD0D00EAE72A0063469A43906838
:100FA0008442D5D106201056130000280ADA0D001D
:100FB00031E0802351462B4AD150D8E706201856FD
:100FC000002821DB42001118890074188B46A168A3
:100FD0009960E179D971062161569971002924DB64
:100FE000A488F11A640524155C44091909051E4CEE
:100FF000490D2143998013181C4A9B001178F3185E
:1010000099711070AAE713005946002914D1FF31D5
:1010100091711749918015490A789A71154A9B1B5D
:101020005B415A43120D0A7098E71149E2E7062026
:10103000105613000028C5DA0F4A1049D21A083A90
:101040005002400D014399800D4952080A43DA804D
:1010500084E7C046240100D000ED00E0CD0100107F
:101060000402002000E100E000E0FFFF90150220F4
:1010700001BDFFFFAAAA00003E02002000F0FFFF12
:1010800000F8FFFF10B58308040003202040FF2470
:10109000054AC0009446844081409B0063441A681E
:1010A000A2430A431A6010BD00E400E070B50124B9
:1010B0000443EFF30581EFF3108C72B6214A1368F5
:1010C000002BFCD0BFF35F8F1F4B05001F4AED1AAA
:1010D0006D416A43120D1E4D8900AE6852B27658BA
:1010E000A6421CD00621595691421CD012215956B5
:1010F000914222D01E215956914220D02A21595680
:101100000324914210D0134B19781A708171BFF3E8
:101110005F8F00220B4B1A608CF3108870BDAB6898
:101120000D4C5C50EFE700246100091989005B1841
:10113000FF21997109499980E5E70124F4E7022428
:10114000F2E7C046240100D004020020AAAA000051
:1011500000ED00E090150220CD01001001BDFFFF61
:10116000024B9C4661448900016070474000003496
:10117000F8B5124C124DAC4212D20126002776422D
:101180002368002B0DD0FFF72BFE01002000FFF796
:10119000E7FF66602772BFF35F8F0C34AC42EFD37A
:1011A000F8BDFFF71DFE01002000FFF7D9FF6660C4
:1011B000BFF35F8F0834AC42E2D3F1E71808002098
:1011C00028080020F0B5DE4657464E464546E0B5B5
:1011D00087B0EFF30583032201251A409540910063
:1011E0008846A946B34B03925C58B34B1D60B34B82
:1011F00004934B46B24843630823E55E002D37DA7B
:10120000A3881BB2002B00DBADE0A379002B00D03C
:10121000EEE00823E05E002820DB430062691B1833
:10122000DB00D3189E68DD68731C00D111E1A4486F
:1012300001004144826A0B69B71A9B1A9F4215D379
:101240000123026A039883401A420FD09C4800F0A1
:101250004FFB8D4202DCCCD18642CAD940BF07B0D9
:10126000F0BCBB46B246A946A046F0BD0E61EDE714
:1012700062696B0092465B19DB009A4453469E6894
:10128000DF6800F035FB8F42BADC00D103E1002FAC
:1012900000DAE8E05246534652691B699346049AC5
:1012A000934200D1D9E052460821605E5288000482
:1012B000594610439847009001910099019A0B00FC
:1012C0001000134300D1CEE013000A00B61A9F416C
:1012D000002806DB7A4800F00BFB009E019F3618C1
:1012E0004F4153469E60DF6000229A5E002A00DA7A
:1012F00086E7530099186069C900411802938B680A
:10130000C9689B46B94200DD7AE702D1B34200D9F1
:1013100076E708239C46A444059565462281A446A9
:10132000029B2C0006E053009918C90041188D68F3
:10133000C968AB469B18DB00C318B94206DC00D174
:10134000B3E01C000023E25E002AECDA23006446CE
:101350009C4653461A806346059D1D80A3881BB298
:10136000002B00DA51E72269EFF3108172B613689F
:10137000002BFCD0BFF35F8F0123A7885B42A380C3
:101380003FB22369BFF35F8F00221A6081F3108898
:10139000002F00DA39E72300083322009A466669F5
:1013A0007B00DB19DB00F318996850468C46082453
:1013B000115FDD68002910DB029306E0AB4244D0E8
:1013C0000023E15E2000002906DB4C006418E400E5
:1013D0003419E368AB42F1DD029B078000201F5EF9
:1013E0001980002FDCDA1400A379002B00D110E75C
:1013F0000023A37126000823E15E08364B1C00D1B0
:101400002CE70800A246656902E03E004B1C1AD09A
:101410004B005B18DB00EF180A008C46E95E7B8806
:101420001BB2002BF1DA01235B42DC17BB60FC60CE
:10143000824205D0534631801B893B8053461A8136
:1014400060464B1CE4D15446E5E6A3686345B7D932
:10145000C2E76B1C00D0EAE6F8E65B4658461B691B
:10146000984700281BD153461B8822692381EFF33C
:10147000108372B611680029FCD0BFF35F8F51460C
:1014800062880A8022696580BFF35F8F0021116046
:1014900083F31088B4E6864200D8F8E6B0E65B46EF
:1014A0001A685B680092019307E7B34500D848E7E4
:1014B0004CE7C046DC1100203C700540C51100100F
:1014C00000400540074810B50268EFF3108172B67E
:1014D0001368002BFCD0BFF35F8F02F073F800207D
:1014E000002110BD8C14002070B52E4C2569002DF4
:1014F00004D00A212C48FFF733FE70BD2B4E032188
:10150000300000F0EBF9E660FFF76AFC284B03229D
:101510009C46D02322701B061B6801216370254B5B
:101520006044A3600F238000206102206380636910
:101530004942A18019800231198647311D835852D2
:1015400018315A5275325C39995218320131995218
:101550001832013199521832013199520835183236
:101560009D52023118329952183201319952183273
:101570000131995218320131995218320131995280
:101580001832013199520C4B0C49DC600130356244
:10159000FFF764FC01210320FFF74EFC084B1D60A0
:1015A000A7E7C0464C0200208C14002000400540F4
:1015B00040000034FFFF1000DC110020C5110010B6
:1015C0003860054070B501000469EFF3108C72B605
:1015D00020680028FCD0BFF35F8F02200D5E4C69AD
:1015E00068004019C00024180869002D36DB2688E1
:1015F0004E80BFF35F8F002606608CF31088E36097
:1016000063880498013320615B0405985B0CA26039
:1016100060611A1C002B1FD093B22804628018430B
:101620000A69EFF3108C72B61368002BFCD0BFF37D
:101630005F8F8B8823808D800B69BFF35F8F0022C3
:101640001A608CF310880B7801329A40CB680849F5
:101650008C4663441A6070BD0122DDE7BFF35F8FE3
:10166000002303608CF3108801204042F3E7C0465A
:101670003C20000010B543890A1493421ADD530040
:101680009B184269DB00D3180469EFF3108C72B623
:101690002268002AFCD0BFF35F8F5A88090494B2F5
:1016A000090C8A4208D00369BFF35F8F00221A60D9
:1016B0008CF31088002010BD8022120214435C803D
:1016C000012302698371BFF35F8F002111608CF3E6
:1016D0001088044902788C469340C2680120624415
:1016E0001360E8E73C200000F0B5CE46474680B5E1
:1016F00083B004000D0000F003F924184D41002DC3
:1017000002DA01242D4D644296267642F7173619E7
:101710006F41AF4215D812D000F0F2F832003B0012
:10172000121A8B41002B18DC002B43D0200029001B
:1017300000F024F903B0C0BCB946B046F0BDA642E3
:10174000EAD90022002316001F0000F0D9F8320069
:101750003B00121A8B41002BE6DD00F0D1F832007D
:101760003B00121A8B41002B0ADB00230193144B20
:101770003200009313483B00FFF724FF0130D5D01F
:10178000114BB1469846114E736A9F4204D8B26A13
:101790004A45CBD29F42C9D143461A68EFF3108124
:1017A00072B61368002BFCD0BFF35F8F404601F088
:1017B000D5FEE9E7002AB9D0CFE7C046FFFFFF7F9B
:1017C000C51400104C0200208C140020004005407D
:1017D000F0B557464E46DE464546E0B506000F00DA
:1017E00085B0EFF3058399468B46002B12D038491C
:1017F00000204B6ABB4206D38A6ADB1B591E8B4111
:10180000B2424041184305B0F0BCBB46B246A946BF
:10181000A046F0BD2F4B9A46DB68984653461B788E
:101820004046039300F064F84246039B04000433EF
:101830009B009B580D001B1A39003000001BA9416A
:10184000894510DC0DD020BF214A0020536A5B453A
:10185000D9D3926ADB1B591E8B41B24240411843D7
:10186000D1E78342EFD900F04BF832003B00121A67
:101870008B41002B1ADB00230193174B320000939E
:1018800050463B00FFF79EFE011E0FDD104B5A6ACB
:101890005A451BD39B6AB34216D35046FFF7EAFE64
:1018A0000B4A0020536A5B45ADD3D2E7084A0020BB
:1018B000536A5B45A7D30020926ADB1BB2424041CA
:1018C0005A1E934118439EE75A45E6D120BFE4E7EC
:1018D000004005404C020020C514001010B5024A1B
:1018E0000248FFF717FA10BDB8600010680D00201D
:1018F0000300416A0A00986A596A8A42FAD170471D
:10190000034B596A0A00986A596A9142FAD17047A2
:101910000040054070B504000D00174A536A1900D5
:10192000966A536A8B42FAD13000190024184D414F
:10193000AB4216D813D0104B2A005B6A9D4203D9E4
:101940000D494B6A9342FCD3934207D10A4A02E005
:10195000516A994202D1916AA142F9D370BDA6425F
:10196000E9D9054B5B6A1C005A1CEFD00122012407
:101970006442E5175242E3E700400540064A536AD5
:101980009942FCD807D1044B02E05A6A914202D135
:101990009A6A9042F9D8704700400540F8B50400B3
:1019A00006200D0000F078F9002844D0374B384964
:1019B000E3185A1E93418022120494465B429B0D09
:1019C000344A9B0563441360334A136018000A6865
:1019D0009043FBD12D4B314AE31859424B418021B2
:1019E0005B0049000620995200F056F92900C0001A
:1019F00000F0D8FA0130C3091ED1402701226262EB
:101A0000A362266BF30722D4E36A254B0620E51870
:101A100000232B60266300F03FF93900800000F0BE
:101A2000C1FA7023E26A5A400E3313402B601D4BFB
:101A300023630323A364F8BD1B4A93421ED90023EA
:101A40001A4A1B4F6262A362266BF307DCD5194B5F
:101A5000144AE3181A60656AA36A0620AD01ED18FE
:101A600000F01AF9144900F09DFAAD0201002800B7
:101A700000F098FA0021FFF74DFFC5E74006800E01
:101A80009F011A003F180300B9E7C0460080FCBF61
:101A900008C0004000E0004000F00040901400202A
:101AA0002C10000001030000FEFF0000FFFF0000FB
:101AB000C0FF3F00303000004E0E0000F8B5DE469B
:101AC0004E4657464546E0B58B4605000A99180034
:101AD000160000F067FA0A9B6C001F02324B641973
:101AE0009C46A4006444636881469F4200D96760B5
:101AF0002B1FDBB29846012B30D9C02380229B01DB
:101B0000E31812011A60294BAD0059599A46002971
:101B10001BD17301E026226853401E4080234246B9
:101B20005B01E3181E60012A30D9802380229B01CB
:101B3000E31812011A6053464A4667605A51F0BCD6
:101B4000BB46B246A946A046F8BD586900F02AFA3D
:101B5000013043001B18033BFDD2DAE75B46012B43
:101B6000CBD1C02303229B01E3181A60023AA36879
:101B70001A42FCD07301E0262268AD0053401E409B
:101B800080230A4A5B019246E3181E605A46216888
:101B9000514003220A401A6001225B469A40A36822
:101BA0001A42FCD0C1E7C04600800040700D002002
:101BB000F0B546464F46D646C0B51F00344B4400EC
:101BC0009C462418A4006444636888461600FF2BD2
:101BD00002D880235B006360031FDBB29A46012BAF
:101BE00030D9C02380229B01E31812011A60294BCF
:101BF00085005959994600291BD17301E0262268B6
:101C000053401E40802352465B01E3181E60012AA8
:101C100030D9802380229B01E31812011A608023AF
:101C20005B0063604B465F51E0BCBA46B146A846D4
:101C3000F0BD586900F0B6F9013043001B18033BB2
:101C4000FDD2DAE74346012BCBD1C02303229B010F
:101C5000E3181A60023AA3681A42FCD07301E02626
:101C60002268850053401E4080230A4A5B0191464A
:101C7000E3181E6042462168514003220A401A6060
:101C8000012342469340A2681342FCD0C1E7C046FC
:101C900000800040700D0020014B8000C05870474C
:101CA000700D0020F8B5040021481E0017000D003B
:101CB00000F078F90100380000F074F9069B360452
:101CC0001B031E432368002B20DB1A4B1A49E31821
:101CD0005A1E93418022920194465B421B0B174A85
:101CE0001B0363441360164A13601F000A6897437E
:101CF000FBD1144B2560E2182123A06013602368F8
:101D0000002BFCDA0823E6601360F8BD3F2322684D
:101D10001340AB42D9D1A3681B051B0D8342D4D11C
:101D2000EE22E368D2021340B342CED1EDE7C046C3
:101D3000001BB7000040FDBF08C0004000E00040AD
:101D400000F00040043000008023024A9B000B4357
:101D5000D362704700800540002310B50100988AC7
:101D60001B8B984710BDC046162310B5010018887C
:101D700002331B88984710BDF8B54746CE4680B55C
:101D80000F1E18D0142399460433040000250126A1
:101D900098464B461888434621681B88984701C4DB
:101DA000431E984101350640AF42F2D13000C0BC1D
:101DB000B946B046F8BD0126F8E7C046AA23064A50
:101DC0001B0113608D235B00D3600449044B196031
:101DD0005368002BFCDA70470040024000B0FA0064
:101DE000006002407047C04610B50148FEF75EFF34
:101DF000DC60001070B5074D074EB54209D20024D3
:101E0000013E761BB60808CD984723000134B34243
:101E1000F9D170BDE85F001024600010054B064A40
:101E200006491A60064A074B1A6010000B6898436F
:101E3000FBD1704700E00040BFCDFBFE08C0004072
:101E4000FE7F3C0000F00040044BDB6C002B03D114
:101E50008022034BD2021A607047C0460000115026
:101E60004C201150044A054B1A60054A1368DB01E7
:101E70008033FBD17047C046FFFFFF0100F00040F8
:101E800008C000404022034B9A675A671A67DA6617
:101E90007047C04600F0014010B5FEF7ADFF10BD21
:101EA00070B5044D044CA968C022200000F012FC5B
:101EB000AC6070BD00ED00E000000020002310B514
:101EC000294C82B0A367FFF779FF0122274B1A60E4
:101ED000636C012BFCD10322254B1A60224A936BC1
:101EE000012BFCD1013300930121224A2248043303
:101EF000FFF7D8FE052301210093204A2048FFF771
:101F0000D1FE0022022104201E4BFFF751FE0022C9
:101F1000012105201C4BFFF74BFE0022002107206A
:101F20001A4BFFF745FE002200210820174BFFF750
:101F30003FFE8023DB000093002200210920134B89
:101F4000FFF7BCFD0022104B00210620FFF730FEFA
:101F50000420FFF7A1FE0E4900F024F80100002044
:101F6000FFF7F2FE02B010BD008000403CB0004020
:101F700030B00040002F685900800240008C864736
:101F800000C00240001BB70040597307006CDC0220
:101F900040420F0001480421014B18477002002005
:101FA000791D0010114A936F9B0813D21066516679
:101FB000002905D0FFE7FFE7FFE7516F106F70477B
:101FC00004B5002801D00020C04303F0F5FF002134
:101FD00004BDC046F0B5146E556E576F166FFFF70F
:101FE000E5FF1466556657671667F0BD000000D020
:101FF00094464A4A926F9208624601D228E0C0464F
:10200000F0B5464E346E756E776F366F00F020F87F
:102010009446424A14665566576716676246F0BD95
:1020200094463E4A926F9208624601D254E0C046FE
:10203000F0B53A4E346E756E776F366F00F04CF82F
:102040009446364A14665566576716676246F0BD71
:10205000002B24DB11D000293EDA00B5C9434042F1
:1020600000D1013100F038F8C943404200D10131BC
:10207000DB43524200D1013300BD002AEBD10028DE
:1020800001D1002905D00020C90FC90701D1C043E3
:10209000410800B503F088FF0022002300BD00B511
:1020A00000290ADBDB43524200D1013300F014F86F
:1020B000C943404200D1013100BDC943404200D173
:1020C0000131DB43524200D1013300F005F8DB431C
:1020D000524200D1013300BD002923D1002B18D179
:1020E000002A0CD0BC460D4F38667A6600210023CA
:1020F000FFE7FFE7FFE77A6F386F67467047002812
:1021000001D00748010000B503F04EFF0022002374
:1021100000BD02000B00002000217047000000D02D
:10212000FFFFFFFF002B00D0BFE0130C28D1002AD7
:10213000E7D080B4114F39667A66FFE7FFE730B425
:10214000040C7B6F396F1B0423433B667A66FFE701
:10215000FFE7FFE7C04684B27B6F3D6F1B0423435C
:102160003B667A66FFE7FFE7C04600232C042D0C90
:102170007A6F386F00196941B0BC7047000000D019
:10218000F0B594460025140E01D112020835140F43
:1021900001D112010435940F01D192000235D40F00
:1021A00001D152000135D40B0134254F7C66254CFA
:1021B0003C660E0C93B2FFE7FFE7FFE73C6F664318
:1021C000360C7703BE467343DF0B5B04C01AB9417C
:1021D000130C7343DB18C91ACE086643360CB64499
:1021E00093B273431F0F1B01C01AB941130C734301
:1021F0001F0B1B05C01AB941860D8F023E43664373
:10220000360C092D24DB520A7243801A7703460AE2
:102210006643360C16235B1BDE40DF40BF19644665
:102220006643821B7046043506330100D940A8403E
:10223000C01900D30131A24206D20023F0BD000034
:10224000000000D0FFFFFFFF121B0130F3D3F1E7C6
:1022500009277F1BFE406446A2B27243801A00D257
:102260000139220C7243130C1204821A99410B009B
:102270007046043513370100F940A840801900D397
:102280000131002B02D1A2420AD2F0BD013000D3AD
:102290000131121BFAD2013BF8D1A24200D2F0BDAB
:1022A000013000D30131121BF7E7F0B51C0C00D050
:1022B00080E00CB400251C0A04D11B02160E334327
:1022C000120208351C0B04D11B01160F33431201F7
:1022D00004359C0B04D19B00960F334392000235CA
:1022E000DC0B02D192185B4101351C009718644148
:1022F0000134464F7C66464C3C660E0CFFE7FFE718
:10230000FFE7C0463C6F6643360C7703BE4697B284
:102310007743C01B00D20139C01B00D201399FB2E4
:102320007743C91BC91B170C77437E04FF0B801B27
:10233000B941CE086643360C0C2D33DBB644120B84
:102340001F053A431B0B97B27743C01B00D20139DC
:102350009FB27743C91B170C77433E043F0C801B89
:10236000B941860D8F023E43664329277F1BFE40FD
:102370000C3D7746AF40BF1930BCA2B2ABB272433E
:102380007343801A9941220C7243130C1204801A71
:10239000994102000B000137001BA941F9D2781EB8
:1023A0000021F0BD0C277F1BFE4077467F0BAF401E
:1023B000FF19E0E700245D1C07D0144F7D663966E5
:1023C000FFE7FFE7FFE7FFE73C6F95B29EB265438B
:1023D0006643401BB141150C1E0C65436643360431
:1023E0002F0C3E432D04401BB141994204D2020000
:1023F0000B0020000021F0BD01D19042F7D3801ADC
:10240000994101349942F2D3F6E70000000000D070
:10241000FFFFFFFF132370B51D78012D19D014DDC8
:102420001F48FFF7A1FC06001E48FFF79DFC1E4C4D
:1024300080223100200000F04DF9022D2DD01B48E4
:10244000FFF78AFC1A4B186070BD1A4B164CA36438
:10245000F5E7184B144C23606360A360E3602361CD
:102460006361A361E36123626362A362E362236346
:102470006363A363E36323646364A364E364236526
:102480006365A365E36523666366A366E366236706
:102490006367A367E367A364D1E7064BA364CEE752
:1024A0005344000053460000A80900204C330000AC
:1024B00088140020B924001007B5604601880A0A74
:1024C0000230DF2AFAD1C9B2820804D302884088D8
:1024D0000004104300E00068014A5050039007BD1B
:1024E000A80900204840414048400E4B5B6818470F
:1024F0000C4B1B6818470C4A936F9B0802D2094B80
:10250000DB681847F0B5146E556E576F166FFFF7FE
:10251000F6FF054A1466556657671667F0BD014B0E
:102520009B681847A80A0020000000D0491A00281C
:1025300008D1084670470000C10FC90700D54042C6
:10254000002817D0F44603B40B4B1B68984706BC11
:1025500081409E384042803107D20B0607D04900A7
:10256000490AC0051043084360470130F8E7490AAB
:102570008902F5E77047000088140020014B5B6A70
:1025800018470000A80A0020132310B512481C7831
:10259000FFF7EAFB0100012C0AD003DD80220F487F
:1025A00000F098F80E48FFF7D7FB0E4B186010BDEF
:1025B0000A4C5422200000F08DF80B4B6365A36594
:1025C000E36523666366A366E36623676367A367C1
:1025D000E3672362E361E5E753460000A80A0020B1
:1025E0004C33000088140020ED25001007B560462C
:1025F00001880A0A0230DF2AFAD1C9B2820804D35C
:10260000028840880004104300E00068014A5050EE
:10261000039007BDA80A002070B504000A4E3000E0
:1026200003F0DAFC200003F001F80500300003F0AD
:10263000B3FC002D05D0054B2C199C4201D8280075
:1026400070BD0348FEF732FB18080020000004208C
:10265000E8600010F8B506000C000C4F380003F0DD
:10266000BBFC2100300002F081FF0500380003F0C0
:1026700093FC7443002D05D0054B2C199C4201D8C6
:102680002800F8BD0348FEF711FBC04618080020DB
:1026900000000420E860001070B50400054D28001B
:1026A00003F09AFC200002F0CBFF280003F074FC3A
:1026B00070BDC0461808002001480421014B18478E
:1026C00080020020791D0010014B1B681847000094
:1026D00080020020014B5B68184700008002002048
:1026E00010B5002800D110BD00F04CF9FBE7C04642
:1026F00010B5094A0300146884B0002C08D00122E8
:1027000000910648524203A9A047012004B010BD21
:1027100000F082F90020F9E7B0110020E126001056
:1027200000BEFDE7094A03001068002805D00849EB
:10273000C3188B4207D81360704706480449C31872
:1027400010608B42F7D901204042F5E7AC11002020
:10275000000004209415022010B5FFF7E1FFC046E9
:1027600070B5FFF747FB074D074EB54209D200246D
:10277000013E761BB60808CD984723000134B342CA
:10278000F9D170BD246000102C600010030010B55A
:10279000080011001B68984710BDC046F0B5C6463A
:1027A00000B5437D07000C001600002B46D0002A20
:1027B00017DD0B780A2B24D000239846012E13D066
:1027C00001252900635C01350A2B26D0B542F8D1DA
:1027D000464509DCA419013C23780D3B5A4253417C
:1027E0003B7580BCB846F0BD4346E018A419F11A09
:1027F000013C3B68984723780D3B5A4253413B7557
:10280000EFE7037D002BD7D102210F483B689847A3
:10281000012EDFD001239846D2E7631E5B5C0D2BAF
:10282000D4D0884504DA4346C91AE0183B68984773
:10283000022105483B68A8469847C7E7036811008E
:1028400020009847CDE7C04668640010F0B54546C3
:10285000DE464E465746E0B583B091461C008046A2
:102860000D00FFF74DF80023304A12184B41002BA2
:1028700002DA01222E4B52422E4908008A4603F00A
:10288000A3FB07006B1C03D1404603F003FA0500CD
:10289000002C27D0284E294B1C68002C18D04B4602
:1028A000002B21D1264B994602E02469002C0FD041
:1028B0002368002BF9D04B461B68002B01D09C42AB
:1028C000F3D120002A004146B0472469002CEFD103
:1028D000002F26D1280003B0F0BCBB46B246A94663
:1028E000A046F0BD174ED6E7154B99460A239B46E6
:1028F00002E02469002CEBD02368002BF9D04B4672
:102900001B68002B01D0A342F3D12A0041462000CE
:10291000B0476B465A462000DA71D91D0122B047F4
:10292000E7E7504603F038FBD4E7C04640420F00CB
:10293000FFFFFF7F200800209D270010980D00203A
:10294000A00D00208D2700100A4A1368002B05D126
:102950000CE01A001B691032002B07D08342F8D11B
:10296000002902D118691060196170470029FCD054
:102970001060FAE7980D002010B500F039F9012039
:1029800010BDC046F0B5CE46474680B583B06B4615
:102990000600DD1D2870FEF7B3FF0023194A121848
:1029A0004B41002B02DA0122174B52421749080013
:1029B000884603F009FB164B81461C68002C14D096
:1029C000144F02E02469002C0FD02368002BF9D0AB
:1029D0003B68002B01D09C42F4D120000122290049
:1029E000FFF7DCFE2469002CEFD14B46002B05D10C
:1029F000300003B0C0BCB946B046F0BD404603F05D
:102A0000CBFAF5E740420F00FFFFFF7F20080020D0
:102A1000980D0020A00D002070B5040003F03AF9D5
:102A200001230100050001222000FFF70FFF084BE2
:102A30001C68002C06D06368002B05D098472469D9
:102A4000002CF8D1280070BD2469002CF3D1F9E7DF
:102A5000980D0020F0B5002915DD0E4B0D271A68E2
:102A60000D4B0E4CD3185D426B41451820215B0085
:102A70001E5F0478A64207D093691942FCD1013049
:102A80001460A842F5D1F0BD93691942FCD11760DA
:102A9000F2E7C046941400200080FCBF9014002090
:102AA000204B70B504000D1E1E682ADD0020102189
:102AB0001D4B013C1A689369194214D10130936986
:102AC0001942FCD1136823548542F4D1002E08D05A
:102AD00050239363516B183B0B4014498C4662445E
:102AE0001360280070BD002E08D050239363516BF3
:102AF000183B0B400D498C46624413600028F1D10D
:102B00000CE0002E0AD05022074B1B689A63596BC9
:102B1000183A0A4005498C4663441A600320404233
:102B2000E0E7C046600D002094140020341000003F
:102B3000064B10B51B68002B06D00021044A126812
:102B40009163044A1068984710BDC046600D00208C
:102B500094140020640D00200822034B19688B692F
:102B60001A42FCD17047C04694140020F8B51A4FA1
:102B70001A4B3A680500D31858424341184E143393
:102B80001C003368002D02D0002B0FD0F8BD002BA5
:102B9000FCD0002120009563FEF74EF9200011497A
:102BA000FEF786F9104B35601D60EFE70E4B2000F5
:102BB00019600C493560FEF751F901212000FEF73C
:102BC0003BF950223B689A63596B183A0A4007490F
:102BD0008C4663441A60D9E7941400200080FCBF3F
:102BE000600D0020312B0010640D00203410000017
:102BF0000D4B10B51B780D4B0D4C1B780D4B022166
:102C00001B780D4B00202360FEF702F80221012003
:102C1000FDF7FEFFE12120684902FEF7BFFE01211A
:102C20000648FFF791FE10BDDC650010D865001066
:102C300094140020D465001000400340900200204E
:102C4000F0B5DE4657464E46454690460022E0B572
:102C500085B01E000EAB1B7807009B460368DA6642
:102C600001325960DA66002E60DD0279594692021F
:102C7000924601224A4052029446802291465A4688
:102C8000802403926246BB46002010214746B4468A
:102C9000751EA4000192421B160072427241019EF1
:102CA0005242164002963E5CB04656464246164395
:102CB0003200029E16431E61019E5A6B1142FCD0E7
:102CC0004A469A5801969246002A0AD1A84228D02C
:102CD0000022013092468445DDD1039B5F469B462E
:102CE00016E05A6D012290465A6B2242FCD01A6EB1
:102CF00042460196002AEBD0039B5F469B46534613
:102D0000002B15D05346DB0712D453461B070FD5B3
:102D10005B463B7105B0F0BCBB46B246A946A04637
:102D2000F0BD039A002AD3D19046DDE70020EFE7FB
:102D300001204042ECE7C046F8B5DE4657464E4615
:102D400045468346E0B505200C00FEF7A5FF0600CA
:102D5000600821008019FFF725F943009846804458
:102D6000070005214046FFF71DF93B1A9A461E4B06
:102D70008146700080199C4231D81C49FFF712F936
:102D8000451C5B461C680023E366226804335A40F6
:102D90000233134080225201A21813605346E361AC
:102DA0004B462362434601204F2B03D95021404616
:102DB000FFF7F8F8A023E050E36F39005D400C4BBB
:102DC0002D042D0CE3181D6001233000E366FFF78E
:102DD000E9F8F0BCBB46B246A946A046F8BD054995
:102DE000FFF7E0F8451CCCE73F420F0080969800C3
:102DF0007C10000040787D010F4A70B5821A531E86
:102E00009A410E4BD20008321A600D4B0D4C1A60DD
:102E1000150023689D432B1EFAD166240268FF34F7
:102E20000571D5661460633C8833FF3CD5639563B8
:102E3000D450FFF781FF70BDB002002000E00040D9
:102E400000F0004008C0004010B582B06C46247C01
:102E50000094FFF7F5FE02B010BDC04610B50A4B56
:102E60000A4AC418240DA40082B000920848220027
:102E7000E31CFDF771FF844202DC001B02B010BDB1
:102E800001204042FAE7C0460000E0AF6861001050
:102E90006C0D0020F0B557464546DE464E46884646
:102EA000E0B583B006000525FDF71EFF43468446C6
:102EB0005D571879334B344AF3181B0D9B0092462B
:102EC000D758012220248240241A013A002D41DBE8
:102ED000A54232DC1100A9400F422ED141460968BB
:102EE000894641468979002945D12C00AA4093465C
:102EF00059463A40394241D180218901884600280B
:102F000016D06146A44634004E469946030001910E
:102F10005100705A404500D24019A9181231890059
:102F2000013208519A42F3D3019B64469C464B46BA
:102F30005A4617435246D75001E001246442604686
:102F4000FDF7DEFE200003B0F0BCBB46B246A9464A
:102F5000A046F0BD002C02DA10E0013C0ED31100B7
:102F6000A14025000F42F8D14146096889464146F3
:102F700089790029BAD014246442E0E70924644224
:102F8000DDE7C0460000E0AF580D0020F0B54E462A
:102F90004546DE465746E0B583B089460CA98446CF
:102FA0000D781F2A45D84946490088464944C9003A
:102FB000461837003400DC373868CC348346206844
:102FC000310001901C4880248246A40251440C60C8
:102FD00069424D411E216D428D4318498A46554430
:102FE000052B0CD9A0201F214005D83654010443DD
:102FF0000532053B3C600A403560052BF6D852018E
:103000009B06134342464A44D20062441000DC321D
:1030100013600300D8331D605B461360019BCC3006
:103020000360002003B0F0BCBB46B246A946A046F0
:10303000F0BD05204042F5E7CC3000009FE00000E5
:10304000F0B501258D400468AC430460002B2ED000
:103050004D006C18E400041926001F68C83637605C
:103060009F68043677605F68DB68DC343760236014
:103070006B18184DDB00AC468025C41864442D063F
:1030800025602560144C0D1D8C40846001242600B1
:10309000AE40802508318C401F21AD014519C01874
:1030A0000A40D8302E602C6002600020F0BD4D0038
:1030B0006C18E400041926008027C8367F023760A8
:1030C000C0273F03B760F82704367F02DC3437603F
:1030D0002360CDE7D010000001010101F0B5C64624
:1030E000431E00B50A3314D8072304001A0008341D
:1030F000224023426CD01300093BA34209D3103075
:10310000841A01F00FFC374A27001568002D28D1DA
:103110000EE001F007FC334A1368002B06D00025AF
:1031200001F008FC280080BCB846F0BD0027002450
:1031300007202D4D2B002900284245D100202B4E81
:10314000706031602A4EB44607266544B543156069
:10315000284AEB1A1360284A6860286013604B60A5
:103160000D60002FDBDD244F3E68A642D7D31F48F9
:10317000036804E01A68002A04D018001300596894
:10318000A142F7D3AB42CAD01D001A680835904659
:1031900002600A1B102A05D919194A6042460A60C2
:1031A00001602100134A761A10683E60864200D200
:1031B0001660802212060A435A6000221A600F4AE3
:1031C000136801331360ABE7EB1D83431900B5E7C8
:1031D00001F0A8FB034A27001568002DA8D0002C99
:1031E000C1DA9CE7FC110020981400205015022041
:1031F000F8FF010020150220101502202C150220D6
:1032000070B5002804D0083843680400002B00DBA8
:1032100070BD0268002AFBD15B005B0843600500BB
:1032200001F080FB184A616813685B181360174B44
:103230001A001B689C42FBD850681618B4420DD087
:10324000601883421AD02360AA4200D01560104A49
:1032500013680133136001F06DFBD9E709185018AA
:1032600051608342F3D10B48150000689842EED0BC
:1032700058681B68411869602B60E5E705480068DD
:103280008342F5D1DFE7C046101502205015022019
:1032900030150220FC11002000000000000000009A
:1032A0000B4A13681868203080F30988022080F3E5
:1032B0001488BFF36F8F3FBCAE4608BC04BC62B637
:1032C0001847C046C046C046C046C046C046C04675
:1032D000F0110020000000000000000000000000CD
:1032E000EFF30980164B1A6820381060F0C044468E
:1032F0004D4656465F46F0C00D221207146E556EBD
:10330000566F176F3038F0C008B572B601F036FC52
:1033100062B60CBC116808681030F0C8A046A94617
:10332000B246BB4680F309880D2212073038F0C838
:103330001466556656671767F0C81847C046C046FA
:10334000F011002010B5FDF7C9FCC046D02300B530
:103350001B061A6D83B0D20704D501219A6D1A6D30
:103360001142FBD1D023FF221B061A650023114A0C
:1033700001931168EFF3108C72B60B68002BFCD030
:10338000BFF35F8F00230C48126801680360BFF32E
:103390005F8F13608CF31088084B01AA186800F047
:1033A00001FB019B002B03D08022054B52051A60C4
:1033B00003B000BDEC1100209C1402200C1502206B
:1033C00004ED00E07047C04610B58024031F64047C
:1033D0001C60043B19600349043B1960143B4038EE
:1033E0001A6010BD453300108022044B52051A604C
:1033F000BFF34F8FBFF36F8F7047C04604ED00E0FF
:1034000072B6044A136801331360BFF34F8FBFF3E2
:103410006F8F704798140220034A1368013B1360B2
:10342000002B00D162B6704798140220EFF3108091
:1034300072B6704780F310887047C04610B5FFF72A
:10344000F5FF040001F088FB002803D08022034B25
:1034500052051A602000FFF7EDFF10BD04ED00E0FB
:10346000002310B5084A094C052023601360FEF7BD
:1034700013FCFA218900FEF795FD054B0138186011
:103480000723236010BDC04618E000E010E000E014
:1034900014E000E0FF221F4B1204196810B50A4324
:1034A0001A60FF22196812060A431A601A490E2090
:1034B00002F038F819490F2002F034F818490B20AF
:1034C00002F030F8FFF7CCFF0022164B1A60D02331
:1034D0001B06154A1C681470FF221A651A6DD20764
:1034E00004D501219A6D1A6D1142FBD10F34FF21D1
:1034F0002000FDF7C7FD20000C49FDF7AFFC0121BE
:103500002000FDF799FCFFF7CBFE01F037FBFDF73C
:10351000E5FBC04620ED00E0E13200103D34001034
:10352000C533001098140220B80200204D3300105B
:10353000D02310B51B061868074B1B78834200D0B8
:1035400010BDEFF30583002B02D05B00C018F7E736
:1035500001F07AFDF4E7C046B802002010B5030080
:103560000268154882B00478D020000600688442C2
:1035700008D0BFF35F8F0023136081F3108820BF52
:1035800002B010BDBFF35F8F0020106081F3108880
:103590000A4A1B6810680A4A944663449A105C2BD6
:1035A00000D9183A012301215B4291400093012286
:1035B000002300F04DF9E3E7B80200200C150220CB
:1035C00000FFFF2F0A002B4930B58C46036883B0FB
:1035D00063449C105C2B00D9183C0121264BA14070
:1035E0001C78D0231B061B689C421FD040BF234D74
:1035F00003682C68A34234D02368002BFCD0BFF3AF
:103600005F8F1F4C23680B4323602B68BFF35F8FD2
:10361000002119600368D020002100064165BFF336
:103620005F8F196082F3108803B030BD40BF03681C
:10363000BFF35F8F00241C6082F31088EFF30583D3
:10364000104ADBB21068002B10D001AA019400F0E0
:10365000A9F9019B002BE7D080220B4B52051A6081
:10366000E2E7074C206808432060D4E700F04CF9FB
:10367000DAE7C04600FFFF2FB8020020EC1100205F
:103680009C1402200C15022004ED00E0F0B5CE469B
:10369000474680B51D00344B14001A78D0231B0612
:1036A0001B688046894683B09A420FD00368BFF3F7
:1036B0005F8F00221A6081F3108820002900FEF736
:1036C00087F803B0C0BCB946B046F0BDFEF718F9A4
:1036D00026002F00361A8F410121244849428019C3
:1036E000794143461E6800291EDC19D0BFF35F8F65
:1036F0000023336089F310881D4B5A6A954205D820
:103700009B6A0120A342DCD29542DAD18022194B78
:1037100052051A60BFF34F8FBFF36F8F0020D0E7C1
:10372000FA239B009842E1D3FA2200239200FEF78D
:103730005FFC031EDAD0BFF35F8F0022326089F393
:1037400010880D4A0D49106842468C461268624442
:1037500096105C2A00D9183E01210093B140002345
:10376000012200F075F8C7E7B802002018FCFFFF3F
:103770000040054004ED00E00C15022000FFFF2F83
:1037800010B5FDF72DFB054A054B944660448000BB
:10379000186000F051F8034B186010BD4000003471
:1037A000EC1100200C150220F8B5DE4657464E46B7
:1037B0004546E0B505000F00060001F0B3F82968A2
:1037C0002C6939430C362960A6422CD00023984638
:1037D0008023DB049B4680235B049A4680239B0462
:1037E00099460FE06746002F0AD057463A4202D06A
:1037F00042461A4390464B46194301F08FFB296815
:10380000A6420ED020000F000268646813021B0A53
:103810001F40BC465F463A42E4D06345E5D0A6422D
:10382000F0D143469943296001F084F8F0BCBB46CF
:10383000B246A946A046F8BD10B51C20FFF74EFCC5
:10384000041E03D0002308C000F0B8F8200010BD0B
:10385000F0B5C6460D00060000B51F00904601F009
:1038600061F82B0034682340002F0DD1002B28D0A5
:103870004346002B28D02300AB43336001F05AF8B5
:10388000200080BCB846F0BD9D42F1D0069B002BC5
:103890001AD0434680215A1E9341C9041B0619437E
:1038A000069A2943301D01F0F7F901F043F800288A
:1038B00024D001F001FC040083010DD52402240A68
:1038C000DEE7069B002B02D101F034F8D8E7414631
:1038D0004B1E99410906E3E7FFF792FD3468230088
:1038E0002B40002F0DD1002B05D04346002B02D0DA
:1038F0002300AB433360FFF78FFDDFE7FFF774FD75
:10390000D7E7AB42F7D1F0E7F0B5DE4657464E4673
:1039100045460400E0B583B00D000600019001F0BB
:1039200001F82200136824690C361D433700156026
:10393000A6422BD0002399468023DB04984680239F
:103940005B049B4680239B049A460FE000290BD022
:1039500059460A4202D04A461A43914651462943E3
:1039600001F0DCFA019B1D68A7420DD02000290060
:1039700046460268646813021B0A19403242E5D0C9
:103980008B42E5D0A742F1D14B469D43019B1D6080
:1039900000F0D0FF280003B0F0BCBB46B246A946F9
:1039A000A046F0BD10B5044C13000A000100200031
:1039B00001F0A2FD10BDC046A93700100300083376
:1039C00001224360C36003610023524282600360AE
:1039D0007047C046002303617047C04643689A6839
:1039E0004B608A605160996003680861013303602D
:1039F0007047C046030030B50D6808336A1C0DD00F
:103A00001C005B681A68AA42FAD94B609960036887
:103A10008C60013361600861036030BD04696368D4
:103A2000F3E7C0460369416882688A60516059685B
:103A3000814205D000220261186801381860704781
:103A40005A60F7E7F0B5DE464E4657464546E0B5C4
:103A500085B00600FFF7D4FC4523F45C64B2002C6B
:103A600021DD213B994621339A46B14409E0AA6BF6
:103A7000EB6B03969A4245D3013CE3B264B2002B50
:103A800011D0B56C002DF2D1736A002B0BD04846D3
:103A900001F0DEF90028EFD001F0D0FA013CE3B2EA
:103AA00064B2002BEDD14523FF22F254FFF7B4FCA2
:103AB000FFF7A6FC44233500F45C103564B2002CFB
:103AC00005DC13E0013CE2B264B2002A0ED0336997
:103AD000002B0BD0280001F0BBF90028F2D0013CEC
:103AE00001F0ACFAE2B264B2002AF0D14423FF2222
:103AF000F254FFF791FC05B0F0BCBB46B246A946B4
:103B0000A046F0BD5346EF5CAB6B2A6C0133984680
:103B10007FB2002A13D12B689B46002B2AD0434644
:103B2000AB637B1C1CD16B6A002BA5D02800243012
:103B300001F08EF900289FD001F080FAAEE76868A6
:103B400003A9FEF7C7FD6B682A6C9B18AA686B6017
:103B50009342E4D32B686B604346AB637B1CE2D09B
:103B600000F0F4FFB84200D886E7534601377FB231
:103B7000EF5481E7A86801F06DFA5B46AB604346FD
:103B80000190AB637B1C09D16B6A002B0FD1019BA9
:103B9000002B00D170E701F051FA7FE700F0D6FF6B
:103BA000B842F4D9534601377FB2EF54EFE728000B
:103BB000243001F04DF9002800D06DE7E7E7C0465A
:103BC000F0B5C64600B5846C82B0A26BE36B0025ED
:103BD00001909A4204D3280002B080BCB846F0BDE0
:103BE0004523226CE65CA76B76B2002A1CD0606885
:103BF00001A9FEF76FFD6368226C9B18A2686360E1
:103C0000934201D32368636000250137A763731CC7
:103C100015D1636A002BDED02000243001F018F9A2
:103C20000028D8D00125D6E723689846002BEBD191
:103C3000A06801F00FFA43460500A360E5E700F035
:103C400085FF8642C7D24523013676B2E654C2E7E5
:103C5000F8B505000E001700002841D0030C0A0C2F
:103C6000002B42D1002A30D1300068430300553385
:103C700036D85430FFF732FA041E31D00300002E3C
:103C800031D12360E5632664FFF7BAFB216CE36B57
:103C900022684B43D0185B1A6260D218E260FF239F
:103CA00000254422A0602000A563A3540132A35440
:103CB0001030FFF783FE20002430FFF77FFEFFF770
:103CC000ABFB5023E754A5640BE0131CA9B2B2B2BE
:103CD0004A4380B29BB24343120C9B181B0CC3D0C7
:103CE00000242000F8BD5433CBE7002AF8D1081C8B
:103CF000ECE7C046F0B5CE46474680B585B0040037
:103D0000884699460192022B00D19DE0FFF778FB8F
:103D1000A36BE26B0027442500269A4232D8019B10
:103D2000002B64D0002F5ED0FFF776FB00F0FAFD89
:103D3000FFF766FB635D5BB2013300D16655452337
:103D4000E25C52B2013200D1E654FFF765FB01A9F3
:103D500002A801F039F9002800D06FE0FFF750FB0E
:103D6000A26BE36B9A422CD0FFF756FB2000FFF7C3
:103D700069FE00F0DFFD0127FFF742FBA36BE26B5A
:103D80009A42CCD9226CA66BA56B002A37D1236846
:103D900000209846002B00D183E0A36C0135A56379
:103DA000002B00D170E04B46022B01D1002E04D134
:103DB0002000FFF705FF00283DD1FFF72DFB012074
:103DC00018E0FFF729FB20000199103000F014FFE4
:103DD0002000FFF737FE00F0ADFD0028CBD1FFF744
:103DE00003FB0127C8E702A801F0E2F89CE7FFF710
:103DF00013FB002005B0C0BCB946B046F0BD4B4631
:103E0000002B29D141466068FEF764FC6368226C90
:103E1000A16C9B18A2686360013593423AD2A563F6
:103E20000029C5D1636A002BC7D02000243001F0DF
:103E30000FF80028C1D0FFF7D7FABEE72000FFF740
:103E400001FE00F077FDD4E7FFF7DAFA226CA36BEE
:103E5000A66BA56B002A9AD04146E068FEF73AFCB3
:103E6000226CE36851429B1A2268E360934202D2BB
:103E7000A3685B18E3604A46A36C022A17D0013599
:103E8000A563002B94D1CDE7636A002BCDD1002828
:103E9000D1D192E72368A5636360002900D087E74A
:103EA000C0E7A06801F0D6F84346A36075E7002D8F
:103EB00004D0A563002B00D078E7B3E70122A2630A
:103EC000002B00D072E7ADE7F8B55746DE464E4608
:103ED00045460400E0B592461D000F00FFF7A6FA24
:103EE000A26BE36B06009A423BD300239846022D57
:103EF00009D03000FFF79EFA4046F0BCBB46B24600
:103F0000A946A046F8BD4533E35C226C5BB29846F7
:103F1000A36B9B46A36B9946002A2DD03900E0681D
:103F2000FEF7D8FB226CE36851429B1A2268E360DB
:103F3000934202D2A3685B18E3604B46022D51D036
:103F40000133A363434601333DD000F0FFFD8045BC
:103F500004D24346452201335BB2A3540123984661
:103F6000C7E74523E35C226C5BB29846A36B9B4694
:103F7000A36B9946002A11D12768002F46D04B46E3
:103F80000133A36343460133DFD1A36C002B33D04D
:103F9000022D1BD15B46002B18D0DFE7002DBDD1D1
:103FA00039006068FEF796FB49466368226C013170
:103FB0009B18A2686360934201D323686360434601
:103FC000A1630133C1D1A36C002B15D02000FFF7F2
:103FD000F7FD0028C2D05346002BBFD00123524624
:103FE0001360BBE7002B00D10123A36343460133D9
:103FF000ABD1A36C002BCDD1636A002BAED02000D7
:10400000243000F025FF0028E5D1A7E7A06801F0E3
:1040100021F8A760B3E7C046F0B54746CE46040096
:1040200080B585B088460192FFF7EAF9A76B002FAB
:104030005ED1019B002B3BD002A800F0B9FF00230A
:10404000442699464525FFF7E7F900F06BFCFFF79A
:10405000D7F9A35D5BB2013301D14B46A355635D34
:104060005BB2013301D14B466355FFF7D5F901A986
:1040700002A800F0A9FF002822D1FFF7C1F9A36B25
:10408000002B2AD1FFF7C8F920000199243000F055
:10409000B3FD2000FFF7D6FC00F04CFC002824D034
:1040A000FFF7AEF9A76B002F22D1019B002BCAD1DD
:1040B000FFF7B2F9002005B0C0BCB946B046F0BD6C
:1040C0002000FFF7BFFC00F035FCFFF799F9A36B68
:1040D000002BEDD0FFF7A0F9E2E7FFF79DF92000F4
:1040E000FFF7B0FC00F026FCDAE7FFF77DF9D7E731
:1040F000226C002A08D0E168A3688918E16099421F
:104100000BD24046FEF7E6FA7B1EA3632369002B21
:1041100006D1FFF781F90120CDE72168E160F0E7E2
:104120002000103000F094FE0028F2D0FFF75CF978
:10413000EFE7C04610B5002933D0424B5A68904291
:1041400000D173E01A68002A2CD0DA68904200D1BE
:1041500076E09A68002A3ED05A69904200D16DE01C
:104160001A69002A3DD0DA69904261D09A69002A22
:104170003DD05A6A904242D01A6A002A43D0DA6A85
:10418000904257D09A6A002A43D05A6B904253D03B
:104190001A6B002A43D0DA6B904245D09A6B002A02
:1041A0002AD010BDDA6890424AD05A69904245D070
:1041B0001A00DC69A0423BD05C6AA0421FD0DC6AD6
:1041C000A04237D05C6BA04236D0DC6BA0422BD033
:1041D00011605060E5E75A6990422FD01A0008320A
:1041E000E7E7DA69904223D01A001032E4E75A6A0E
:1041F000904204D0144AE2E738331A00E8E7042278
:10420000D2009A18E4E7DA6A904213D01A002032FA
:10421000D8E75A6B90420FD01A002832D5E71A001F
:10422000DC6B3032A042D3D10722E9E70022E7E776
:104230000322E5E70522E3E70622E1E70222DFE7C2
:104240000122DDE7A80B0020C00B002070B50400A0
:1042500016000D00FFF7D4F84422A35C5BB20133D3
:1042600001D10023A3544522A35C5BB2013301D1E9
:104270000023A354FFF7D0F8A36B002B03D020003A
:10428000FFF7E0FB70BD200032002900243000F071
:1042900065FDF4E7F0B5C64600B50400FFF7B0F8D9
:1042A000384A394F1368013313603B68002B35D00F
:1042B000364BE26A98461B68002B29D0344E3549AC
:1042C0000B6801330B606364334B1968914200D271
:1042D0001A6093009B189B00F1184A689068A260CE
:1042E00084466546E060201D68609060F258616118
:1042F0000132F250FFF790F843461B68002B04D0C0
:104300003B68DA6AE36A9A4211D380BCB846F0BDD2
:104310003B68DB6A9342D1D83C60CFE73C601368CE
:10432000012B07D0194BE26A9846194EC7E7FFF7F1
:104330005BF8EAE7A023164E9B0098463500B04490
:1043400028001435FFF73AFB4545F9D1134B984641
:104350001800FFF733FB124D2800FFF72FFB114821
:10436000FFF72CFB1048FFF729FB1048FFF726FB4F
:1043700042460F4B1A600F4BE26A1D60034B984692
:104380009DE7C046A0140220F01100204C15022029
:1043900008120020AC140220B0140220E014022005
:1043A000F4140220381502206C1502205815022042
:1043B000F811002000120020F8B5CE4647469600BE
:1043C00080B5804630000D009946FEF787FE071E37
:1043D00000D187E07020FEF781FE041E00D17EE050
:1043E00070220021FEF770F93200A5213800276302
:1043F000FEF76AF9236B043E9E1907239E43002DA6
:104400004BD034222B78A354002B43D06B7801324D
:10441000A354002B3ED0AB780132A354002B39D0EB
:10442000EB780132A354002B34D02B790132A35402
:10443000002B2FD06B790132A354002B2AD0AB79FB
:104440000132A354002B25D0EB790132A354002B69
:1044500020D02B7A0132A354002B1BD06B7A01326F
:10446000A354002B16D0AB7A0132A354002B11D0E9
:10447000EB7A0132A354002B0CD02B7B0132A354D6
:10448000002B07D06B7B0132A354002B02D04223B8
:10449000AA7BE25443230022E254089D1F2D1CD81E
:1044A000201DE562E564FFF795FA20001830FFF75C
:1044B00091FA20235B1BA3614A46414630002461E8
:1044C0006462FEF781FF099B2060002B00D01C6016
:1044D0002000C0BCB946B046F8BD1F25E0E7380053
:1044E000FEF78EFE0024F3E7F0B5C646124B00B58A
:1044F0009846124D124F134E14E0FEF781FFFB68F1
:10450000DC68201DFFF78EFA3368013B33602B68AF
:10451000013B2B60FEF780FF206BFEF771FE200051
:10452000FEF76EFE2B68002BE7D143461B68012B7C
:10453000F8D9FEF759FFF5E708120020A41402206D
:104540006C150220A0140220F0B5DE4657464E46F8
:104550004546594BE0B51A6883B0013294461A605B
:10456000002A5FD055490B689C4570D3544B99463F
:104570001B681B68002B00D198E000239846514B24
:10458000514E9B46514B01919A4639E000215961A9
:104590001168013911609A6A002A0ED0D969186A27
:1045A000556888604160190018318D4200D173E070
:1045B000002199621168013911605246D96A126866
:1045C000914201D9524611608A0052189200B518E2
:1045D000686887689860DF607C6084605D61B3585C
:1045E0000133B3505B461B684246DB6A8B429B41FA
:1045F0005B421A434B461B6890461B68002B50D009
:104600004B461B68DB68DB685A68944546D35A6999
:104610009868D9681C1D816048605068A042B5D177
:104620005160B3E7264B2A4A196810681860116078
:1046300028490A6801320A601A681268002A25D1DE
:1046400001231E495B420B600B689C458ED2002300
:1046500098461C4B1C4E9B465B4601201B681E4A1D
:10466000D96A12688B005B189B00F358984280410E
:1046700013005A1E9341404218434346184303B067
:10468000F0BCBB46B246A946A046F0BD1B680B492C
:10469000DB681B680B6066E7506089E701990A6078
:1046A000DAE7019901235B420B60D5E79846054B99
:1046B000054E9B46F6E7C0468015022024150220D1
:1046C000F8110020F011002008120020B014022080
:1046D00000120020281502208C15022010B582B08F
:1046E000059C0194049C0094FFF766FE002804D00A
:1046F000FFF7D0FD012002B010BD01204042FAE7D3
:10470000F8B50400FEF77CFE394E002C40D0251D84
:104710002800FFF787F9A36A002B03D02000183088
:10472000FFF780F9334F29003800FFF757F96C2263
:10473000A35C012B01D10023A354FEF76DFE2E4D87
:104740002B68002B03D13368A34211D0F8BDFEF7CC
:1047500057FE2A4B1A681268002A1BD01B68DB68B8
:104760001A68274B1A60FEF757FE3368A342EDD153
:104770002B68002B14D1234A11683A6891420DD05E
:10478000214B1B68002B0ED00122204B1A60DDE765
:104790003468BCE71A4B013A1A60E4E73360D5E7A6
:1047A000FEF722FED2E7194A194C13602268194815
:1047B00091008B189B00C558002D07D1143BC318DE
:1047C0001968143B013A0029FAD091008918890030
:1047D00045186B6808315B6840186B60834204D0F1
:1047E000DB68336022603368B0E7EB686B60F7E743
:1047F000F0110020581502204C150220F81100205D
:1048000024150220A0140220A81402208C150220D6
:10481000B014022008120020F0B5C6461F4D040057
:104820002B6800B5834209D0002807D0FEF7E8FDC9
:104830001B4B62699A4204D0FEF7EEFD80BCB8467D
:10484000F0BDA36A174A9342F6D0002BF4D16C3323
:10485000E35C012BF0D0261D3000FFF7E3F8124B8C
:10486000E26A19688A4200D91A6093000F499B18BE
:104870009B00C818804640688768A060E7607E603B
:10488000866040466061C8580130C8502B68DB6ABA
:104890009A42D1D9FEF7A8FDCEE7C046F01100201C
:1048A0005815022038150220B014022008120020EA
:1048B00010B586B01022002102A8FDF705FF0024E4
:1048C0008022114B11480293114B00940193520026
:1048D000002302A9FFF770FD002805D0FFF7DAFCDE
:1048E00000F0C4FD012803D00A4B1B6806B010BDC0
:1048F00072B60122084B52421A60084B1860084BEE
:104900001C60FEF7C7FDEFE749444C45E944001041
:104910001415022088640010241502204C15022072
:1049200080150220024A1368013313607047C046A5
:10493000A8140220F0B5DE4657464E464546E0B57F
:1049400083B0FEF75DFD534C2368013B2360236871
:10495000002B00D081E0504B1B68002B7DD04F4BCB
:104960009C461B68002B00D190E04D4B4D4D984666
:104970004D4B019499464D4B9A4600239B46634606
:10498000DB68DB68D869196A9A6A81604860180038
:1049900056681830864200D172E059469962116813
:1049A000013911605A699868D96856688160486011
:1049B000181D864262D01168013911604146DA6AD9
:1049C00009688A4201D941460A60910089188C0021
:1049D0002E1971688F689960DF60786088605E6109
:1049E0002B5901332B514B461B68DB6A9A423FD946
:1049F000534601221A6063461B68002BBFD12C4B23
:104A0000019C1A681268002A3CD01B68DB681A688F
:104A1000284B1A60284E3568002D14D0012708E075
:104A2000FFF792FD002801D053461F60013D002D85
:104A300008D02368002BF3D03368013D0133336085
:104A4000002DF6D1356053461B68002B05D0164B60
:104A500001241B68FEF7C8FC00E00024FEF7DCFC24
:104A6000200003B0F0BCBB46B246A946A046F0BD4C
:104A700063461B68002B00D081E7C0E751609AE7CE
:104A800051608AE70B4B013A1A60C3E7074B9A461D
:104A9000C0E7C046A8140220A01402203815022046
:104AA000B014022008120020F01100208C15022002
:104AB000F81100202415022034150220F0B5C64656
:104AC000040000B5002821D0174A13680133136091
:104AD000164B00211E68164B164D1F68164BA41965
:104AE0001B682A6898466D232868D1540430FEF765
:104AF00099FF2B6829685C600431A6420BD94046B7
:104B0000FEF778FFFFF716FF002801D1FEF76CFCD7
:104B100080BCB846F0BD3800FEF76CFF074B1A6842
:104B20009442EFD21C60EDE7A81402208015022009
:104B3000F8110020F011002000120020241502209E
:104B4000014B18687047C04680150220014B186859
:104B50007047C046A0140220064B10B51B68002BFE
:104B600002D1FFF7F1FC10BD034A002013680133A6
:104B70001360F8E7A814022034150220194B30B551
:104B80001B68002B03D00122174B1A6030BD164A58
:104B9000164C13602268164891008B189B00C5586C
:104BA000002D07D1143BC3181968143B013A0029A2
:104BB000FAD091008918890045186B6808315B6844
:104BC00040186B60834205D0D9680A4B1960226097
:104BD0001B68DBE7EB68D9686B60064B19602260E5
:104BE0001B68D3E7A81402208C150220B014022001
:104BF00008120020F0110020F0B5C646204D0C0030
:104C0000296800B51831FEF7F5FE1E4B00211E681D
:104C10001D4B1F681D4B1B682A6898466D2328682A
:104C2000D1540430FEF7FEFE631C15D02B682968B2
:104C3000A4195C600431A64205D94046FEF7DAFEAD
:104C400080BCB846F0BD3800FEF7D4FE104B1A68A1
:104C50009442F5D21C60F3E70E4B29685A688A60CB
:104C600090682968C8602968043141602968043166
:104C700091602A6853611A6801321A60E0E7C04601
:104C8000F011002080150220F811002000120020F1
:104C900024150220581502208023F0B5C646294C61
:104CA00015001B0622680B4300B593612268436818
:104CB0009968D36122681162226818324A602268BA
:104CC000002118329A6023689862036801330360F8
:104CD0001D4B1E681D4B1F681D4B1B6822689846A4
:104CE0006D232068D1540430FEF79CFE6B1C15D058
:104CF00023682168AD195D600431AE4205D9404694
:104D0000FEF778FE80BCB846F0BD3800FEF772FEB4
:104D1000104B1A689542F5D21D60F3E70E4B2168DF
:104D20005A688A6090682168C860216804314160CF
:104D3000216804319160226853611A6801321A6057
:104D4000E0E7C046F011002080150220F811002095
:104D5000001200202415022058150220F0B5C64686
:104D6000354C43680D00216800B59E68CB61216811
:104D70000E622168183171602168183199602368CA
:104D800098620368013303602C4B002A21D01B6812
:104D90002B4B00211B682B4B1B686D23226820685E
:104DA000D1540430FEF73EFE274B21685A688A60D2
:104DB00090682168C860216804314160216804312D
:104DC0009160226853611A6801321A6080BCB8464B
:104DD000F0BD1E681A4B1F681A4B1B682168984665
:104DE0006D232068CA540430FEF71CFE6B1C15D0DE
:104DF0002368AD195D60AE420AD8216838000431DD
:104E0000FEF7F8FD114B1A689542DFD21D60DDE711
:104E1000216840460431FEF7EDFDD7E72268731E96
:104E200053609E42F4D8216838000431FEF7E2FD59
:104E3000064B1B68CAE7C046F0110020801502200F
:104E4000F81100200012002058150220241502201D
:104E5000C368F0B5DB68D869196A9A6A81604860EE
:104E6000180054681830844241D0002199621168BA
:104E700001391160234AD96A1268002A29D15A6976
:104E80009C68D8681D1DA06044605468AC4230D056
:104E90001068013810601C4A1068884225D38A00C7
:104EA0001A485218920086187468A7689C60DF60E0
:104EB0007D60A5605E61835801338350144B0020F0
:104EC0001B68DB6A8B4203D20122124B01301A604D
:104ED000F0BD114A5468A568DC611D626860A0607D
:104EE0009A62136801331360E8E71160D7E75160F5
:104EF000BBE75060106801381060034A10688842B0
:104F0000CDD2F2E7A8140220B0140220081200202B
:104F1000F01100208C1502203815022080231B067A
:104F2000F0B5026944680B4381680360C368A160FF
:104F30004C60546884422ED0002101611168986849
:104F4000013911605A69D9681D1D81604860506837
:104F5000A84222D0116801391160114AD96A10683B
:104F6000814200D911608A000E48521892008618BA
:104F70007468A7689C60DF607D60A5605E6183588F
:104F800001338350084B1B68DB6A994202D9012226
:104F9000064B1A60F0BD5160CEE75160DAE7C046BB
:104FA000B014022008120020F01100208C150220FD
:104FB000034B1B680360034B1B6843607047C0468C
:104FC0002815022080150220F0B5C64600B50E0057
:104FD0000700FEF715FA6D23154C164A216815686F
:104FE000ED5C002D09D000211268D1540124FEF798
:104FF00013FA200080BCB846F0BD33685A1C15D0A7
:105000000D487A680568A8463D68454504D08A423F
:1050100002D800233360E9E78D1AAB42F9D95B1A55
:105020009B18336003683B6023687B600024DEE7E5
:1050300080150220F0110020281502200122014BCA
:105040001A6070478C150220014B18687047C046E3
:10505000F011002070B5041E08D0036DC16AC26C47
:10506000013B0365914201D0002B01D0002070BDAF
:10507000051D2800FEF7D6FC2023E26C9B1AA361D5
:105080000B4BE26219688A4200D91A609300094901
:105090009B189B00C81842689668A260E66075601D
:1050A0009560CA58606101320120CA50DFE7C046EE
:1050B000B014022008120020044B1A681968906985
:1050C0001A682023C96A5B1A93617047F0110020A7
:1050D000F0B55746DE464E464546E0B5CE4B8BB062
:1050E0009846CE4B06AF0193CD4B9B46CD4B994690
:1050F000CD4B4C4602932823D9469A46C3465B467D
:105100001B681D68002D00D0E1E0FFF70BFCFFF7E6
:1051100017FD019A80461368834200D9E7E04B46A9
:105120001B6810601A6853425A4143462068E91AC6
:10513000FFF78CF8FFF7FEFB002800D12BE11022CF
:1051400000213800FDF7C0FA002239002068FEF780
:1051500063FF0028D3D03B68002B5ADBBD68002DCD
:10516000F2D06B69002B02D0281DFEF75BFCFFF725
:10517000E7FC019B06001B68984252D3019B1E600E
:105180003B68092BE0D8029A9B00D3589F465346B0
:10519000E85C012352460343AB547968AA692D6148
:1051A0008B186B60B34200D986E0711A8A4219D815
:1051B000410700D5F2E0012398435346E854280004
:1051C0002B6A9847C0E753460122EB5C13435246D3
:1051D000AB547B682D619A19AB616A60B24270D89A
:1051E000002BB1D04B46291D1868FEF703FCABE736
:1051F00053460122EB5C93435246AB54A4E753461B
:10520000EB5C9A0700D4C2E0012293435246AB54B0
:105210009AE77B68F968B86898473B68002B93DB8E
:105220009CE75B461B681A68002A3ED003950490F1
:1052300005940BE0012293435246A354236A2000B5
:1052400098475B461B681A68002A2BD0DB68DC682D
:105250001E68231D18009846FEF7E4FB53460422FF
:10526000E35C1A42E6D0A3692461F518F643656051
:105270009E420AD32E00F643236A20009847A36972
:105280002461ED186560B342F4D94B464146186875
:10529000FEF7B0FB236A200098475B461B681A683C
:1052A000002AD3D1039D049E059C4A4659461268A4
:1052B0000A604A46136061E7B14202D9994200D8B8
:1052C00076E75B46291D1868FEF794FB3CE7DB6830
:1052D0001D68FFF727FBFFF733FC019A8046136830
:1052E000984204D3106085427AD900221DE75B46BC
:1052F0001B681A68002A3ED04246049403920BE0D1
:10530000012293435246A354236A200098475B46E8
:105310001B681A68002A2BD0DB68DC681E68231D16
:1053200018009846FEF77EFB53460422E35C1A42BF
:10533000E6D0A3692461F518F64365609E420AD35E
:105340002E00F643236A20009847A3692461ED18D4
:105350006560B342F4D94B4641461868FEF74AFBF4
:10536000236A200098475B461B681A68002AD3D13D
:10537000039A049C90464A46594612680A604A4677
:1053800013604246019B1A60FFF7D4FAD7E6280063
:10539000FDF736FFD8E6FEF727F8D0E6A046340042
:1053A00007E0E31A9A4214D82B6A28009847330082
:1053B000AA69D6186E602D61B442F2D29C4201D225
:1053C000B342F1D95B46291D18684446FEF712FB2B
:1053D000F5E64B46291D18684446FEF70BFBEEE642
:1053E000FFF7A8FA5B461B68DB68DE68331D180010
:1053F0000393FEF717FB5346F35C5A0707D40122C9
:1054000093435246B3543000336A984797E62200DC
:105410002B004446904610E0F4110020181502209D
:1054200004120020841502208C640010E31A9A42B2
:1054300014D8336A300098472B00B26936619D1842
:105440007560A542F2D9A34201D9AB42F1D95B46BE
:10545000039918684446FEF7CDFAD4E74B46039902
:1054600018684446FEF7C6FACDE7C04670B582B06C
:10547000FDF7C6FF174C2368002B12D0FDF7CCFFB9
:1054800023680020002B0AD0134B802201931F2396
:105490001249009312480023D200FFF71FF902B00F
:1054A00070BD104E3000FEF789FA0F4D2800FEF750
:1054B00085FA0E4B00221E600D4B10210A201D6044
:1054C000FEF7C6FB20600028D8D00A49FEF732FE5E
:1054D000D4E7C0468415022088150220946100108C
:1054E000D1500010B4140220C8140220F41100207E
:1054F000041200208C61001030B514001A00022341
:105500000D0085B05B420093054B01906946186819
:10551000002302950394FEF7D7FC05B030BDC046CA
:1055200084150220F8B50E00EFF3108772B60C4B0D
:1055300084009B681D59A94204D00A4B9D420AD29F
:10554000FCF752FC064B9B681E51BFF35F8F87F33D
:1055500010882800F8BD044B9D42F3D3F0E7C04605
:1055600000ED00E0C0010010CC010010030010B5F8
:105570000A0003490868190000F004F810BDC0468D
:10558000D006002070B50B0C0024150C002B28D180
:10559000002D3CD18BB291B2594300F05BF8051E4F
:1055A00033D00300083B5A6803239A43043A242A61
:1055B00012D80300132A0AD90460446008331B2A56
:1055C00005D98460C460242A2AD003001033002245
:1055D0001A605A609A6002E00021FDF775F8280011
:1055E00070BD002D16D1151C89B292B24A43ADB2DE
:1055F0009BB26B43110C5B18190C0BD1190492B2BE
:10560000114300F027F8051ECBD10025E7E72B1C3E
:105610000D1CE9E700F026FB0C2300250360DEE704
:105620000300046118334461D1E7C04610B5034B51
:105630000100186800F00EF810BDC046D00600202A
:1056400010B5034B0100186800F0ACFB10BDC0465C
:10565000D0060020F0B54E464546DE465746E0B53A
:105660000D000B35060085B0162D21D8102900D964
:10567000D4E000F0D5FA102518230221CA4FFB18F8
:105680001A005C68083A944200D186E103226368FC
:10569000A1689343E268CA6091600121E3185A68E7
:1056A00030000A435A6000F0C3FA20000830B8E026
:1056B00007239D4300D5B1E0A94200D9AEE000F038
:1056C000AFFAFC235B009D4200D2E0E1690A00D101
:1056D000AEE0042900D9A1E138239846A9098844FD
:1056E0003931CB00082252429446AF4FFB189C44FC
:1056F0006346DC68A44514D0032399460B00614639
:105700009C4607E0E068002A00DB40E1814200D1CE
:1057100041E104004A46636893435A1B0F2AF1DDB6
:1057200041463A003C690832944200D11EE1032010
:1057300063688343581B0F2800DDACE13A617A614E
:105740000028AADA7A68904680229200934200D319
:1057500036E1DA0858090123834040461843804661
:10576000D300DB199A687860E360A2609C60D46023
:1057700001208B109840404562D8434603420AD12D
:1057800003239943434640000431034203D14000C0
:1057900004310342FBD00323B3469C460E00B846B7
:1057A0000190F00040440100B246CB680BE0644633
:1057B0005A681F00A243DB68541B0F2C00DD39E13F
:1057C000002C00DB53E19942F1D101239946CA44F0
:1057D000534608319B07E8D1032205E003680838E7
:1057E000013E834200D013E23242F7D14346019A90
:1057F0005B68934342465360019A520001929A4279
:105800001CD8002A06D119E004229146019ACA4404
:10581000520001921342F7D05646C2E70C23336080
:10582000002005B0F0BCBB46B246A946A046F0BD7C
:1058300080233F22402190469B0053E75E46474627
:105840000322BC68636893439846AB4203D35B1B57
:105850000F2B00DD8DE0230043440293534B0820BF
:105860001B6810335B19019300F006FA504903904E
:105870000B688A46013306D08446019B4242013BB5
:105880006344134001933000019900F0D9F90300FB
:105890008146013300D11CE1029B834200D916E10D
:1058A000444B02989B461A68019B59469C466244A9
:1058B0000A6003990139484500D157E153461B68F6
:1058C000013300D15EE14B4602981B1A9B185A46E1
:1058D000136007234A4648461A400292184200D1F4
:1058E00015E10398013384469B1A019A99444A446E
:1058F000019263440A409B1A194030008A4600F026
:105900009FF9431C00D158E14B46C01A0300534491
:1059100001935B461A68012052441A604B4649467F
:10592000BB60019B03434B60BC4213D043460F2B2B
:1059300000D82BE107210C3B8B4361680140052017
:1059400019436160E118486088600F2B00D93FE17E
:105950004B465B6818490868904200D20A601749B4
:105960000868904200D20A604C46B4E07B689846D2
:10597000FEE60122290013431143651961603000DE
:10598000BD606B6000F054F92000083049E7A26860
:10599000D060826081E66146C3E6DC680231A342E2
:1059A00000D1BEE672E6C046C80200201C0C0020F2
:1059B000BC020020EC0B0020140C0020180C00206E
:1059C0005A0A042A7CD9142A00D9B0E010005B30AE
:1059D00082465C32D200082040428446BA18944481
:1059E000624692680B308146944500D186E00800FB
:1059F000A2466146844602E09268914204D04C4639
:105A00005068A0439842F7D8D368614654469C46F4
:105A10006346A260E3609C60D460A9E6142967D95C
:105A2000542900D98CE06E239846290B88446F31A5
:105A3000CB0057E6BA460120514684464919054332
:105A400050464560856847466046EB605E469D600F
:105A5000534639617961204308374860CF60300090
:105A60008F609C5000F0E4F850460830D9E6BA4602
:105A700001205E465244516801435160BA683000CB
:105A8000D3609A6000F0D4F838000830C9E62B00E3
:105A9000E9080833F2E56119884601218C460D4377
:105AA0004146656039617961CA608A606246024335
:105AB0004A60E050300000F0BBF820000830B0E64B
:105AC0009A091000393238308246D20083E7BC424E
:105AD00041D0BC686368032293431A005B1BAA424F
