:020000041000EA
:1000000000B5324B212058609868022188439860DF
:10001000D860186158612E4B002199600221596106
:100020000121F02299502B49196001219960352056
:1000300000F044F80222904214D00621196600F024
:1000400034F8196E01211966002018661A6600F04E
:100050002CF8196E196E196E052000F02FF8012189
:100060000842F9D1002199601B49196000215960AB
:100070001A491B48016001219960EB211966A021F2
:10008000196600F012F800219960164914480160C1
:100090000121996001BC002800D000471248134993
:1000A000086003C880F30888084703B5996A0420EC
:1000B0000142FBD001200142F8D103BD02B5186610
:1000C0001866FFF7F2FF186E186E02BD00000240BE
:1000D000000000180000070000035F00212200005C
:1000E000F4000018222000A00001001008ED00E03C
:1000F00000000000000000000000000074B24E7A12
:1001000000200420F7010010C3010010C5010010F9
:10011000C1010010C1010010C1010010C101001097
:10012000C1010010C1010010C1010010C701001081
:10013000C1010010C1010010C9010010CB01001065
:10014000CD010010CD010010CD010010CD01001037
:10015000CD010010CD010010CD010010CD01001027
:10016000CD010010CD010010CD010010CD01001017
:10017000CD010010CD010010CD010010CD01001007
:10018000CD010010CD010010CD010010CD010010F7
:10019000CD010010CD010010CD010010CD010010E7
:1001A000CD010010CD010010CD010010CD010010D7
:1001B000CD010010CD010010CD010010CD010010C7
:1001C00000BE00BE00BE00BE00BE00BEEFF3058054
:1001D000103800BEF2EB887114CE001034CE00103F
:1001E0003802001090A31AE71E481F49086006C88D
:1001F00081F3088810471D480068002801D019487D
:10020000F3E70DA40ECC002902D000F012F8F9E7B4
:100210001749184A002000E001C19142FCD116495B
:100220008847164988471649884700BEFDE701C937
:1002300001C29A42FBD3704734CE0010C0000020A8
:10024000281600209CE30010000004200000042079
:100250009CE30010001004200010042000000000A7
:10026000704700000000000008ED00E0000000D032
:1002700028160020C44F02206D5E0010690F001088
:10028000655E0010F8B5C04606480749091A8B108C
:10029000C90FC91810B5491003D0044B002B00D06A
:1002A000984710BD281600202816002000000000E6
:1002B000054B10B5002B03D00449054800E000BFF2
:1002C000FFF7E2FF10BDC04600000000C84B002051
:1002D00050C100100121194B70B51868494209F04E
:1002E000C1FE174805F04EFF164805F0CFFFFA2370
:1002F000154C1B01154DE61802CC280005F0C6FF71
:10030000B442F9D10A2005F0F3FE114805F0BEFF12
:10031000FA23104C1B01E61802CC280005F0B6FFAA
:10032000B442F9D10A2005F0E3FE0B4805F02AFF9C
:100330000A4805F027FF72B6FEE7C046A447002032
:1003400050C100107CC10010AC22002088C10010F8
:1003500090C10010F4370020A0C10010C4C10010EB
:100360000023F0B585B00393214B1A68FA239B0054
:100370009A421CD2037D052B1BD0062B27D0042BC1
:1003800012D102F0F3FC04000D001A4B03A91C600B
:100390005D60194B186809F099FD039B002B03D091
:1003A0008022164B52051A60012005B0F0BD0020D6
:1003B000FBE702F0DBFC06000F00114B03A91E60F7
:1003C0005F60104B186809F081FD039BE6E702F0BF
:1003D000CDFC0D4B009001910099019A19605A6073
:1003E0000A4B03A9186809F071FD039BD6E7C046C4
:1003F00094470020B01700209C47002004ED00E047
:10040000A817002098470020B8170020A047002018
:100410000023F0B583B00193162803D0062815D029
:1004200003B0F0BD02F0A2FC04000D000E4B01A9C8
:100430001C605D600D4B186809F048FD019B002BA6
:10044000EED080220A4B52051A60E9E702F08EFCDA
:1004500006000F00074B01A91E605F60064B18687D
:1004600009F034FDEAE7C046B01700209C470020A1
:1004700004ED00E0A817002098470020D0B5D6462C
:100480004F4680B584B00AF017FBD02614210390A4
:1004900003A80AF075FA02F069FC20233606726898
:1004A000002413402C4A202792462C4A91460FE004
:1004B0008022120694469B0663449C0F02F056FC71
:1004C000142103A80AF05CFA02F050FC73683B4068
:1004D000022CEDD0002B19D102F048FC142103A806
:1004E0000AF04EFA02F042FC736801223B400DD143
:1004F000022A16D002F03AFC142103A80AF040FAAE
:1005000002F034FC736802223B40F1D002F02EFC72
:10051000142103A80AF034FA02F028FC73683B4067
:10052000D8E702F023FC524600900191009B019C09
:10053000136054604B46002200211868002309F024
:10054000FDFA02F013FC142103A80AF019FA02F0D4
:100550000DFC73683B40ABE7B8170020A0470020B4
:1005600030B585B00AF0A8FA01236A46154D164C3D
:1005700001901372192101A80AF002FA02F0F6FBA9
:10058000E0222368D2011340104A13600422104B6A
:100590001A60FC3223681342FCD0606880B203F01A
:1005A00077FE0C4903F06DFE0B4903F056FE002365
:1005B0000022039002A9286809F0C0FA02F0D6FBD5
:1005C000D8E7C046F037002000C0044000D0044007
:1005D00000E0044000007A4300F07F4530B585B06C
:1005E0000AF06AFA02236A461B4D1C4C01901372F2
:1005F000FA2101A849000AF0C3F902F0B7FB8023F1
:100600002268DB015340E022D2011340144A1360F8
:100610000422144B1A60FC3223681342FCD0606839
:100620000004000C03F03AFE0F4903F02AFE0F49C4
:1006300003F00DFE0E4903F010FE011C0D4803F0FF
:1006400006FE00230022039002A9286809F076FA2A
:1006500002F08CFBCCE7C046F037002000C004401D
:1006600000D0044000E004403333533A6ABC343FC6
:100670002D93E13A0000D841F0B5C64600B582B0EE
:100680000AF01AFA354E364F019007E00023002297
:100690000021306809F052FA02F068FB642101A8D9
:1006A0000AF06EF902F062FB0A21306809F0DAFC08
:1006B0000128F1D13B78002BE8D18023294A5B0146
:1006C00011684B40E021C9010B4027490B60042110
:1006D000264B1960FC3113680B42FCD0506880B285
:1006E00003F0D6FD224903F0B8FD224903F0C9FD0D
:1006F000041C00F079FFFA21201C890503F0C1FDDC
:1007000003F0EEFD051E25DD431E9846042B01DD9A
:1007100004239846002420003223002200210134C3
:1007200000F056FF4445F6DDA54208DC12E020004B
:1007300000223221013400F04BFFA5420AD00023F1
:100740000E2CF4DC200032220021013400F040FFA6
:10075000A542F4D100F08EFF98E7C046EC370020A8
:10076000BB4F022000C0044000D0044000E0044021
:1007700000F07F450000C842F0B5DE4645465746CA
:100780004E464D4CE0B5220097B007AB994603CAE0
:1007900003C3128816201A8004AB9C46002107224E
:1007A000604403F0A3FE0CAB98462300424614338A
:1007B00023CB23C21B882E20138004AB9C46002130
:1007C0000322604403F092FE11AF23003A00283365
:1007D00013CB13C21B784120137004AB9C46042238
:1007E0000021604403F082FE0AF066F9334B344E78
:1007F0000293344B344C0393344B04900193344BA9
:1008000005AD9B46334B9A4623E080220021D2005F
:10081000200003F06BFE5B4600220021200000F068
:1008200029FD4B4610220021200000F023FD434605
:1008300020220021200000F01DFD3B00302200217D
:10084000200000F017FD5146200000F0C7FC02F028
:100850008DFA642104A80AF093F802F087FA0022C6
:100860002900306809F070FB0128CED12B78012BCC
:100870000DD0022B15D0002BF1D1686803F068FD74
:1008800002000B004846029905F090FAE7E7686815
:1008900003F05EFD02000B004046039905F086FA66
:1008A000DDE7686803F054FD02000B003800019991
:1008B00005F07CFAD3E7C04688C50010F8C10010E7
:1008C000F037002004C200104C32002014C2001087
:1008D00024C2001054360020F0B5DE4657464E467E
:1008E00045460023E0B59846454B464C9B46464B53
:1008F00083B0A246454E019301E002F037FA5B4611
:1009000001211868494209F0ADFB53461A685B683B
:1009100002F02CFA0A21306809F0A4FB0300012838
:10092000EBD1019A30681278002A54D1019A002143
:1009300013700023002209F001F9354B0A2799466C
:10094000330046469846334CA6235B00A3634B46D0
:10095000A6221B68120453401B0C2F4A1B04136071
:100960002E4B00251A68012393432D4A136028005B
:1009700000236422C821013500F02AFE192DF6D18A
:1009800000F078FE64200AF055F843460A21186802
:1009900009F068FB012828D0012E0ED11F4B204AF8
:1009A0001B68013F3340136000F01EFE00F062FE42
:1009B00064200AF03FF8002FC6D143460A21186888
:1009C000B0461E0009F04EFB012896D1019B1B7812
:1009D000012B06D0306800230022002109F0AEF878
:1009E0008BE70023019A1370F4E7019B00221E7825
:1009F0004346002118680023F6B209F09FF8CBE7C0
:100A000098470020A8170020BB4F0220EC37002099
:100A10003400054000000540341005402800054022
:100A200028100540F0B5DE464E4645465746E0B52F
:100A30005B4B8DB003935B4B04935B4B98465B4BD6
:100A400007935B4B05935B4B06935B4B0293012330
:100A500099465A4B9B460121039B4942186809F06D
:100A600001FB049B1A685B6802F080F943460A2187
:100A7000186809F0F7FA012800D185E0059805F01B
:100A800081FB002308AA137049460023069C1172BB
:100A90002068002209930B9308A9002309F04EF85F
:100AA0000023002220680AA909F048F8002408F071
:100AB000D7FB2000FF23FF22FF21013400F088FD37
:100AC000192CF6D100F0D6FD4A46029B1A701B780D
:100AD000002B53D0D02380221B0612015A6108F04C
:100AE000CBFB374B0A249A464346364F01935B466D
:100AF000BB6353461A68344B344E53401B0C344A84
:100B00001B04136090464A463368324D9A43FA20DC
:100B10002A6009F08FFFD0239B00BB6353461A68FD
:100B2000D0235B04534042461B0C1B0413604A460F
:100B30003368FA209A432A60013C09F07BFF002CBD
:100B4000D5D1019B4A469846336813402B6000F08C
:100B50004BFD00F08FFD43460A21186809F082FA28
:100B6000012808D1079B00221C7043460021186809
:100B7000002308F0E3FF02F0F9F86CE7D0238022AD
:100B80001B0612019A61AAE70223079A002113703B
:100B9000434600221868002308F0D0FF6EE7C046E5
:100BA0009C470020B0170020EC370020BB4F0220EC
:100BB00034C20010F0370020BA4F02202A02000091
:100BC00034000540000005400000150128000540E4
:100BD0003410054028100540F0B5DE4657464E4615
:100BE00045462E4BE0B59B462D4B87B09A462D4B84
:100BF0002D4D99462D4B01932D4B02932D4B039375
:100C000021E08023D0221B011206536102F0AEF8CE
:100C1000040008F025FBFA232A689B009A4210D2B0
:100C20002A6801999200A61B8E5041462A68641AD0
:100C3000029992008C502A6801322A602A689A42EE
:100C40001DD008F019FB5B4601211868494209F0E4
:100C500009FA53461E685F6802F088F84B46012285
:100C60001B78804653404A46DBB213701378002B42
:100C7000C7D18023D0221B0112069361C6E700234F
:100C80000593039B05A9186809F020F9059B002B23
:100C9000D7D08022084B52051A60D2E7A047002027
:100CA000B8170020BA4F022094470020F4370020E4
:100CB000AC220020A447002004ED00E0F0B5DE46A1
:100CC00057464E464546E0B585B009F0F5FE00238F
:100CD0006A461372354B364F9946364B4E469B4605
:100CE000354B91369A46354B01909846FF36642134
:100CF00001A809F045FE02F039F880233A689B010B
:100D00005340E022D20113402D4A1360802252004A
:100D10003B681342FCD0BB68134205D180225200CD
:100D2000FB68BB681342FBD00821264B264819609C
:100D30005B461A68A0239201DB05D3181860484669
:100D40005860C820986050460068D8601F4B1960F2
:100D50001F4B80219C464904624413680B42FCD11E
:100D600008234D460024174A136028880235404363
:100D700003F094FA011C201C03F06CFA041CAE4230
:100D8000F3D1144903F069FA03F0E2FA02F032FEFB
:100D900002F024FE43460022039002A918680023B3
:100DA00008F0CCFE01F0E2FFA1E7C0465C3600206F
:100DB00000C00440503600204C360020F0370020A0
:100DC00000D0044000F004400CC0044000E00440A7
:100DD000100000500000484370B508F085F81F214E
:100DE0001A2000F0DFFD002200211A2000F0F4FD9F
:100DF00000211A2000F06CFE1F211B2000F0D2FD04
:100E0000002200211B2000F0E7FD00211B2000F044
:100E10005FFE0222444B1F211A601C2000F0C2FD1D
:100E2000002200211C2000F0D7FD00211C2000F032
:100E30004FFE3E4B01201A683D4BD02553403D4AA2
:100E4000002413403C4A2D061360C0223B4BD201C4
:100E50001A6108F065F83A4B3A4A18603A4BC002FA
:100E600018403A4B03430B20136000F045FE8023EB
:100E70001B0104216B62152000F094FD344B354AB0
:100E80009C621C635C639A63FA221201DA62162088
:100E90009C6200F031FE8023DB03AB620022012163
:100EA000162000F099FD062000F026FE40230022C7
:100EB000AB620121062000F08FFD052000F01CFE32
:100EC00020230022AB620121052000F085FD224D88
:100ED0002249280007F096FE03210E2000F062FD53
:100EE00003210F2000F05EFD002201210E2000F002
:100EF00073FD002201210F2000F06EFD80222800EA
:100F00003C21402300F03EF9154B16480360446035
:100F100000F02CF91921072000F0E2FA00F064FB40
:100F200000F0A8FB70BDC04600E0044008C00440CB
:100F3000090000010F00000F08D0044000C0044069
:100F4000503600204C360020FD7F00FF25001200A7
:100F500000000540FFFF0000A8100020801A0600D6
:100F6000007F00075436002030B585B005F0BCF88E
:100F7000FA20C00001F054FDFFF72EFF5A4805F09B
:100F800001F9FA2206219200584805F07FF9032260
:100F90000021012008F080FD554B0322186000213C
:100FA000012008F079FD534B032218600021012035
:100FB00008F072FD504B032200211860012008F058
:100FC0006BFD4E4B00241860012008F0A1FE4C4B35
:100FD0000022186008210A2008F05EFD494B80229B
:100FE00018601F23484901940093120100234748C9
:100FF00009F0AEFB0C238022454901940093520076
:101000000023444809F0A4FB0B23802242490194A9
:10101000009352000023414809F09AFB0A238022E2
:101020003F4901940093520000233E4809F090FB91
:10103000092380223C4901940093920000233B48FD
:1010400009F086FB0823802239490194009352005D
:101050000023384809F07CFB06258022002336490E
:10106000019452003548009509F072FB0523802257
:1010700033490194009352000023324809F068FB81
:1010800004238022304901940093520000232F480A
:1010900009F05EFB022380222D4901940093920007
:1010A00000232C4809F054FB2B4C0122230004217F
:1010B000162000F0A5FC230001220421062000F0E8
:1010C0009FFC6421254805F0E1F801F035FB244B35
:1010D000244A0293244B01950093002301F0A2FDC2
:1010E00009F048FBFEE7C04658C20010A4C2001039
:1010F0009C47002098470020A0470020A4470020DC
:10110000EC370020F0370020E8C20010D5020010B4
:10111000F4C20010250A001000C30010D908001006
:1011200008C30010BD0C001010C300107907001098
:101130001CC300106105001024C300107D040010C2
:1011400034C30010DD05001040C30010D90B00109F
:101150004CC30010790600101104001058C3001091
:10116000C8190020A08601006103001003784278AE
:101170008178D21AC37801325B1A0133534343603A
:101180007047C046F0B54746CE4680B58BB003AC3D
:101190002200104B802723CB23C223CB23C21B88E2
:1011A0000026138026236B4499460B4B02AD9846CC
:1011B00023782F706B702A0002233C214046009652
:1011C000013407F047FD4C45F2D10BB0C0BCB94625
:1011D000B046F0BD10C80010A8100020F0B557466A
:1011E0004E464546DE462123E0B587B004AC237069
:1011F0000B78834663704B788A46A3702223E37092
:101200004B880027A38016236B4499468023984679
:10121000174E03AD424623782A706B702A000223D2
:101220003C2130000097013407F014FD4C45F1D10A
:1012300053465B685D1C2800984603F0FFF8402386
:101240000400424659460370013003F055F92B0063
:1012500022003C213000009707F0FCFC200003F046
:101260002DF907B0F0BCBB46B246A946A046F0BD7A
:10127000A8100020F0B5DE4657464E464546E0B57C
:1012800085B0782949DC382A47DC1D78002D44D008
:101290000724D6173440A418E410E401A346564AA4
:1012A0000292564A03920133782931DC0326029ACE
:1012B0002C00525D3240022A01D1203CE5B2233D90
:1012C000EDB2372D32D8039AAD0052599746403CC3
:1012D0004B4AE400155D12195478AA46A146947849
:1012E0005779A046D4789679A4461479D579019493
:1012F0005A4654468A1884544C46821854704446C0
:1013000094706446D470019C577114719671D571B4
:101310001D78083109B2002DC5D105B0F0BCBB461F
:10132000B246A946A046F0BD153CD1E700250026EF
:101330000027002294469046914692460192D7E7B4
:10134000082201920C32944690460E3291460022B9
:101350000025002608279246CAE70222019202329F
:1013600094460432904608329146103200250026F9
:1013700000279246BCE7142201920C3A944690460C
:10138000002200252226142791469246B0E700222B
:10139000944601923632904691460022002500265E
:1013A00000279246A4E74022019200220025002651
:1013B0000027944690469146924699E77F220192F3
:1013C0006B3A944690466B3291466B3A0025002664
:1013D000142792468CE70025002600270822A9E75B
:1013E00008229446019236329046363A002500266D
:1013F0000027914692467BE711CD0010C4C500102E
:10140000A8C60010F0B5C6461C0000B5304B0E0053
:10141000C118090D063186B00500C9B220001700B9
:1014200000F0C0FA0123310022000093280007F0E9
:10143000B3FC80235B020293FB1CFA011B031343E2
:10144000244AA40213400393F823DB011C408023A9
:101450009B0523430593204B0520049301F08EFD4B
:1014600002F016FF1D49041C0C9802F00AFF011C33
:10147000201C02F0F2FEEC21890502F0EBFE804612
:1014800002F060FF84B20023002C0ED0200002F096
:10149000FFFE011C404602F0DAFE8721C90502F07A
:1014A000F0FE02F04FFFC3B21B0224043A001C43BB
:1014B000310002AB2800029407F0C8FC0123B340BE
:1014C0002A6813432B6006B080BCB846F0BDC04606
:1014D0000000E0AFFFFFFF9F00000E500000204122
:1014E000F0B5CE46474680B5324F83B0050039602F
:1014F0000800032102F0C0FF2F4E304B3049186026
:101500003000984607F0CCFB2E4B04000021300041
:1015100099461E6007F0A8FB2B4B010018604B4654
:1015200018682A4B220000932B00FFF76BFF3C68E2
:10153000002C2ED043461968631E042B2ED98B072E
:101540002CD1A208500080180B0000228000401807
:101550001A605A609A600C338342F9D10323200049
:101560009843234215D043001B18CD186A702A7087
:10157000AA70451CA5420CD2DD1C4D1902306A70C0
:101580002A70AA70844204D90633CB185A701A7094
:101590009A7003B0C0BCB946B046F0BD0B00002243
:1015A0006100091959185A701A709A7003338B42E6
:1015B000F9D1EEE7B04B002000002050B44B0020E2
:1015C0002CC80010C04B0020C44B002000504349E1
:1015D00030B5044D44002418286800194170027089
:1015E000837030BDB44B0020204B30B51C68002CFC
:1015F0002ED01F4B1968631E042B2AD98B0728D1C4
:10160000A208500080180B000022800040181A60C9
:101610005A609A600C338342F9D103232000984327
:10162000234215D043001B18CD186A702A70AA7087
:10163000451CA5420CD2DD1C4D1902306A702A707F
:10164000AA70844204D90633CB185A701A709A7063
:1016500030BD0B0000226100091959185A701A7028
:101660009A7003338B42F9D1F2E7C046B04B0020A9
:10167000B44B0020154B70B51968002920D0144BCD
:101680004E001A68134B76181C6801232000103096
:1016900083401148A4000068141936180578516871
:1016A0000B42FCD12561457851680B42FCD1256184
:1016B000857851680B42FCD1033025618642EDD11B
:1016C0006420002101F038F970BDC046B04B002005
:1016D000C04B0020C44B0020B44B0020D0231B067D
:1016E0001B68AC4A9900F0B5DE468B4651585A4209
:1016F00053412F2257464E4645465B4293439A46F6
:10170000A54BE0B59C4683B000260191E244002938
:1017100038D0A24B99465246F30808339B009D5897
:101720000123340098460836002D22D00F212000D6
:10173000294001342D09002919D04B465A469A58A0
:101740000300C240203BDB171340424613420CD13A
:1017500007220F000240920097403A00C308904FC2
:101760003C339B00DA51019B9847002D01D0B442D5
:10177000DCD3202ECFD103B0F0BCBB46B246A94685
:10178000A046F0BD854E5F4600210F23B346CC082E
:1017900022005046083292001258002A00D1D0E0B0
:1017A000180010408046100913421AD05D46ED59CA
:1017B000A94620256D42AC468C446546ED17AC46E3
:1017C0004D46CD40A94665464E4635400126354238
:1017D00004D14646724D3C34A4006651002800D125
:1017E000AFE01C000440A446140A03421AD0481C6F
:1017F00080465846C059464681464D460800F54049
:101800001F38C01728400125284208D165462D0100
:10181000AC46F0086646624D3C3080004651002CD4
:1018200000D18EE0180020408446100B234211D0D6
:101830008C1CA0465C46E4594646A1464D460C0029
:10184000F5401E3CE4172C4001252C4200D182E0DB
:10185000002876D01C000440A446140C034210D08B
:10186000C81C80465846C059464681464D46080029
:10187000F5401D38C01728400125284275D0002C9E
:101880005FD0180020408046100D23420ED00C1D62
:10189000A4466546414CE459EC40A1460C004D4637
:1018A0001C3CE40F2C426AD000284AD01C000440A3
:1018B000A446140E034218D0481D804645463748BA
:1018C000C059E840814608004D461B38C00F2842E9
:1018D00009D165462D05AC4640466646C008304DE8
:1018E0003C3080004651002C2BD01800204084460C
:1018F000120F23422AD029488C1D8146C059E0404E
:101900008046080045461A38C00F284206D1E00834
:101910006446234D3C30240680004451002A10D0F8
:101920004846C059CC1DE040844608006546193839
:10193000C00F284205D1E0083C30194C1207800046
:1019400002510831202900D021E714E7002AF8D0FD
:1019500012488146E4E765462D02AC46F408664627
:101960000F4D3C34A400665172E765462D03AC462A
:10197000F00866460A4D3C30800046517FE74546F8
:101980002D04A84664464646E408054D3C34A400B0
:10199000665189E73022002030410140944E0020FA
:1019A00000400140094A83009A1810B5146840228B
:1019B000544080322240064CC000A44663441A6062
:1019C000044B9C466044416010BDC04604C00140C9
:1019D00004D0014000400140074B8000C3181B6841
:1019E000C90092000A435A400C231340034A94460C
:1019F000604403607047C04604C0014004D0014009
:101A0000F8B545469846D0231B06DE461C689B4623
:101A10002B4B57469A46A3004E469946E0B553468F
:101A200016004A469B5807000D00002B34D0434651
:101A3000002B3FD053464A4641469950D0231B06BF
:101A40001C6863425C412F220720634293431D4A76
:101A500038409446FA081100800085403C311A480D
:101A60006344890092000D509B18002E0ED08022F6
:101A700092019446634401210D201D6000F03AF963
:101A8000F0BCBB46B246A946A046F8BDC0229201B2
:101A9000944663441D60F3E74346002BD1D0534680
:101AA00041460D2099500022084900F085F95B4617
:101AB0001C68C6E70D20054900F078FABAE7C04671
:101AC000302200203041014000400140DD1600106E
:101AD0008000002905D0064B9C46402360440360EB
:101AE0007047044B9C46402360440360F8E7C046BF
:101AF00004E0014004F001400123D022834012069B
:101B000093629361094A83009A18116840225140F8
:101B100080320A400649C0008C4663441A60054B77
:101B20009C460523604443607047C04604C00140A2
:101B300004D00140004001408023DB051868000FFD
:101B40007047C0460FB400B5084883B004F01AFBD4
:101B5000049B002B07D005A91800019104F04EF951
:101B6000034804F00FFB012004F060F9A0C300104B
:101B7000B0C3001010B50148FFF7E4FFB4C3001074
:101B8000EFF3108072B6034A1368002BFCD0BFF34A
:101B90005F8F70472C0100D0BFF35F8F0022024B94
:101BA0001A6080F3108870472C0100D070B5EFF3F5
:101BB000108C72B60D4D2B68002BFCD0BFF35F8FDD
:101BC0000724CB08C618C05C01230C40A3401C00AE
:101BD0000440034207D118433070BFF35F8F2C607D
:101BE0008CF3108870BD1000FFF7ACFF2C0100D003
:101BF000F8B54746CE46884680B5EFF3108C72B6EE
:101C00001C4D2C68002CFCD0BFF35F8F9A4222D869
:101C100007210126894602E00132934218D34D463E
:101C200037001540AF40D4080119045D2742F3D1B5
:101C300010003C430C70BFF35F8F00220D4B1A6005
:101C40008CF3108800280EDBC0BCB946B046F8BD46
:101C500001204042EFE7BFF35F8F00232B608CF33E
:101C60001088012040424346002BEDD00898FFF732
:101C700069FFC0462C0100D0044A1078431CDBB237
:101C8000172B00D9102313707047C046E80F0020AF
:101C900010B5064B064C82B00100009318221F239A
:101CA0002000FFF7A5FF02B010BDC046C4C300105E
:101CB000402200200021044B044ABFF35F8F02C37F
:101CC0009342FAD17047C046000100D0800100D095
:101CD000054B064A1360064A136053609360D36055
:101CE00013615361936170478080808000E400E05D
:101CF00004E400E01F2318401E3B8340002905D068
:101D0000C021044A490053501360704780220149A2
:101D10008B50FAE700E100E001228240034B1B6890
:101D200013405A1E9341D8B27047C04600E100E00C
:101D300001238340014A13607047C04600E200E07F
:101D4000064B10309B688000C358054A00209B1A40
:101D50002F229A424041C0B27047C04600ED00E0D9
:101D6000EC0F002070B50D00EFF3108672B60F4A2D
:101D70001368002BFCD0BFF35F8F0D4B10309B68B6
:101D800084001B590B4A934203D09D4201D001F0BD
:101D9000FDF9074B9B681D51BFF35F8FBFF35F8F4A
:101DA0000022024B1A6086F3108870BD240100D017
:101DB00000ED00E0CD010010F0B557464E46DE467E
:101DC0004546E0B585B0060000911700EFF3108B93
:101DD00072B66A4A1368002BFCD0BFF35F8F0025F0
:101DE000674B5D579A46002D00DAA9E06B00654C01
:101DF00001935B199B009846A146C1444B4652464D
:101E00009B7910361370604BB6009B6899590B1B79
:101E10002F2B33D95D4B994200D0ACE0019B424659
:101E20009C465B4B6544AD0063535A4B0232A2188B
:101E3000043B9B1A1B05584A5B0D651913436B80C5
:101E4000564B0121AB80FF23AB71009BEF71AB6060
:101E50004B460B4319004C4B9B689951BFF35F8F66
:101E6000BFF35F8F0022454B1A608BF3108805B0DB
:101E7000F0BCBB46B246A946A046F0BD01200A0010
:101E80008243D3798C46BB4231D84546130044493E
:101E90001B1B5B415943090D3D4B63533D4B0235C1
:101EA0006519043B5B1B1B053B4D5B0D2B43AA4691
:101EB0004D466B800425AC465546E044131F444410
:101EC0001B1B1B055B0D1D434B46997100999D80A3
:101ED00099604946DF71334B01431360BBE75800FB
:101EE000C01880002018C179B9422FD902000623FA
:101EF000D356002BF3DA02932B4B61460393131D49
:101F00009A4604235B429C46E14450464B461B1ACA
:101F10001B055B0D9C46204B9571984663464046D9
:101F200003439380019B5A199200039BA418A3803A
:101F3000029B1C4AA371009B2260E771A3608AE7A1
:101F400001F024F9002553465D574FE7908802932E
:101F50004005131D9A46031561469C464046D444ED
:101F6000634604302018181AE0230005400D1B02B8
:101F700018430390C5E701F009F94FE7240100D0A9
:101F8000BC4F0220EC0F002000ED00E0CD0100105E
:101F900000A1FFFF1C10002000E0FFFF01BDFFFFBC
:101FA000AAAA00000148804701BD0000F0B5DE4646
:101FB00057464E464546E0B50C0083B0EFF3108817
:101FC00072B6634A1368002BFCD0BFF35F8F614B7E
:101FD00061499A68030010339F00D55901938D42DF
:101FE00043D0A54254D05D4EAA1B2F2A3DD85C4B4E
:101FF0009B461B68994601231A009C4682404B462B
:1020000013401F2299466346024093409A4680221D
:102010005B4650469850BFF35F8FEFF305839B46B6
:10202000002B37D0019B5B4501D001F0AFF80123B5
:102030002A009A439068844208D176E04B005B18EE
:102040009B00F3189868844236D01A000621515636
:102050000029F3DA844254D04B46002B27D0C0220B
:1020600051463F4B5200995019603A4B9B68DD51E5
:10207000BFF35F8FBFF35F8F0022354B1A6088F389
:10208000108803B0F0BCBB46B246A946A046F0BDDE
:102090000D00EAE72A0063469A4390688442D5D14E
:1020A00006201056130000280ADA0D0031E08023C4
:1020B00051462B4AD150D8E706201856002821DB7C
:1020C00042001118890074188B46A1689960E17963
:1020D000D971062161569971002924DBA488F11A6F
:1020E000640524155C44091909051E4C490D21435A
:1020F000998013181C4A9B001178F318997110707D
:10210000AAE713005946002914D1FF3191711749EC
:10211000918015490A789A71154A9B1B5B415A4375
:10212000120D0A7098E71149E2E7062010561300D5
:102130000028C5DA0F4A1049D21A083A5002400D59
:10214000014399800D4952080A43DA8084E7C0466A
:10215000240100D000ED00E0CD010010EC0F0020C4
:1021600000E100E000E0FFFFBC4F022001BDFFFFE7
:10217000AAAA00002610002000F0FFFF00F8FFFFD1
:1021800010B58308040003202040FF24054AC00046
:102190009446844081409B0063441A68A2430A43EA
:1021A0001A6010BD00E400E070B501240443EFF3B1
:1021B0000581EFF3108C72B6214A1368002BFCD016
:1021C000BFF35F8F1F4B05001F4AED1A6D416A4335
:1021D000120D1E4D8900AE6852B27658A6421CD030
:1021E0000621595691421CD012215956914222D0B3
:1021F0001E215956914220D02A215956032491423A
:1022000010D0134B19781A708171BFF35F8F0022C1
:102210000B4B1A608CF3108870BDAB680D4C5C5092
:10222000EFE700246100091989005B18FF2199710B
:1022300009499980E5E70124F4E70224F2E7C04662
:10224000240100D0EC0F0020AAAA000000ED00E05D
:10225000BC4F0220CD01001001BDFFFF10B5084B9F
:10226000084C82B001000093002205232000FFF7F4
:10227000BFFC002801DB1F23181A02B010BDC046A6
:10228000E0C30010C04F0220024B9C46614489000D
:102290000160704740000034F8B5124C124DAC425A
:1022A00012D20126002776422368002B0DD0FFF7BB
:1022B000E3FC01002000FFF7E7FF66602772BFF331
:1022C0005F8F0C34AC42EFD3F8BDFFF7D5FC0100B3
:1022D0002000FFF7D9FF6660BFF35F8F0834AC4280
:1022E000E2D3F1E7181600202816002010B50400EC
:1022F000FFF7C2FC01002000FFF7C6FF01235B428D
:102300006360BFF35F8F10BD10B504000120FFF7BD
:10231000BFFC034BC3189B002360BFF35F8F10BD4E
:1023200040000034034B9C46614489000160BFF3C8
:102330005F8F704740000034F0B5DE4657464E468A
:102340004546E0B587B0EFF30583032201251A4027
:10235000954091008846A946B34B03925C58B34B15
:102360001D60B34B04934B46B24843630823E55EBC
:10237000002D37DAA3881BB2002B00DBADE0A37978
:10238000002B00D0EEE00823E05E002820DB4300B5
:1023900062691B18DB00D3189E68DD68731C00D1CE
:1023A00011E1A44801004144826A0B69B71A9B1AE3
:1023B0009F4215D30123026A039883401A420FD02B
:1023C0009C4800F0CBFC8D4202DCCCD18642CAD9BD
:1023D00040BF07B0F0BCBB46B246A946A046F0BD20
:1023E0000E61EDE762696B0092465B19DB009A446F
:1023F00053469E68DF6800F0B1FC8F42BADC00D122
:1024000003E1002F00DAE8E05246534652691B69A7
:102410009346049A934200D1D9E052460821605E67
:102420005288000459461043984700900191009942
:10243000019A0B001000134300D1CEE013000A00F4
:10244000B61A9F41002806DB7A4800F087FC009E00
:10245000019F36184F4153469E60DF6000229A5E0E
:10246000002A00DA86E7530099186069C90041180C
:1024700002938B68C9689B46B94200DD7AE702D1B6
:10248000B34200D976E708239C46A44405956546E7
:102490002281A446029B2C0006E053009918C90033
:1024A00041188D68C968AB469B18DB00C318B94258
:1024B00006DC00D1B3E01C000023E25E002AECDA67
:1024C000230064469C4653461A806346059D1D8042
:1024D000A3881BB2002B00DA51E72269EFF31081C9
:1024E00072B61368002BFCD0BFF35F8F0123A7885F
:1024F0005B42A3803FB22369BFF35F8F00221A6063
:1025000081F31088002F00DA39E723000833220016
:102510009A4666697B00DB19DB00F3189968504620
:102520008C460824115FDD68002910DB029306E069
:10253000AB4244D00023E15E2000002906DB4C00C2
:102540006418E4003419E368AB42F1DD029B0780B4
:1025500000201F5E1980002FDCDA1400A379002B05
:1025600000D110E70023A37126000823E15E08369E
:102570004B1C00D12CE70800A246656902E03E0032
:102580004B1C1AD04B005B18DB00EF180A008C467E
:10259000E95E7B881BB2002BF1DA01235B42DC177A
:1025A000BB60FC60824205D0534631801B893B8072
:1025B00053461A8160464B1CE4D15446E5E6A368B5
:1025C0006345B7D9C2E76B1C00D0EAE6F8E65B4684
:1025D00058461B69984700281BD153461B8822691F
:1025E0002381EFF3108372B611680029FCD0BFF38A
:1025F0005F8F514662880A8022696580BFF35F8FD2
:102600000021116083F31088B4E6864200D8F8E612
:10261000B0E65B461A685B680092019307E7B34532
:1026200000D848E74CE7C046E84B00203C70054026
:102630003923001000400540074810B50268EFF349
:10264000108172B61368002BFCD0BFF35F8F06F0C9
:10265000E9FE0020002110BDA84E002070B52E4CD0
:102660002569002D04D00A212C48FFF70DFE70BD0E
:102670002B4E0321300000F067FBE660FFF7FCFA09
:10268000284B03229C46D02322701B061B68012185
:102690006370254B6044A3600F23800020610220FB
:1026A000638063694942A1801980023119864731EC
:1026B0001D83585218315A5275325C39995218326A
:1026C000013199521832013199521832013199521F
:1026D000083518329D5202311832995218320131A0
:1026E00099521832013199521832013199521832E7
:1026F000013199521832013199520C4B0C49DC606E
:1027000001303562FFF72EFB01210320FFF7F2FABB
:10271000084B1D60A7E7C04634100020A84E0020DB
:102720000040054040000034FFFF1000E84B00204F
:1027300039230010386005400048704734100020ED
:10274000F8B51F0008AB1B7804001600002B08D159
:1027500000F00CFB32003B00121A8B41002B00DA18
:1027600052E02269EFF3108072B61368002BFCD0A0
:10277000BFF35F8F0223E15E63694A005218D20003
:102780009B182269002936DB1D886580BFF35F8FA7
:102790000025156080F31088069A9E60DF601A613C
:1027A000079A5A615A8801325204520C101C002AAE
:1027B0001FD082B25880080410432669EFF31087B7
:1027C00072B63268002AFCD0BFF35F8FA2881A80ED
:1027D000A1802369BFF35F8F00221A6087F31088FE
:1027E0000A4923788C4601329A40E36863441A60B0
:1027F000F8BD0120DDE7BFF35F8F0023136080F396
:10280000108801204042F3E70020F1E73C2000005F
:1028100070B501000469EFF3108C72B620680028CF
:10282000FCD0BFF35F8F02200D5E4C696800401939
:10283000C00024180869002D36DB26884E80BFF3BF
:102840005F8F002606608CF31088E360638804982D
:10285000013320615B0405985B0CA26060611A1C67
:10286000002B1FD093B22804628018430A69EFF34B
:10287000108C72B61368002BFCD0BFF35F8F8B886F
:1028800023808D800B69BFF35F8F00221A608CF369
:1028900010880B7801329A40CB6808498C46634413
:1028A0001A6070BD0122DDE7BFF35F8F0023036074
:1028B0008CF3108801204042F3E7C0463C20000022
:1028C00010B543890A1493421ADD53009B184269DC
:1028D000DB00D3180469EFF3108C72B62268002A6B
:1028E000FCD0BFF35F8F5A88090494B2090C8A4266
:1028F00008D00369BFF35F8F00221A608CF3108841
:10290000002010BD8022120214435C800123026962
:102910008371BFF35F8F002111608CF3108804492D
:1029200002788C469340C268012062441360E8E755
:102930003C20000040787047F0B5CE46474680B551
:1029400083B004000D0000F011FA24184D41002D51
:1029500002DA01242D4D644296267642F717361985
:102960006F41AF4215D812D000F000FA32003B00A0
:10297000121A8B41002B18DC002B43D020002900B9
:1029800000F0FEF903B0C0BCB946B046F0BDA642A7
:10299000EAD90022002316001F0000F0E7F93200F8
:1029A0003B00121A8B41002BE6DD00F0DFF932000C
:1029B0003B00121A8B41002B0ADB00230193144BBE
:1029C0003200009313483B00FFF722FF0130D5D0BF
:1029D000114BB1469846114E736A9F4204D8B26AB1
:1029E0004A45CBD29F42C9D143461A68EFF31081C2
:1029F00072B61368002BFCD0BFF35F8F404606F021
:102A0000DDFCE9E7002AB9D0CFE7C046FFFFFF7F32
:102A10003926001034100020A84E00200040054048
:102A2000F0B5CE46474680B583B0040000F09EF96D
:102A3000FA2206000F00200000230021920001F07E
:102A4000E9FB8019794104000D1E02DA01242D4DA5
:102A5000644296267642F71736196F41AF4215D871
:102A600012D000F083F932003B00121A8B41002B88
:102A700018DC002B43D02000290000F081F903B0BE
:102A8000C0BCB946B046F0BDA642EAD90022002338
:102A900016001F0000F06AF932003B00121A8B4149
:102AA000002BE6DD00F062F932003B00121A8B4188
:102AB000002B0ADB00230193134B320000931348D1
:102AC0003B00FFF7A5FE0130D5D0114BB14698462B
:102AD000104E736A9F4204D8B26A4A45CBD29F42D5
:102AE000C9D143461A68EFF3108172B61368002B00
:102AF000FCD0BFF35F8F404606F060FCE9E7002A98
:102B0000B9D0CFE7FFFFFF7F392600103410002037
:102B1000A84E002000400540F0B557464E46DE4620
:102B20004546E0B506000F0085B0EFF305839946F2
:102B30008B46002B12D0384900204B6ABB4206D38B
:102B40008A6ADB1B591E8B41B2424041184305B0D3
:102B5000F0BCBB46B246A946A046F0BD2F4B9A46F4
:102B6000DB68984653461B784046039300F0F6F81E
:102B70004246039B040004339B009B580D001B1A24
:102B800039003000001BA941894510DC0DD020BF61
:102B9000214A0020536A5B45D9D3926ADB1B591E38
:102BA0008B41B24240411843D1E78342EFD900F054
:102BB000DDF832003B00121A8B41002B1ADB002398
:102BC0000193174B3200009350463B00FFF720FE65
:102BD000011E0FDD104B5A6A5A451BD39B6AB34244
:102BE00016D35046FFF76CFE0B4A0020536A5B4534
:102BF000ADD3D2E7084A0020536A5B45A7D3002033
:102C0000926ADB1BB24240415A1E934118439EE731
:102C10005A45E6D120BFE4E70040054034100020CB
:102C200039260010F0B5CE464746110080B583B076
:102C300004009C460C9D194300D16CE06146DB17F3
:102C40000193009353401E00019B4B401F000098CE
:102C50000199361A8F4163460A996B600B9BAC60F1
:102C600029612A606B6100F081F88019794100299F
:102C700002DA0120314940422269EFF3108972B62D
:102C80001368002BFCD0BFF35F8F0223E65E6369FD
:102C900072009219D2009B1822699046002E42DBE6
:102CA0001A886280BFF35F8F002247463A6089F33B
:102CB0001088234A9860D9601A615A885D61013290
:102CC0005204520C111C002A2BD088B23204024349
:102CD00059802069EFF3108772B601680029FCD093
:102CE000BFF35F8FA1881980A6802369BFF35F8F30
:102CF0000021196087F31088124823788446013137
:102D000099400120E36863441960EA6003B0C0BCE5
:102D1000B946B046F0BD00230126002701229C469B
:102D200099E70121D1E7BFF35F8F0023136089F397
:102D30001088012200205242E7E7C046FFFFFF7FD4
:102D4000392300103C20000010B5024A0248FEF76B
:102D50002DFF10BDFCC30010442200200300416A77
:102D60000A00986A596A8A42FAD17047034B596A35
:102D70000A00986A596A9142FAD1704700400540AA
:102D8000064A536A9942FCD807D1044B02E05A6ABA
:102D9000914202D19A6A9042F9D8704700400540AA
:102DA000F8B5DE464E4657464546E0B58B4605002B
:102DB0000A991800160000F0EFFA0A9B6C001F0237
:102DC000324B64199C46A4006444636881469F4268
:102DD00000D967602B1FDBB29846012B30D9C02386
:102DE00080229B01E31812011A60294BAD0059594A
:102DF0009A4600291BD17301E026226853401E40E9
:102E0000802342465B01E3181E60012A30D98023EB
:102E100080229B01E31812011A6053464A466760FC
:102E20005A51F0BCBB46B246A946A046F8BD586907
:102E300000F0B2FA013043001B18033BFDD2DAE781
:102E40005B46012BCBD1C02303229B01E3181A6000
:102E5000023AA3681A42FCD07301E0262268AD0052
:102E600053401E4080230A4A5B019246E3181E60CD
:102E70005A462168514003220A401A6001225B46EB
:102E80009A40A3681A42FCD0C1E7C04600800040C7
:102E90004C220020F0B546464F46D646C0B51F002E
:102EA000344B44009C462418A4006444636888465C
:102EB0001600FF2B02D880235B006360031FDBB288
:102EC0009A46012B30D9C02380229B01E3181201BE
:102ED0001A60294B85005959994600291BD1730165
:102EE000E026226853401E40802352465B01E318CF
:102EF0001E60012A30D9802380229B01E318120131
:102F00001A6080235B0063604B465F51E0BCBA46A9
:102F1000B146A846F0BD586900F03EFA01304300C2
:102F20001B18033BFDD2DAE74346012BCBD1C0236C
:102F300003229B01E3181A60023AA3681A42FCD0EC
:102F40007301E0262268850053401E4080230A4A10
:102F50005B019146E3181E604246216851400322FE
:102F60000A401A60012342469340A2681342FCD0F3
:102F7000C1E7C046008000404C220020014B800089
:102F8000C05870474C220020F8B5040021481E00AC
:102F900017000D0000F000FA0100380000F0FCF905
:102FA000069B36041B031E432368002B20DB1A4BB1
:102FB0001A49E3185A1E93418022920194465B42BB
:102FC0001B0B174A1B0363441360164A13601F0050
:102FD0000A689743FBD1144B2560E2182123A060B7
:102FE00013602368002BFCDA0823E6601360F8BD49
:102FF0003F2322681340AB42D9D1A3681B051B0DA8
:103000008342D4D1EE22E368D2021340B342CED140
:10301000EDE7C046001BB7000040FDBF08C0004000
:1030200000E0004000F000400430000010B58024B3
:103030001C4BE4051C6000281AD001231A4C1843CD
:103040001A4BDC611A4C44401C6259629862802120
:10305000144BC9051960174817490860E021C904D5
:103060001960002A07D18022144B12061A6010BD85
:103070000E4BD861EBE753019B1A9B009A188023F3
:1030800012015B049A4209D213000D490B60074BF1
:103090005A608022094BD2051A60E8E7094B1A00F2
:1030A000F3E7C04600B00540D3C007B0008005403C
:1030B0002D3FF84FFCFF01000820014000A0054013
:1030C000B84B0020FFFFFF008023024A9B000B4308
:1030D000D362704700800540002310B50100988A34
:1030E0001B8B984710BDC046162310B501001888E9
:1030F00002331B88984710BDF8B54746CE4680B5C9
:103100000F1E18D01423994604330400002501260D
:1031100098464B461888434621681B88984701C447
:10312000431E984101350640AF42F2D13000C0BC89
:10313000B946B046F8BD0126F8E7C046002370B591
:1031400004000D00988A05491B8B98470300002056
:10315000002C01DB0130A0402900984755420000B7
:10316000AA23064A1B0113608D235B00D360044928
:10317000044B19605368002BFCDA70470040024092
:1031800000B0FA00006002407047C04610B5014828
:10319000FEF7D8FC20C4001070B5074D074EB542AD
:1031A00009D20024013E761BB60808CD98472300BB
:1031B0000134B342F9D170BD08C1001044C1001000
:1031C000054B064A06491A60064A074B1A6010006A
:1031D0000B689843FBD1704700E00040BFCDFBFE79
:1031E00008C00040FE7F3C0000F00040044BDB6C58
:1031F000002B03D18022034BD2021A607047C046D5
:10320000000011504C201150044A054B1A60054A29
:103210001368DB018033FBD17047C046FFFFFF011D
:1032200000F0004008C000404022034B9A675A67F4
:103230001A67DA667047C04600F0014010B5FEF725
:1032400039FD10BD70B5044D044CA968C0222000A2
:1032500001F052F9AC6070BD00ED00E0000000200C
:10326000002310B5294C82B0A367FFF779FF012234
:10327000274B1A60636C012BFCD10322254B1A608B
:10328000224A936B012BFCD1013300930121224A86
:1032900022480433FFF778FE052301210093204ADA
:1032A0002048FFF771FE0022022104201E4BFFF789
:1032B000F1FD0022012105201C4BFFF7EBFD002250
:1032C000002107201A4BFFF7E5FD0022002108200E
:1032D000174BFFF7DFFD8023DB0000930022002166
:1032E0000920134BFFF75CFD0022104B0021062044
:1032F000FFF7D0FD0420FFF741FE0E4900F04CF827
:1033000001000020FFF7E0FE02B010BD0080004089
:103310003CB0004030B00040002F685900800240AF
:10332000008C864700C00240001BB700405973075D
:10333000006CDC0240420F0001480421014B184799
:1033400050100020F9300010124A936F9B0815D2DC
:103350009066D166002905D0FFE7FFE7FFE7516FD0
:10336000106F704704B580210906C217514000282C
:1033700000D0C84308F080FE002104BDF0B5146EF3
:10338000556E576F166FFFF7E3FF14665566576764
:103390001667F0BD000000D0114A936F9B0813D24E
:1033A00010665166002905D0FFE7FFE7FFE7516F80
:1033B000106F704704B5002801D00020C04308F00A
:1033C0005BFE002104BDC046F0B5146E556E576F0C
:1033D000166FFFF7E5FF1466556657671667F0BD71
:1033E000000000D094464A4A926F9208624601D289
:1033F00028E0C046F0B5464E346E756E776F366F76
:1034000000F020F89446424A1466556657671667DE
:103410006246F0BD94463E4A926F9208624601D2DF
:1034200054E0C046F0B53A4E346E756E776F366F25
:1034300000F04CF89446364A14665566576716678E
:103440006246F0BD002B24DB11D000293EDA00B526
:10345000C943404200D1013100F038F8C94340422D
:1034600000D10131DB43524200D1013300BD002ABB
:10347000EBD1002801D1002905D00020C90FC907D0
:1034800001D1C043410800B508F0E6FD0022002349
:1034900000BD00B500290ADBDB43524200D10133F5
:1034A00000F014F8C943404200D1013100BDC943C6
:1034B000404200D10131DB43524200D1013300F0E0
:1034C00005F8DB43524200D1013300BD002923D16E
:1034D000002B18D1002A0CD0BC460D4F38667A66F6
:1034E00000210023FFE7FFE7FFE77A6F386F6746A9
:1034F0007047002801D00748010000B508F0ACFD76
:103500000022002300BD02000B00002000217047B4
:10351000000000D0FFFFFFFF002B00D0BFE0130C26
:1035200028D1002AE7D080B4114F39667A66FFE7C8
:10353000FFE730B4040C7B6F396F1B0423433B66F9
:103540007A66FFE7FFE7FFE7C04684B27B6F3D6F17
:103550001B0423433B667A66FFE7FFE7C046002370
:103560002C042D0C7A6F386F00196941B0BC70477C
:10357000000000D0F0B594460025140E01D11202CF
:103580000835140F01D112010435940F01D19200B6
:103590000235D40F01D152000135D40B0134254F2F
:1035A0007C66254C3C660E0C93B2FFE7FFE7FFE715
:1035B0003C6F6643360C7703BE467343DF0B5B04F8
:1035C000C01AB941130C7343DB18C91ACE086643FD
:1035D000360CB64493B273431F0F1B01C01AB94196
:1035E000130C73431F0B1B05C01AB941860D8F02C4
:1035F0003E436643360C092D24DB520A7243801A7F
:103600007703460A6643360C16235B1BDE40DF4019
:10361000BF1964466643821B7046043506330100B9
:10362000D940A840C01900D30131A24206D20023DC
:10363000F0BD0000000000D0FFFFFFFF121B0130B3
:10364000F3D3F1E709277F1BFE406446A2B2724321
:10365000801A00D20139220C7243130C1204821A10
:1036600099410B007046043513370100F940A8401A
:10367000801900D30131002B02D1A2420AD2F0BD41
:10368000013000D30131121BFAD2013BF8D1A24222
:1036900000D2F0BD013000D30131121BF7E7F0B5C5
:1036A0001C0C00D080E00CB400251C0A04D11B02C5
:1036B000160E3343120208351C0B04D11B01160FE2
:1036C0003343120104359C0B04D19B00960F334306
:1036D00092000235DC0B02D192185B4101351C00CF
:1036E000971864410134464F7C66464C3C660E0C8C
:1036F000FFE7FFE7FFE7C0463C6F6643360C770302
:10370000BE4697B27743C01B00D20139C01B00D21E
:1037100001399FB27743C91BC91B170C77437E043D
:10372000FF0B801BB941CE086643360C0C2D33DBF2
:10373000B644120B1F053A431B0B97B27743C01BCD
:1037400000D201399FB27743C91B170C77433E045F
:103750003F0C801BB941860D8F023E4366432927EB
:103760007F1BFE400C3D7746AF40BF1930BCA2B274
:10377000ABB272437343801A9941220C7243130C0B
:103780001204801A994102000B000137001BA94165
:10379000F9D2781E0021F0BD0C277F1BFE40774632
:1037A0007F0BAF40FF19E0E700245D1C07D0144FEA
:1037B0007D663966FFE7FFE7FFE7FFE73C6F95B2FD
:1037C0009EB265436643401BB141150C1E0C654318
:1037D000664336042F0C3E432D04401BB1419942F1
:1037E00004D202000B0020000021F0BD01D1904264
:1037F000F7D3801A994101349942F2D3F6E70000D9
:10380000000000D0FFFFFFFF48404140484018B48F
:103810001B4B5B68FC46019308BD04DFE33A0010D4
:1038200018B4174B1B68FC46019308BD00DFED3A46
:1038300000109446134A926F920809D2624618B457
:103840000F4BDB68FC46019308BD0CDFA53D001063
:103850000C4AF0B5146E556E576F166F6246FFF73F
:10386000EEFF084A1466556657671667F0BD18B430
:10387000034B9B68FC46019308BD08DF493C0010E0
:10388000C8170020000000D0FFB550404240504013
:1038900059404B40594000E0FFB5154F4C00640DB6
:1038A00003D0BC4204D10C0314D80020090D090533
:1038B0005C00640D03D0BC4204D11C030AD8002272
:1038C0001B0D1B0501264B4009D44B4003D58B42F1
:1038D00000D18242FFBD9942FCD19042FFBD0B4313
:1038E000DB1803431343F5D0C9434918FFBD00005B
:1038F000FF07000000B5FFF7CFFF804100BDC046C5
:1039000000B5FFF7C9FF01D9002000BD012000BDAF
:1039100000B5FFF7B9FF01D9002000BD012000BDAF
:1039200000B5FFF7B1FF804100BD012040054A000E
:10393000121804D85A00121801D80020704701202C
:10394000704700000021002805D17047C11748408A
:10395000401AFAD0C90713B5064B1B6898470CBC30
:10396000441CA2401005120B0349091B0905194309
:10397000114310BDA44E00201F04000010B54C00E0
:10398000620D8023D218DB00D21A5B057E2A10DD7F
:103990009E3A13DACC170903490819435242D14021
:1039A000640001341532202A05DAD0400843604310
:1039B00010BD002010BD0846604310BDC80FC018E0
:1039C000013810BD18B4044B5B6AFC46019308BD76
:1039D00024DFFD4000100000C817002018B4044B7D
:1039E000DB6FFC46019308BD7CDF7D4100100000C9
:1039F000C817002018B4044B9B69FC46019308BD0E
:103A000018DF713F00100000C8170020132370B5A5
:103A10001D78012D19D014DD1F48FFF765FB060046
:103A20001E48FFF761FB1E4C80223100200000F091
:103A300063FD022D2DD01B48FFF74EFB1A4B18607B
:103A400070BD1A4B164CA364F5E7184B144C236059
:103A50006360A360E36023616361A361E361236248
:103A60006362A362E36223636363A363E363236428
:103A70006364A364E36423656365A365E365236608
:103A80006366A366E36623676367A367E367A3646C
:103A9000D1E7064BA364CEE7534400005346000031
:103AA000C81700204C330000A44E0020B13A00108B
:103AB00007B5604601880A0A0230DF2AFAD1C9B286
:103AC000820804D3028840880004104300E00068A4
:103AD000014A5050039007BDC81700200FB403BC23
:103AE0000CBCF0B50124E407634000E0F0B50C0D18
:103AF000CF0F661E3605891B640503D3C9434042B8
:103B000000D30131640D03D0661CF60A07D0E41B14
:103B100000207F00791C89078912803C24031D0D39
:103B2000DF0F6E1E36059B1B6D0503D3DB43524230
:103B300000D301336D0D03D06E1CF60A07D0ED1BC8
:103B400000227F007B1C9B079B12803D2D032F1BB7
:103B5000661B58D4A446202E46DA20371400BC40F9
:103B60001D00BD40F24033412A4380185941CB0F1C
:103B700005D0C943C04300226442504151416246CE
:103B80004D0D28D10D0D07D100281FD0241940411B
:103B90004941013A0D0DF9D0640006D3013000D33C
:103BA0000131002C01D140084000013A0BD4941C93
:103BB000E40A04D112051144DB071944F0BDD9070A
:103BC000204B194300E0D9070020F0BD0029DDD1CA
:103BD000002CDBD1F0BD0132C6074008CD072843D9
:103BE0004908002EE1D0D9E73C2E29DA203E4037A3
:103BF0001400BC4000D00124F24014431A00BB4022
:103C00001C43D317ACE7AC46202F08DA203604005B
:103C1000B4400D00B540F84039412843A5E73C2F9A
:103C20000CDA203F40360400B44000D00124F840B4
:103C300004430800B1400C43C117EAE71000190023
:103C4000002494E70000F07FF0B50C0D661E3605E9
:103C5000891BE60A6405640D02D0651CED0A04D0D8
:103C6000002001210905803C2403A4461C0D671E89
:103C70003F05DB1BE70A6405640D02D0651CED0AF5
:103C800004D0002201231B05803C240377406444B8
:103C900097B484B296B27443070C7E43150C6F43FD
:103CA00080B26843361802D3012000043F18300464
:103CB000350C00197D41844688B29AB250430C0CF1
:103CC00062431F0C7C438EB27E43921902D30126BD
:103CD0003604A4191604170C3618674101BC81B2CA
:103CE0009AB25143040C62431B0C5C4380B25843AC
:103CF000121802D30120000424181004130C4018D9
:103D000063412D185E410020474106BC88B293B242
:103D100058430C0C6343120C544389B251435B1853
:103D200002D301210904641819041A0C091862410C
:103D30006D1856410020474118BCF902720D11431D
:103D4000F0026A0D1043ED020A0D03D16D194041D6
:103D50004941013B124E9B1B7600B3420ED26D00CF
:103D600007D30130002671416646354301D1400832
:103D700040001B05C918E4072144F0BD0BDA0133EC
:103D800006D1013004D101314F0D01D04908F2E7CD
:103D9000E1070020F0BD013631050020EBE700000F
:103DA000FF030000F0B51C0D671E3F05DB1BE70A93
:103DB0006405640D02D0661CF60A04D000220123BB
:103DC0001B05803C2403D0252D060026F6432E66D5
:103DD0001E096E66CE0FF619B44649004F0D02D08B
:103DE0007E1CF60A03D000200021403F3F033E1B0B
:103DF000B600B444013F7F05C91B49082E6F013648
:103E000076089C02950D25437543ED137543AD135C
:103E100001356D10F603761B0CB4CC02450D2C4316
:103E2000A2B2B3B25A43270C7B43350C6F43A4B202
:103E30006C431B1902D3012424043F191C041D0CDC
:103E4000A4187D4124196D41009A91B2ACB261432E
:103E5000170C7C432B0C5F4392B25A43A41802D335
:103E600001221204BF182204230C52187B41019C2A
:103E70006C431B19520ED9010A434401A01A81B2A6
:103E8000B2B2514303145A43360C734387B277439B
:103E9000D617D21900277E4136049B191704160C39
:103EA0007F185E417316ED18F301002680337541CB
:103EB000A90F06D16400690AE8055B0A184309D214
:103EC0002FE00422944480337541A90AA8059B0A77
:103ED000184326D3404149412404009A019B0D0018
:103EE0005543641B4343E41A95B286B27543170CDD
:103EF0007E43030C5F4392B25A43B61802D30122A9
:103F00001204BF183204330C52197B4152429C41B7
:103F1000002C02D40022013051414008CA0710434E
:103F2000490802B06246D7079210084BD218084BD6
:103F30009A4203D212058918C919F0BD0020002A3F
:103F400001DC3900F0BD01331905F5E7FD03000080
:103F5000FE07000007DA002107E0C90FC907520D6C
:103F600003D0C91201E04C49090500207047C04642
:103F70004A00F2D2520D013A484B9A42EAD2F0B5C9
:103F80001405091B520801D3001849419B08D21897
:103F90001205944640A44A0CA25C0B0953435343B8
:103FA0001B1353435B131202D21A13005B435B0BC8
:103FB0004C086343DB135343DB1501335B10D21A08
:103FC000130CD21A13005B438902840D21438DB276
:103FD0009EB275430F0C7E431B0C5F438CB25C4357
:103FE000361902D3012424043F193404330C641914
:103FF0007B419D01A40E2C432034A5B255432414CB
:1040000054432D0C6419A411D203121B95B28EB225
:104010007543170C7E430C0C674393B26343F61849
:1040200002D301231B04FF183304340C5B197C41B9
:10403000DB186441DB18002363419EB276439DB2D6
:104040001F0C7D437F436C04ED0BA4197D410602D8
:104050008F08361BAF417D07F6086E41B4B295B2AA
:104060006C4337147D43120C5743B6B25643EA17DC
:10407000AD19002672411204BF182E042A0C3619FD
:104080007A410832521117D29D0A9C05D117101996
:1040900069416144F0BD0000FF070000FE07000019
:1040A000F8EBDFD6CDC5BEB8B2ADA8A4A09C99955B
:1040B000928F8D8A8885838152415D0ADC05D117F4
:1040C00014194D412B006343A6B27643A2B2270CCC
:1040D0007A437F435104D20B89197A41D218D218FE
:1040E00080054942904102D4002301345D416008BB
:1040F0006908ED0728436144F0BDC046002200B5C1
:10410000203200F004F8080000BD000000220B156A
:104110000AD410B5944600F05FF81414013400DAA4
:104120000021CB17144C2047002000217047624427
:10413000343A0CD40C2A07DA0400914090405242E1
:104140002032D440214310BDD843D94310BD203282
:1041500007D40C469440524220321141D0402043B3
:1041600010BD0800C917203203D45242203210413A
:1041700010BD1800190010BD2F4100104A00520D4B
:10418000144BD21A13DDFF2A1EDAD205CB0FDB0740
:104190001A43C300400F0903490A084310435B0058
:1041A00001D301D0013070474308FBD2704702D0E1
:1041B000C80FC00770470A0312130132F8D1420F2B
:1041C000072AF5D1012200E0FF22C80F0002801863
:1041D000C0057047800300000A0DCC0F531E1B055D
:1041E000C91A520503D3C943404200D30131520DCD
:1041F00003D0531CDB0A07D0121B00206400611C93
:1042000089078912803A1203014BD21A70470000C5
:10421000FF03000051434343C9188C46110C83B27D
:104220004B4310B4040C614392B280B250436243DA
:104230001C041B0C001910BC59411304120CC018AB
:1042400051416144704700004840414048400E4B96
:104250005B6818470C4B1B6818470C4A936F9B0808
:1042600002D2094BDB681847F0B5146E556E576FD4
:10427000166FFFF7F6FF054A14665566576716670F
:10428000F0BD014B9B681847C8180020000000D003
:10429000491A002808D1084670470000C10FC90715
:1042A00000D54042002817D0F44603B40B4B1B68DE
:1042B000984706BC81409E384042803107D20B06A9
:1042C00007D04900490AC005104308436047013040
:1042D000F8E7490A8902F5E770470000A44E00207C
:1042E00041000A0E80231B067E2A0BDD9E3A0BDA64
:1042F000C1174002400818435242D04049000131E2
:104300004843704700207047C00FC01801387047FD
:10431000C0420DD300B540004008002100F012F863
:10432000002801D4404200BD8020000600BD0000EE
:10433000034BDB69FC4618471CDFF5430010000007
:10434000C8180020014B5B6A18470000C8180020FD
:10435000034BDB6FFC4618477CDF0D440010000068
:10436000C8180020132310B512481C78FEF7BCFEB5
:104370000100012C0AD003DD80220F4800F0BCF8B8
:104380000E48FEF7A9FE0E4B186010BD0A4C5422D1
:10439000200000F0B1F80B4B6365A365E36523666D
:1043A0006366A366E36623676367A367E3672362C5
:1043B000E361E5E753460000C81800204C330000D5
:1043C000A44E0020C943001007B5604601880A0AC0
:1043D0000230DF2AFAD1C9B2820804D302884088A9
:1043E0000004104300E00068014A5050039007BDEC
:1043F000C81800200021C2158032803201D0024A44
:104400001047002070470000CD2A0000C30FDB07D3
:1044100041000A0E07D0FF2A08D00909054A891869
:104420001943400770471900002070470249C91816
:10443000FAE70000000000380000F07F70B50400CB
:104440000A4E300007F048FE200007F03DF9050055
:10445000300007F0F9FD002D05D0054B2C199C42CA
:1044600001D8280070BD0348FDF76CFB181600202A
:10447000000004202CC40010F8B506000C000C4FFE
:10448000380007F029FE2100300007F0BDF80500D4
:10449000380007F0D9FD7443002D05D0054B2C19C9
:1044A0009C4201D82800F8BD0348FDF74BFBC046ED
:1044B00018160020000004202CC4001070B5040061
:1044C000054D280007F008FE200007F007F9280036
:1044D00007F0BAFD70BDC04618160020014804213F
:1044E000014B184760100020F9300010014B1B6889
:1044F0001847000060100020014B5B68184700005F
:10450000601000209A4200D2885470477047C0461D
:10451000F8B55746DE464E464546E0B599460A9BF5
:1045200007009A460D9B884693460B9C9B073BD100
:104530000C9B9C423DD21E1B0B9415000C005E444C
:104540002A004B46013521002020B847B542F7D15B
:10455000A0460B9C002C20D0454636195346321BF2
:10456000013C185D29004B46B847002CF6D12B00C2
:10457000350098460D9B9B070FD55B46EC1A0C9BAC
:10458000A3420AD9464698462A004B4631002020CD
:104590000134B84701354445F6D32800F0BCBB468A
:1045A000B246A946A046F8BD16001500002CD3D18E
:1045B000E0E716001500002CCED1EEE7F0B5454639
:1045C000DE4657464E46E0B585B09C4610AB1B789C
:1045D000149F934698460F9C129E139DBB074CD484
:1045E000002D42D1B44248D201233B4099460E9B54
:1045F000013B9A46302304E0524601341355A6424B
:1046000001D9202CF8D14B46002B00D183E00E9B22
:10461000013B99463023A54205D82EE04A46013495
:104620001355AC4229D0202CF8D1FB060CD57B05C4
:1046300054D4A64263D0A54261D0119B102B50D018
:10464000022B57D0202C32D1202301930E9B5A46A7
:104650000093039763460295FFF75AFF05B0F0BC3D
:10466000BB46B246A946A046F0BD01233B40994651
:1046700001233B422AD1B442B9D3FB061CD57B05AA
:10468000DBD4002CD5D1119B102B5BD0119B022BBE
:104690006BD0302301240E9A13704346002B10D1A7
:1046A0007B073ED52B260E9A631C1655CDE72300BB
:1046B000013430260E9AD654202CC5D04346002B08
:1046C000EED02D260E9A631C1655BEE74346002BEE
:1046D0002FD0013DB44200D289E798E7119B102BFF
:1046E000B2D1BB0637D5202CAED058230E9A135525
:1046F0000134A7E7202CA7D02300013407E0631E74
:10470000012CC0D0119A102A31D0022AD1D16226B0
:104710000E9AD65496E7FB06CED57B0500D488E7E3
:104720008BE723003E0790D520260E9A01331655BD
:104730008BE70C233B405A1E9341ED1AB44200D242
:1047400055E764E7BB060ED478230E9A0224137053
:1047500030235370A1E7202C00D175E778230E9AFF
:10476000135501346EE75823EFE76033EDE70E9AF7
:10477000A61E91464E44BA0602D55822327098E7DA
:104780007822327095E7C04610B5002800D110BDE0
:1047900001F0AEFCFBE7C0460B0010B5002802D0CC
:1047A00049681B68984710BDF0B55746DE464E462F
:1047B0004546E0B595B083460F00924698461E9A4E
:1047C0001F9B10001900209EFFF7AFF8002800D0B3
:1047D000EAE11E981F990122C54B5242FFF78AF861
:1047E000002800D014E11E981F990122C14B5242AB
:1047F000FFF796F8002800D0E9E01E981F990022E4
:10480000BD4BFFF78DF8002800D0C8E01E981F9917
:104810000022BA4BFFF76EF8002800D0BFE01E98C8
:104820001F9900220023FFF765F8002800D0E4E07C
:1048300000230B93229B5B0500D406260024302323
:1048400007E0172106AA013452181355013E202C07
:1048500001D0092EF5D81E981F99FFF78FF8A84BA5
:10486000F2009B181A685B68050008920993FFF72D
:104870006DF802000B001E981F99FEF7C8FF089AFA
:10488000099BFEF7F4FF06900791FFF79BF881461E
:10489000FFF758F802000B0006980799FEF7B7FFDC
:1048A0000022984B06900791FFF73AF8002800D1B4
:1048B0000DE101239C46E1444846FFF743F802001E
:1048C0000B0008980999FFF71BF8002802D0002375
:1048D00099460135002E00D1D9E006954D46B946DE
:1048E00014E006AA944617230A21634428000134E1
:1048F0001F19FEF751FD3031397028000A21013EA1
:10490000FEF74AFD092D00D817E10500202CE8D15B
:104910004F46069D20240CAE06AA172394466344F6
:1049200099465B46B34606930FE04B4628000A21A2
:104930000134E618FEF708FD3031280031700A21F5
:10494000FEF702FD051E00D1E4E0202CEDD1069B10
:104950005E469B460323229A1340012B18D1219BCC
:10496000002B15D00B9B002B00D1FDE0219B013BC0
:104970002193202B0CD93023219A07E0172006A978
:10498000013409180B55944200D3CCE0202CF5D10A
:10499000229B01940393219B0096029322E0229B89
:1049A00052460493219B3900039358461E9B1F9C3B
:1049B000029600930194434600F04AF90400200057
:1049C00015B0F0BCBB46B246A946A046F0BD229B3E
:1049D0005B070FD403224C4B22990192039121993A
:1049E000009302914346524639005846FFF790FD26
:1049F0000400E4E70422454BEEE71E9A1F9B0020CB
:104A00000021FEF704FF01231E901F910B9311E775
:104A1000229B54469B0711D1219B042B0ED9219B2D
:104A200055469C465E46043C64442A004346013594
:104A300039002020B047A542F7D1B346344D2600B7
:104A40002B1F99465B46A3461C003200E87843467C
:104A50003900013DA04701364D45F6D123005C46A3
:104A60009B46229B04349B07A9D55346219AE31AFF
:104A70009A42A4D95E461500220043463900202000
:104A8000B04753460134E31A9D42F5D897E7280012
:104A9000FEF75CFF02000B001E981F99FEF7B7FEA1
:104AA0000022184B06900791FEF724FF0CAE002859
:104AB00000D031E7069807990022124BFEF730FF2D
:104AC000002800D028E7012301359D4324E7002278
:104AD000069807990B4BFEF70DFF002800D0F9E66A
:104AE0004B46002B5CD101239C46E144F2E6C046D4
:104AF000FFFFEFFFFFFFEF7F65CDCD4165CDCDC15E
:104B000030CA00100000E03F88C4001080C40010CC
:104B100090C40010069B5E469B460323229A1340D6
:104B2000012B00D181E0202C00D131E70B9B002B21
:104B300027D02D23335501342AE74F46069D202CDC
:104B400000D1E7E63022331907E0172006A9013427
:104B500009180A55202C00D1DCE6A342F5D12E22FB
:104B60000CAE0134F254D7E60C23229A134257D0EC
:104B7000219B013B2193A34200D9FCE6202C00D1CC
:104B800006E7229B5B0703D52B2333550134FFE651
:104B9000229B1B0700D4FBE6202333550134F7E6A4
:104BA000DB0700D496E69EE7229B55469B0711D172
:104BB000219B032B0ED9219B54469C465E46033D08
:104BC000654422004346013439002020B047AC42FE
:104BD000F7D1B346B9465F461C4EEC1C2A00B078AC
:104BE000434649460135B847013EAC42F6D1229BC7
:104BF000BB464F469B0700D4E1E65346219AE31A91
:104C00009A4200D8DBE65E46150022004346390092
:104C10002020B04753460134E31AAB42F5D3CEE629
:104C2000219BA34200D9A6E6B2E6219B002B00D12E
:104C300079E70B9B002B97D0219B013B21939C4252
:104C400000D298E6202C00D073E7A1E68CC40010B7
:104C5000F0B5DE4657464E464546E0B599B081462A
:104C60008B4692469846229A239B10001900FEF725
:104C70005CFE002800D0CAE0229823990122824BD2
:104C80005242FEF74DFE002800D0C0E02298239942
:104C900001227E4B5242FEF72DFE002800D0B6E0E6
:104CA0002298239900220023FEF724FE002800D03A
:104CB000C9E1229B239C08930994089809998023B1
:104CC000269ADB001A400D928022269C1201144085
:104CD00022000B94269C07000E001C4200D0ADE081
:104CE0000B00034300D0D5E0002A00D00AE22200E6
:104CF00006332493022313400C930223134200D063
:104D000002E2259B042B00D20FE2043B0B9300230D
:104D100004250A930022229823990023FEF7EAFD36
:104D2000002800D003E25A4B269A134004930B9BB1
:104D30000393249B0293089B099C0093019459467A
:104D4000434652464846FFF72FFD02002020269B8F
:104D50001F27034059424B415B421840531C0893A4
:104D6000594643464530C8470A9AD317D4185C4081
:104D7000D30F0A936B1E0B9308AB9C460025674428
:104D800001E0202D0FD020000A21FEF705FB0135A0
:104D90007E193031317020000A21FEF7FDFA26001D
:104DA0000400092EEDD8052306930B9B5946059365
:104DB000002304930A3303930A9B4846029310ABE3
:104DC0000093089A43460195FFF7F8FB0C9B002BD4
:104DD0002DD05346C41A259BA34228D94D465F4681
:104DE00081461E00534639001A19202043460134DB
:104DF000A847A642F6D8534648462599C21A01321A
:104E00000023914200D386E1013018180FE0269B61
:104E10000493259B0393249B0293229B239C009342
:104E200001944346524659464846FFF7BDFC19B027
:104E3000F0BCBB46B246A946A046F0BD01432BD10B
:104E40000B9B2200002B00D154E700230A93249BE4
:104E50000A9A0024934200DD85E1229823990022DA
:104E60000023FEF747FD002800D035E1269B084AC5
:104E700002941A408023DB0013430493259B039381
:104E8000089B099CCBE7C046FFFFEF7FFFFFEFFFCA
:104E9000FFF7FFFF06232493B44B70009C46400DA0
:104EA0006044FEF753FDB24AB24BFEF7E0FCB24A53
:104EB000B24BFEF7B5FC3603B14B360B334304005F
:104EC0000D00380019000022AE4BFEF7A0FCAE4AE0
:104ED000AE4BFEF7CCFC02000B0020002900FEF7D1
:104EE0009FFCFEF74BFD0A90FEF730FDA84AA94B48
:104EF00004000D00FEF7BBFC0022A74BFEF790FC60
:104F0000FEF73CFDA54A0600A54B20002900FEF750
:104F1000AEFC040030000D000C96FEF717FDA14A10
:104F2000A14BFEF7A4FC02000B0020002900FEF7B5
:104F30006EFC02000B0006000F00FEF798FC32002A
:104F400004000D003B0030003900FEF769FC002230
:104F50000E900F91954B20002900FEF76AFC00226D
:104F6000934BFEF75DFC02000B0020002900FEF7CA
:104F700060FC00228F4BFEF753FC02000B00200068
:104F80002900FEF756FC0D008021040032003B0092
:104F90000020C905FEF73BFC02000B0020002900A1
:104FA000FEF73EFC02000B000E980F99FEF741FC45
:104FB0000022734BFEF734FC7F4B0C9C9C466444F0
:104FC00000222305FEF753FC06000F0002000B0031
:104FD00008980999FEF78EFC00280AD00A9B300039
:104FE000013B39000A930022714BFEF722FC0600B8
:104FF0000F000A9A330063323900C62A12D80222FF
:105000002698042510400B9A0C90002A25D1259B48
:10501000042B05D9002800D0A1E0259B043B0B936D
:10502000042541E00222269810400B9A0C90002A99
:1050300012D1259B052B76D9002872D1259B0525F9
:10504000053B0B9334E0802212069446229B089382
:10505000239B6344099330E605250B4300D1F6E614
:1050600008980999554A564BFEF752FC002808D07B
:10507000089809990022534BFEF73CFC002800D009
:10508000E5E6249B002B1CD00D9B002B19D0249B04
:10509000013B2493259BAB4204D90C9B002B5AD097
:1050A00002230C9300230B930A9B002B00D131E6C3
:1050B0000898099932003B00FEF7BBFB0890099164
:1050C00028E6259BAB42EDD90C9B002B43D0002357
:1050D0000B9302330C93E7E78020269B3A4A0006A5
:1050E0001A40802384460294089C099D2900DB0015
:1050F00013430493259B6144220003930B00009209
:1051000001938EE60524A8E600230B930A9302334D
:1051100004250C93FEE553468C46013B63441B1A61
:1051200072E602230C930525C2E70423EDE58020F7
:10513000089E099F000639008446269A224B614446
:10514000134004930B9B32000393249B02930B00A8
:1051500000920193F3E5259B5B1B0B93A4E70223CD
:1051600004250C93A0E79C1A013C76E601FCFFFFA6
:10517000FB799F501344D33FB3C8608B288AC63F46
:105180000000F03F0000F83F61436F63A787D23F04
:1051900071A379094F930A400000E03F1655B5BB53
:1051A000B16B0240EF39FAFE422EE63F00002C4080
:1051B0000000244000001840FF0300002D431CEBBA
:1051C000E2361A3F80842E41FFF7FFFFF0B5DE463E
:1051D00057464E464546E0B5A5B01E002E9B92466A
:1051E0000C93CD4ACD4B80468B461A60002900D1E6
:1051F000EAE1002330789946002800D1ECE1C84B61
:105200004C460B93C74B454657460E930AE0631C2A
:10521000984622003B005946A8474446307800286B
:1052200000D187E001362528F1D108239A46043BB6
:105230009946023B9846013B00229C460D943078EB
:10524000711C0300203BDBB2102B03D80B9C9B008E
:10525000E3589F460300303B89460D9C092B3AD901
:10526000002398462A2800D1C1E000239A462E2820
:105270004BD00300683BDBB2122B1ED80E999B006B
:10528000CB589F4663460E001A43D8E743460E00AC
:105290001A43D4E74B460E001A43D0E710230E0002
:1052A0001A43CCE753460E001A43C8E780235B003D
:1052B0001A43FF3B9C467078E1444E4667284FD81E
:1052C0002428A4D90300253BDBB2422B9FD8964962
:1052D0009B00CB589F46002394461E0000E00131FE
:1052E000B3009B195B001E180878303E0300303B6A
:1052F000092BF4D90123624689469C460023B04617
:105300009A460E00E1442E28B3D130218020494234
:105310008C46C000024370784B468444614609299C
:1053200000D86CE12A2800D17AE101239C464E4640
:10533000E1449EE7A146A846BA46CA4503D80123E0
:105340005B425344994653464A4659460020C0475B
:10535000200025B0F0BCBB46B246A946A046F0BD31
:105360000300693BDBB20D930F2B00D94FE70121FE
:1053700099408C466D49894661464B4619400F91CC
:10538000634649460B4200D028E10D9B0A2B3AD0D8
:10539000072B00D03BE70C9B190008C98846002B5F
:1053A00000D14BE121200243914614A98C461F22D3
:1053B0000F2162448C4651460D950C91A246150072
:1053C0000F9902E020290CD0130064461C402000F5
:1053D0003730092C00D80738013168541A090F2BCF
:1053E000F0D80C9B54460D9D9A460F9133E10C9BCF
:1053F00002CB8846002947DB0C9301239C4670783A
:105400004E46E14431E70C9B02CB14935346002BEC
:1054100000D138E19C4608780B000C908C440028A1
:1054200001D100F098FC89466146944603E05A7821
:105430000133002A01D08B42F9D1494662465B1AFA
:105440000C900F93530500D520E102231800104063
:105450000D90134200D1CBE30D930B1BB1469A463E
:105460005E460C9822003B003100A84753460134A9
:10547000185D0028F6D1B3464E460D9B002B00D098
:10548000C7E1149B0C93C9E60C9301239C46283872
:1054900049420243884670784E46E144E5E670781A
:1054A0006C2800D17FE180235B001A43FF3B9C46C0
:1054B000E14402E780239B001A4301239C46707855
:1054C000E144FAE67078682800D173E180231A433A
:1054D0007F3B9C46E144F0E6672800D103E1472882
:1054E00000D15AE1452800D15AE1049207214246F1
:1054F0000C9B0392073352468B43190002920CC94E
:105500002800009201930C9122003B005946FFF7BE
:105510009FFB040082E6C046CD510010AC4B00203A
:1055200090C80010D4C8001020C90010419000009D
:10553000462800D1DBE00492072142460C9B0392EF
:10554000073352468B43190002920CC9280000927F
:1055500001930C9122003B005946FFF725F9040006
:105560005CE6631C984622003B0059462520A8476C
:10557000444653E60C9B04330D93631C99469207F3
:1055800000D422E10C9B2200187859463B00A84722
:1055900043464444012B00D885E23300B8462E0030
:1055A0005F4625004C4699462200434601343900A7
:1055B0002020B047AC42F7D12C00BB46350047460F
:1055C0004E460D9B0C9329E6DB4B30789846002322
:1055D0009946002800D012E60024AEE66F2800D1DC
:1055E00088E000D80BE31023782800D1CFE09A435D
:1055F0000A239C4600230F930A330D9380E05646FE
:10560000B1008919490001330E181878303E0100A5
:1056100030390929F4D9B2461E000133994628E6EB
:105620000C9B023602CB8A46C9435046C917084034
:1056300082460C933078731C99461AE610231000AA
:10564000984311331843814680201300C000034063
:10565000024200D1A9E64B46069308230593534620
:10566000049310230393002302930F9B22000193C2
:105670001CAB009359463B002800FEF79FFF4346B2
:1056800004000C93CAE501235B42C3E60F9B53451C
:1056900001D953460F930223180010400D90134276
:1056A00000D1B7E10D93D1460B1B9A463300A144BC
:1056B0002E0022004D460C98B9465F469B4608E0F6
:1056C0004B463900541CB0475346185D002877D02C
:1056D00022009542F4D15B46BB464F46A9463500B1
:1056E0004C461E00C9E680231B011A43FDE6202319
:1056F0001A4320E708239C4600230F9308330D9399
:1057000080231100DB0019401A4200D116E10D235D
:105710009A431000802302009B001A401492184202
:1057200000D0C2E1802302005B001A4091460C9A2F
:1057300004320F92184200D0B7E2430600D59FE131
:10574000030600D419E30C9B1B880993002B00D09F
:10575000FCE110339843002900D1F7E1002399467A
:1057600043460593534604930D9B069003930023F1
:10577000D2E0582808D0622867D102239C46002333
:105780000F9302330D93BBE720231A43103B9C4633
:1057900000230F9310330D93B2E780231B011A43AC
:1057A00020231A43A1E6C0239B001A43F31C994609
:1057B000B07882E5C0231A43F31C9946B0787CE5A3
:1057C00035005E46BB464F4657E64346012B00D8A0
:1057D00063E1631E43449A463300B9462E005F4698
:1057E00055469B46A24622004B46013439002020F4
:1057F000B047AC42F7D135005E46BB464F46A146A6
:1058000054460C9B4A46187859463B004444A847E6
:10581000D7E6A1460F9B984500D832E64444E41AE7
:105820003300B8462E005F4625004C4699462200BC
:105830004346013439002020B047AC42F7D12C0058
:10584000BB46350047464E461BE680231000DB0072
:1058500018401A4200D10FE1112118008A430D921D
:105860000D9A802311009B0019408C461A4269D181
:10587000802311005B00194089460C9904310F9177
:105880001A4200D0CAE113005B0600D5F0E0130015
:105890001B0600D459E20C9B00229B5ED9175A18B4
:1058A0004A4092B2D90F0C91002B00D1F9E11000BF
:1058B00014AA944642461F23149252466344A846B3
:1058C00016944D460400B946B2461F00159201E0F9
:1058D000202D0FD020000A21FDF75EFD01357E1935
:1058E0003031317020000A21FDF756FD26000400FA
:1058F000092EEDD8149B4F46A94645469846159B60
:1059000056469A46169C0D9B06934346059353466E
:1059100004930A2303930C9B02934B4601931CAB05
:105920002200009359463B002800FEF747FE0F9BDC
:1059300004000C9372E4C0460D4500100C239A43FA
:105940001000E7E607220C9B07339343013294468D
:105950009C4462460C920CCBD90F0F911100194355
:1059600000D191E0D91713911291514010911399E0
:105970005940119110981199129A139B801A9941CC
:105980001090119114AA002394464246994614920D
:1059900052461F336344A846B24616944E46109CA6
:1059A000119DB94615921F0001E0202E10D0200055
:1059B00029000A220023FDF72DFD013630322B008D
:1059C000BA550D0022000400002BEED1092AECD8B4
:1059D000149B1094119545469846159B4F46B14629
:1059E00056469A46169C0D9B06934346059353468E
:1059F00004930A2303930F9B02934B4601931CAB22
:105A00002200009359463B002800FEF7D7FD040012
:105A1000FFF704FC0F9B984500D8C1E18023DB0011
:105A20000D9343460F9A1B199B1A994633002E007B
:105A30004D46B9465F469B460C9122004B460134C9
:105A400039002020B047AC42F7D143460C990133CE
:105A50000F930B7835000C935E46BB464F46002BE8
:105A600000D10EE50D9B002B00D1F6E4002319E6D2
:105A70000C9B1B781A0015E710239A430D92EFE652
:105A80000C9B1B78099361E6002399460028AAD154
:105A9000002200231092119374E70C9B22001878C7
:105AA00059463B00A8474C468BE50C9AFA3BFF3B16
:105AB00007329A430133994691444B460C9313683D
:105AC000526815921A4306D110329043002209926F
:105AD000002900D081E06122810600D54122D2B2A6
