:020000041000EA
:1000000000B5324B212058609868022188439860DF
:10001000D860186158612E4B002199600221596106
:100020000121F02299502B49196001219960352056
:1000300000F044F80222904214D00621196600F024
:1000400034F8196E01211966002018661A6600F04E
:100050002CF8196E196E196E052000F02FF8012189
:100060000842F9D1002199601B49196000215960AB
:100070001A491B48016001219960EB211966A021F2
:10008000196600F012F800219960164914480160C1
:100090000121996001BC002800D000471248134993
:1000A000086003C880F30888084703B5996A0420EC
:1000B0000142FBD001200142F8D103BD02B5186610
:1000C0001866FFF7F2FF186E186E02BD00000240BE
:1000D000000000180000070000035F00212200005C
:1000E000F4000018222000A00001001008ED00E03C
:1000F00000000000000000000000000074B24E7A12
:1001000000200420F7010010C3010010C5010010F9
:10011000C1010010C1010010C1010010C101001097
:10012000C1010010C1010010C1010010C701001081
:10013000C1010010C1010010C9010010CB01001065
:10014000CD010010CD010010CD010010CD01001037
:10015000CD010010CD010010CD010010CD01001027
:10016000CD010010CD010010CD010010CD01001017
:10017000CD010010CD010010CD010010CD01001007
:10018000CD010010CD010010CD010010CD010010F7
:10019000CD010010CD010010CD010010CD010010E7
:1001A000CD010010CD010010CD010010CD010010D7
:1001B000CD010010CD010010CD010010CD010010C7
:1001C00000BE00BE00BE00BE00BE00BEEFF3058054
:1001D000103800BEF2EB88713C46001064460010F7
:1001E0003802001090A31AE71E481F49086006C88D
:1001F00081F3088810471D480068002801D019487D
:10020000F3E70DA40ECC002902D000F012F8F9E7B4
:100210001749184A002000E001C19142FCD116495B
:100220008847164988471649884700BEFDE701C937
:1002300001C29A42FBD3704764460010C000002000
:100240006C02002010480010000004200000042070
:1002500010480010001004200010042000000000CE
:10026000704700000000000008ED00E0000000D032
:100270006C0200203C0A0220911C0010A90300100F
:10028000891C0010F8B5C04606480749091A8B10AA
:10029000C90FC91810B5491003D0044B002B00D06A
:1002A000984710BD6C0200206C0200200000000086
:1002B000054B10B5002B03D00449054800E000BFF2
:1002C000FFF7E2FF10BDC0460000000070060020EE
:1002D000A4440010F8B5D02480272406BF0180264E
:1002E0008025FA2036016D0167614000A661A56195
:1002F00003F00EFBFA20A76140006661A56103F0E0
:1003000007FBFA20A7614000A661656103F000FBCE
:10031000E5E7C04670B5D02580242D06A4036420EF
:100320006C6103F0F5FAE120AC61800003F0F0FAB3
:10033000F5E7C046F8B54746CE46D024184B80B501
:100340009946184B0025002798462026240609E0E8
:1003500003F000F901359620400003F0D9FA64203B
:1003600003F0D6FA63681E420AD14B461868002F84
:1003700011D103F0EFF801379620400003F0C8FADE
:1003800063685B06EBD443461868002DE0D003F0A9
:100390006DF90025DFE703F069F90027ECE7C046B7
:1003A000C40902208809022010B582B001F07CFD4A
:1003B0000D2000F08DF8D024802324069B01636279
:1003C0000B2000F085F880231B0163620C2000F0F5
:1003D0007FF880235B016362152000F079F88023A9
:1003E0009B036362052000F073F820230022A362C0
:1003F0000121052000F058F8062000F069F840239C
:100400000022A3620121062000F04EF80124802280
:10041000104B11490193520000231048009403F03F
:1004200087F880220E4B0F490193520000230E489B
:10043000009403F07DF800238022019302330B49DE
:100440000093520000230A4803F072F803F05AF9AF
:10045000FEE7C046C4090220A4440010D5020010E3
:1004600088090220B044001015030010BC4400109D
:1004700035030010094A83009A1810B51468402209
:10048000544080322240064CC000A44663441A60A7
:10049000044B9C466044416010BDC04604C001400E
:1004A00004D0014000400140074B8000C3181B6886
:1004B000C90092000A435A400C231340034A944651
:1004C000604403607047C04604C0014004D001404E
:1004D0000123D0228340120693629361094A83006C
:1004E0009A1811684022514080320A400649C000E3
:1004F0008C4663441A60054B9C4605236044436068
:100500007047C04604C0014004D001400040014093
:100510000FB400B5084883B001F016FD049B002B12
:1005200007D005A91800019101F094FB034801F0E0
:100530000BFD012001F0A6FBC8440010D8440010B8
:1005400010B50148FFF7E4FFDC44001070B5EFF38D
:10055000108C72B60D4D2B68002BFCD0BFF35F8F53
:100560000724CB08C618C05C01230C40A3401C0024
:100570000440034207D118433070BFF35F8F2C60F3
:100580008CF3108870BD1000FFF7C2FF2C0100D063
:10059000044A1078431CDBB2172B00D910231370C8
:1005A0007047C046B80100200021044B044ABFF345
:1005B0005F8F02C39342FAD17047C046000100D05A
:1005C000800100D0054B064A1360064A1360536051
:1005D0009360D36013615361936170478080808022
:1005E00000E400E004E400E01F2318401E3B8340C9
:1005F000002905D0C021044A4900535013607047B8
:10060000802201498B50FAE700E100E070B50D004F
:10061000EFF3108672B60F4A1368002BFCD0BFF3BD
:100620005F8F0D4B10309B6884001B590B4A93421F
:1006300003D09D4201D000F02BFF074B9B681D515A
:10064000BFF35F8FBFF35F8F0022024B1A6086F308
:10065000108870BD240100D000ED00E0CD01001035
:10066000F0B5DE4657464E464546E0B50C0083B031
:10067000EFF3108872B6634A1368002BFCD0BFF307
:100680005F8F614B61499A68030010339F00D55911
:1006900001938D4243D0A54254D05D4EAA1B2F2A10
:1006A0003DD85C4B9B461B68994601231A009C462B
:1006B00082404B4613401F229946634602409340B6
:1006C0009A4680225B4650469850BFF35F8FEFF307
:1006D00005839B46002B37D0019B5B4501D000F082
:1006E000D7FE01232A009A439068844208D176E01D
:1006F0004B005B189B00F3189868844236D01A00B0
:10070000062151560029F3DA844254D04B46002B7F
:1007100027D0C02251463F4B5200995019603A4BA6
:100720009B68DD51BFF35F8FBFF35F8F0022354BB6
:100730001A6088F3108803B0F0BCBB46B246A946E5
:10074000A046F0BD0D00EAE72A0063469A43906890
:100750008442D5D106201056130000280ADA0D0075
:1007600031E0802351462B4AD150D8E70620185655
:10077000002821DB42001118890074188B46A168FB
:100780009960E179D971062161569971002924DBBC
:10079000A488F11A640524155C44091909051E4C46
:1007A000490D2143998013181C4A9B001178F318B6
:1007B00099711070AAE713005946002914D1FF312E
:1007C00091711749918015490A789A71154A9B1BB6
:1007D0005B415A43120D0A7098E71149E2E706207F
:1007E000105613000028C5DA0F4A1049D21A083AE9
:1007F0005002400D014399800D4952080A43DA80A6
:1008000084E7C046240100D000ED00E0CD010010D7
:10081000BC01002000E100E000E0FFFF380A0220F8
:1008200001BDFFFFAAAA0000F601002000F0FFFFB3
:1008300000F8FFFF10B58308040003202040FF24C8
:10084000054AC0009446844081409B0063441A6876
:10085000A2430A431A6010BD00E400E070B5012411
:100860000443EFF30581EFF3108C72B6214A13684D
:10087000002BFCD0BFF35F8F1F4B05001F4AED1A02
:100880006D416A43120D1E4D8900AE6852B2765812
:10089000A6421CD00621595691421CD0122159560D
:1008A000914222D01E215956914220D02A215956D8
:1008B0000324914210D0134B19781A708171BFF341
:1008C0005F8F00220B4B1A608CF3108870BDAB68F1
:1008D0000D4C5C50EFE700246100091989005B189A
:1008E000FF21997109499980E5E70124F4E7022481
:1008F000F2E7C046240100D0BC010020AAAA0000F3
:1009000000ED00E0380A0220CD01001001BDFFFF1C
:10091000024B9C46614489000160704740000034EE
:10092000F8B5124C124DAC4212D201260027764285
:100930002368002B0DD0FFF72BFE01002000FFF7EE
:10094000E7FF66602772BFF35F8F0C34AC42EFD3D2
:10095000F8BDFFF71DFE01002000FFF7D9FF66601C
:10096000BFF35F8F0834AC42E2D3F1E75C020020B2
:100970006C020020F0B5DE4657464E464546E0B5CF
:1009800087B0EFF30583032201251A4095409100BB
:100990008846A946B34B03925C58B34B1D60B34BDA
:1009A00004934B46B24843630823E55E002D37DAD3
:1009B000A3881BB2002B00DBADE0A379002B00D095
:1009C000EEE00823E05E002820DB430062691B188C
:1009D000DB00D3189E68DD68731C00D111E1A448C8
:1009E00001004144826A0B69B71A9B1A9F4215D3D2
:1009F0000123026A039883401A420FD09C4800F0FA
:100A0000DBFA8D4202DCCCD18642CAD940BF07B0A6
:100A1000F0BCBB46B246A946A046F0BD0E61EDE76C
:100A200062696B0092465B19DB009A4453469E68EC
:100A3000DF6800F0C1FA8F42BADC00D103E1002F79
:100A400000DAE8E05246534652691B699346049A1D
:100A5000934200D1D9E052460821605E52880004DA
:100A6000594610439847009001910099019A0B0054
:100A70001000134300D1CEE013000A00B61A9F41C4
:100A8000002806DB7A4800F097FA009E019F36188E
:100A90004F4153469E60DF6000229A5E002A00DAD2
:100AA00086E7530099186069C900411802938B6862
:100AB000C9689B46B94200DD7AE702D1B34200D94A
:100AC00076E708239C46A444059565462281A44602
:100AD000029B2C0006E053009918C90041188D684C
:100AE000C968AB469B18DB00C318B94206DC00D1CD
:100AF000B3E01C000023E25E002AECDA2300644627
:100B00009C4653461A806346059D1D80A3881BB2F0
:100B1000002B00DA51E72269EFF3108172B61368F7
:100B2000002BFCD0BFF35F8F0123A7885B42A3801B
:100B30003FB22369BFF35F8F00221A6081F31088F0
:100B4000002F00DA39E72300083322009A4666694D
:100B50007B00DB19DB00F318996850468C460824AB
:100B6000115FDD68002910DB029306E0AB4244D040
:100B70000023E15E2000002906DB4C006418E4003D
:100B80003419E368AB42F1DD029B078000201F5E51
:100B90001980002FDCDA1400A379002B00D110E7B4
:100BA0000023A37126000823E15E08364B1C00D108
:100BB0002CE70800A246656902E03E004B1C1AD0F3
:100BC0004B005B18DB00EF180A008C46E95E7B885F
:100BD0001BB2002BF1DA01235B42DC17BB60FC6027
:100BE000824205D0534631801B893B8053461A818F
:100BF00060464B1CE4D15446E5E6A3686345B7D98B
:100C0000C2E76B1C00D0EAE6F8E65B4658461B6973
:100C1000984700281BD153461B8822692381EFF394
:100C2000108372B611680029FCD0BFF35F8F514664
:100C300062880A8022696580BFF35F8F002111609E
:100C400083F31088B4E6864200D8F8E6B0E65B4647
:100C50001A685B680092019307E7B34500D848E73C
:100C60004CE7C046880600203C700540750900101E
:100C700000400540074810B50268EFF3108172B6D6
:100C80001368002BFCD0BFF35F8F01F0AFFC002096
:100C9000002110BD3809002070B52E4C2569002DAB
:100CA00004D00A212C48FFF733FE70BD2B4E0321E0
:100CB000300000F077F9E660FFF76AFC284B03226A
:100CC0009C46D02322701B061B6801216370254BB4
:100CD0006044A3600F238000206102206380636969
:100CE0004942A18019800231198647311D8358522B
:100CF00018315A5275325C39995218320131995271
:100D0000183201319952183201319952083518328E
:100D10009D520231183299521832013199521832CB
:100D200001319952183201319952183201319952D8
:100D30001832013199520C4B0C49DC60013035629C
:100D4000FFF764FC01210320FFF74EFC084B1D60F8
:100D5000A7E7C046040200203809002000400540F3
:100D600040000034FFFF10008806002075090010C5
:100D70003860054070B501000469EFF3108C72B65D
:100D800020680028FCD0BFF35F8F02200D5E4C6905
:100D900068004019C00024180869002D36DB268839
:100DA0004E80BFF35F8F002606608CF31088E360EF
:100DB00063880498013320615B0405985B0CA26092
:100DC00060611A1C002B1FD093B228046280184364
:100DD0000A69EFF3108C72B61368002BFCD0BFF3D6
:100DE0005F8F8B8823808D800B69BFF35F8F00221C
:100DF0001A608CF310880B7801329A40CB6808494E
:100E00008C4663441A6070BD0122DDE7BFF35F8F3B
:100E1000002303608CF3108801204042F3E7C046B2
:100E20003C20000010B543890A1493421ADD530098
:100E30009B184269DB00D3180469EFF3108C72B67B
:100E40002268002AFCD0BFF35F8F5A88090494B24D
:100E5000090C8A4208D00369BFF35F8F00221A6031
:100E60008CF31088002010BD8022120214435C8095
:100E7000012302698371BFF35F8F002111608CF33E
:100E80001088044902788C469340C268012062446D
:100E90001360E8E73C200000F0B557464E46DE46BA
:100EA0004546E0B506000F0085B0EFF3058399468F
:100EB0008B46002B12D0384900204B6ABB4206D328
:100EC0008A6ADB1B591E8B41B2424041184305B070
:100ED000F0BCBB46B246A946A046F0BD2F4B9A4691
:100EE000DB68984653461B784046039300F064F84D
:100EF0004246039B040004339B009B580D001B1AC1
:100F000039003000001BA941894510DC0DD020BFFD
:100F1000214A0020536A5B45D9D3926ADB1B591ED4
:100F20008B41B24240411843D1E78342EFD900F0F0
:100F30004BF832003B00121A8B41002B1ADB0023C6
:100F40000193174B3200009350463B00FFF712FF0E
:100F5000011E0FDD104B5A6A5A451BD39B6AB342E0
:100F600016D35046FFF75EFF0B4A0020536A5B45DD
:100F7000ADD3D2E7084A0020536A5B45A7D30020CF
:100F8000926ADB1BB24240415A1E934118439EE7CE
:100F90005A45E6D120BFE4E70040054004020020A6
:100FA000750C001010B5024A0248FFF7CFFA10BDC9
:100FB000EC440010380600200300416A0A00986AD9
:100FC000596A8A42FAD17047034B596A0A00986AF3
:100FD000596A9142FAD170470040054070B504004B
:100FE0000D00174A536A1900966A536A8B42FAD168
:100FF0003000190024184D41AB4216D813D0104BC5
:101000002A005B6A9D4203D90D494B6A9342FCD387
:10101000934207D10A4A02E0516A994202D1916A89
:10102000A142F9D370BDA642E9D9054B5B6A1C0009
:101030005A1CEFD0012201246442E5175242E3E733
:1010400000400540F8B5040006200D0000F078F9D6
:10105000002844D0374B3849E3185A1E9341802268
:10106000120494465B429B0D344A9B056344136013
:10107000334A136018000A689043FBD12D4B314A64
:10108000E31859424B4180215B00490006209952E8
:1010900000F056F92900C00000F0D8FA0130C30969
:1010A0001ED1402701226262A362266BF30722D47D
:1010B000E36A254B0620E51800232B60266300F029
:1010C0003FF93900800000F0C1FA7023E26A5A400B
:1010D0000E3313402B601D4B23630323A364F8BD21
:1010E0001B4A93421ED900231A4A1B4F6262A36215
:1010F000266BF307DCD5194B144AE3181A60656AAE
:10110000A36A0620AD01ED1800F01AF9144900F0A9
:101110009DFAAD020100280000F098FA0021FFF7C7
:101120005DFFC5E74006800E9F011A003F180300CF
:10113000B9E7C0460080FCBF08C0004000E00040A6
:1011400000F000403C0900202C10000001030000CA
:10115000FEFF0000FFFF0000C0FF3F003030000036
:101160004E0E0000F8B5DE464E4657464546E0B501
:101170008B4605000A991800160000F067FA0A9BD2
:101180006C001F02324B64199C46A40064446368DF
:1011900081469F4200D967602B1FDBB29846012B26
:1011A00030D9C02380229B01E31812011A60294B19
:1011B000AD0059599A4600291BD17301E0262268D7
:1011C00053401E40802342465B01E3181E60012A03
:1011D00030D9802380229B01E31812011A60534604
:1011E0004A4667605A51F0BCBB46B246A946A04683
:1011F000F8BD586900F02AFA013043001B18033B80
:10120000FDD2DAE75B46012BCBD1C02303229B0141
:10121000E3181A60023AA3681A42FCD07301E02670
:101220002268AD0053401E4080230A4A5B0192466B
:10123000E3181E605A462168514003220A401A6092
:1012400001225B469A40A3681A42FCD0C1E7C0461F
:10125000008000403C060020F0B546464F46D6468A
:10126000C0B51F00344B44009C462418A4006444BD
:10127000636888461600FF2B02D880235B006360FA
:10128000031FDBB29A46012B30D9C02380229B0179
:10129000E31812011A60294B850059599946002913
:1012A0001BD17301E026226853401E408023524622
:1012B0005B01E3181E60012A30D9802380229B0144
:1012C000E31812011A6080235B0063604B465F5194
:1012D000E0BCBA46B146A846F0BD586900F0B6F980
:1012E000013043001B18033BFDD2DAE74346012BD4
:1012F000CBD1C02303229B01E3181A60023AA368F2
:101300001A42FCD07301E0262268850053401E403B
:1013100080230A4A5B019146E3181E604246216819
:10132000514003220A401A60012342469340A268BA
:101330001342FCD0C1E7C046008000403C060020BC
:10134000014B8000C05870473C060020F8B50400EF
:1013500021481E0017000D0000F078F90100380048
:1013600000F074F9069B36041B031E432368002B10
:1013700020DB1A4B1A49E3185A1E9341802292012E
:1013800094465B421B0B174A1B0363441360164AC7
:1013900013601F000A689743FBD1144B2560E218C5
:1013A0002123A06013602368002BFCDA0823E66089
:1013B0001360F8BD3F2322681340AB42D9D1A36824
:1013C0001B051B0D8342D4D1EE22E368D2021340E9
:1013D000B342CED1EDE7C046001BB7000040FDBFD1
:1013E00008C0004000E0004000F000400430000071
:1013F0008023024A9B000B43D36270470080054064
:10140000002310B50100988A1B8B984710BDC04679
:10141000162310B50100188802331B88984710BDA9
:10142000F8B54746CE4680B50F1E18D0142399460E
:10143000043304000025012698464B46188843468D
:1014400021681B88984701C4431E98410135064016
:10145000AF42F2D13000C0BCB946B046F8BD01265B
:10146000F8E7C046AA23064A1B0113608D235B00E0
:10147000D3600449044B19605368002BFCDA7047B1
:101480000040024000B0FA00006002407047C046D1
:1014900010B50148FFF73CF81045001070B5074D36
:1014A000074EB54209D20024013E761BB60808CD8E
:1014B000984723000134B342F9D170BD6044001055
:1014C0009C440010054B064A06491A60064A074B21
:1014D0001A6010000B689843FBD1704700E0004091
:1014E000BFCDFBFE08C00040FE7F3C0000F0004086
:1014F000044BDB6C002B03D18022034BD2021A6019
:101500007047C046000011504C201150044A054B52
:101510001A60054A1368DB018033FBD17047C0466F
:10152000FFFFFF0100F0004008C000404022034BD5
:101530009A675A671A67DA667047C04600F001403A
:1015400010B5FFF731F810BD70B5044D044CA96813
:10155000C022200000F070FBAC6070BD00ED00E028
:1015600000000020002310B5294C82B0A367FFF7CC
:1015700079FF0122274B1A60636C012BFCD10322F7
:10158000254B1A60224A936B012BFCD10133009347
:101590000121224A22480433FFF7D8FE0523012106
:1015A0000093204A2048FFF7D1FE002202210420A8
:1015B0001E4BFFF751FE0022012105201C4BFFF7B7
:1015C0004BFE0022002107201A4BFFF745FE0022A8
:1015D00000210820174BFFF73FFE8023DB0000931C
:1015E000002200210920134BFFF7BCFD0022104B05
:1015F00000210620FFF730FE0420FFF7A1FE0E4970
:1016000000F024F801000020FFF7F2FE02B010BD48
:10161000008000403CB0004030B00040002F6859CE
:1016200000800240008C864700C00240001BB700CB
:1016300040597307006CDC0240420F00014804214E
:10164000014B18472002002021140010114A936F0B
:101650009B0813D210665166002905D0FFE7FFE70B
:10166000FFE7516F106F704704B5002801D00020CC
:10167000C04302F0E5FE002104BDC046F0B5146E83
:10168000556E576F166FFFF7E5FF1466556657677F
:101690001667F0BD000000D094464A4A926F920847
:1016A000624601D228E0C046F0B5464E346E756EF3
:1016B000776F366F00F020F89446424A14665566FC
:1016C000576716676246F0BD94463E4A926F92088D
:1016D000624601D254E0C046F0B53A4E346E756EA3
:1016E000776F366F00F04CF89446364A14665566AC
:1016F000576716676246F0BD002B24DB11D0002926
:101700003EDA00B5C943404200D1013100F038F85B
:10171000C943404200D10131DB43524200D1013381
:1017200000BD002AEBD1002801D1002905D00020FE
:10173000C90FC90701D1C043410800B502F078FEC6
:101740000022002300BD00B500290ADBDB43524222
:1017500000D1013300F014F8C943404200D10131F7
:1017600000BDC943404200D10131DB43524200D1A8
:10177000013300F005F8DB43524200D1013300BDD4
:10178000002923D1002B18D1002A0CD0BC460D4FC4
:1017900038667A6600210023FFE7FFE7FFE77A6FEC
:1017A000386F67467047002801D00748010000B530
:1017B00002F03EFE0022002300BD02000B000020CC
:1017C00000217047000000D0FFFFFFFF002B00D07A
:1017D000BFE0130C28D1002AE7D080B4114F39663E
:1017E0007A66FFE7FFE730B4040C7B6F396F1B04A8
:1017F00023433B667A66FFE7FFE7FFE7C04684B214
:101800007B6F3D6F1B0423433B667A66FFE7FFE770
:10181000C04600232C042D0C7A6F386F00196941E3
:10182000B0BC7047000000D0F0B594460025140EFF
:1018300001D112020835140F01D112010435940FA1
:1018400001D192000235D40F01D152000135D40BE1
:101850000134254F7C66254C3C660E0C93B2FFE7A5
:10186000FFE7FFE73C6F6643360C7703BE467343E2
:10187000DF0B5B04C01AB941130C7343DB18C91AA0
:10188000CE086643360CB64493B273431F0F1B0158
:10189000C01AB941130C73431F0B1B05C01AB94181
:1018A000860D8F023E436643360C092D24DB520A17
:1018B0007243801A7703460A6643360C16235B1B75
:1018C000DE40DF40BF1964466643821B7046043524
:1018D00006330100D940A840C01900D30131A2420B
:1018E00006D20023F0BD0000000000D0FFFFFFFF84
:1018F000121B0130F3D3F1E709277F1BFE4064463A
:10190000A2B27243801A00D20139220C7243130C26
:101910001204821A99410B007046043513370100F6
:10192000F940A840801900D30131002B02D1A24216
:101930000AD2F0BD013000D30131121BFAD2013BB3
:10194000F8D1A24200D2F0BD013000D30131121B08
:10195000F7E7F0B51C0C00D080E00CB400251C0AA1
:1019600004D11B02160E3343120208351C0B04D19E
:101970001B01160F3343120104359C0B04D19B004D
:10198000960F334392000235DC0B02D192185B4173
:1019900001351C00971864410134464F7C66464C63
:1019A0003C660E0CFFE7FFE7FFE7C0463C6F66436F
:1019B000360C7703BE4697B27743C01B00D201397D
:1019C000C01B00D201399FB27743C91BC91B170C3A
:1019D00077437E04FF0B801BB941CE086643360C6B
:1019E0000C2D33DBB644120B1F053A431B0B97B289
:1019F0007743C01B00D201399FB27743C91B170C34
:101A000077433E043F0C801BB941860D8F023E4355
:101A1000664329277F1BFE400C3D7746AF40BF1928
:101A200030BCA2B2ABB272437343801A9941220C0C
:101A30007243130C1204801A994102000B00013703
:101A4000001BA941F9D2781E0021F0BD0C277F1B95
:101A5000FE4077467F0BAF40FF19E0E700245D1C96
:101A600007D0144F7D663966FFE7FFE7FFE7FFE722
:101A70003C6F95B29EB265436643401BB141150C65
:101A80001E0C6543664336042F0C3E432D04401B59
:101A9000B141994204D202000B0020000021F0BDA8
:101AA00001D19042F7D3801A994101349942F2D37F
:101AB000F6E70000000000D0FFFFFFFF132370B522
:101AC0001D78012D19D014DD1F48FFF7A1FC060079
:101AD0001E48FFF79DFC1E4C80223100200000F0C4
:101AE000ABF8022D2DD01B48FFF78AFC1A4B18606B
:101AF00070BD1A4B164CA364F5E7184B144C2360C9
:101B00006360A360E36023616361A361E3612362B7
:101B10006362A362E36223636363A363E363236497
:101B20006364A364E36423656365A365E365236677
:101B30006366A366E36623676367A367E367A364DB
:101B4000D1E7064BA364CEE75344000053460000A0
:101B5000F00300204C33000034090020611B00100A
:101B600007B5604601880A0A0230DF2AFAD1C9B2F5
:101B7000820804D3028840880004104300E0006813
:101B8000014A5050039007BDF0030020132310B505
:101B900012481C78FFF73CFC0100012C0AD003DD41
:101BA00080220F4800F048F80E48FFF729FC0E4B42
:101BB000186010BD0A4C5422200000F03DF80B4B79
:101BC0006365A365E36523666366A366E3662367CF
:101BD0006367A367E3672362E361E5E753460000B9
:101BE000F00400204C33000034090020F11B0010E9
:101BF00007B5604601880A0A0230DF2AFAD1C9B265
:101C0000820804D3028840880004104300E0006882
:101C1000014A5050039007BDF00400200148042100
:101C2000014B18473002002021140010014B1B68A3
:101C30001847000030020020014B5B681847000085
:101C40003002002010B5002800D110BD00F032F99C
:101C5000FBE7C04610B5094A0300146884B0002CA5
:101C600008D0012200910648524203A9A047012052
:101C700004B010BD00F068F90020F9E76C06002000
:101C8000451C001000BEFDE710B5FFF7FBFFC04686
:101C900070B5FFF703FC074D074EB54209D200248B
:101CA000013E761BB60808CD984723000134B342A5
:101CB000F9D170BD9C440010A4440010030010B57D
:101CC000080011001B68984710BDC046F0B5C64615
:101CD00000B5437D07000C001600002B46D0002AFB
:101CE00017DD0B780A2B24D000239846012E13D041
:101CF00001252900635C01350A2B26D0B542F8D1B5
:101D0000464509DCA419013C23780D3B5A42534156
:101D10003B7580BCB846F0BD4346E018A419F11AE3
:101D2000013C3B68984723780D3B5A4253413B7531
:101D3000EFE7037D002BD7D102210F483B6898477E
:101D4000012EDFD001239846D2E7631E5B5C0D2B8A
:101D5000D4D0884504DA4346C91AE0183B6898474E
:101D6000022105483B68A8469847C7E70368110069
:101D700020009847CDE7C046F0450010F0B5454635
:101D8000DE464E465746E0B583B091461C0080467D
:101D90000D00FFF719F90023304A12184B41002BB0
:101DA00002DA01222E4B52422E4908008A4602F0E6
:101DB0004FFB07006B1C03D1404602F001FB0500FE
:101DC000002C27D0284E294B1C68002C18D04B46DD
:101DD000002B21D1264B994602E02469002C0FD01C
:101DE0002368002BF9D04B461B68002B01D09C4286
:101DF000F3D120002A004146B0472469002CEFD1DE
:101E0000002F26D1280003B0F0BCBB46B246A9463D
:101E1000A046F0BD174ED6E7154B99460A239B46C0
:101E200002E02469002CEBD02368002BF9D04B464C
:101E30001B68002B01D0A342F3D12A0041462000A9
:101E4000B0476B465A462000DA71D91D0122B047CF
:101E5000E7E7504602F0E4FAD4E7C04640420F00FC
:101E6000FFFFFF7F64020020CD1C001064060020ED
:101E700068060020BD1C00100A4A1368002B05D11B
:101E80000CE01A001B691032002B07D08342F8D1F6
:101E9000002902D118691060196170470029FCD02F
:101EA0001060FAE76406002010B500F039F901204F
:101EB00010BDC046F0B5CE46474680B583B06B46F0
:101EC0000600DD1D2870FFF77FF80023194A12185D
:101ED0004B41002B02DA0122174B524217490800EE
:101EE000884602F0B5FA164B81461C68002C14D0C7
:101EF000144F02E02469002C0FD02368002BF9D086
:101F00003B68002B01D09C42F4D120000122290023
:101F1000FFF7DCFE2469002CEFD14B46002B05D1E6
:101F2000300003B0C0BCB946B046F0BD404602F038
:101F300077FAF5E740420F00FFFFFF7F64020020C1
:101F4000640600206806002070B5040002F038FA2C
:101F500001230100050001222000FFF70FFF084BBD
:101F60001C68002C06D06368002B05D098472469B4
:101F7000002CF8D1280070BD2469002CF3D1F9E7BA
:101F800064060020F0B5002915DD0E4B0D271A68F8
:101F90000D4B0E4CD3185D426B41451820215B0060
:101FA0001E5F0478A64207D093691942FCD1013024
:101FB0001460A842F5D1F0BD93691942FCD11760B5
:101FC000F2E7C046400900200080FCBF3C09002029
:101FD000204B70B504000D1E1E682ADD0020102164
:101FE0001D4B013C1A689369194214D10130936961
:101FF0001942FCD1136823548542F4D1002E08D035
:1020000050239363516B183B0B4014498C46624438
:102010001360280070BD002E08D050239363516BCD
:10202000183B0B400D498C46624413600028F1D1E7
:102030000CE0002E0AD05022074B1B689A63596BA4
:10204000183A0A4005498C4663441A60032040420E
:10205000E0E7C046300600204009002034100000B0
:10206000064B10B51B68002B06D00021044A1268ED
:102070009163044A1068984710BDC046300600209E
:1020800040090020340600200822034B19688B69A0
:102090001A42FCD17047C04640090020F8B51A4FDB
:1020A0001A4B3A680500D31858424341184E14336E
:1020B0001C003368002D02D0002B0FD0F8BD002B80
:1020C000FCD0002120009563FEF78EFA2000114914
:1020D000FEF7C6FA104B35601D60EFE70E4B20008F
:1020E00019600C493560FEF791FA01212000FEF7D6
:1020F0007BFA50223B689A63596B183A0A400749A9
:102100008C4663441A60D9E7400900200080FCBF78
:10211000300600206120001034060020341000003A
:102120000D4B10B51B780D4B0D4C1B780D4B022140
:102130001B780D4B00202360FEF79CF90221012043
:10214000FEF798F9E12120684902FEF77BFF0121A3
:102150000648FFF791FE10BD604600105C46001077
:102160004009002058460010004003404002002073
:10217000F0B5C646431E00B50A3314D80723040041
:102180001A000834224023426CD01300093BA342BA
:1021900009D31030841A01F0EFFA374A2700156886
:1021A000002D28D10EE001F0E7FA334A1368002B26
:1021B00006D0002501F0E8FA280080BCB846F0BD42
:1021C0000027002407202D4D2B002900284245D14F
:1021D00000202B4E706031602A4EB44607266544BD
:1021E000B5431560284AEB1A1360284A68602860D6
:1021F00013604B600D60002FDBDD244F3E68A6426C
:10220000D7D31F48036804E01A68002A04D01800D6
:1022100013005968A142F7D3AB42CAD01D001A6817
:102220000835904602600A1B102A05D919194A6020
:1022300042460A6001602100134A761A10683E6027
:10224000864200D21660802212060A435A6000229B
:102250001A600F4A136801331360ABE7EB1D834329
:102260001900B5E701F088FA034A27001568002D28
:10227000A8D0002CC1DA9CE7A80600204409002061
:10228000F8090220F8FF0100C8090220B80902205D
:10229000D409022070B5002804D00838436804002F
:1022A000002B00DB70BD0268002AFBD15B005B08DD
:1022B0004360050001F060FA184A616813685B1812
:1022C0001360174B1A001B689C42FBD85068161805
:1022D000B4420DD0601883421AD02360AA4200D0C5
:1022E0001560104A13680133136001F04DFAD9E705
:1022F0000918501851608342F3D10B48150000684B
:102300009842EED058681B68411869602B60E5E779
:10231000054800688342F5D1DFE7C046B8090220CE
:10232000F8090220D8090220A806002000000000B9
:102330000B4A13681868203080F30988022080F364
:102340001488BFF36F8F3FBCAE4608BC04BC62B6B6
:102350001847C046C046C046C046C046C046C046F4
:102360009C060020000000000000000000000000AB
:10237000EFF30980164B1A6820381060F0C044460D
:102380004D4656465F46F0C00D221207146E556E3C
:10239000566F176F3038F0C008B572B601F018FBF1
:1023A00062B60CBC116808681030F0C8A046A94697
:1023B000B246BB4680F309880D2212073038F0C8B8
:1023C0001466556656671767F0C81847C046C0467A
:1023D0009C06002010B5FEF7B3F8C046D02300B528
:1023E0001B061A6D83B0D20704D501219A6D1A6DB0
:1023F0001142FBD1D023FF221B061A650023114A8C
:1024000001931168EFF3108C72B60B68002BFCD0AF
:10241000BFF35F8F00230C48126801680360BFF3AD
:102420005F8F13608CF31088084B01AA186800F0C6
:10243000CDFA019B002B03D08022054B52051A6078
:1024400003B000BD9806002048090220B40902200C
:1024500004ED00E07047C04610B58024031F6404FB
:102460001C60043B19600349043B1960143B40386D
:102470001A6010BDD52300108022044B52051A604B
:10248000BFF34F8FBFF36F8F7047C04604ED00E07E
:1024900072B6044A136801331360BFF34F8FBFF362
:1024A0006F8F704744090220034A1368013B136091
:1024B000002B00D162B6704744090220EFF3108070
:1024C00072B6704780F310887047C04610B5FFF7AA
:1024D000F5FF040001F06AFA002803D08022034BC4
:1024E00052051A602000FFF7EDFF10BD04ED00E07B
:1024F000002310B5084A094C052023601360FEF73D
:102500001FFFFA218900FFF7A1F8054B0138186079
:102510000723236010BDC04618E000E010E000E093
:1025200014E000E0FF221F4B1204196810B50A43A3
:102530001A60FF22196812060A431A601A490E200F
:1025400001F01AFF19490F2001F016FF18490B205E
:1025500001F012FFFFF7CCFF0022164B1A60D023C8
:102560001B06154A1C681470FF221A651A6DD207E3
:1025700004D501219A6D1A6D1142FBD10F34FF2150
:102580002000FEF757F920000C49FEF73FF8012123
:102590002000FEF729F8FFF7CBFE01F019FAFDF74E
:1025A000CFFFC04620ED00E071230010CD240010C5
:1025B000552400104409022058020020DD23001099
:1025C000D02310B51B061868074B1B78834200D038
:1025D00010BDEFF30583002B02D05B00C018F7E7B6
:1025E00001F05CFCF4E7C046580200200A002B49C9
:1025F00030B58C46036883B063449C105C2B00D9D3
:10260000183C0121264BA1401C78D0231B061B68D7
:102610009C421FD040BF234D03682C68A34234D096
:102620002368002BFCD0BFF35F8F1F4C23680B4344
:1026300023602B68BFF35F8F002119600368D020EF
:10264000002100064165BFF35F8F196082F3108897
:1026500003B030BD40BF0368BFF35F8F00241C6030
:1026600082F31088EFF30583104ADBB21068002B69
:1026700010D001AA019400F0A9F9019B002BE7D02A
:1026800080220B4B52051A60E2E7074C2068084392
:102690002060D4E700F04CF9DAE7C04600FFFF2FD6
:1026A000580200209806002048090220B4090220A0
:1026B00004ED00E0F0B5CE46474680B51D00344B32
:1026C00014001A78D0231B061B688046894683B005
:1026D0009A420FD00368BFF35F8F00221A6081F324
:1026E000108820002900FEF7D7FB03B0C0BCB94614
:1026F000B046F0BDFEF768FC26002F00361A8F4169
:102700000121244849428019794143461E68002925
:102710001EDC19D0BFF35F8F0023336089F310886C
:102720001D4B5A6A954205D89B6A0120A342DCD210
:102730009542DAD18022194B52051A60BFF34F8FB0
:10274000BFF36F8F0020D0E7FA239B009842E1D3BC
:10275000FA2200239200FEF79FFF031EDAD0BFF398
:102760005F8F0022326089F310880D4A0D4910688E
:1027700042468C461268624496105C2A00D9183E84
:1027800001210093B1400023012200F075F8C7E752
:102790005802002018FCFFFF0040054004ED00E057
:1027A000B409022000FFFF2F10B5FDF7F1FE054A26
:1027B000054B944660448000186000F051F8034BCC
:1027C000186010BD4000003498060020B4090220B3
:1027D000F8B5DE4657464E464546E0B505000F00C3
:1027E000060000F0C9FF29682C6939430C362960BE
:1027F000A6422CD0002398468023DB049B468023EE
:102800005B049A4680239B0499460FE06746002F9D
:102810000AD057463A4202D042461A4390464B46A7
:10282000194301F0A5FA2968A6420ED020000F0036
:102830000268646813021B0A1F40BC465F463A42A6
:10284000E4D06345E5D0A642F0D1434699432960E0
:1028500000F09AFFF0BCBB46B246A946A046F8BDC0
:1028600010B51C20FFF784FC041E03D0002308C011
:1028700000F0B8F8200010BDF0B5C6460D00060007
:1028800000B51F00904600F077FF2B00346823400E
:10289000002F0DD1002B28D04346002B28D0230039
:1028A000AB43336000F070FF200080BCB846F0BD41
:1028B0009D42F1D0069B002B1AD0434680215A1E20
:1028C0009341C9041B061943069A2943301D01F0A0
:1028D0000DF900F059FF002824D001F017FB040087
:1028E00083010DD52402240ADEE7069B002B02D1CA
:1028F00000F04AFFD8E741464B1E99410906E3E73D
:10290000FFF7C6FD346823002B40002F0DD1002BAC
:1029100005D04346002B02D02300AB433360FFF7C2
:10292000C3FDDFE7FFF7A8FDD7E7AB42F7D1F0E73C
:10293000F0B5DE4657464E4645460400E0B583B046
:102940000D000600019000F017FF220013682469B3
:102950000C361D4337001560A6422BD00023994644
:102960008023DB04984680235B049B4680239B04E2
:102970009A460FE000290BD059460A4202D04A4637
:102980001A4391465146294301F0F2F9019B1D6813
:10299000A7420DD020002900464602686468130251
:1029A0001B0A19403242E5D08B42E5D0A742F1D153
:1029B0004B469D43019B1D6000F0E6FE280003B0DE
:1029C000F0BCBB46B246A946A046F0BD10B5044CCB
:1029D00013000A000100200001F0B8FC10BDC04641
:1029E000D12700100300083301224360C360036154
:1029F00000235242826003607047C0460023036197
:102A00007047C04643689A684B608A60516099601D
:102A100003680861013303607047C046030030B5A6
:102A20000D6808336A1C0DD01C005B681A68AA4246
:102A3000FAD94B60996003688C600133616008616A
:102A4000036030BD04696368F3E7C0460369416809
:102A500082688A6051605968814205D00022026113
:102A600018680138186070475A60F7E7F0B5DE461D
:102A70004E4657464546E0B585B00600FFF708FDCF
:102A80004523F45C64B2002C21DD213B99462133BF
:102A90009A46B14409E0AA6BEB6B03969A4245D380
:102AA000013CE3B264B2002B11D0B56C002DF2D121
:102AB000736A002B0BD0484601F0F4F80028EFD0E1
:102AC00001F0E6F9013CE3B264B2002BEDD14523FD
:102AD000FF22F254FFF7E8FCFFF7DAFC442335004D
:102AE000F45C103564B2002C05DC13E0013CE2B26A
:102AF00064B2002A0ED03369002B0BD0280001F0FD
:102B0000D1F80028F2D0013C01F0C2F9E2B264B27F
:102B1000002AF0D14423FF22F254FFF7C5FC05B090
:102B2000F0BCBB46B246A946A046F0BD5346EF5C9A
:102B3000AB6B2A6C013398467FB2002A13D12B6805
:102B40009B46002B2AD04346AB637B1C1CD16B6A8F
:102B5000002BA5D02800243001F0A4F800289FD035
:102B600001F096F9AEE7686803A9FFF765F86B68AE
:102B70002A6C9B18AA686B609342E4D32B686B6045
:102B80004346AB637B1CE2D000F00AFFB84200D89A
:102B900086E7534601377FB2EF5481E7A86801F01A
:102BA00083F95B46AB6043460190AB637B1C09D164
:102BB0006B6A002B0FD1019B002B00D170E701F055
:102BC00067F97FE700F0ECFEB842F4D953460137CD
:102BD0007FB2EF54EFE72800243001F063F80028BB
:102BE00000D06DE7E7E7C046F0B5C64600B5846C97
:102BF00082B0A26BE36B002501909A4204D32800B7
:102C000002B080BCB846F0BD4523226CE65CA76BE1
:102C100076B2002A1CD0606801A9FFF70DF863683E
:102C2000226C9B18A2686360934201D3236863609F
:102C300000250137A763731C15D1636A002BDED012
:102C40002000243001F02EF80028D8D00125D6E746
:102C500023689846002BEBD1A06801F025F9434684
:102C60000500A360E5E700F09BFE8642C7D245233E
:102C7000013676B2E654C2E7F8B505000E0017003B
:102C8000002841D0030C0A0C002B42D1002A30D17D
:102C9000300068430300553336D85430FFF768FAE4
:102CA000041E31D00300002E31D12360E563266479
:102CB000FFF7EEFB216CE36B22684B43D0185B1AE5
:102CC0006260D218E260FF2300254422A060200049
:102CD000A563A3540132A3541030FFF783FE2000F4
:102CE0002430FFF77FFEFFF7DFFB5023E754A56496
:102CF0000BE0131CA9B2B2B24A4380B29BB2434369
:102D0000120C9B181B0CC3D000242000F8BD5433B8
:102D1000CBE7002AF8D1081CECE7C046F8B55746C7
:102D2000DE464E4645460400E0B592461D000F00C3
:102D3000FFF7C4FBA26BE36B06009A423BD3002370
:102D40009846022D09D03000FFF7BCFB4046F0BC8E
:102D5000BB46B246A946A046F8BD4533E35C226CAB
:102D60005BB29846A36B9B46A36B9946002A2DD075
:102D70003900E068FEF760FF226CE36851429B1A5D
:102D80002268E360934202D2A3685B18E3604B467B
:102D9000022D51D00133A363434601333DD000F0EF
:102DA000FFFD804504D24346452201335BB2A35464
:102DB00001239846C7E74523E35C226C5BB2984643
:102DC000A36B9B46A36B9946002A11D12768002F5D
:102DD00046D04B460133A36343460133DFD1A36C96
:102DE000002B33D0022D1BD15B46002B18D0DFE720
:102DF000002DBDD139006068FEF71EFF49466368AB
:102E0000226C01319B18A2686360934201D323684E
:102E100063604346A1630133C1D1A36C002B15D07D
:102E20002000FFF7E1FE0028C2D05346002BBFD0A0
:102E3000012352461360BBE7002B00D10123A3639B
:102E400043460133ABD1A36C002BCDD1636A002B79
:102E5000AED02000243000F025FF0028E5D1A7E700
:102E6000A06801F021F8A760B3E7C046F0B5474677
:102E7000CE46040080B585B088460192FFF708FB76
:102E8000A76B002F5ED1019B002B3BD002A800F066
:102E9000B9FF0023442699464525FFF705FB00F0BE
:102EA0006BFCFFF7F5FAA35D5BB2013301D14B4632
:102EB000A355635D5BB2013301D14B466355FFF708
:102EC000F3FA01A902A800F0A9FF002822D1FFF718
:102ED000DFFAA36B002B2AD1FFF7E6FA2000019955
:102EE000243000F0B3FD2000FFF7C0FD00F04CFCE3
:102EF000002824D0FFF7CCFAA76B002F22D1019B2A
:102F0000002BCAD1FFF7D0FA002005B0C0BCB946EB
:102F1000B046F0BD2000FFF7A9FD00F035FCFFF73B
:102F2000B7FAA36B002BEDD0FFF7BEFAE2E7FFF78D
:102F3000BBFA2000FFF79AFD00F026FCDAE7FFF766
:102F40009BFAD7E7226C002A08D0E168A3688918A9
:102F5000E16099420BD24046FEF76EFE7B1EA363F2
:102F60002369002B06D1FFF79FFA0120CDE72168E6
:102F7000E160F0E72000103000F094FE0028F2D06D
:102F8000FFF77AFAEFE7C04610B5002933D0424B7D
:102F90005A68904200D173E01A68002A2CD0DA688F
:102FA000904200D176E09A68002A3ED05A69904259
:102FB00000D16DE01A69002A3DD0DA69904261D0F3
:102FC0009A69002A3DD05A6A904242D01A6A002A71
:102FD00043D0DA6A904257D09A6A002A43D05A6B9B
:102FE000904253D01A6B002A43D0DA6B904245D0FE
:102FF0009A6B002A2AD010BDDA6890424AD05A69EA
:10300000904245D01A00DC69A0423BD05C6AA042E5
:103010001FD0DC6AA04237D05C6BA04236D0DC6B9C
:10302000A0422BD011605060E5E75A6990422FD042
:103030001A000832E7E7DA69904223D01A0010320A
:10304000E4E75A6A904204D0144AE2E738331A009F
:10305000E8E70422D2009A18E4E7DA6A904213D033
:103060001A002032D8E75A6B90420FD01A0028324B
:10307000D5E71A00DC6B3032A042D3D10722E9E752
:103080000022E7E70322E5E70522E3E70622E1E77E
:103090000222DFE70122DDE7F0050020080600201C
:1030A00070B5040016000D00FFF7F2F94422A35C8E
:1030B0005BB2013301D10023A3544522A35C5BB270
:1030C000013301D10023A354FFF7EEF9A36B002BCA
:1030D00003D02000FFF7CAFC70BD20003200290099
:1030E000243000F065FDF4E7F0B5C64600B50400F5
:1030F000FFF7CEF9384A394F1368013313603B6844
:10310000002B35D0364BE26A98461B68002B29D03D
:10311000344E35490B6801330B606364334B1968D7
:10312000914200D21A6093009B189B00F1184A68E4
:103130009068A26084466546E060201D68609060EB
:10314000F25861610132F250FFF7AEF943461B6855
:10315000002B04D03B68DA6AE36A9A4211D380BC40
:10316000B846F0BD3B68DB6A9342D1D83C60CFE7FC
:103170003C601368012B07D0194BE26A9846194E40
:10318000C7E7FFF779F9EAE7A023164E9B009846B8
:103190003500B04428001435FFF724FC4545F9D12B
:1031A000134B98461800FFF71DFC124D2800FFF73F
:1031B00019FC1148FFF716FC1048FFF713FC1048E4
:1031C000FFF710FC42460F4B1A600F4BE26A1D607E
:1031D000034B98469DE7C0464C0902209C06002000
:1031E000F4090220B4060020580902205C090220DC
:1031F0008C090220A0090220E0090220140A022002
:10320000000A0220A4060020AC060020F8B5CE4635
:103210004746960080B5804630000D009946FEF77F
:10322000A7FF071E00D187E07020FEF7A1FF041E54
:1032300000D17EE070220021FEF7F8FC3200A521CB
:1032400038002763FEF7F2FC236B043E9E19072328
:103250009E43002D4BD034222B78A354002B43D017
:103260006B780132A354002B3ED0AB780132A354CB
:10327000002B39D0EB780132A354002B34D02B79BA
:103280000132A354002B2FD06B790132A354002BB1
:103290002AD0AB790132A354002B25D0EB7901322F
:1032A000A354002B20D02B7A0132A354002B1BD027
:1032B0006B7A0132A354002B16D0AB7A0132A3549F
:1032C000002B11D0EB7A0132A354002B0CD02B7BB6
:1032D0000132A354002B07D06B7B0132A354002B87
:1032E00002D04223AA7BE25443230022E254089DE9
:1032F0001F2D1CD8201DE562E564FFF77FFB200031
:103300001830FFF77BFB20235B1BA3614A46414635
:10331000300024616462FFF79FF8099B2060002B56
:1033200000D01C602000C0BCB946B046F8BD1F25C7
:10333000E0E73800FEF7AEFF0024F3E7F0B5C6463D
:10334000124B00B59846124D124F134E14E0FFF782
:103350009FF8FB68DC68201DFFF778FB3368013BB2
:1033600033602B68013B2B60FFF79EF8206BFEF764
:1033700091FF2000FEF78EFF2B68002BE7D143461C
:103380001B68012BF8D9FFF777F8F5E7B4060020A2
:1033900050090220140A02204C090220F0B5DE4632
:1033A00057464E464546594BE0B51A6883B0013240
:1033B00094461A60002A5FD055490B689C4570D32B
:1033C000544B99461B681B68002B00D198E00023E2
:1033D0009846514B514E9B46514B01919A4639E0CC
:1033E000002159611168013911609A6A002A0ED0D2
:1033F000D969186A556888604160190018318D4292
:1034000000D173E0002199621168013911605246C0
:10341000D96A1268914201D9524611608A00521845
:103420009200B518686887689860DF607C60846087
:103430005D61B3580133B3505B461B684246DB6A9B
:103440008B429B415B421A434B461B6890461B686C
:10345000002B50D04B461B68DB68DB685A689445EC
:1034600046D35A699868D9681C1D816048605068C5
:10347000A042B5D15160B3E7264B2A4A19681068BB
:103480001860116028490A6801320A601A681268D7
:10349000002A25D101231E495B420B600B689C4525
:1034A0008ED2002398461C4B1C4E9B465B46012047
:1034B0001B681E4AD96A12688B005B189B00F35880
:1034C0009842804113005A1E93414042184343469C
:1034D000184303B0F0BCBB46B246A946A046F0BDB7
:1034E0001B680B49DB681B680B6066E7506089E767
:1034F00001990A60DAE7019901235B420B60D5E785
:103500009846054B054E9B46F6E7C046280A022022
:10351000CC090220A40600209C060020B40600204E
:103520005C090220AC060020D0090220340A0220E7
:1035300010B582B0059C0194049C0094FFF766FED0
:10354000002804D0FFF7D0FD012002B010BD0120FB
:103550004042FAE7F8B50400FEF79AFF394E002C16
:1035600040D0251D2800FFF771FAA36A002B03D075
:1035700020001830FFF76AFA334F29003800FFF7B0
:1035800041FA6C22A35C012B01D10023A354FEF766
:103590008BFF2E4D2B68002B03D13368A34211D033
:1035A000F8BDFEF775FF2A4B1A681268002A1BD077
:1035B0001B68DB681A68274B1A60FEF775FF3368D3
:1035C000A342EDD12B68002B14D1234A11683A682D
:1035D00091420DD0214B1B68002B0ED00122204BB5
:1035E0001A60DDE73468BCE71A4B013A1A60E4E779
:1035F0003360D5E7FEF740FFD2E7194A194C136054
:103600002268194891008B189B00C558002D07D1DE
:10361000143BC3181968143B013A0029FAD09100F1
:103620008918890045186B6808315B6840186B6021
:10363000834204D0DB68336022603368B0E7EB6814
:103640006B60F7E79C060020000A0220F4090220C4
:10365000A4060020CC0902204C09022054090220B3
:10366000340A02205C090220B4060020F0B5C646E8
:103670001F4D04002B6800B5834209D0002807D0F5
:10368000FEF706FF1B4B62699A4204D0FEF70CFF5F
:1036900080BCB846F0BDA36A174A9342F6D0002B0F
:1036A000F4D16C33E35C012BF0D0261D3000FFF722
:1036B000CDF9124BE26A19688A4200D91A60930068
:1036C0000F499B189B00C818804640688768A06017
:1036D000E7607E60866040466061C8580130C8502F
:1036E0002B68DB6A9A42D1D9FEF7C6FECEE7C04608
:1036F0009C060020000A0220E00902205C0902204A
:10370000B406002010B586B01022002102A8FEF7F2
:103710008DFA00248022114B11480293114B009422
:1037200001935200002302A9FFF770FD002805D085
:10373000FFF7DAFC00F0C4FD012803D00A4B1B6838
:1037400006B010BD72B60122084B52421A60084BF7
:103750001860084B1C60FEF7E5FEEFE749444C4556
:103760003D330010BC09022010460010CC09022095
:10377000F4090220280A0220024A13680133136068
:103780007047C04654090220F0B5DE4657464E4603
:103790004546E0B583B0FEF77BFE534C2368013B02
:1037A00023602368002B00D081E0504B1B68002B66
:1037B0007DD04F4B9C461B68002B00D190E04D4BB9
:1037C0004D4D98464D4B019499464D4B9A460023DA
:1037D0009B466346DB68DB68D869196A9A6A816030
:1037E0004860180056681830864200D172E0594689
:1037F00099621168013911605A699868D9685668E8
:1038000081604860181D864262D0116801391160DC
:103810004146DA6A09688A4201D941460A60910044
:1038200089188C002E1971688F689960DF60786044
:1038300088605E612B5901332B514B461B68DB6A54
:103840009A423FD9534601221A6063461B68002BF7
:10385000BFD12C4B019C1A681268002A3CD01B680F
:10386000DB681A68284B1A60284E3568002D14D082
:10387000012708E0FFF792FD002801D053461F60A2
:10388000013D002D08D02368002BF3D03368013DA3
:1038900001333360002DF6D1356053461B68002B91
:1038A00005D0164B01241B68FEF7E6FD00E000245E
:1038B000FEF7FAFD200003B0F0BCBB46B246A946B5
:1038C000A046F0BD63461B68002B00D081E7C0E72F
:1038D00051609AE751608AE70B4B013A1A60C3E7DF
:1038E000074B9A46C0E7C046540902204C09022003
:1038F000E00902205C090220B40600209C0600209A
:10390000340A0220A4060020CC090220DC0902208F
:10391000F0B5C646040000B5002821D0174A136848
:1039200001331360164B00211E68164B164D1F689D
:10393000164BA4191B682A6898466D232868D15431
:103940000430FFF783F82B6829685C600431A642D5
:103950000BD94046FFF762F8FFF716FF002801D1A8
:10396000FEF78AFD80BCB846F0BD3800FFF756F878
:10397000074B1A689442EFD21C60EDE7540902200D
:10398000280A0220A40600209C060020AC06002085
:10399000CC090220014B18687047C046280A022053
:1039A000014B18687047C0464C090220064B10B501
:1039B0001B68002B02D1FFF7F1FC10BD034A002069
:1039C000136801331360F8E754090220DC09022070
:1039D000194B30B51B68002B03D00122174B1A601E
:1039E00030BD164A164C13602268164891008B1899
:1039F0009B00C558002D07D1143BC3181968143B10
:103A0000013A0029FAD091008918890045186B689D
:103A100008315B6840186B60834205D0D9680A4B57
:103A2000196022601B68DBE7EB68D9686B60064BA6
:103A3000196022601B68D3E754090220340A02206F
:103A40005C090220B40600209C060020F0B5C646A2
:103A5000204D0C00296800B51831FEF7DFFF1E4B22
:103A600000211E681D4B1F681D4B1B682A68984665
:103A70006D232868D1540430FEF7E8FF631C15D08D
:103A80002B682968A4195C600431A64205D9404618
:103A9000FEF7C4FF80BCB846F0BD3800FEF7BEFF9D
:103AA000104B1A689442F5D21C60F3E70E4B29685C
:103AB0005A688A6090682968C86029680431416042
:103AC0002968043191602A6853611A6801321A60CA
:103AD000E0E7C0469C060020280A0220A406002039
:103AE000AC060020CC090220000A02208023F0B599
:103AF000C646294C15001B0622680B4300B593618E
:103B0000226843689968D36122681162226818327A
:103B10004A602268002118329A602368986203681C
:103B2000013303601D4B1E681D4B1F681D4B1B6836
:103B3000226898466D232068D1540430FEF786FF32
:103B40006B1C15D023682168AD195D600431AE424D
:103B500005D94046FEF762FF80BCB846F0BD38008C
:103B6000FEF75CFF104B1A689542F5D21D60F3E733
:103B70000E4B21685A688A6090682168C860216885
:103B800004314160216804319160226853611A68F0
:103B900001321A60E0E7C0469C060020280A022095
:103BA000A4060020AC060020CC090220000A022056
:103BB000F0B5C646354C43680D00216800B59E68D7
:103BC000CB6121680E62216818317160216818315B
:103BD0009960236898620368013303602C4B002AC4
:103BE00021D01B682B4B00211B682B4B1B686D23BE
:103BF00022682068D1540430FEF728FF274B216843
:103C00005A688A6090682168C86021680431416000
:103C1000216804319160226853611A6801321A6088
:103C200080BCB846F0BD1E681A4B1F681A4B1B6853
:103C3000216898466D232068CA540430FEF706FFB9
:103C40006B1C15D02368AD195D60AE420AD821689F
:103C500038000431FEF7E2FE114B1A689542DFD2BC
:103C60001D60DDE7216840460431FEF7D7FED7E747
:103C70002268731E53609E42F4D8216838000431D4
:103C8000FEF7CCFE064B1B68CAE7C0469C06002028
:103C9000280A0220A4060020AC060020000A022008
:103CA000CC090220C368F0B5DB68D869196A9A6A42
:103CB00081604860180054681830844241D0002167
:103CC0009962116801391160234AD96A1268002A81
:103CD00029D15A699C68D8681D1DA0604460546849
:103CE000AC4230D01068013810601C4A106888421D
:103CF00025D38A001A485218920086187468A7685B
:103D00009C60DF607D60A5605E61835801338350F5
:103D1000144B00201B68DB6A8B4203D20122124B3A
:103D200001301A60F0BD114A5468A568DC611D625B
:103D30006860A0609A62136801331360E8E711605D
:103D4000D7E75160BBE75060106801381060034A44
:103D500010688842CDD2F2E7540902205C090220A3
:103D6000B40600209C060020340A0220E00902204C
:103D700080231B06F0B5026944680B438168036029
:103D8000C368A1604C60546884422ED00021016158
:103D900011689868013911605A69D9681D1D8160E0
:103DA00048605068A84222D0116801391160114A58
:103DB000D96A1068814200D911608A000E485218F1
:103DC000920086187468A7689C60DF607D60A560BB
:103DD0005E61835801338350084B1B68DB6A99424C
:103DE00002D90122064B1A60F0BD5160CEE7516046
:103DF000DAE7C0465C090220B40600209C060020D9
:103E0000340A0220034B1B680360034B1B684360AA
:103E10007047C046D0090220280A0220F0B5C646E5
:103E200000B50E000700FEF733FB6D23154C164A54
:103E300021681568ED5C002D09D000211268D1546D
:103E40000124FEF731FB200080BCB846F0BD33688A
:103E50005A1C15D00D487A680568A8463D68454546
:103E600004D08A4202D800233360E9E78D1AAB42BE
:103E7000F9D95B1A9B18336003683B6023687B6049
:103E80000024DEE7280A02209C060020D009022038
:103E90000122014B1A607047340A0220014B186856
:103EA0007047C0469C06002070B5041E08D0036D04
:103EB000C16AC26C013B0365914201D0002B01D065
:103EC000002070BD051D2800FEF7C0FD2023E26C18
:103ED0009B1AA3610B4BE26219688A4200D91A60EF
:103EE000930009499B189B00C81842689668A26015
:103EF000E66075609560CA58606101320120CA5061
:103F0000DFE7C0465C090220B4060020044B1A68B3
:103F1000196890691A682023C96A5B1A936170470F
:103F20009C060020F0B55746DE464E464546E0B5B5
:103F3000CE4B8BB09846CE4B06AF0193CD4B9B46F4
:103F4000CD4B9946CD4B4C4602932823D9469A46F1
:103F5000C3465B461B681D68002D00D0E1E0FFF7FB
:103F60000BFCFFF717FD019A80461368834200D9C6
:103F7000E7E04B461B6810601A6853425A414346BB
:103F80002068E91AFFF78CF8FFF7FEFB002800D144
:103F90002BE1102200213800FDF748FE00223900F5
:103FA0002068FEF763FF0028D3D03B68002B5ADB64
:103FB000BD68002DF2D06B69002B02D0281DFEF7E2
:103FC00045FDFFF7E7FC019B06001B68984252D3B2
:103FD000019B1E603B68092BE0D8029A9B00D358D6
:103FE0009F465346E85C012352460343AB5479682D
:103FF000AA692D618B186B60B34200D986E0711AF3
:104000008A4219D8410700D5F2E00123984353466C
:10401000E85428002B6A9847C0E753460122EB5C1E
:1040200013435246AB547B682D619A19AB616A60A9
:10403000B24270D8002BB1D04B46291D1868FEF74C
:10404000EDFCABE753460122EB5C93435246AB5485
:10405000A4E75346EB5C9A0700D4C2E001229343E5
:104060005246AB549AE77B68F968B86898473B6852
:10407000002B93DB9CE75B461B681A68002A3ED046
:104080000395049005940BE0012293435246A354F8
:10409000236A200098475B461B681A68002A2BD0C9
:1040A000DB68DC681E68231D18009846FEF7CEFC0E
:1040B00053460422E35C1A42E6D0A3692461F51852
:1040C000F64365609E420AD32E00F643236A200021
:1040D0009847A3692461ED186560B342F4D94B4653
:1040E00041461868FEF79AFC236A200098475B4611
:1040F0001B681A68002AD3D1039D049E059C4A467A
:10410000594612680A604A46136061E7B14202D913
:10411000994200D876E75B46291D1868FEF77EFCB9
:104120003CE7DB681D68FFF727FBFFF733FC019ACC
:1041300080461368984204D3106085427AD90022E1
:104140001DE75B461B681A68002A3ED0424604946D
:1041500003920BE0012293435246A354236A2000AA
:1041600098475B461B681A68002A2BD0DB68DC681E
:104170001E68231D18009846FEF768FC534604226B
:10418000E35C1A42E6D0A3692461F518F643656042
:104190009E420AD32E00F643236A20009847A36963
:1041A0002461ED186560B342F4D94B464146186866
:1041B000FEF734FC236A200098475B461B681A68A8
:1041C000002AD3D1039A049C90464A465946126865
:1041D0000A604A4613604246019B1A60FFF7D4FA10
:1041E000D7E62800FEF756F8D8E6FEF745F9D0E600
:1041F000A046340007E0E31A9A4214D82B6A28003C
:1042000098473300AA69D6186E602D61B442F2D285
:104210009C4201D2B342F1D95B46291D186844463D
:10422000FEF7FCFBF5E64B46291D18684446FEF7F1
:10423000F5FBEEE6FFF7A8FA5B461B68DB68DE6875
:10424000331D18000393FEF701FC5346F35C5A0735
:1042500007D4012293435246B3543000336A98473F
:1042600097E622002B004446904610E0A00600206E
:10427000C0090220B00600202C0A022014460010BB
:10428000E31A9A4214D8336A300098472B00B26977
:1042900036619D187560A542F2D9A34201D9AB429F
:1042A000F1D95B46039918684446FEF7B7FBD4E79B
:1042B0004B46039918684446FEF7B0FBCDE7C0466D
:1042C00070B582B0FEF7E4F8174C2368002B12D0CB
:1042D000FEF7EAF823680020002B0AD0134B802257
:1042E00001931F231249009312480023D200FFF7C5
:1042F0001FF902B070BD104E3000FEF773FB0F4D7A
:104300002800FEF76FFB0E4B00221E600D4B1021A4
:104310000A201D60FEF7B0FC20600028D8D00A49B2
:10432000FEF732FED4E7C0462C0A0220300A0220F3
:1043300094450010253F00106009022074090220F6
:10434000A0060020B00600208C45001030B51400F7
:104350001A0002230D0085B05B420093054B0190CB
:1043600069461868002302950394FEF7D7FC05B050
:1043700030BDC0462C0A0220F8B50E00EFF31087BE
:1043800072B60C4B84009B681D59A94204D00A4B9D
:104390009D420AD2FDF77CF8064B9B681E51BFF385
:1043A0005F8F87F310882800F8BD044B9D42F3D33C
:1043B000F0E7C04600ED00E0C0010010CC010010A5
:1043C00010B583070AD00300032102E001330B423A
:1043D00005D01A78002AF9D1181A10BD03001968FF
:1043E0000C4A0D4C8A188A4322420FD15968094A57
:1043F00004338A188A43224208D15968054A043393
:104400008A188A432242F1D000E001331A78002A48
:10441000FBD1E1E7FFFEFEFE80808080F8B5C0465C
:1044200001B40248844601BC604700BF610100201E
:1044300001B40248844601BC604700BF81010020EE
:1044400001B40248844601BC604700BF81010020DE
:1044500001B40248844601BC604700BFC10000208F
:10446000C5140010F11400103D1600101D1C0010A2
:10447000BD1A00108D1B0010651500100D150010E1
:104480002D150010411500102109001049150010CC
:10449000990C00108D140010C5050010B102001019
:0444A000A927001038
:1044A4004C4544205461736B0000000042757A7AD5
:1044B4006572205461736B00427574746F6E20547E
:1044C40061736B000A2A2A2A2050414E4943202A4C
:1044D4002A2A0A000A0000006E6F74207375707037
:1044E4006F7274656400000048617264776172657C
:1044F40020616C61726D20256420616C7265616459
:104504007920636C61696D656400000048617264C0
:10451400206173736572740052656C656173650024
:10452400626F6F74325F773235713038300000005B
:10453400322E312E310000007069636F00000000DC
:104544007374722D6672656572746F730000000077
:104554004A756E2031302032303235005541525484
:1045640020737464696E000055415254207374645E
:104574006F7574005541525420737464696E202F12
:10458400207374646F757400546D725100000000E0
:10459400546D72205376630006005250D3F0754276
:1045A4001C45001006005250E182887F244500100B
:1045B40006005250ABB3605334450010060052500D
:1045C400BBFF3CB63C45001006005250861C03025B
:1045D40044450010060052505422A29D5445001038
:1045E40005005250DE65F468104800100D0A000002
:1045F4000600525053B4F4A17845001008005250FC
:104604001200000008005250921000001F00000029
:104614009C3F0010E23F0010E23F001044400010B5
:104624001A40001052400010E23F0010E23F001018
:08463400444000101A40001080
:10463C009C450010A8450010B4450010C045001062
:10464C00CC450010D8450010E44500100846001079
:08465C0000460010F4450010B7
:10466400F0B5C646160000B504001F000268EFF35B
:10467400108872B61368002BFCD0BFF35F8F656897
:104684006B1C0ED02368BFF35F8F00221A6088F37F
:10469400108800F049F8A8420FD1002080BCB84629
:1046A400F0BD00F041F823686060BFF35F8F002223
:1046B4001A6088F310880120F0E700F035F880468E
:1046C40006E032003B00200000F036F80028E4D178
:1046D4002268EFF3108172B61368002BFCD0BFF38D
:1046E4005F8F65680135ECD1434663602368BFF38F
:1046F4005F8F00221A6081F310880120CEE7C04644
:1047040010B50268EFF3108172B61368002BFCD069
:10471400BFF35F8F01235B42436000F015F810BDC7
:104724007047C0460000000001B40248844601BC42
:10473400604700BFC125001001B40248844601BC93
:10474400604700BFB526001001B40248844601BC8E
:10475400604700BFED2500101000000000000000BD
:104764000000010000000000000000000000020042
:104774000000000000000000000003000000000032
:10478400000000000000FF000000000001B54868C0
:1047940001318E460047704609380149884701BDFA
:1047A4005D08001000000000000000000000000090
:1047B4000000000000000000700200200000000063
:1047C400503300004C3300005433000052330000D7
:1047D4004D5300004D4300005334000043340000A7
:1047E400851F001089200010D11F00109D2000108B
:1047F4000000000000010000FF00000000000000B5
:0C480400000000000000000000000000A8
:04000005100001E9FD
:00000001FF
