:020000041000EA
:1000000000B5324B212058609868022188439860DF
:10001000D860186158612E4B002199600221596106
:100020000121F02299502B49196001219960352056
:1000300000F044F80222904214D00621196600F024
:1000400034F8196E01211966002018661A6600F04E
:100050002CF8196E196E196E052000F02FF8012189
:100060000842F9D1002199601B49196000215960AB
:100070001A491B48016001219960EB211966A021F2
:10008000196600F012F800219960164914480160C1
:100090000121996001BC002800D000471248134993
:1000A000086003C880F30888084703B5996A0420EC
:1000B0000142FBD001200142F8D103BD02B5186610
:1000C0001866FFF7F2FF186E186E02BD00000240BE
:1000D000000000180000070000035F00212200005C
:1000E000F4000018222000A00001001008ED00E03C
:1000F00000000000000000000000000074B24E7A12
:1001000000200420F7010010C3010010C5010010F9
:10011000C1010010C1010010C1010010C101001097
:10012000C1010010C1010010C1010010C701001081
:10013000C1010010C1010010C9010010CB01001065
:10014000CD010010CD010010CD010010CD01001037
:10015000CD010010CD010010CD010010CD01001027
:10016000CD010010CD010010CD010010CD01001017
:10017000CD010010CD010010CD010010CD01001007
:10018000CD010010CD010010CD010010CD010010F7
:10019000CD010010CD010010CD010010CD010010E7
:1001A000CD010010CD010010CD010010CD010010D7
:1001B000CD010010CD010010CD010010CD010010C7
:1001C00000BE00BE00BE00BE00BE00BEEFF3058054
:1001D000103800BEF2EB88711CC400103CC4001043
:1001E0003802001090A31AE71E481F49086006C88D
:1001F00081F3088810471D480068002801D019487D
:10020000F3E70DA40ECC002902D000F012F8F9E7B4
:100210001749184A002000E001C19142FCD116495B
:100220008847164988471649884700BEFDE701C937
:1002300001C29A42FBD370473CC40010C0000020AA
:1002400028160020A4D9001000000420000004207B
:10025000A4D90010001004200010042000000000A9
:10026000704700000000000008ED00E0000000D032
:10027000281600204430022065570010410A001063
:100280005D570010F8B5C04606480749091A8B109B
:10029000C90FC91810B5491003D0044B002B00D06A
:1002A000984710BD281600202816002000000000E6
:1002B000054B10B5002B03D00449054800E000BFF2
:1002C000FFF7E2FF10BDC046000000004C2C0020EC
:1002D00090B80010F0B583B009F090FFD0240190E1
:1002E000142101A809F0EEFE0027202324066268ED
:1002F00020251C4E1340022F0DD180221206944659
:100300009B066344142101A89F0F09F0DBFE63687C
:100310002B40022FF1D0002B11D1142101A809F09C
:10032000D1FE636801222B4009D1022A0ED014218C
:1003300001A809F0C7FE636802222B40F5D0142102
:1003400001A809F0BFFE63682B40E4E7002200210A
:10035000306808F0CBFF142101A809F0B3FE6368F0
:100360002B40CAE72828002030B585B009F046FFA9
:1003700001236A46134D144C01901372192101A8F0
:1003800009F0A0FEE0222368D20113400F4A136057
:1003900004220F4B1A60FC3223681342FCD06068C1
:1003A00080B203F00BFC0B4903F001FC0A4903F097
:1003B000EAFB002303900022286802A908F096FFB8
:1003C000DCE7C0461C28002000C0044000D00440E8
:1003D00000E0044000007A4300F07F4530B585B06E
:1003E00009F00CFF02236A46194D1A4C0190137252
:1003F000FA2101A8490009F065FE80232268DB018B
:100400005340E022D2011340134A13600422134BDD
:100410001A60FC3223681342FCD060680004000CB0
:1004200003F0D2FB0E4903F0C2FB0E4903F0A5FB1B
:100430000D4903F0A8FB011C0C4803F09EFB0023B0
:1004400003900022286802A908F050FFD0E7C046B8
:100450001C28002000C0044000D0044000E00440FC
:100460003333533A6ABC343F2D93E13A0000D8410C
:1004700070B582B009F0C2FE0190642101A809F0B4
:1004800021FE8023244A5B0111684B40E021C90111
:100490000B4022490B600421214B1960FC31136889
:1004A0000B42FCD0506880B203F088FB1D4903F07A
:1004B0006AFB1D4903F07BFB041C00F0BDFDFA2123
:1004C000201C890503F073FB03F0A0FB051E1ADD59
:1004D000461E042E00DD04260024200032230022C4
:1004E0000021013400F09CFDB442F6DDA5420ADD96
:1004F00000230E2C0ADD00223221200000F090FDA6
:100500000134A542F4D100F0DDFDB6E7322200212E
:10051000200000F085FDF3E700C0044000D0044057
:1005200000E0044000F07F450000C842F8B5D02448
:1005300001260B4F0B4D240601213868494209F072
:1005400033F92B787340DBB22B702B78002B03D060
:1005500080231B016361EFE780231B01A361EBE7AD
:10056000282800203E300220F0B5C646144B8027D4
:10057000984600B5BF0343460121D026186849427A
:1005800009F012F90A2536060024776120000023BD
:100590006422C821013400F043FD192CF6D100F08B
:1005A00091FD642009F0E8FDB76100F045FD013DD3
:1005B00000F088FD642009F0DFFD002DE4D1DAE7CA
:1005C0002028002001210E4B10B51868494209F07F
:1005D000EBF80C4805F020FA72B6D02380220024F4
:1005E0001B0692035A612000FF23FF22FF210134E2
:1005F00000F016FD192CF6D100F064FD62B6FEE79E
:100600002428002090B80010F0B5DE464546574635
:100610004E464B4CE0B5220097B007AB994603CA53
:1006200003C3128816201A8004AB9C4600210722BF
:10063000604403F0F1FB0CAB9846230042461433B0
:1006400023CB23C21B882E20138004AB9C460021A1
:100650000322604403F0E0FB11AF23003A0028338B
:1006600013CB13C21B784120137004AB9C460422A9
:100670000021604403F0D0FB09F0C0FD314B324E45
:100680000193324B324C0293324B04900393324B22
:1006900005AD9B46314B9A4621E080220021D200D5
:1006A000200003F0B9FB5B4600220021200000F08F
:1006B00009FB4B4610220021200000F003FB4346BB
:1006C00020220021200000F0FDFA002120003B0044
:1006D000302200F0F7FA5146200000F0A7FA64211A
:1006E00004A809F0EFFC00222900306808F0CEFFD2
:1006F0000128D2D12B78012B0DD0022B15D0002B45
:10070000F1D1686803F0BAFA02000B00484601997B
:1007100004F0DAFFE7E7686803F0B0FA02000B00C4
:100720004046029904F0D0FFDDE7686803F0A6FABE
:1007300002000B003800039904F0C6FFD3E7C0465F
:1007400090BB0010C8B800101C280020D4B80010BE
:100750007C220020E4B80010F4B8001084260020A9
:10076000002300B583B00193162803D006280ED0CD
:1007700003B000BD094B01A9186808F049FF019BAF
:10078000002BF5D08022064B52051A60F0E7054B8E
:1007900001A9186808F03CFFF1E7C04624280020B2
:1007A00004ED00E020280020F0B5DE4657464E4616
:1007B0004546E0B585B009F021FD00236A46137275
:1007C000334B344F9946344B4E469B46334B913610
:1007D0009A46334B01909846FF36642101A809F0F0
:1007E00071FC80233A689B015340E022D201134000
:1007F0002C4A1360802252003B681342FCD0BB6835
:10080000134205D180225200FB68BB681342FBD023
:100810000821254B254819605B461A68A0239201E0
:10082000DB05D318186048465860C82098605046C9
:100830000068D8601E4B19601E4B80219C464904FD
:10084000624413680B42FCD108234D460024164A2B
:10085000136028880235404303F0B6F9011C201CC0
:1008600003F08EF9041CAE42F3D1134903F08BF967
:1008700003F004FA02F054FD02F046FD43460390F3
:100880000022186802A9002308F030FDA5E7C04641
:100890008C26002000C00440802600207C260020FA
:1008A0001C28002000D0044000F004400CC004408C
:1008B00000E00440100000500000484310B505F06F
:1008C0005DF8FA20C00001F0D3FD07F0E5FE1F211E
:1008D0001A2000F08FFD002200211A2000F0A4FD54
:1008E00000211A2000F01CFE1F211B2000F082FDB9
:1008F000002200211B2000F097FD00211B2000F0AA
:100900000FFE0222404B1F211A601C2000F072FDD6
:10091000002200211C2000F087FD00211C2000F097
:10092000FFFD3A4B01201A68394BD0245340394A15
:1009300024061340384A1360C022384BD2011A6192
:1009400007F0C6FE364B374A1860374BC0021840D6
:10095000364B03430B20136000F0F6FD80231B0190
:100960006362152000F0F0FD80239B036362162074
:1009700000F0EAFD8023DB03A362002201211620A0
:1009800000F052FD062000F0DFFD40230022A362AC
:100990000121062000F048FD052000F0D5FD2023B0
:1009A0000022A3620121052000F03EFD204C2149D8
:1009B000200007F0FFFC03210E2000F01BFD0321A7
:1009C0000F2000F017FD002201210E2000F02CFD69
:1009D000002201210F2000F027FD80223C21200071
:1009E000402300F0F7F81448144B036000234360E1
:1009F00000F0E4F81921072000F09AFA00F01CFB3F
:100A000000F060FB10BDC04600E0044008C0044098
:100A1000090000010F00000F08D0044000C004408E
:100A2000802600207C260020FD7F00FF250012008C
:100A3000A8100020801A060084260020007F0007EE
:100A400010B582B0FFF73AFF444804F0E5FF0322F7
:100A50000021012008F0F8FB414B0322186000211F
:100A6000012008F0F1FB3F4B032218600021012018
:100A700008F0EAFB3C4B0022186008210A2008F02D
:100A8000E3FB3A4B0024186080220C233849019480
:100A9000009352000023374809F0FCF90B23802211
:100AA00035490194009352000023344809F0F2F9CB
:100AB0000A238022324901940093520000233148D6
:100AC00009F0E8F9092380222F490194009392004C
:100AD00000232E4809F0DEF9082380222C490194D6
:100AE0000093520000232B4809F0D4F906238022FA
:100AF00029490194009352000023284809F0CAF9BB
:100B000005238022264901940093520000232548A2
:100B100009F0C0F904238022234901940093520074
:100B20000023224809F0B6F90223802220490194CB
:100B30000093920000231F4809F0ACF91E4C0122DB
:100B400023000421162000F083FC2300012204214D
:100B5000062000F07DFC09F0AFF9FEE704B90010B3
:100B60002428002020280020282800201C280020DD
:100B700044B90010C505001050B9001069050010F7
:100B800058B90010A907001060B90010090600103C
:100B90006CB900106903001074B90010D502001080
:100BA00084B90010DD03001090B900102D0500106D
:100BB0009CB900107104001061070010037842789E
:100BC0008178D21AC37801325B1A013353434360F0
:100BD0007047C046F0B54746CE4680B58BB003ACF3
:100BE0002200104B802723CB23C223CB23C21B8898
:100BF0000026138026236B4499460B4B02AD984682
:100C000023782F706B702A0002233C214046009607
:100C1000013407F0F7FB4C45F2D10BB0C0BCB9462C
:100C2000B046F0BD18BE0010A8100020F0B5574621
:100C30004E464546DE462123E0B587B004AC23701E
:100C40000B78834663704B788A46A3702223E37047
:100C50004B880027A38016236B449946802398462F
:100C6000174E03AD424623782A706B702A00022388
:100C70003C2130000097013407F0C4FB4C45F1D112
:100C800053465B685D1C2800984603F06DF84023CE
:100C90000400424659460370013003F0C3F82B00AC
:100CA00022003C213000009707F0ACFB200003F04D
:100CB0009BF807B0F0BCBB46B246A946A046F0BDC3
:100CC000A8100020F0B5DE4657464E464546E0B532
:100CD00085B0782949DC382A47DC1D78002D44D0BE
:100CE0000724D6173440A418E410E401A346564A5A
:100CF0000292564A03920133782931DC0326029A84
:100D00002C00525D3240022A01D1203CE5B2233D45
:100D1000EDB2372D32D8039AAD0052599746403C78
:100D20004B4AE400155D12195478AA46A1469478FE
:100D30005779A046D4789679A4461479D579019448
:100D40005A4654468A1884544C4682185470444675
:100D500094706446D470019C577114719671D5716A
:100D60001D78083109B2002DC5D105B0F0BCBB46D5
:100D7000B246A946A046F0BD153CD1E700250026A5
:100D80000027002294469046914692460192D7E76A
:100D9000082201920C32944690460E32914600226F
:100DA0000025002608279246CAE702220192023255
:100DB00094460432904608329146103200250026AF
:100DC00000279246BCE7142201920C3A94469046C2
:100DD000002200252226142791469246B0E70022E1
:100DE0009446019236329046914600220025002614
:100DF00000279246A4E74022019200220025002607
:100E00000027944690469146924699E77F220192A8
:100E10006B3A944690466B3291466B3A0025002619
:100E2000142792468CE70025002600270822A9E710
:100E300008229446019236329046363A0025002622
:100E40000027914692467BE719C30010CCBB0010E7
:100E5000B0BC0010F0B5C6461C0000B5304B0E000B
:100E6000C118090D063186B00500C9B2200017006F
:100E700000F0C0FA0123310022000093280007F09F
:100E800063FB80235B020293FB1CFA011B031343E9
:100E9000244AA40213400393F823DB011C4080235F
:100EA0009B0523430593204B0520049301F0FCFC94
:100EB00002F084FE1D49041C0C9802F078FE011C0F
:100EC000201C02F060FEEC21890502F059FE8046EC
:100ED00002F0CEFE84B20023002C0ED0200002F0DF
:100EE0006DFE011C404602F048FE8721C90502F054
:100EF0005EFE02F0BDFEC3B21B0224043A001C4396
:100F0000310002AB2800029407F078FB0123B340C4
:100F10002A6813432B6006B080BCB846F0BDC046BB
:100F20000000E0AFFFFFFF9F00000E5000002041D7
:100F3000F0B5CE46474680B5324F83B005003960E4
:100F40000800032102F02EFF2F4E304B304918606D
:100F50003000984607F07CFA2E4B04000021300048
:100F600099461E6007F058FA2B4B010018604B465B
:100F700018682A4B220000932B00FFF76BFF3C6898
:100F8000002C2ED043461968631E042B2ED98B07E4
:100F90002CD1A208500080180B00002280004018BD
:100FA0001A605A609A600C338342F9D103232000FF
:100FB0009843234215D043001B18CD186A702A703D
:100FC000AA70451CA5420CD2DD1C4D1902306A7076
:100FD0002A70AA70844204D90633CB185A701A704A
:100FE0009A7003B0C0BCB946B046F0BD0B000022F9
:100FF0006100091959185A701A709A7003338B429C
:10100000F9D1EEE7342C002000002050382C0020CD
:1010100034BE0010442C0020482C002000504349CE
:1010200030B5044D4400241828680019417002703E
:10103000837030BD382C0020204B30B51C68002C4C
:101040002ED01F4B1968631E042B2AD98B0728D179
:10105000A208500080180B000022800040181A607F
:101060005A609A600C338342F9D1032320009843DD
:10107000234215D043001B18CD186A702A70AA703D
:10108000451CA5420CD2DD1C4D1902306A702A7035
:10109000AA70844204D90633CB185A701A709A7019
:1010A00030BD0B0000226100091959185A701A70DE
:1010B0009A7003338B42F9D1F2E7C046342C0020FA
:1010C000382C0020154B70B51968002920D0144B1E
:1010D0004E001A68134B76181C680123200010304C
:1010E00083401148A4000068141936180578516827
:1010F0000B42FCD12561457851680B42FCD125613A
:10110000857851680B42FCD1033025618642EDD1D0
:101110006420002101F038F970BDC046342C002055
:10112000442C0020482C0020382C0020D0231B0603
:101130001B68AC4A9900F0B5DE468B4651585A42BE
:1011400053412F2257464E4645465B4293439A46AB
:10115000A54BE0B59C4683B000260191E2440029EE
:1011600038D0A24B99465246F30808339B009D584D
:101170000123340098460836002D22D00F2120008C
:10118000294001342D09002919D04B465A469A5856
:101190000300C240203BDB171340424613420CD1F0
:1011A00007220F000240920097403A00C308904F78
:1011B0003C339B00DA51019B9847002D01D0B4428B
:1011C000DCD3202ECFD103B0F0BCBB46B246A9463B
:1011D000A046F0BD854E5F4600210F23B346CC08E4
:1011E00022005046083292001258002A00D1D0E066
:1011F000180010408046100913421AD05D46ED5980
:10120000A94620256D42AC468C446546ED17AC4698
:101210004D46CD40A94665464E46354001263542ED
:1012200004D14646724D3C34A4006651002800D1DA
:10123000AFE01C000440A446140A03421AD0481C24
:1012400080465846C059464681464D460800F540FE
:101250001F38C01728400125284208D165462D01B6
:10126000AC46F0086646624D3C3080004651002C8A
:1012700000D18EE0180020408446100B234211D08C
:101280008C1CA0465C46E4594646A1464D460C00DF
:10129000F5401E3CE4172C4001252C4200D182E091
:1012A000002876D01C000440A446140C034210D041
:1012B000C81C80465846C059464681464D460800DF
:1012C000F5401D38C01728400125284275D0002C54
:1012D0005FD0180020408046100D23420ED00C1D18
:1012E000A4466546414CE459EC40A1460C004D46ED
:1012F0001C3CE40F2C426AD000284AD01C00044059
:10130000A446140E034218D0481D8046454637486F
:10131000C059E840814608004D461B38C00F28429E
:1013200009D165462D05AC4640466646C008304D9D
:101330003C3080004651002C2BD0180020408446C1
:10134000120F23422AD029488C1D8146C059E04003
:101350008046080045461A38C00F284206D1E008EA
:101360006446234D3C30240680004451002A10D0AE
:101370004846C059CC1DE0408446080065461938EF
:10138000C00F284205D1E0083C30194C12078000FC
:1013900002510831202900D021E714E7002AF8D0B3
:1013A00012488146E4E765462D02AC46F4086646DD
:1013B0000F4D3C34A400665172E765462D03AC46E0
:1013C000F00866460A4D3C30800046517FE74546AE
:1013D0002D04A84664464646E408054D3C34A40066
:1013E000665189E70022002030410140182F00207B
:1013F00000400140094A83009A1810B51468402241
:10140000544080322240064CC000A44663441A6017
:10141000044B9C466044416010BDC04604C001407E
:1014200004D0014000400140074B8000C3181B68F6
:10143000C90092000A435A400C231340034A9446C1
:10144000604403607047C04604C0014004D00140BE
:10145000F8B545469846D0231B06DE461C689B46D9
:101460002B4B57469A46A3004E469946E0B5534645
:1014700016004A469B5807000D00002B34D0434607
:10148000002B3FD053464A4641469950D0231B0675
:101490001C6863425C412F220720634293431D4A2C
:1014A00038409446FA081100800085403C311A48C3
:1014B0006344890092000D509B18002E0ED08022AC
:1014C00092019446634401210D201D6000F03AF919
:1014D000F0BCBB46B246A946A046F8BDC022920168
:1014E000944663441D60F3E74346002BD1D0534636
:1014F00041460D2099500022084900F085F95B46CD
:101500001C68C6E70D20054900F078FABAE7C04626
:101510000022002030410140004001402D11001008
:101520008000002905D0064B9C46402360440360A0
:101530007047044B9C46402360440360F8E7C04674
:1015400004E0014004F001400123D0228340120650
:1015500093629361094A83009A18116840225140AE
:1015600080320A400649C0008C4663441A60054B2D
:101570009C460523604443607047C04604C0014058
:1015800004D00140004001408023DB051868000FB3
:101590007047C0460FB400B5084883B004F03CFA69
:1015A000049B002B07D005A91800019104F0A2F8B4
:1015B000034804F031FA012004F0B4F8A8B900108F
:1015C000B8B9001010B50148FFF7E4FFBCB900102E
:1015D000EFF3108072B6034A1368002BFCD0BFF300
:1015E0005F8F70472C0100D0BFF35F8F0022024B4A
:1015F0001A6080F3108870472C0100D070B5EFF3AB
:10160000108C72B60D4D2B68002BFCD0BFF35F8F92
:101610000724CB08C618C05C01230C40A3401C0063
:101620000440034207D118433070BFF35F8F2C6032
:101630008CF3108870BD1000FFF7ACFF2C0100D0B8
:10164000F8B54746CE46884680B5EFF3108C72B6A3
:101650001C4D2C68002CFCD0BFF35F8F9A4222D81F
:1016600007210126894602E00132934218D34D46F4
:1016700037001540AF40D4080119045D2742F3D16B
:1016800010003C430C70BFF35F8F00220D4B1A60BB
:101690008CF3108800280EDBC0BCB946B046F8BDFC
:1016A00001204042EFE7BFF35F8F00232B608CF3F4
:1016B0001088012040424346002BEDD00898FFF7E8
:1016C00069FFC0462C0100D0044A1078431CDBB2ED
:1016D000172B00D9102313707047C046E80F002065
:1016E00010B5064B064C82B00100009318221F2350
:1016F0002000FFF7A5FF02B010BDC046CCB9001016
:10170000102200200021044B044ABFF35F8F02C364
:101710009342FAD17047C046000100D0800100D04A
:10172000054B064A1360064A136053609360D3600A
:1017300013615361936170478080808000E400E012
:1017400004E400E01F2318401E3B8340002905D01D
:10175000C021044A49005350136070478022014958
:101760008B50FAE700E100E001228240034B1B6846
:1017700013405A1E9341D8B27047C04600E100E0C2
:1017800001238340014A13607047C04600E200E035
:10179000064B10309B688000C358054A00209B1AF6
:1017A0002F229A424041C0B27047C04600ED00E08F
:1017B000EC0F002070B50D00EFF3108672B60F4AE3
:1017C0001368002BFCD0BFF35F8F0D4B10309B686C
:1017D00084001B590B4A934203D09D4201D001F073
:1017E0006BF9074B9B681D51BFF35F8FBFF35F8F92
:1017F0000022024B1A6086F3108870BD240100D0CD
:1018000000ED00E0CD010010F0B557464E46DE4633
:101810004546E0B585B0060000911700EFF3108B48
:1018200072B66A4A1368002BFCD0BFF35F8F0025A5
:10183000674B5D579A46002D00DAA9E06B00654CB6
:1018400001935B199B009846A146C1444B46524602
:101850009B7910361370604BB6009B6899590B1B2F
:101860002F2B33D95D4B994200D0ACE0019B42460F
:101870009C465B4B6544AD0063535A4B0232A21841
:10188000043B9B1A1B05584A5B0D651913436B807B
:10189000564B0121AB80FF23AB71009BEF71AB6016
:1018A0004B460B4319004C4B9B689951BFF35F8F1C
:1018B000BFF35F8F0022454B1A608BF3108805B091
:1018C000F0BCBB46B246A946A046F0BD01200A00C6
:1018D0008243D3798C46BB4231D8454613004449F4
:1018E0001B1B5B415943090D3D4B63533D4B023577
:1018F0006519043B5B1B1B053B4D5B0D2B43AA4647
:101900004D466B800425AC465546E044131F4444C5
:101910001B1B1B055B0D1D434B46997100999D8058
:1019200099604946DF71334B01431360BBE75800B0
:10193000C01880002018C179B9422FD902000623AF
:10194000D356002BF3DA02932B4B61460393131DFE
:101950009A4604235B429C46E14450464B461B1A80
:101960001B055B0D9C46204B95719846634640468F
:1019700003439380019B5A199200039BA418A380F0
:10198000029B1C4AA371009B2260E771A3608AE757
:1019900001F092F8002553465D574FE79088029377
:1019A0004005131D9A46031561469C464046D444A3
:1019B000634604302018181AE0230005400D1B026E
:1019C00018430390C5E701F077F84FE7240100D0F2
:1019D0003F300220EC0F002000ED00E0CD010010B0
:1019E00000A1FFFF1C10002000E0FFFF01BDFFFF72
:1019F000AAAA00000148804701BD0000F0B5DE46FC
:101A000057464E464546E0B50C0083B0EFF31088CC
:101A100072B6634A1368002BFCD0BFF35F8F614B33
:101A200061499A68030010339F00D55901938D4294
:101A300043D0A54254D05D4EAA1B2F2A3DD85C4B03
:101A40009B461B68994601231A009C4682404B46E0
:101A500013401F2299466346024093409A468022D3
:101A60005B4650469850BFF35F8FEFF305839B466C
:101A7000002B37D0019B5B4501D001F01DF80123FD
:101A80002A009A439068844208D176E04B005B18A4
:101A90009B00F3189868844236D01A0006215156EC
:101AA0000029F3DA844254D04B46002B27D0C022C1
:101AB00051463F4B5200995019603A4B9B68DD519B
:101AC000BFF35F8FBFF35F8F0022354B1A6088F33F
:101AD000108803B0F0BCBB46B246A946A046F0BD94
:101AE0000D00EAE72A0063469A4390688442D5D104
:101AF00006201056130000280ADA0D0031E080237A
:101B000051462B4AD150D8E706201856002821DB31
:101B100042001118890074188B46A1689960E17918
:101B2000D971062161569971002924DBA488F11A24
:101B3000640524155C44091909051E4C490D21430F
:101B4000998013181C4A9B001178F3189971107032
:101B5000AAE713005946002914D1FF3191711749A2
:101B6000918015490A789A71154A9B1B5B415A432B
:101B7000120D0A7098E71149E2E70620105613008B
:101B80000028C5DA0F4A1049D21A083A5002400D0F
:101B9000014399800D4952080A43DA8084E7C04620
:101BA000240100D000ED00E0CD010010EC0F00207A
:101BB00000E100E000E0FFFF3F30022001BDFFFF39
:101BC000AAAA00002610002000F0FFFF00F8FFFF87
:101BD00010B58308040003202040FF24054AC000FC
:101BE0009446844081409B0063441A68A2430A43A0
:101BF0001A6010BD00E400E070B501240443EFF367
:101C00000581EFF3108C72B6214A1368002BFCD0CB
:101C1000BFF35F8F1F4B05001F4AED1A6D416A43EA
:101C2000120D1E4D8900AE6852B27658A6421CD0E5
:101C30000621595691421CD012215956914222D068
:101C40001E215956914220D02A21595603249142EF
:101C500010D0134B19781A708171BFF35F8F002277
:101C60000B4B1A608CF3108870BDAB680D4C5C5048
:101C7000EFE700246100091989005B18FF219971C1
:101C800009499980E5E70124F4E70224F2E7C04618
:101C9000240100D0EC0F0020AAAA000000ED00E013
:101CA0003F300220CD01001001BDFFFF10B5084BF1
:101CB000084C82B001000093002205232000FFF7AA
:101CC000BFFC002801DB1F23181A02B010BDC0465C
:101CD000E8B9001043300220024B9C466144890061
:101CE0000160704740000034F8B5124C124DAC4210
:101CF00012D20126002776422368002B0DD0FFF771
:101D0000E3FC01002000FFF7E7FF66602772BFF3E6
:101D10005F8F0C34AC42EFD3F8BDFFF7D5FC010068
:101D20002000FFF7D9FF6660BFF35F8F0834AC4235
:101D3000E2D3F1E7181600202816002010B50400A1
:101D4000FFF7C2FC01002000FFF7C6FF01235B4242
:101D50006360BFF35F8F10BD10B504000120FFF773
:101D6000BFFC034BC3189B002360BFF35F8F10BD04
:101D700040000034034B9C46614489000160BFF37E
:101D80005F8F704740000034F0B5DE4657464E4640
:101D90004546E0B587B0EFF30583032201251A40DD
:101DA000954091008846A946B34B03925C58B34BCB
:101DB0001D60B34B04934B46B24843630823E55E72
:101DC000002D37DAA3881BB2002B00DBADE0A3792E
:101DD000002B00D0EEE00823E05E002820DB43006B
:101DE00062691B18DB00D3189E68DD68731C00D184
:101DF00011E1A44801004144826A0B69B71A9B1A99
:101E00009F4215D30123026A039883401A420FD0E0
:101E10009C4800F039FC8D4202DCCCD18642CAD904
:101E200040BF07B0F0BCBB46B246A946A046F0BDD5
:101E30000E61EDE762696B0092465B19DB009A4424
:101E400053469E68DF6800F01FFC8F42BADC00D169
:101E500003E1002F00DAE8E05246534652691B695D
:101E60009346049A934200D1D9E052460821605E1D
:101E700052880004594610439847009001910099F8
:101E8000019A0B001000134300D1CEE013000A00AA
:101E9000B61A9F41002806DB7A4800F0F5FB009E49
:101EA000019F36184F4153469E60DF6000229A5EC4
:101EB000002A00DA86E7530099186069C9004118C2
:101EC00002938B68C9689B46B94200DD7AE702D16C
:101ED000B34200D976E708239C46A444059565469D
:101EE0002281A446029B2C0006E053009918C900E9
:101EF00041188D68C968AB469B18DB00C318B9420E
:101F000006DC00D1B3E01C000023E25E002AECDA1C
:101F1000230064469C4653461A806346059D1D80F7
:101F2000A3881BB2002B00DA51E72269EFF310817E
:101F300072B61368002BFCD0BFF35F8F0123A78814
:101F40005B42A3803FB22369BFF35F8F00221A6018
:101F500081F31088002F00DA39E7230008332200CC
:101F60009A4666697B00DB19DB00F31899685046D6
:101F70008C460824115FDD68002910DB029306E01F
:101F8000AB4244D00023E15E2000002906DB4C0078
:101F90006418E4003419E368AB42F1DD029B07806A
:101FA00000201F5E1980002FDCDA1400A379002BBB
:101FB00000D110E70023A37126000823E15E083654
:101FC0004B1C00D12CE70800A246656902E03E00E8
:101FD0004B1C1AD04B005B18DB00EF180A008C4634
:101FE000E95E7B881BB2002BF1DA01235B42DC1730
:101FF000BB60FC60824205D0534631801B893B8028
:1020000053461A8160464B1CE4D15446E5E6A3686A
:102010006345B7D9C2E76B1C00D0EAE6F8E65B4639
:1020200058461B69984700281BD153461B882269D4
:102030002381EFF3108372B611680029FCD0BFF33F
:102040005F8F514662880A8022696580BFF35F8F87
:102050000021116083F31088B4E6864200D8F8E6C8
:10206000B0E65B461A685B680092019307E7B345E8
:1020700000D848E74CE7C0466C2C00203C70054077
:10208000891D001000400540074810B50268EFF3B5
:10209000108172B61368002BFCD0BFF35F8F06F07F
:1020A00099FD0020002110BD2C2F002070B52E4C72
:1020B0002569002D04D00A212C48FFF70DFE70BDC4
:1020C0002B4E0321300000F0D5FAE660FFF7FCFA52
:1020D000284B03229C46D02322701B061B6801213B
:1020E0006370254B6044A3600F23800020610220B1
:1020F000638063694942A1801980023119864731A2
:102100001D83585218315A5275325C39995218321F
:1021100001319952183201319952183201319952D4
:10212000083518329D520231183299521832013155
:10213000995218320131995218320131995218329C
:10214000013199521832013199520C4B0C49DC6023
:1021500001303562FFF72EFB01210320FFF7F2FA71
:10216000084B1D60A7E7C046341000202C2F00202C
:102170000040054040000034FFFF10006C2C0020A0
:10218000891D001038600540004870473410002059
:10219000F8B51F0008AB1B7804001600002B08D10F
:1021A00000F07AFA32003B00121A8B41002B00DA61
:1021B00052E02269EFF3108072B61368002BFCD056
:1021C000BFF35F8F0223E15E63694A005218D200B9
:1021D0009B182269002936DB1D886580BFF35F8F5D
:1021E0000025156080F31088069A9E60DF601A61F2
:1021F000079A5A615A8801325204520C101C002A64
:102200001FD082B25880080410432669EFF310876C
:1022100072B63268002AFCD0BFF35F8FA2881A80A2
:10222000A1802369BFF35F8F00221A6087F31088B3
:102230000A4923788C4601329A40E36863441A6065
:10224000F8BD0120DDE7BFF35F8F0023136080F34B
:10225000108801204042F3E70020F1E73C20000015
:1022600070B501000469EFF3108C72B62068002885
:10227000FCD0BFF35F8F02200D5E4C6968004019EF
:10228000C00024180869002D36DB26884E80BFF375
:102290005F8F002606608CF31088E36063880498E3
:1022A000013320615B0405985B0CA26060611A1C1D
:1022B000002B1FD093B22804628018430A69EFF301
:1022C000108C72B61368002BFCD0BFF35F8F8B8825
:1022D00023808D800B69BFF35F8F00221A608CF31F
:1022E00010880B7801329A40CB6808498C466344C9
:1022F0001A6070BD0122DDE7BFF35F8F002303602A
:102300008CF3108801204042F3E7C0463C200000D7
:1023100010B543890A1493421ADD53009B18426991
:10232000DB00D3180469EFF3108C72B62268002A20
:10233000FCD0BFF35F8F5A88090494B2090C8A421B
:1023400008D00369BFF35F8F00221A608CF31088F6
:10235000002010BD8022120214435C800123026918
:102360008371BFF35F8F002111608CF310880449E3
:1023700002788C469340C268012062441360E8E70B
:102380003C20000040787047F0B5CE46474680B507
:1023900083B004000D0000F07FF924184D41002D9A
:1023A00002DA01242D4D644296267642F71736193B
:1023B0006F41AF4215D812D000F06EF932003B00E9
:1023C000121A8B41002B18DC002B43D0200029006F
:1023D00000F06CF903B0C0BCB946B046F0BDA642EF
:1023E000EAD90022002316001F0000F055F9320040
:1023F0003B00121A8B41002BE6DD00F04DF9320054
:102400003B00121A8B41002B0ADB00230193144B73
:102410003200009313483B00FFF722FF0130D5D074
:10242000114BB1469846114E736A9F4204D8B26A66
:102430004A45CBD29F42C9D143461A68EFF3108177
:1024400072B61368002BFCD0BFF35F8F404606F0D6
:102450008DFBE9E7002AB9D0CFE7C046FFFFFF7F39
:1024600089200010341000202C2F0020004005404F
:10247000F0B5CE46474680B583B0040000F00CF9B5
:10248000FA2206000F00200000230021920001F034
:1024900057FB8019794104000D1E02DA01242D4DED
:1024A000644296267642F71736196F41AF4215D827
:1024B00012D000F0F1F832003B00121A8B41002BD1
:1024C00018DC002B43D02000290000F0EFF803B007
:1024D000C0BCB946B046F0BDA642EAD900220023EE
:1024E00016001F0000F0D8F832003B00121A8B4192
:1024F000002BE6DD00F0D0F832003B00121A8B41D1
:10250000002B0ADB00230193134B32000093134886
:102510003B00FFF7A5FE0130D5D0114BB1469846E0
:10252000104E736A9F4204D8B26A4A45CBD29F428A
:10253000C9D143461A68EFF3108172B61368002BB5
:10254000FCD0BFF35F8F404606F010FBE9E7002A9E
:10255000B9D0CFE7FFFFFF7F8920001034100020A3
:102560002C2F002000400540F0B557464E46DE4671
:102570004546E0B506000F0085B0EFF305839946A8
:102580008B46002B12D0384900204B6ABB4206D341
:102590008A6ADB1B591E8B41B2424041184305B089
:1025A000F0BCBB46B246A946A046F0BD2F4B9A46AA
:1025B000DB68984653461B784046039300F064F866
:1025C0004246039B040004339B009B580D001B1ADA
:1025D00039003000001BA941894510DC0DD020BF17
:1025E000214A0020536A5B45D9D3926ADB1B591EEE
:1025F0008B41B24240411843D1E78342EFD900F00A
:102600004BF832003B00121A8B41002B1ADB0023DF
:102610000193174B3200009350463B00FFF720FE1A
:10262000011E0FDD104B5A6A5A451BD39B6AB342F9
:1026300016D35046FFF76CFE0B4A0020536A5B45E9
:10264000ADD3D2E7084A0020536A5B45A7D30020E8
:10265000926ADB1BB24240415A1E934118439EE7E7
:102660005A45E6D120BFE4E7004005403410002081
:102670008920001010B5024A0248FEF7BFFF10BDC6
:1026800004BA0010142200200300416A0A00986A6C
:10269000596A8A42FAD17047034B596A0A00986A0C
:1026A000596A9142FAD1704700400540064A536A80
:1026B0009942FCD807D1044B02E05A6A914202D1F8
:1026C0009A6A9042F9D8704700400540F8B5DE4656
:1026D0004E4657464546E0B58B4605000A99180018
:1026E000160000F0EFFA0A9B6C001F02324B6419CF
:1026F0009C46A4006444636881469F4200D9676099
:102700002B1FDBB29846012B30D9C02380229B01BE
:10271000E31812011A60294BAD0059599A46002955
:102720001BD17301E026226853401E40802342469D
:102730005B01E3181E60012A30D9802380229B01AF
:10274000E31812011A6053464A4667605A51F0BCBA
:10275000BB46B246A946A046F8BD586900F0B2FA99
:10276000013043001B18033BFDD2DAE75B46012B27
:10277000CBD1C02303229B01E3181A60023AA3685D
:102780001A42FCD07301E0262268AD0053401E407F
:1027900080230A4A5B019246E3181E605A4621686C
:1027A000514003220A401A6001225B469A40A36806
:1027B0001A42FCD0C1E7C046008000401C22002025
:1027C000F0B546464F46D646C0B51F00344B4400D0
:1027D0009C462418A4006444636888461600FF2BB6
:1027E00002D880235B006360031FDBB29A46012B93
:1027F00030D9C02380229B01E31812011A60294BB3
:1028000085005959994600291BD17301E026226899
:1028100053401E40802352465B01E3181E60012A8C
:1028200030D9802380229B01E31812011A60802393
:102830005B0063604B465F51E0BCBA46B146A846B8
:10284000F0BD586900F03EFA013043001B18033B0D
:10285000FDD2DAE74346012BCBD1C02303229B01F3
:10286000E3181A60023AA3681A42FCD07301E0260A
:102870002268850053401E4080230A4A5B0191462E
:10288000E3181E6042462168514003220A401A6044
:10289000012342469340A2681342FCD0C1E7C046E0
:1028A000008000401C220020014B8000C05870476F
:1028B0001C220020F8B5040021481E0017000D005E
:1028C00000F000FA0100380000F0FCF9069B360425
:1028D0001B031E432368002B20DB1A4B1A49E31805
:1028E0005A1E93418022920194465B421B0B174A69
:1028F0001B0363441360164A13601F000A68974362
:10290000FBD1144B2560E2182123A06013602368DB
:10291000002BFCDA0823E6601360F8BD3F23226831
:102920001340AB42D9D1A3681B051B0D8342D4D100
:10293000EE22E368D2021340B342CED1EDE7C046A7
:10294000001BB7000040FDBF08C0004000E0004091
:1029500000F000400430000010B580241C4BE4055A
:102960001C6000281AD001231A4C18431A4BDC6152
:102970001A4C44401C62596298628021144BC9056C
:102980001960174817490860E021C9041960002A36
:1029900007D18022144B12061A6010BD0E4BD8616D
:1029A000EBE753019B1A9B009A18802312015B04EA
:1029B0009A4209D213000D490B60074B5A608022DE
:1029C000094BD2051A60E8E7094B1A00F3E7C04645
:1029D00000B00540D3C007B0008005402D3FF84F40
:1029E000FCFF01000820014000A005403C2C002015
:1029F000FFFFFF008023024A9B000B43D362704716
:102A000000800540002310B50100988A1B8B984771
:102A100010BDC046162310B50100188802331B886C
:102A2000984710BDF8B54746CE4680B50F1E18D062
:102A300014239946043304000025012698464B468A
:102A40001888434621681B88984701C4431E984153
:102A500001350640AF42F2D13000C0BCB946B046A5
:102A6000F8BD0126F8E7C046002370B504000D004C
:102A7000988A05491B8B984703000020002C01DB36
:102A80000130A0402900984755420000AA23064A79
:102A90001B0113608D235B00D3600449044B196054
:102AA0005368002BFCDA70470040024000B0FA0087
:102AB000006002407047C04610B50148FEF76AFD4D
:102AC00028BA001070B5074D074EB54209D2002450
:102AD000013E761BB60808CD984723000134B34267
:102AE000F9D170BD48B8001084B80010054B064AF3
:102AF00006491A60064A074B1A6010000B68984393
:102B0000FBD1704700E00040BFCDFBFE08C0004095
:102B1000FE7F3C0000F00040044BDB6C002B03D137
:102B20008022034BD2021A607047C0460000115049
:102B30004C201150044A054B1A60054A1368DB010A
:102B40008033FBD17047C046FFFFFF0100F000401B
:102B500008C000404022034B9A675A671A67DA663A
:102B60007047C04600F0014010B5FEF7CBFD10BD28
:102B700070B5044D044CA968C022200001F052F940
:102B8000AC6070BD00ED00E000000020002310B537
:102B9000294C82B0A367FFF779FF0122274B1A6007
:102BA000636C012BFCD10322254B1A60224A936BE4
:102BB000012BFCD1013300930121224A2248043326
:102BC000FFF778FE052301210093204A2048FFF7F4
:102BD00071FE0022022104201E4BFFF7F1FD0022AE
:102BE000012105201C4BFFF7EBFD002200210720EF
:102BF0001A4BFFF7E5FD002200210820174BFFF7D5
:102C0000DFFD8023DB000093002200210920134B0D
:102C1000FFF75CFD0022104B00210620FFF7D0FDDE
:102C20000420FFF741FE0E4900F04CF8010000209F
:102C3000FFF7E0FE02B010BD008000403CB0004055
:102C400030B00040002F685900800240008C864759
:102C500000C00240001BB70040597307006CDC0243
:102C600040420F0001480421014B1847501000203A
:102C7000252A0010124A936F9B0815D29066D166E0
:102C8000002905D0FFE7FFE7FFE7516F106F70479E
:102C900004B580210906C2175140002800D0C8435E
:102CA00008F08AFD002104BDF0B5146E556E576F13
:102CB000166FFFF7E3FF1466556657671667F0BD9A
:102CC000000000D0114A936F9B0813D21066516622
:102CD000002905D0FFE7FFE7FFE7516F106F70474E
:102CE00004B5002801D00020C04308F065FD002194
:102CF00004BDC046F0B5146E556E576F166FFFF7E2
:102D0000E5FF1466556657671667F0BD000000D0F2
:102D100094464A4A926F9208624601D228E0C04621
:102D2000F0B5464E346E756E776F366F00F020F852
:102D30009446424A14665566576716676246F0BD68
:102D400094463E4A926F9208624601D254E0C046D1
:102D5000F0B53A4E346E756E776F366F00F04CF802
:102D60009446364A14665566576716676246F0BD44
:102D7000002B24DB11D000293EDA00B5C9434042C4
:102D800000D1013100F038F8C943404200D101318F
:102D9000DB43524200D1013300BD002AEBD10028B1
:102DA00001D1002905D00020C90FC90701D1C043B6
:102DB000410800B508F0F8FC0022002300BD00B572
:102DC00000290ADBDB43524200D1013300F014F842
:102DD000C943404200D1013100BDC943404200D146
:102DE0000131DB43524200D1013300F005F8DB43EF
:102DF000524200D1013300BD002923D1002B18D14C
:102E0000002A0CD0BC460D4F38667A66002100239C
:102E1000FFE7FFE7FFE77A6F386F674670470028E4
:102E200001D00748010000B508F0BEFC00220023D5
:102E300000BD02000B00002000217047000000D000
:102E4000FFFFFFFF002B00D0BFE0130C28D1002AAA
:102E5000E7D080B4114F39667A66FFE7FFE730B4F8
:102E6000040C7B6F396F1B0423433B667A66FFE7D4
:102E7000FFE7FFE7C04684B27B6F3D6F1B0423432F
:102E80003B667A66FFE7FFE7C04600232C042D0C63
:102E90007A6F386F00196941B0BC7047000000D0EC
:102EA000F0B594460025140E01D112020835140F16
:102EB00001D112010435940F01D192000235D40FD3
:102EC00001D152000135D40B0134254F7C66254CCD
:102ED0003C660E0C93B2FFE7FFE7FFE73C6F6643EB
:102EE000360C7703BE467343DF0B5B04C01AB9414F
:102EF000130C7343DB18C91ACE086643360CB6446C
:102F000093B273431F0F1B01C01AB941130C7343D3
:102F10001F0B1B05C01AB941860D8F023E43664345
:102F2000360C092D24DB520A7243801A7703460AB5
:102F30006643360C16235B1BDE40DF40BF19644638
:102F40006643821B7046043506330100D940A84011
:102F5000C01900D30131A24206D20023F0BD000007
:102F6000000000D0FFFFFFFF121B0130F3D3F1E799
:102F700009277F1BFE406446A2B27243801A00D22A
:102F80000139220C7243130C1204821A99410B006E
:102F90007046043513370100F940A840801900D36A
:102FA0000131002B02D1A2420AD2F0BD013000D380
:102FB0000131121BFAD2013BF8D1A24200D2F0BD7E
:102FC000013000D30131121BF7E7F0B51C0C00D023
:102FD00080E00CB400251C0A04D11B02160E3343FA
:102FE000120208351C0B04D11B01160F33431201CA
:102FF00004359C0B04D19B00960F3343920002359D
:10300000DC0B02D192185B4101351C00971864411A
:103010000134464F7C66464C3C660E0CFFE7FFE7EA
:10302000FFE7C0463C6F6643360C7703BE4697B257
:103030007743C01B00D20139C01B00D201399FB2B7
:103040007743C91BC91B170C77437E04FF0B801BFA
:10305000B941CE086643360C0C2D33DBB644120B57
:103060001F053A431B0B97B27743C01B00D20139AF
:103070009FB27743C91B170C77433E043F0C801B5C
:10308000B941860D8F023E43664329277F1BFE40D0
:103090000C3D7746AF40BF1930BCA2B2ABB2724311
:1030A0007343801A9941220C7243130C1204801A44
:1030B000994102000B000137001BA941F9D2781E8B
:1030C0000021F0BD0C277F1BFE4077467F0BAF40F1
:1030D000FF19E0E700245D1C07D0144F7D663966B8
:1030E000FFE7FFE7FFE7FFE73C6F95B29EB265435E
:1030F0006643401BB141150C1E0C65436643360404
:103100002F0C3E432D04401BB141994204D20200D2
:103110000B0020000021F0BD01D19042F7D3801AAE
:10312000994101349942F2D3F6E70000000000D043
:10313000FFFFFFFF48404140484018B41B4B5B680D
:10314000FC46019308BD04DF0F34001018B4174B80
:103150001B68FC46019308BD00DF1934001094463B
:10316000134A926F920809D2624618B40F4BDB687B
:10317000FC46019308BD0CDFD13600100C4AF0B5B7
:10318000146E556E576F166F6246FFF7EEFF084AD2
:103190001466556657671667F0BD18B4034B9B68F5
:1031A000FC46019308BD08DF75350010B0170020FC
:1031B000000000D0FFB550404240504059404B40C5
:1031C000594000E0FFB5154F4C00640D03D0BC42E0
:1031D00004D10C0314D80020090D09055C00640D0E
:1031E00003D0BC4204D11C030AD800221B0D1B05CE
:1031F00001264B4009D44B4003D58B4200D182427B
:10320000FFBD9942FCD19042FFBD0B43DB18034345
:103210001343F5D0C9434918FFBD0000FF07000064
:1032200000B5FFF7CFFF804100BDC04600B5FFF7F6
:10323000C9FF01D9002000BD012000BD00B5FFF786
:10324000B9FF01D9002000BD012000BD00B5FFF786
:10325000B1FF804100BD012040054A00121804D88A
:103260005A00121801D80020704701207047000052
:103270000021002805D17047C1174840401AFAD0F4
:10328000C90713B5064B1B6898470CBC441CA240E9
:103290001005120B0349091B09051943114310BD01
:1032A000282F00201F04000010B54C00620D802361
:1032B000D218DB00D21A5B057E2A10DD9E3A13DAA3
:1032C000CC170903490819435242D1406400013424
:1032D0001532202A05DAD0400843604310BD002093
:1032E00010BD0846604310BDC80FC018013810BD9E
:1032F00018B4044B5B6AFC46019308BD24DF293AED
:1033000000100000B017002018B4044BDB6FFC461F
:10331000019308BD7CDFA93A00100000B01700201F
:1033200018B4044B9B69FC46019308BD18DF9D3817
:1033300000100000B0170020132370B51D78012D78
:1033400019D014DD1F48FFF765FB06001E48FFF784
:1033500061FB1E4C80223100200000F063FD022D35
:103360002DD01B48FFF74EFB1A4B186070BD1A4B4F
:10337000164CA364F5E7184B144C23606360A360FC
:10338000E36023616361A361E36123626362A3621B
:10339000E36223636363A363E36323646364A364FB
:1033A000E36423656365A365E36523666366A366DB
:1033B000E36623676367A367E367A364D1E7064B0C
:1033C000A364CEE75344000053460000B01700202A
:1033D0004C330000282F0020DD33001007B5604675
:1033E00001880A0A0230DF2AFAD1C9B2820804D35E
:1033F000028840880004104300E00068014A5050F1
:10340000039007BDB01700200FB403BC0CBCF0B58F
:103410000124E407634000E0F0B50C0DCF0F661EF9
:103420003605891B640503D3C943404200D30131EB
:10343000640D03D0661CF60A07D0E41B00207F0051
:10344000791C89078912803C24031D0DDF0F6E1E35
:1034500036059B1B6D0503D3DB43524200D301337A
:103460006D0D03D06E1CF60A07D0ED1B00227F0005
:103470007B1C9B079B12803D2D032F1B661B58D482
:10348000A446202E46DA20371400BC401D00BD4063
:10349000F24033412A4380185941CB0F05D0C9432C
:1034A000C043002264425041514162464D0D28D133
:1034B0000D0D07D100281FD0241940414941013A80
:1034C0000D0DF9D0640006D3013000D30131002C7A
:1034D00001D140084000013A0BD4941CE40A04D105
:1034E00012051144DB071944F0BDD907204B1943DD
:1034F00000E0D9070020F0BD0029DDD1002CDBD190
:10350000F0BD0132C6074008CD0728434908002E08
:10351000E1D0D9E73C2E29DA203E40371400BC40E8
:1035200000D00124F24014431A00BB401C43D317BF
:10353000ACE7AC46202F08DA20360400B4400D007A
:10354000B540F84039412843A5E73C2F0CDA203F2D
:1035500040360400B44000D00124F8400443080081
:10356000B1400C43C117EAE710001900002494E7AA
:103570000000F07FF0B50C0D661E3605891BE60ACB
:103580006405640D02D0651CED0A04D00020012101
:103590000905803C2403A4461C0D671E3F05DB1B68
:1035A000E70A6405640D02D0651CED0A04D0002210
:1035B00001231B05803C24037740644497B484B204
:1035C00096B27443070C7E43150C6F4380B2684378
:1035D000361802D3012000043F183004350C0019BE
:1035E0007D41844688B29AB250430C0C62431F0C52
:1035F0007C438EB27E43921902D301263604A4196D
:103600001604170C3618674101BC81B29AB25143B7
:10361000040C62431B0C5C4380B25843121802D363
:103620000120000424181004130C401863412D18C5
:103630005E410020474106BC88B293B258430C0C4F
:103640006343120C544389B251435B1802D30121E6
:103650000904641819041A0C091862416D185641BE
:103660000020474118BCF902720D1143F0026A0DA7
:103670001043ED020A0D03D16D1940414941013B50
:10368000124E9B1B7600B3420ED26D0007D3013061
:10369000002671416646354301D1400840001B05B4
:1036A000C918E4072144F0BD0BDA013306D101301B
:1036B00004D101314F0D01D04908F2E7E1070020A4
:1036C000F0BD013631050020EBE70000FF030000EC
:1036D000F0B51C0D671E3F05DB1BE70A6405640D92
:1036E00002D0661CF60A04D0002201231B05803C90
:1036F0002403D0252D060026F6432E661E096E668D
:10370000CE0FF619B44649004F0D02D07E1CF60AC2
:1037100003D000200021403F3F033E1BB600B444CD
:10372000013F7F05C91B49082E6F013676089C02B0
:10373000950D25437543ED137543AD1301356D109C
:10374000F603761B0CB4CC02450D2C43A2B2B3B2E7
:103750005A43270C7B43350C6F43A4B26C431B19AF
:1037600002D3012424043F191C041D0CA4187D411C
:1037700024196D41009A91B2ACB26143170C7C439D
:103780002B0C5F4392B25A43A41802D301221204B5
:10379000BF182204230C52187B41019C6C431B1957
:1037A000520ED9010A434401A01A81B2B2B2514368
:1037B00003145A43360C734387B27743D617D21992
:1037C00000277E4136049B191704160C7F185E41B2
:1037D0007316ED18F301002680337541A90F06D149
:1037E0006400690AE8055B0A184309D22FE0042245
:1037F000944480337541A90AA8059B0A184326D32F
:10380000404149412404009A019B0D005543641B2B
:103810004343E41A95B286B27543170C7E43030CFA
:103820005F4392B25A43B61802D301221204BF1862
:103830003204330C52197B4152429C41002C02D479
:103840000022013051414008CA071043490802B024
:103850006246D7079210084BD218084B9A4203D2FF
:1038600012058918C919F0BD0020002A01DC3900B1
:10387000F0BD01331905F5E7FD030000FE07000068
:1038800007DA002107E0C90FC907520D03D0C9129A
:1038900001E04C49090500207047C0464A00F2D2B9
:1038A000520D013A484B9A42EAD2F0B51405091B71
:1038B000520801D3001849419B08D21812059446BA
:1038C00040A44A0CA25C0B09534353431B135343BC
:1038D0005B131202D21A13005B435B0B4C08634369
:1038E000DB135343DB1501335B10D21A130CD21ACE
:1038F00013005B438902840D21438DB29EB2754350
:103900000F0C7E431B0C5F438CB25C43361902D311
:10391000012424043F193404330C64197B419D01B4
:10392000A40E2C432034A5B25543241454432D0C2B
:103930006419A411D203121B95B28EB27543170CF1
:103940007E430C0C674393B26343F61802D3012302
:103950001B04FF183304340C5B197C41DB186441F1
:10396000DB18002363419EB276439DB21F0C7D435A
:103970007F436C04ED0BA4197D4106028F08361BB2
:10398000AF417D07F6086E41B4B295B26C4337146F
:103990007D43120C5743B6B25643EA17AD190026C1
:1039A00072411204BF182E042A0C36197A410832CB
:1039B000521117D29D0A9C05D11710196941614413
:1039C000F0BD0000FF070000FE070000F8EBDFD6A7
:1039D000CDC5BEB8B2ADA8A4A09C9995928F8D8A92
:1039E0008885838152415D0ADC05D11714194D4148
:1039F0002B006343A6B27643A2B2270C7A437F43DF
:103A00005104D20B89197A41D218D2188005494243
:103A1000904102D4002301345D4160086908ED073C
:103A200028436144F0BDC046002200B5203200F0BA
:103A300004F8080000BD000000220B150AD410B5E0
:103A4000944600F05FF81414013400DA0021CB171B
:103A5000144C20470020002170476244343A0CD4B3
:103A60000C2A07DA04009140904052422032D440A0
:103A7000214310BDD843D94310BD203207D40C4692
:103A80009440524220321141D040204310BD0800E2
:103A9000C917203203D452422032104110BD180001
:103AA000190010BD5B3A00104A00520D144BD21A97
:103AB00013DDFF2A1EDAD205CB0FDB071A43C30042
:103AC000400F0903490A084310435B0001D301D0AA
:103AD000013070474308FBD2704702D0C80FC007BF
:103AE00070470A0312130132F8D1420F072AF5D1A9
:103AF000012200E0FF22C80F00028018C0057047B5
:103B0000800300000A0DCC0F531E1B05C91A520575
:103B100003D3C943404200D30131520D03D0531C9B
:103B2000DB0A07D0121B00206400611C8907891280
:103B3000803A1203014BD21A70470000FF030000C5
:103B400051434343C9188C46110C83B24B4310B404
:103B5000040C614392B280B2504362431C041B0CBC
:103B6000001910BC59411304120CC0185141614492
:103B7000704700004840414048400E4B5B68184782
:103B80000C4B1B6818470C4A936F9B0802D2094BD9
:103B9000DB681847F0B5146E556E576F166FFFF758
:103BA000F6FF054A1466556657671667F0BD014B68
:103BB0009B681847B0180020000000D0491A002860
:103BC00008D1084670470000C10FC90700D5404220
:103BD000002817D0F44603B40B4B1B68984706BC6B
:103BE00081409E384042803107D20B0607D0490001
:103BF000490AC0051043084360470130F8E7490A05
:103C00008902F5E770470000282F002041000A0EC6
:103C100080231B067E2A0BDD9E3A0BDAC117400279
:103C2000400818435242D040490001314843704790
:103C300000207047C00FC01801387047C0420DD334
:103C400000B540004008002100F012F8002801D41F
:103C5000404200BD8020000600BD0000034BDB6930
:103C6000FC4618471CDF213D00100000B018002062
:103C7000014B5B6A18470000B0180020034BDB6F54
:103C8000FC4618477CDF393D00100000B0180020CA
:103C9000132310B512481C78FEF7BCFE0100012C5E
:103CA0000AD003DD80220F4800F0BCF80E48FEF772
:103CB000A9FE0E4B186010BD0A4C5422200000F0E3
:103CC000B1F80B4B6365A365E36523666366A36682
:103CD000E36623676367A367E3672362E361E5E75E
:103CE00053460000B01800204C330000282F00205D
:103CF000F53C001007B5604601880A0A0230DF2A49
:103D0000FAD1C9B2820804D3028840880004104363
:103D100000E00068014A5050039007BDB018002031
:103D20000021C2158032803201D0024A10470020A3
:103D300070470000CD2A0000C30FDB0741000A0EC8
:103D400007D0FF2A08D00909054A891819434007F6
:103D500070471900002070470249C918FAE70000AF
:103D6000000000380000F07F70B504000A4E3000FB
:103D700007F05AFD200007F049F80500300007F071
:103D80000BFD002D05D0054B2C199C4201D82800B5
:103D900070BD0348FDF7FEFB18160020000004204C
:103DA00034BA0010F8B506000C000C4F380007F0CC
:103DB0003BFD2100300006F0C9FF0500380007F088
:103DC000EBFC7443002D05D0054B2C199C4201D807
:103DD0002800F8BD0348FDF7DDFBC046181600209B
:103DE0000000042034BA001070B50400054D28000E
:103DF00007F01AFD200007F013F8280007F0CCFCAC
:103E000070BDC0461816002001480421014B184718
:103E100060100020252A0010014B1B681847000085
:103E200060100020014B5B68184700006010002004
:103E30009A4200D2885470477047C046F8B557463A
:103E4000DE464E464546E0B599460A9B07009A462F
:103E50000D9B884693460B9C9B073BD10C9B9C4239
:103E60003DD21E1B0B9415000C005E442A004B46ED
:103E7000013521002020B847B542F7D1A0460B9C60
:103E8000002C20D0454636195346321B013C185DA4
:103E900029004B46B847002CF6D12B003500984638
:103EA0000D9B9B070FD55B46EC1A0C9BA3420AD9CE
:103EB000464698462A004B46310020200134B84738
:103EC00001354445F6D32800F0BCBB46B246A946AE
:103ED000A046F8BD16001500002CD3D1E0E716006F
:103EE0001500002CCED1EEE7F0B54546DE4657462C
:103EF0004E46E0B585B09C4610AB1B78149F9346A8
:103F000098460F9C129E139DBB074CD4002D42D1A6
:103F1000B44248D201233B4099460E9B013B9A464E
:103F2000302304E0524601341355A64201D9202C17
:103F3000F8D14B46002B00D183E00E9B013B994604
:103F40003023A54205D82EE04A4601341355AC4231
:103F500029D0202CF8D1FB060CD57B0554D4A642E1
:103F600063D0A54261D0119B102B50D0022B57D0AB
:103F7000202C32D1202301930E9B5A4600930397A5
:103F800063460295FFF75AFF05B0F0BCBB46B24648
:103F9000A946A046F0BD01233B40994601233B4280
:103FA0002AD1B442B9D3FB061CD57B05DBD4002C47
:103FB000D5D1119B102B5BD0119B022B6BD03023E2
:103FC00001240E9A13704346002B10D17B073ED577
:103FD0002B260E9A631C1655CDE72300013430269C
:103FE0000E9AD654202CC5D04346002BEED02D2659
:103FF0000E9A631C1655BEE74346002B2FD0013D99
:10400000B44200D289E798E7119B102BB2D1BB06CE
:1040100037D5202CAED058230E9A13550134A7E77C
:10402000202CA7D02300013407E0631E012CC0D050
:10403000119A102A31D0022AD1D162260E9AD65472
:1040400096E7FB06CED57B0500D488E78BE72300F7
:104050003E0790D520260E9A013316558BE70C2388
:104060003B405A1E9341ED1AB44200D255E764E733
:10407000BB060ED478230E9A02241370302353709B
:10408000A1E7202C00D175E778230E9A135501344F
:104090006EE75823EFE76033EDE70E9AA61E9146D0
:1040A0004E44BA0602D55822327098E77822327010
:1040B00095E7C04610B5002800D110BD01F062FCA4
:1040C000FBE7C046F0B55746DE464E464546E0B5EE
:1040D00095B083460F00924698461E9A1F9B10008B
:1040E0001900209EFFF7B7F8002800D0EAE11E98DB
:1040F0001F990122C54B5242FFF792F8002800D0C9
:1041000014E11E981F990122C14B5242FFF79EF8FD
:10411000002800D0E9E01E981F990022BD4BFFF750
:1041200095F8002800D0C8E01E981F990022BA4BCD
:10413000FFF776F8002800D0BFE01E981F990022F4
:104140000023FFF76DF8002800D0E4E000230B9374
:10415000229B5B0500D406260024302307E01721AC
:1041600006AA013452181355013E202C01D0092E05
:10417000F5D81E981F99FFF797F8A84BF2009B18E7
:104180001A685B68050008920993FFF775F802004A
:104190000B001E981F99FEF7D0FF089A099BFEF7A7
:1041A000FCFF06900791FFF7A3F88146FFF760F840
:1041B00002000B0006980799FEF7BFFF0022984BFC
:1041C00006900791FFF742F8002800D10DE1012386
:1041D0009C46E1444846FFF74BF802000B00089864
:1041E0000999FFF723F8002802D0002399460135EA
:1041F000002E00D1D9E006954D46B94614E006AA36
:10420000944617230A216344280001341F19FEF73E
:1042100059FD3031397028000A21013EFEF752FD68
:10422000092D00D817E10500202CE8D14F46069D46
:1042300020240CAE06AA17239446634499465B4695
:10424000B34606930FE04B4628000A210134E618D6
:10425000FEF710FD3031280031700A21FEF70AFD0B
:10426000051E00D1E4E0202CEDD1069B5E469B4666
:104270000323229A1340012B18D1219B002B15D028
:104280000B9B002B00D1FDE0219B013B2193202BB8
:104290000CD93023219A07E0172006A90134091808
:1042A0000B55944200D3CCE0202CF5D1229B0194F5
:1042B0000393219B0096029322E0229B5246049393
:1042C000219B3900039358461E9B1F9C0296009326
:1042D0000194434600F04AF90400200015B0F0BCF8
:1042E000BB46B246A946A046F0BD229B5B070FD451
:1042F00003224C4B22990192039121990093029140
:104300004346524639005846FFF798FD0400E4E75B
:104310000422454BEEE71E9A1F9B00200021FEF76A
:104320000CFF01231E901F910B9311E7229B544613
:104330009B0711D1219B042B0ED9219B55469C46EE
:104340005E46043C64442A0043460135390020207F
:10435000B047A542F7D1B346344D26002B1F9946EE
:104360005B46A3461C003200E87843463900013D15
:10437000A04701364D45F6D123005C469B46229B63
:1043800004349B07A9D55346219AE31A9A42A4D92B
:104390005E4615002200434639002020B0475346B0
:1043A0000134E31A9D42F5D897E72800FEF764FF31
:1043B00002000B001E981F99FEF7BFFE0022184B4B
:1043C00006900791FEF72CFF0CAE002800D031E7D5
:1043D000069807990022124BFEF738FF002800D0FC
:1043E00028E7012301359D4324E700220698079919
:1043F0000B4BFEF715FF002800D0F9E64B46002BCB
:104400005CD101239C46E144F2E6C046FFFFEFFF8A
:10441000FFFFEF7F65CDCD4165CDCDC138C0001028
:104420000000E03F90BA001088BA001098BA00105F
:10443000069B5E469B460323229A1340012B00D124
:1044400081E0202C00D131E70B9B002B27D02D23BE
:10445000335501342AE74F46069D202C00D1E7E66C
:104460003022331907E0172006A9013409180A552C
:10447000202C00D1DCE6A342F5D12E220CAE013473
:10448000F254D7E60C23229A134257D0219B013BCA
:104490002193A34200D9FCE6202C00D106E7229B01
:1044A0005B0703D52B2333550134FFE6229B1B0703
:1044B00000D4FBE6202333550134F7E6DB0700D4B4
:1044C00096E69EE7229B55469B0711D1219B032B25
:1044D0000ED9219B54469C465E46033D654422000E
:1044E0004346013439002020B047AC42F7D1B346EF
:1044F000B9465F461C4EEC1C2A00B078434649463C
:104500000135B847013EAC42F6D1229BBB464F462F
:104510009B0700D4E1E65346219AE31A9A4200D859
:10452000DBE65E4615002200434639002020B047F6
:1045300053460134E31AAB42F5D3CEE6219BA342A6
:1045400000D9A6E6B2E6219B002B00D179E70B9BB0
:10455000002B97D0219B013B21939C4200D298E6EF
:10456000202C00D073E7A1E694BA0010F0B5DE4627
:1045700057464E464546E0B599B081468B46924631
:104580009846229A239B10001900FEF764FE00282B
:1045900000D0CAE0229823990122824B5242FEF7B2
:1045A00055FE002800D0C0E02298239901227E4BBE
:1045B0005242FEF735FE002800D0B6E0229823993B
:1045C00000220023FEF72CFE002800D0C9E1229B28
:1045D000239C08930994089809998023269ADB0064
:1045E0001A400D928022269C1201144022000B9446
:1045F000269C07000E001C4200D0ADE00B000343D8
:1046000000D0D5E0002A00D00AE22200063324932D
:10461000022313400C930223134200D002E2259B95
:10462000042B00D20FE2043B0B93002304250A93D2
:104630000022229823990023FEF7F2FD002800D0E3
:1046400003E25A4B269A134004930B9B0393249B3B
:104650000293089B099C0093019459464346524695
:104660004846FFF72FFD02002020269B1F2703400E
:1046700059424B415B421840531C089359464346EC
:104680004530C8470A9AD317D4185C40D30F0A9311
:104690006B1E0B9308AB9C460025674401E0202D60
:1046A0000FD020000A21FEF70DFB01357E193031B5
:1046B000317020000A21FEF705FB26000400092EB8
:1046C000EDD8052306930B9B5946059300230493CD
:1046D0000A3303930A9B4846029310AB0093089A4F
:1046E00043460195FFF700FC0C9B002B2DD0534651
:1046F000C41A259BA34228D94D465F4681461E0019
:10470000534639001A19202043460134A847A642CF
:10471000F6D8534648462599C21A013200239142E1
:1047200000D386E1013018180FE0269B0493259BE7
:104730000393249B0293229B239C00930194434662
:10474000524659464846FFF7BDFC19B0F0BCBB467F
:10475000B246A946A046F0BD01432BD10B9B2200D7
:10476000002B00D154E700230A93249B0A9A0024CB
:10477000934200DD85E12298239900220023FEF771
:104780004FFD002800D035E1269B084A02941A40CC
:104790008023DB0013430493259B0393089B099C10
:1047A000CBE7C046FFFFEF7FFFFFEFFFFFF7FFFF05
:1047B00006232493B44B70009C46400D6044FEF7E2
:1047C0005BFDB24AB24BFEF7E8FCB24AB24BFEF7D1
:1047D000BDFC3603B14B360B334304000D003800EB
:1047E00019000022AE4BFEF7A8FCAE4AAE4BFEF716
:1047F000D4FC02000B0020002900FEF7A7FCFEF706
:1048000053FD0A90FEF738FDA84AA94B04000D009D
:10481000FEF7C3FC0022A74BFEF798FCFEF744FD11
:10482000A54A0600A54B20002900FEF7B6FC0400AF
:1048300030000D000C96FEF71FFDA14AA14BFEF7BC
:10484000ACFC02000B0020002900FEF776FC020001
:104850000B0006000F00FEF7A0FC320004000D0064
:104860003B0030003900FEF771FC00220E900F91E2
:10487000954B20002900FEF772FC0022934BFEF7B7
:1048800065FC02000B0020002900FEF768FC0022F6
:104890008F4BFEF75BFC02000B0020002900FEF7A7
:1048A0005EFC0D008021040032003B000020C905A1
:1048B000FEF743FC02000B0020002900FEF746FC37
:1048C00002000B000E980F99FEF749FC0022734B73
:1048D000FEF73CFC7F4B0C9C9C4664440022230565
:1048E000FEF75BFC06000F0002000B000898099918
:1048F000FEF796FC00280AD00A9B3000013B3900E5
:104900000A930022714BFEF72AFC06000F000A9A58
:10491000330063323900C62A12D8022226980425B1
:1049200010400B9A0C90002A25D1259B042B05D909
:10493000002800D0A1E0259B043B0B93042541E017
:104940000222269810400B9A0C90002A12D1259B27
:10495000052B76D9002872D1259B0525053B0B93A5
:1049600034E0802212069446229B0893239B6344E2
:10497000099330E605250B4300D1F6E6089809991E
:10498000554A564BFEF75AFC002808D0089809995A
:104990000022534BFEF744FC002800D0E5E6249BA0
:1049A000002B1CD00D9B002B19D0249B013B249382
:1049B000259BAB4204D90C9B002B5AD002230C93AD
:1049C00000230B930A9B002B00D131E6089809992C
:1049D00032003B00FEF7C3FB0890099128E6259BB7
:1049E000AB42EDD90C9B002B43D000230B93023339
:1049F0000C93E7E78020269B3A4A00061A40802362
:104A000084460294089C099D2900DB00134304930B
:104A1000259B6144220003930B00009201938EE6D4
:104A20000524A8E600230B930A93023304250C9374
:104A3000FEE553468C46013B63441B1A72E6022393
:104A40000C930525C2E70423EDE58020089E099F0D
:104A5000000639008446269A224B61441340049391
:104A60000B9B32000393249B02930B000092019353
:104A7000F3E5259B5B1B0B93A4E7022304250C9312
:104A8000A0E79C1A013C76E601FCFFFFFB799F50F2
:104A90001344D33FB3C8608B288AC63F0000F03F61
:104AA0000000F83F61436F63A787D23F71A3790984
:104AB0004F930A400000E03F1655B5BBB16B024072
:104AC000EF39FAFE422EE63F00002C400000244061
:104AD00000001840FF0300002D431CEBE2361A3F94
:104AE00080842E41FFF7FFFFF0B5DE4657464E4665
:104AF0004546E0B5A5B01E002E9B92460C93CD4ACC
:104B0000CD4B80468B461A60002900D1EAE1002394
:104B100030789946002800D1ECE1C84B4C460B9305
:104B2000C74B454657460E930AE0631C9846220041
:104B30003B005946A84744463078002800D187E01A
:104B400001362528F1D108239A46043B9946023BB9
:104B50009846013B00229C460D943078711C03005E
:104B6000203BDBB2102B03D80B9C9B00E3589F46E5
:104B70000300303B89460D9C092B3AD90023984607
:104B80002A2800D1C1E000239A462E284BD00300EA
:104B9000683BDBB2122B1ED80E999B00CB589F4668
:104BA00063460E001A43D8E743460E001A43D4E783
:104BB0004B460E001A43D0E710230E001A43CCE7F1
:104BC00053460E001A43C8E780235B001A43FF3B9D
:104BD0009C467078E1444E4667284FD82428A4D9D3
:104BE0000300253BDBB2422B9FD896499B00CB5854
:104BF0009F46002394461E0000E00131B3009B193C
:104C00005B001E180878303E0300303B092BF4D9B6
:104C10000123624689469C460023B0469A460E0010
:104C2000E1442E28B3D13021802049428C46C00077
:104C3000024370784B4684446146092900D86CE1F0
:104C40002A2800D17AE101239C464E46E1449EE7A2
:104C5000A146A846BA46CA4503D801235B4253443D
:104C6000994653464A4659460020C047200025B081
:104C7000F0BCBB46B246A946A046F0BD0300693B66
:104C8000DBB20D930F2B00D94FE7012199408C46E1
:104C90006D49894661464B4619400F916346494626
:104CA0000B4200D028E10D9B0A2B3AD0072B00D0F5
:104CB0003BE70C9B190008C98846002B00D14BE14B
:104CC00021200243914614A98C461F220F216244E1
:104CD0008C4651460D950C91A24615000F9902E0A5
:104CE00020290CD0130064461C4020003730092CCA
:104CF00000D80738013168541A090F2BF0D80C9BE3
:104D000054460D9D9A460F9133E10C9B02CB884689
:104D1000002947DB0C9301239C4670784E46E14402
:104D200031E70C9B02CB14935346002B00D138E1A2
:104D30009C4608780B000C908C44002801D100F0B0
:104D400098FC89466146944603E05A780133002A6C
:104D500001D08B42F9D1494662465B1A0C900F9301
:104D6000530500D520E10223180010400D90134296
:104D700000D1CBE30D930B1BB1469A465E460C98CF
:104D800022003B003100A84753460134185D00283B
:104D9000F6D1B3464E460D9B002B00D0C7E1149BC5
:104DA0000C93C9E60C9301239C46283849420243E0
:104DB000884670784E46E144E5E670786C2800D16C
:104DC0007FE180235B001A43FF3B9C46E14402E7FE
:104DD00080239B001A4301239C467078E144FAE645
:104DE0007078682800D173E180231A437F3B9C468A
:104DF000E144F0E6672800D103E1472800D15AE1F9
:104E0000452800D15AE10492072142460C9B0392A7
:104E1000073352468B43190002920CC928000092B6
:104E200001930C9122003B005946FFF79FFB0400C1
:104E300082E6C046E94A0010302C002098BE0010DF
:104E4000DCBE001028BF001041900000462800D1B1
:104E5000DBE00492072142460C9B03920733524643
:104E60008B43190002920CC92800009201930C9107
:104E700022003B005946FFF725F904005CE6631C5D
:104E8000984622003B0059462520A847444653E651
:104E90000C9B04330D93631C9946920700D422E1C6
:104EA0000C9B2200187859463B00A84743464444CF
:104EB000012B00D885E23300B8462E005F4625005E
:104EC0004C46994622004346013439002020B04721
:104ED000AC42F7D12C00BB46350047464E460D9BF1
:104EE0000C9329E6DB4B307898460023994600283E
:104EF00000D012E60024AEE66F2800D188E000D88A
:104F00000BE31023782800D1CFE09A430A239C4674
:104F100000230F930A330D9380E05646B1008919A0
:104F2000490001330E181878303E01003039092944
:104F3000F4D9B2461E000133994628E60C9B02368E
:104F400002CB8A46C9435046C917084082460C9393
:104F50003078731C99461AE61023100098431133D9
:104F60001843814680201300C0000340024200D154
:104F7000A9E64B4606930823059353460493102352
:104F80000393002302930F9B220001931CAB009319
:104F900059463B002800FEF7A7FF434604000C9348
:104FA000CAE501235B42C3E60F9B534501D9534633
:104FB0000F930223180010400D90134200D1B7E167
:104FC0000D93D1460B1B9A463300A1442E002200BC
:104FD0004D460C98B9465F469B4608E04B46390063
:104FE000541CB0475346185D002877D022009542E4
:104FF000F4D15B46BB464F46A94635004C461E00E1
:10500000C9E680231B011A43FDE620231A4320E74B
:1050100008239C4600230F9308330D93802311002F
:10502000DB0019401A4200D116E10D239A4310000B
:10503000802302009B001A401492184200D0C2E163
:10504000802302005B001A4091460C9A04320F92B2
:10505000184200D0B7E2430600D59FE1030600D412
:1050600019E30C9B1B880993002B00D0FCE1103343
:105070009843002900D1F7E1002399464346059360
:10508000534604930D9B069003930023D2E05828C7
:1050900008D0622867D102239C4600230F93023375
:1050A0000D93BBE720231A43103B9C4600230F932C
:1050B00010330D93B2E780231B011A4320231A43B8
:1050C000A1E6C0239B001A43F31C9946B07882E501
:1050D000C0231A43F31C9946B0787CE535005E4640
:1050E000BB464F4657E64346012B00D863E1631E9B
:1050F00043449A463300B9462E005F4655469B46C8
:10510000A24622004B46013439002020B047AC4271
:10511000F7D135005E46BB464F46A14654460C9B30
:105120004A46187859463B004444A847D7E6A1466A
:105130000F9B984500D832E64444E41A3300B84641
:105140002E005F4625004C46994622004346013416
:1051500039002020B047AC42F7D12C00BB463500C7
:1051600047464E461BE680231000DB0018401A42DB
:1051700000D10FE1112118008A430D920D9A80236E
:1051800011009B0019408C461A4269D180231100FE
:105190005B00194089460C9904310F911A4200D0E6
:1051A000CAE113005B0600D5F0E013001B0600D433
:1051B00059E20C9B00229B5ED9175A184A4092B2C2
:1051C000D90F0C91002B00D1F9E1100014AA9446DC
:1051D00042461F23149252466344A84616944D46F5
:1051E0000400B946B2461F00159201E0202D0FD0F1
:1051F00020000A21FDF766FD01357E19303131703E
:1052000020000A21FDF75EFD26000400092EEDD8DE
:10521000149B4F46A94645469846159B56469A46C6
:10522000169C0D9B069343460593534604930A230D
:1052300003930C9B02934B4601931CAB22000093FB
:1052400059463B002800FEF74FFE0F9B04000C93CD
:1052500072E4C046393E00100C239A431000E7E682
:1052600007220C9B07339343013294469C446246C9
:105270000C920CCBD90F0F911100194300D191E082
:10528000D9171391129151401091139959401191CE
:1052900010981199129A139B801A994110901191AC
:1052A00014AA0023944642469946149252461F334C
:1052B0006344A846B24616944E46109C119DB946CA
:1052C00015921F0001E0202E10D0200029000A2294
:1052D0000023FDF735FD013630322B00BA550D00A5
:1052E00022000400002BEED1092AECD8149B109464
:1052F000119545469846159B4F46B14656469A46E7
:10530000169C0D9B069343460593534604930A232C
:1053100003930F9B02934B4601931CAB2200009317
:1053200059463B002800FEF7DFFD0400FFF704FCB0
:105330000F9B984500D8C1E18023DB000D934346C5
:105340000F9A1B199B1A994633002E004D46B946F9
:105350005F469B460C9122004B46013439002020C9
:10536000B047AC42F7D143460C9901330F930B7809
:1053700035000C935E46BB464F46002B00D10EE530
:105380000D9B002B00D1F6E4002319E60C9B1B7843
:105390001A0015E710239A430D92EFE60C9B1B7839
:1053A000099361E6002399460028AAD10022002330
:1053B0001092119374E70C9B2200187859463B0019
:1053C000A8474C468BE50C9AFA3BFF3B07329A43C1
:1053D0000133994691444B460C93136852681592D9
:1053E0001A4306D11032904300220992002900D0BE
:1053F00081E06122810600D54122D2B20A9214AA2C
:1054000091460A9A00210A3A14924246179252464D
:1054100018925A460991B3461F311E000F9B49440A
:10542000BA4619941A950024674698468946159DF0
:1054300016901B920AE03032D2B24B4601341A5514
:10544000A8454AD0202C4AD006000D003A0000237F
:1054500030002900FDF774FCD2B2092AEBD9149B65
:105460009C466244D2B2E8E76123820600D541231C
:10547000DBB20A3B0C93434614A91F228C461593BA
:1054800053466244A046B2464C461797A9461700B9
:10549000099D0D9E1490169308E03033DBB2013461
:1054A0003B55B5420ED3202C0CD00500310028000E
:1054B000FDF708FCCBB20929EFD90C9A9446634456
:1054C000DBB2ECE7159B4D46A14644469846169B39
:1054D000564614989A46179FD0E5B742B2D9179B03
:1054E00057469846189B5E469A461B9B09949B46D6
:1054F0001698199C1A9D43460593534604930D9B99
:105500000690039300230293099B05E70F9B9845A0
:1055100000D914E701330F932DE4102311009943B0
:105520000D91692800D0BAE080231000DB001840FC
:105530001A4200D122E61DE60C9B1B68DA0F11000F
:10554000002B00D18CE0DA179818504014AA91462D
:1055500042461F23149252464B44A046A946169732
:1055600004006546B2461F000C91159201E0202D03
:105570000FD020000A21FDF7A5FB01357E1930313F
:10558000317020000A21FDF79DFB26000400092E42
:10559000EDD8149B444698460C9BAC461900159BCD
:1055A00056464D469A46169F0D9B029106934346DA
:1055B0000593534604930A23039363463CE600286D
:1055C00000D02EE602E60C9B1B689946002B03D107
:1055D00010339843002938D16123820600D5412336
:1055E000DBB20A3B0C9343461693534614A91F2281
:1055F0008C4617932B006244A0464D46B24618973E
:1056000099461700149C0D9E159008E03033DBB2CC
:1056100001343B55B5420ED3202C0CD0050031008F
:105620002800FDF74FFBCBB20929EFD90C9A94461D
:105630006344DBB2ECE7169B149444469846179BF0
:1056400056464D469A461598189F4346059353462D
:1056500004930D9B0690039300230293149BEBE5A8
:105660000028A1D172E70C9B1B68D9175A184A4031
:10567000A6E580231000DB0018409C460F901A42DC
:105680000FD00220030013400F93104219D00023C3
:10569000A1460F934CE50C9B1B680993E4E40A00B8
:1056A00034E40223180010400D90134200D03EE570
:1056B0004346002B00D042E6FFF771FB01330F9306
:1056C0007FE463460D93F3E70EB4012230B584B056
:1056D00007AC08CC064D0100009428005242039408
:1056E000FFF702FA04B030BC08BC03B01847C0464C
:1056F000313E001010B5094A0300146884B0002C34
:1057000008D0012200910648524203A9A047012077
:1057100004B010BD00F080F90020F9E7302C002023
:10572000B540001000BEFDE7094A030010680028DC
:1057300005D00849C3188B4207D813607047064844
:105740000449C31810608B42F7D901204042F5E7A5
:105750002C280020000004204430022010B5FFF760
:10576000E1FFC04670B5FDF7ADF9074D074EB542F4
:1057700009D20024013E761BB60808CD98472300C5
:105780000134B342F9D170BD84B8001090B8001054
:10579000030010B5080011001B68984710BDC046F3
:1057A000F0B5C64600B5437D07000C001600002B7F
:1057B00046D0002A17DD0B780A2B24D00023984608
:1057C000012E13D001252900635C01350A2B26D058
:1057D000B542F8D1464509DCA419013C23780D3BBC
:1057E0005A4253413B7580BCB846F0BD4346E01871
:1057F000A419F11A013C3B68984723780D3B5A42A3
:1058000053413B75EFE7037D002BD7D102210F48B1
:105810003B689847012EDFD001239846D2E7631EEC
:105820005B5C0D2BD4D0884504DA4346C91AE018D6
:105830003B689847022105483B68A8469847C7E758
:105840000368110020009847CDE7C04688C00010CB
:10585000F0B54546DE464E465746E0B583B0914624
:105860001C0080460D00FCF717FF0023304A121879
:105870004B41002B02DA01222E4B52422E490800E6
:105880008A4605F0B9FF07006B1C03D1404605F0BE
:10589000F1FD0500002C27D0284E294B1C68002C58
:1058A00018D04B46002B21D1264B994602E02469A3
:1058B000002C0FD02368002BF9D04B461B68002B1F
:1058C00001D09C42F3D120002A004146B047246910
:1058D000002CEFD1002F26D1280003B0F0BCBB462E
:1058E000B246A946A046F0BD174ED6E7154B9946DD
:1058F0000A239B4602E02469002CEBD02368002B8E
:10590000F9D04B461B68002B01D0A342F3D12A00EB
:1059100041462000B0476B465A462000DA71D91D37
:105920000122B047E7E7504605F036FFD4E7C0460E
:1059300040420F00FFFFFF7F20160020A1570010FC
:105940006C22002078220020915700100A4A136828
:10595000002B05D10CE01A001B691032002B07D078
:105960008342F8D1002902D118691060196170478B
:105970000029FCD01060FAE76C22002010B500F07E
:105980007FFA10BDF0B5CE46474680B583B06B4672
:105990000600DD1D2870FCF77FFE0023194A12184F
:1059A0004B41002B02DA0122174B524217490800E3
:1059B000884605F021FF164B81461C68002C14D048
:1059C000144F02E02469002C0FD02368002BF9D07B
:1059D0003B68002B01D09C42F4D120000122290019
:1059E000FFF7DEFE2469002CEFD14B46002B05D1DA
:1059F000300003B0C0BCB946B046F0BD404605F02B
:105A0000CBFEF5E740420F00FFFFFF7F201600208E
:105A10006C2200207822002070B5040005F02AFDD9
:105A200001230100050001222000FFF711FF084BB0
:105A30001C68002C06D06368002B05D098472469A9
:105A4000002CF8D1280070BD2469002CF3D1F9E7AF
:105A50006C2200207047C0460022014B1A7070472C
:105A6000403002204B790020FF2B0BD18B79002B8B
:105A700008D1CB79012B05D1082A03D9024B8A78AA
:105A800009301A707047C04640300220012070472C
:105A900010B5012913D112495379107909781B02E5
:105AA00003430020994200D010BD5378012B08D049
:105AB000022BF9D1642200210020FCF74DFF0120C8
:105AC000F2E7D37891781B021943480ADB0501D429
:105AD000012040427F238A05D20F1940FCF7C4FF02
